:100000000C94623C0C94CD3C0C94CD3C0C94CD3CB7
:100010000C94CD3C0C94CD3C0C94CD3C0C94CD3C3C
:100020000C945E410C94CD3C0C94CD3C0C94CD3C96
:100030000C94CD3C0C941D3F0C945C3F0C94CD3C37
:100040000C94CD3C0C94CD3C0C94CD3C0C94CD3C0C
:100050000C94CD3C0C94CD3C0C94CD3C0C94CD3CFC
:100060000C94CD3C0C94CD3C0C94CD3C0C94CD3CEC
:100070008100450027FF24FF2A902B1C210C22FB26
:10008000850084008903888D81096F0244424700FE
:100090004501B083B300B10125118A1D8B035A5568
:1000A00001200101003808000000000000000000ED
:1000B00000000000000000000000000000003C43C1
:1000C0003F439B439F43A64347434C435143AE4367
:1000D000544357435A4395439843BE430040889145
:1000E000D2E4ADB5B6BEBFFF41542B434950434C9B
:1000F0004F53450D0A004F4B0D0A0041542B434905
:10010000504D4F44453D300D0A004F4B0D0A002B1A
:100110002B2B0041542B43495053454E440D0A00AC
:1001200041542B4349504D4F44453D310D0A004F3A
:100130004B0D0A0041542B43495053544152543DF6
:1001400022554450222C223139322E3136382E3469
:100150002E31222C323233332C313030310D0A0023
:100160004F4B0D0A0041542B4349505354415F43B8
:1001700055523D223139322E3136382E342E32222C
:100180000D0A004F4B0D0A004F4B0D0A0041542B36
:1001900043574C41500D0A004F4B0D0A0041542B60
:1001A0004357444843505F4355523D312C300D0A6C
:1001B000004F4B0D0A0041542B43574D4F44455FB0
:1001C0004355523D310D0A004F4B0D0A0041542B4F
:1001D00043495053454E440D0A0041542B43495066
:1001E0004D4F44453D310D0A004F4B0D0A0041541F
:1001F0002B43495053544152543D22554450222CD4
:10020000223139322E3136382E342E32222C3130F2
:1002100030312C323233332C300D0A004F4B0D0A63
:10022000004F4B0D0A004F4B0D0A0041542B434920
:100230005041504D41435F4355523F0D0A004154D8
:100240002B43495041505F4355523D223139322EA4
:100250003136382E342E31220D0A004F4B0D0A0054
:1002600041542B4357444843505F4355523D302C33
:10027000300D0A004F4B0D0A0041542B43574D4F90
:1002800044455F4355523D320D0A004F4B0D0A0065
:1002900041542B554152545F4355523D3134343013
:1002A000302C382C312C302C300D0A004F4B0D0ADD
:1002B0000041540D0A004F4B0D0A007201F600B8C0
:1002C000005C003C002C001E0054414E4B20465563
:1002D0002056332E3020464F5220555A45424F5813
:1002E000000000000050524F4752414D4D494E47CB
:1002F00020414E442044455349474E00004C41574D
:1003000052454E43452042524F4F4B530000000090
:10031000004C4F4F4B494E4720464F5220574946BD
:1003200049204445564943452E2E2E002300000106
:10033000140D000102140E000203140F0003041434
:10034000100004051411000506141200555A454CFE
:100350004A42414141424242434343444444454569
:1003600045464646474747435055202020424F4F79
:10037000542043414D502020200020544845204225
:100380005249434B59415244200020202056454CAD
:100390004F43495459202020200020202054484514
:1003A000204D415A45202020200020202052494342
:1003B000484F4348455420202000205448452048B9
:1003C0004F4E455920504F5420002020464F434166
:1003D0004C20504F494E5420200049542753204E62
:1003E0004F54204641495221200020204D5543487A
:1003F0002042455454455220200020202054484596
:100400002043414E414C20202000202054484520CC
:10041000484152424F5552202000504155534544C7
:10042000004241494C202D205800544F54414C3A31
:100430000053434F52453A0046494E414C205343E6
:100440004F5245004259004F574E530045444954BE
:10045000202D2055502F444F574E00503200503120
:10046000003B005F5F5F5F5F5F5F5F5F5F5F0045F7
:100470004449542048414E444C450054414E4B2081
:1004800052414E4B0032303135204C415752454E8F
:1004900043452042524F4F4B530053454C45435424
:1004A000202D2053544152540043414E43454C208B
:1004B0002D20580052455345542044454641554C43
:1004C0005453202D20534C202835532900434F4EA0
:1004D0004649524D202D20412F5354415254004A39
:1004E0004F494E204E45542047414D4500484F53FB
:1004F00054204E45542047414D4500504C415945EC
:100500005220565320504C4159455200504C4159AD
:1005100045522056532043505500020E0E0000E372
:1005200006E40602C70B00004502460202160A0056
:1005300000AF01B00102F60700001E021F02028494
:100540000600007001710102C70B0000450246025F
:10055000020E0E0000E306E4060000006205000043
:100560000000000202000432010301010301010343
:100570000101030101030101030101030101030161
:100580000103010103010103010103010103010151
:10059000030101030101030101040101040101043C
:1005A000010104010104010104010104010104012C
:1005B000010401010401010401010401010401011C
:1005C000040101040101030101030101030101030D
:1005D0000101030101030101030101030101030101
:1005E00001030101030101030101030101030101F1
:1005F00003010103010104010104010104010104DB
:1006000001010401010401010401010401010401CB
:1006100001040101040101040101040101040101BB
:1006200004010103010103010103010103010103AD
:1006300001010301010301010301010301010301A0
:100640000103010103010103010103010103010190
:100650000301010401010401010401010401010479
:10066000010104010104010104010104010104016B
:10067000010401010401010401010401010401015B
:10068000050000FF00FCFEFEF3EDF0031724180F39
:100690000901F7F2F4F900FBF4F0F5FC0201FBF8B4
:1006A000FB02090A0700FFFF01000002030300FF2D
:1006B000000302FFFEFFFFFEFCFBFC010303010041
:1006C000FFFEFEFF0001000000000102020200FE2A
:1006D000FDFCFCFBFAFD0000FEFDFE000305050429
:1006E00000FEFCFDFE02080903FAF7F8FDFF000119
:1006F00001FDFCFE00020301FDFBFCFF01050402FD
:1007000001010000FFFF010100FEFEFFFFFF0101EC
:10071000FFFEFDFCFCFE0001020200FFFFFEFEFFEB
:1007200000000001FFFDFCFE00010201FFFEFEFDD6
:10073000000205040200FEFEFCFEFF020302FEFBB7
:10074000FAFBFDFE000101FFFFFFFFFDFD00010AB6
:100750000A0700F8F3EFF6FE0B10110B00F6EEEFB0
:10076000F4FF080D0E0A03F9F4F0F4FC040C0D0D6F
:1007700006FEF4EFF1F7020A0E0D06FDF4F0F2FAB0
:10078000030B0D0A04FDF8F5F6FB03090A0802FC49
:10079000F7F5F6FA000507070502FEFBF8F9FD0379
:1007A000080A0700F9F4F5F901090C0A03FCF7F54A
:1007B000F8FB000509080400FCFAF8FAFD050A0B2D
:1007C00006FFF9F6F5F7FD040A0A05FFF9F7F7FA4F
:1007D000FE0408080500FCFAFAFCFF020506040006
:1007E000FBF8F8FBFF03060704FFFBF8FAFD010323
:1007F0000403010000000000FF00FF00FE03FCED09
:10080000EDEDED110F111111111110100A11110D53
:100810000108FA0BFBFCF601F900F2F5FA0201FF00
:10082000FFFBFEF903F7FFFF07FBF6FBFA04FF01EE
:10083000F707F801F2FDF80AFDFAF7F405FF03F4F3
:1008400006FA0AF503FA0C0308FD01040206FD028C
:10085000FE07F9FEF7010304FFF9F40302FAFA00B8
:100860000205FD0202080806030101FD01F701FC73
:1008700003F9FEF3FFFD02FEFF00FF06FA04FC078A
:10088000FC02F402FF080504030405FA03F3FFF871
:1008900000F7FEFA0300FEFFFE070105FC00FE0B59
:1008A000FF01FD0204FFFEFCFEFB01F8FEFD060158
:1008B00002F902030400FDFEFFFEFCFEFC0304023D
:1008C000FF0000040100FE00FF02FFFDFEFEFFFA34
:1008D000FDFAFFFC00FE02FF030101030304030213
:1008E000FD00FE00FDFFFDFFFDFCFBFD00FF00FD28
:1008F0000000030102000000FEFDFD0001030000F6
:100900000001010000FF01FFFFFC00FF00FEFDFDF4
:10091000FEFFFD00FE030002FF01020201FEFFFEDA
:1009200001FE00FC00FE00FEFFFFFF02FE00FD02D4
:10093000FF02FF01010200FE00FE02FE00FD00FDBD
:1009400000FDFFFF0000FEFFFD01FF01FE00FF00B4
:10095000FFFE0000020001FE010001FFFEFFFEFE9F
:10096000FDFEFD01FF01FF010102000001FE00FD8F
:10097000FFFE010000FFFF00FF00FE00FE00FEFE84
:10098000FE00000000FE01FF01FF00FF01FFFFFF6E
:1009900000010000FF00FE00FEFFFEFFFFFFFFFF63
:1009A00001FF00FF00FF00FFFFFF00000000FF014C
:1009B0000001FF00FFFFFFFEFDFEFEFEFFFF000047
:1009C0000101010101010000FF00FFFFFEFFFFFF29
:1009D00000FF000000FFFFFEFEFEFEFEFEFFFF0028
:1009E0000001000101010000000000FFFFFFFFFE09
:1009F000FFFEFFFFFFFFFFFFFFFFFFFF0000000004
:100A0000FF00000000000001010000FF0000FFFFE8
:100A1000FEFFFFFF0000FFFFFFFF00000000FFFEE2
:100A2000FF00010100FFFEFEFF010100FFFEFEFFCF
:100A3000000101FFFEFEFF00020100FEFDFE0002BC
:100A40000200FEFDFD00020201FEFCFD00020301AA
:100A5000FEFCFD00030301FEFBFC00030401FDFBA3
:100A6000FC00030401FDFBFC01040400FCFAFD0191
:100A7000050400FBFAFD020604FFFAF9FE04070470
:100A8000FEF9F9FF050703FCF8FA00060701FAF87A
:100A9000FC030705FEF8F8FE060803FBF7FA020858
:100AA0000700F8F7FD050905FCF6F801080801F84C
:100AB000F6FC060A05FBF5F802090800F7F6FD0743
:100AC0000A04FAF5F9030A08FEF5F6FF090B03F824
:100AD000F3FA060C07FBF3F6020B0A00F5F3FD0927
:100AE0000D04F7F2F9060D08FBF2F5020C0B00F409
:100AF000F3FE0A0C03F7F2FA070C06FAF3F8040CFB
:100B000008FDF4F6010A09FFF7F6FE070802F9F7F7
:100B1000FD050803FBF8FC030603FDFAFD010302D3
:100B2000FEFCFE010200FEFE000201FEFCFE0204CD
:100B300002FDFAFC030603FCF8FB030805FDF7FAC7
:100B4000020706FEF8F9000605FFFAFAFF040501A0
:100B5000FCFBFE030401FDFCFE010201FFFEFE00A2
:100B6000010100FEFDFF010100FFFEFF000000008B
:100B7000FFFFFFFF000100FFFEFE000101FFFEFE80
:100B8000000201FFFDFF010200FEFDFF010200FE69
:100B9000FDFF010200FEFE000101FFFEFF0001005B
:100BA000FEFEFF0101FFFEFEFF010100FEFEFF0051
:100BB0000101FFFDFEFF010200FEFDFF010100FF3C
:100BC000FEFF0000000000FFFFFEFEFEFEFEFFFF36
:100BD000FFFF000000000000FFFFFF00000000001A
:100BE0000000010101010101000000FFFFFFFFFF04
:100BF0000000FFFFFFFFFFFFFFFFFFFFFF000001FF
:100C00000203030303030100FEFDFCFAFAF9F9F9FC
:100C1000FAFAFBFDFEFF010203030303020100FFDA
:100C2000FEFEFEFEFEFEFFFF0000010203040404C0
:100C300004030202010000FFFFFFFFFFFEFEFEFEB5
:100C4000FEFEFEFFFF000102030304030302010096
:100C5000FEFDFBF9F8F7F6F6F7F8FAFCFE000204E1
:100C6000050607070706050301FFFCFAF9F8F8F97E
:100C7000FBFCFE000203040505060505040201FF56
:100C8000FEFEFDFDFDFEFFFF0000000000FFFFFF78
:100C9000FEFEFEFDFDFDFEFF00020406070707063F
:100CA000050300FDFBF8F7F5F4F4F4F5F7F9FBFEA6
:100CB000010407090A0B0A08060401FFFCFAF9F807
:100CC000F7F7F8F9FBFDFF02040607070706040221
:100CD0000100FFFEFDFDFDFDFEFEFF000001010124
:100CE000010000FFFEFEFEFEFEFF00010203040500
:100CF00006070706050300FDFAF8F5F4F3F2F3F42E
:100D0000F6F8FAFD000306080A0B0B0A09070402AD
:100D1000FFFCFAF9F8F7F7F8F9FBFD000203050606
:100D20000606050403020100FFFEFDFDFDFDFEFFBA
:100D30000000010101010000FFFFFEFEFFFFFF00B8
:100D40000000000001010202030303020100FEFC97
:100D5000FBFAF9F9F9F9FAFBFCFDFEFF01020304C5
:100D60000405040403020100FEFDFDFCFCFCFDFD86
:100D7000FEFF000101020203030302020201000060
:100D8000FFFEFEFDFEFEFEFF00000101010101016C
:100D900001010100000000FFFFFEFEFEFFFFFFFF5C
:100DA000FFFFFEFEFEFEFEFF00010102010100FF4B
:100DB000FEFEFDFDFDFDFDFDFDFDFDFEFEFF000156
:100DC0000203030303020100FFFFFFFFFFFFFEFE1C
:100DD000FEFEFEFEFFFF0001020202020101000012
:100DE0000000000000000000FFFFFFFFFFFF000009
:100DF0000000FFFFFFFFFEFFFFFFFFFFFFFFFFFF02
:100E0000FFFFFFFFFFFFFFFFFFFFFFFF000000FFEF
:100E100000FF00000000000000FF00FFFFFFFFFFD9
:100E2000FFFFFFFF00000000000000000000FFFFC8
:100E3000000000000000FFFF000000FFFFFFFFFFB9
:100E4000FFFFFF0000000000000000000000FF00A6
:100E5000FF000504030602FCFEFBFAFBF7F6F8F8B8
:100E6000FBFF000507060608090803FFFEFDFEFC60
:100E7000F8FBFBFC0100FDFDFF01030402FF000085
:100E8000FF0102FEFE0303FFFFFFFEFE0000FEFF68
:100E9000FEFC0104FFFCFD0100FDFFFDFF03FFFE62
:100EA00001FFFE0203FFFD00FFFF01FFFEFCFCFC53
:100EB000FB010506090B080401FFFDFAF8F8F7F835
:100EC000F8FAFE01FFFF030404050606040301000F
:100ED000FFFEFDFDFFFEFCFDFDFCFCFDFF02080624
:100EE0000403FEFDFBFAFBF8F8FAF8FC0103050623
:100EF0000808070503040401FAF9FCFBFAFCFAFDF3
:100F0000FEFC00010105060105030002000002FDD0
:100F1000FDFEF7FAFFFEFFFFFD0201FFFF010300E8
:100F20000004010002FEFDFDFCFAFC0503FE0100C9
:100F3000FD0001FFFFFF010101FFFBFAFDFCFBFCCF
:100F4000FF00060C0A0B0C070401FDF9F3F2F6F69C
:100F5000F6F9FBFCFFFF000507070708070402037B
:100F600001FFFFFCFAFCFBFAFCFEFEFDFEFDFDFFAF
:100F7000010103050301020301000201FFFFFFFF5E
:100F8000FF00010A1209FEF5F0EDEEF1F1F0F2F7C3
:100F9000FE0811120F0F0E0C0B080502FCFAF2EFFF
:100FA000F2F40100F5FB04FF000506020102FEFD5C
:100FB0000200040F0A02FFFF0301F9F5FAFCF7F63D
:100FC000FE0201FF0301FEFF0000FEFCFD0102FF27
:100FD00000070603FFFDFEFEFAFAFEFDFAFC000024
:100FE000FEFEFF0001FEF8FE0F110D100E0905FFB9
:100FF000FBF8F3F0F2F3F4F5F9FDFCFE0203030550
:1010000006090B0804030403FEFBFEFFFBFAFCFCCD
:10101000FBFBFCFAF8FAFD010505040404020205D5
:101020000603030301FEFEFF0100FEFBFBFBFBF9D1
:10103000FBFEFDFDFB0213180D00F8F5F2F2F9F9C5
:10104000EFEEF901070A0B0C0903FF01070801FB8A
:1010500000FFF4F90101F9F3020BFFFD050C10FF8D
:10106000FB02FBF7FBFF0203FDFB010202FEFD0496
:10107000FDFA0000FFFF0102FEFAF8FEFF00FCFC93
:101080000300FDFE0505FEFE0505FFFAFD05030153
:10109000010001F8F7FCFE0000FFFFFF0101000363
:1010A00003FBF8F4F00417170F090D0B0602FAF30F
:1010B000EEEBEEF2F2F5F8FAFFFE0004060B0C0A76
:1010C000090807050302FEFBFCFEFCFBFDFCFBFA26
:1010D000F9FBFDFEFE0107060102050603030300FE
:1010E000FDFCFBFFFFFF01FEFDFEFEFF00FEFEFC20
:1010F000FAFCFDFD0719180AFFF9F5F2F1F1F1EF1D
:10110000F1F8FE050B08060C0D05030C0800FFFCAA
:10111000F8F6FA020000020401FE020702FBFAFEE2
:1011200000F9FB0200FE03FEF70203020704FFFEC4
:10113000FE02FC0008FDF8F9FBF6F9FFFEFC0005D5
:10114000F8FF0A00070402FEFF03030106FEFB0688
:1011500002FCFFFBF6F6FCFFFC0001FF020701FCAE
:101160000405FC0005FDFEFFFEFDF9F8EEFC14147D
:10117000110F0A070400F8F3F5F2EFF0F3F4F7FCAF
:10118000FE010408090A090B0A07050401FEFBFA1F
:10119000FFFFFBFCFDFDFAFBFCFEFDFEFE00050370
:1011A000010000000001FFFF0300FE010202FF003A
:1011B00001FDFEFFFEFAFBFF00FEFBFE0100FF0B40
:1011C00020170BFFEFEBF1F0F3F2F0EDF0FB000670
:1011D0000F0F0F0F0D100C0B0800F6F2ECF1FEFDD7
:1011E000FCFCFC0602FE06020704F90102FCFE00FC
:1011F000080AFAFCFAFB07FBFBFEFD01FCFD0203FB
:10120000050400FFFDF80300F5F9FCF7FA01070EED
:101210000303060003FFFDFEFCFD00FBFEFCF6FDE4
:10122000020504FF020200030303FCFAFE01FC00B6
:101230000603FFFBFCFD0000FE0002FDFEFEFBFEC0
:10124000F3F60C10100E080A0601FEF8F5F3F2F2A0
:10125000F1F2F7FB000401020508070B110F05FF6F
:101260000300FAFAFF03FFFBFAF7F6F8F7FAFF01BB
:10127000FDFA010605020507050001050603010048
:10128000FEFDFE00FEFAF9F8FAFCFF0202FEFCFD8C
:101290000002020404020004030717170B00F5EC18
:1012A000E9EAEAECF0F3F6F7FB0610111314131158
:1012B0000B080603FCF9F6EFF1FAFDFBFCFEFAFA67
:1012C0000204030808030101010405FDFAFCF9FB0F
:1012D000FF0102FD0102FB0007010404F9FBF9F51F
:1012E000FBFA04FDFE02FE05060C0D060600FEFBE1
:1012F000F8F8F8F9FAF7F4F6F8FE00070908090714
:101300000407040404FF0100FCFBFBFDFEFCF9FBE9
:10131000F8F9FCFE020200FEFF0202010303FCF6E4
:10132000FC0B0F0D0D090A0902FEF6EEEEEFF2F6C8
:10133000F9FCF9FBFCFF06080C100E0B0802010279
:101340000300FEFBF6F7F7F8FCFCFCF7F8F8FBFFF0
:1013500003090B06040606020000FEFEFEFF010064
:10136000FFFEFDFEFDFDFEFEFF00FFFDFFFEFBFD9F
:10137000000202030605040301FF0101FFFF01FC57
:10138000F9F9F7F7FAFF0D180E02FCF1EFF5F4F595
:10139000F9FCFDFF0506060C0B080909080702FE0B
:1013A000FBF4F0F1F5FCFEFC0201FE01050503056E
:1013B0000501010201000505FDFAF9F4F70000FF3F
:1013C000FE00FEFC04060105050001FFFDFFFCF91F
:1013D000FBFBFDFDFD04030405FEFEFF0101FBFF19
:1013E0000400FDFEFAFCFDFF03020603FF0401FEFC
:1013F000FFFFFDFDFFFFFDFE01FCFE0000030100FD
:10140000030301FEFD00FEFBFDFDFFFBF7FF0506EC
:10141000090A0D0E0A03FEF5F0F1F6F9F9FBFBFBE4
:10142000FCFDFF0405060807060405050303FFFD90
:10143000FAFDFBF9FDFEFEFBF9FAFAFAFE040705D8
:10144000010102FF0102010000010202010000028D
:1014500001FEFF0001FCFAFCFAFAFCFCFE010306A7
:101460000706050400FDFE00000102FFFCFBFBF97E
:10147000FAFDFDFE0002020001000003030202016A
:1014800000FFFF01FFFEFF050C01FAF9F5F3F6F886
:10149000FAFFFFFF0202020304040607080806051C
:1014A00003FDFCFCF6F6FAFAF8FBFDFCFE01020374
:1014B000030305060508060204FEF9FBFAFCFDFD20
:1014C000FEFFFBFAFDFCFCFF01010302010502FE29
:1014D0000403FF0403000201FEFCFDFCFAFDFDFC19
:1014E000FEFBFCFBFAFEFF000505050605060404ED
:1014F00002010002020202020202020202020202CF
:1015000002020202020202020202020202020202BB
:1015100002020000000000000000000000000000C7
:1015200000000000000000000000000000000202B7
:1015300000000006050000000000000000000000A0
:10154000000000000042424242424200020200000B
:10155000060202050000000000000000000000007C
:10156000000000424D4D4D4D4200020200060202B5
:101570000202050000000000000000000000000062
:1015800000424D4D4D4D4200020200040202020293
:101590000300000000000000000000000000004206
:1015A0004D4D4D4D420002020000040202030000B6
:1015B00000000000000000000000000000424D4D4F
:1015C0004D4D420002020000000403000000000034
:1015D00000000000000000000000004242424242C1
:1015E00042000202000000000000000000000000B5
:1015F00000020200000000000000000000000000E7
:1016000002020000000000000000000000000002D4
:1016100002000000000000000000000000000202C4
:1016200000000000000000010101010100020200B1
:1016300001010101010000000000000002020000A1
:10164000000000000001010101010002020001018F
:10165000010101000000000000000202000058002B
:10166000000000010101010100020200010101016D
:101670000100000063000000020200000000000002
:10168000000101010101000202000101010101004C
:101690000000000000000202000000000000000145
:1016A000010101010002020001010101010000002D
:1016B0000000000002020000000000000000000026
:1016C0000000000202000000000000000000000016
:1016D0000000020200000000000000000000000006
:1016E00000020200000000000000000000000000F6
:1016F000020200424242424242000000000000005A
:1017000000000000000000000006050000000202CA
:1017100000424D4D4D4D4200000000000000000011
:101720000000000000000602020500000202004264
:101730004D4D4D4D42000000000000000000000033
:1017400000000006020202020500020200424D2CC7
:101750004D4D4200000000000000000000000000AD
:101760000004020202020300020200424D4D4D4DF0
:101770004200000000000000000000000000000027
:1017800004020203000002020042424242424200BE
:101790000000000000000000000000000000000445
:1017A0000300000002020000000000000000000032
:1017B0000000000000000000000000000000000029
:1017C00000000202020202020202020202020202FD
:1017D00002020202020202020202020202020202E9
:1017E00002020202020202020202020202020202D9
:1017F00002020202020202020202020202020202C9
:1018000001010100000000000000000000000000D5
:1018100000000000000000000000000002020101C2
:1018200001000000000000000000000000000000B7
:1018300000000000000000000000020201010101A0
:10184000010101010000010101010101010100008C
:101850000101010101010101020201010101010176
:10186000010100000101010101010101000001016C
:101870000101010101010202010101010101010156
:101880000000010142424242010100000101010148
:10189000010101010202010000000001010100003C
:1018A0000101424D4D420101000001010100000013
:1018B000000102020100000000010101000001011D
:1018C000422C4D4201010000010101000000000115
:1018D0000202010000000001010100000101424D6F
:1018E0004D4201010000010101000000000102025F
:1018F00001000000000101010000010142424242DA
:1019000001010000010101000000000102020100CC
:1019100000000000000100000101010101010101BE
:101920000000010000000000000102020100580058
:101930000009000100000101010101010101000095
:101940000100090000000001020201000000000087
:101950000001000000000000000000000000010085
:10196000000063000001020201000000000101010B
:10197000000001010101010101010000010101005C
:10198000000000010202010000000001010100004E
:10199000010101010101010100000101010000003C
:1019A000000102020100000000010101000001012C
:1019B0004242424201010000010101000000000119
:1019C0000202010000000001010100000101424D7E
:1019D0004D4201010000010101000000000102026E
:1019E000010101010101010100000101424D4D42CF
:1019F00001010000010101010101010102020101D7
:101A000001010101010100000101424D4D420101AE
:101A100000000101010101010101020201010101B6
:101A200001010101000001014242424201010000A6
:101A30000101010101010101020201010101010194
:101A4000010100000101010101010101000001018A
:101A50000101010101010202010101010101010174
:101A6000000001010101010101010000010101016A
:101A7000010101010202010101000000000000005B
:101A80000000000000000000000000000000000155
:101A9000010102020101010000000000000000003D
:101AA0000000000000000000000000000001010133
:101AB0000202020202020202020202020202020206
:101AC00002020202020202020202020202020202F6
:101AD00002020202020202020202020202020202E6
:101AE00002020202020202020202020202020000DA
:101AF00000000000000000000000000000000000E6
:101B000000000000000000000000020200000000D1
:101B100000000000000000000000000000000000C5
:101B200000000000000000000202000000000000B1
:101B300000000000000000000000000000000000A5
:101B40000000000000000202000000000000000091
:101B50000000000000000000000000000000000085
:101B60000000000002020000000000000000000071
:101B70000000000000000000000000000000000065
:101B80000000020200000000000000000000000051
:101B90000000000000000000000000000000000045
:101BA000020201010101010100000000000000002B
:101BB000000000000000000001000000000102021F
:101BC0000100000000010000000000000000000013
:101BD00000000000000001000000000102020100FE
:101BE00000000001000000000200000000000002F0
:101BF000000000000100070000010202010058007F
:101C000000010000000002000000000000020000CF
:101C100000000100000000010202010000000001BC
:101C200000000000020000000000000200000000B0
:101C3000010000000001020201000000000100009C
:101C40000000020202020202020200000000010083
:101C5000000000010202010000000001000000007D
:101C6000020000000000000200000000010000006F
:101C7000000102020100000000010000000002005B
:101C80000000000000020000000001000000000150
:101C9000020201000000000100000000020000003C
:101CA00000000002000000000100630000010202C9
:101CB000010000070001000000000000000000001B
:101CC000000000000000010000000001020201000D
:101CD0000000000100000000000000000000000003
:101CE00000000000010000000001020201000000ED
:101CF00000010000000000000000000000000000E3
:101D000000000101010101010202000000000000C9
:101D100000000000000000000000000000000000C3
:101D200000000000000002020000000000000000AF
:101D300000000000000000000000000000000000A3
:101D4000000000000202000000000000000000008F
:101D50000000000000000000000000000000000083
:101D6000000002020000000000000000000000006F
:101D70000000000000000000000000000000000063
:101D8000020200000000000000000000000000004F
:101D9000000000000000000000000000000002023F
:101DA0000202020202020202020202020202020213
:101DB0000202020202020202020202020202020203
:101DC00002020202020202020202020202020202F3
:101DD00002020202020202020202020200000042A9
:101DE0004D4D4D42000000000000000000000000CA
:101DF000424D4D4D420000000202000800424D4D90
:101E00004D42000000000000000000000000424DB4
:101E10004D4D420008000202000000424D4D4D426F
:101E2000000101010000000001010100424D4D4D83
:101E3000420000000202020202024242420200018B
:101E400001010002020001010100024242420202BD
:101E50000202020200000000000000020001010175
:101E60000002020001010100020000000000000069
:101E70000202000101010101000200000000000255
:101E80000200000000000200010101010100020245
:101E90000001010101010002000000020202020231
:101EA0000200000002000101010101000202000124
:101EB000010101010002000000000000000000001C
:101EC0000000020001010101010002020000000007
:101ED0000000000000000000000000000000000002
:101EE00000000000000000000202020202020000E6
:101EF00000000000000000000000000000000000E2
:101F000000000202020202000000000200000000C5
:101F10000058000200000000020000000000000065
:101F200002000000000000000002000000020000AB
:101F30000002000000000263000002000000020036
:101F4000000000000000000200000002000000028B
:101F50000202020202000000020000000200000073
:101F60000002020202020000000200000000000065
:101F70000000000000000200000002020202020253
:101F80004D4D4D4200000002000000000000000026
:101F90000000000002000000424D4D4D02024D4D78
:101FA0004D420000000200000000000000000000A0
:101FB000000002000000424D4D4D02024D2C4D42EA
:101FC0000000000200000002020202020200000003
:101FD00002000000424D4D4D02024D4D4D020000E9
:101FE00000000000000000020200000000000000ED
:101FF0000000024D4D4D02024D4D4D020000010109
:1020000001000000000202000000000101010000C8
:10201000024D4D4D02024242420200000101010008
:102020000000000202000000000101010000024265
:102030004242020200000002000001010100000013
:10204000000000000000000101010000020000008B
:102050000202000800020000000000000000000969
:102060000000000000000000000002000800020262
:10207000000000020000000000000000000000005E
:102080000000000000000000020000000202020246
:102090000202020202020202020202020202020220
:1020A0000202020202020202020202020202020210
:1020B0000202020202020202020202020202020200
:1020C00002020202020202020202020203000000F5
:1020D0000000000000000000000000000000000000
:1020E00000000004020202020203000000000000DF
:1020F00000000000000000000000000000000000E0
:1021000000000402020203000000000000000000C2
:1021100000000000000000000000000000000000BF
:10212000000402020000000000000605000000009C
:102130000000080000000000000000000000000097
:10214000020200000000000602020500000000007C
:10215000000000000000000000000000000002027B
:102160000000000006024D4D0205000000000000C6
:10217000000000000000000000000000020200005B
:10218000000004024D4D02030000000000000000AA
:10219000000000000000000000000202000000003B
:1021A0000004020203000000000000000000000024
:1021B000000000000000000002020000000000001B
:1021C00004030000000000060500000000000000FD
:1021D00000000000000002020000000000000000FB
:1021E00000000000060202050000000000000000E0
:1021F00000000000020200000000000000000000DB
:1022000000060201010205000000000000000000BD
:10221000000002020000580000000000000000045E
:102220000201010203000000000000006300000042
:102230000202000000000000000000000000040294
:102240000203000000000000000000000000020285
:102250000000000000000000000000000004030077
:10226000000000000000000000000000020200006A
:10227000000000000000000000000000000000005E
:10228000000006050000000000000202000000003F
:102290000000000000000000000000000000000638
:1022A0000202050000000000020200000000000021
:1022B00000000000000000000000000006024D4D7C
:1022C0000205000000000202000000000000000003
:1022D0000000000000000000000004024D4D020359
:1022E00000000000020200000000000000000000EA
:1022F00000000000000000000004020203000000D3
:1023000000000202000000000000000000000000C9
:1023100000070000000000000403000000000000AF
:1023200002020500000000000000000000000000A4
:102330000000000000000000000000000006020293
:102340000205000000000000000000000000000086
:10235000000000000000000000000602020202026D
:102360000500000000000000000000000000000068
:102370000000000000000006020202020202020247
:10238000020202020202020202020202020202022D
:10239000020202020202020202020202020202021D
:1023A000020202020202020202020202020202020D
:1023B000020202020202020200000000000000000D
:1023C00000000402020202020203000000000000FA
:1023D00000000000020200000000000000000000F9
:1023E00000040202020203000000000000000000DE
:1023F00000000202000001010101000000000000D5
:1024000004020203000000000000010101010000BD
:1024100002020000010101010000000000000004B0
:1024200003000000000000000101010100000202A1
:102430000000010101010000000000000000000098
:102440000000000000000101010100000202000084
:102450000101010100000000000000000000000078
:102460000000000001010101000002020000000064
:10247000000000000000000000000000000000005C
:102480000000000000000000020200000000000048
:102490000000000002000000000000020000000038
:1024A0000000000000000202000000000000000028
:1024B000000002424242424242020000000000008C
:1024C0000000000002020000000000000000000008
:1024D000024D4D4D4D4D4D0200000000000000002A
:1024E0000000020200580000000000000000024D41
:1024F0004D4D4D4D4D0200000000000000630000F6
:10250000020200000000000000000000024D4D2CFF
:102510004D4D4D02000000000000000000000202CE
:1025200000000000000000000000024D4D4D4D4D28
:102530004D02000000000000000000000202000048
:1025400000000000000000000242424242424202FB
:102550000000000000000000000002020000000077
:102560000000000000000200000000000002000067
:102570000000000000000000020200000000000057
:102580000000000002000700000900020000000037
:102590000000000000000202000000000000000037
:1025A000000002050000000006020000000000001C
:1025B0000000000002020000000001010101010012
:1025C00002020500000602020001010101010000F3
:1025D00000000202000000000101010101000202EE
:1025E00002020202020200010101010100000000DA
:1025F00002020000000001010000000000000000D5
:1026000000000000000000000101000000000202C4
:1026100000000000010100080000000000000000B0
:10262000000000000800010100000000020200009C
:102630000000010100000000000000000000000098
:102640000000000001010000000002020000000084
:10265000000000000000000000000000000000007A
:10266000000000000000000002020202020202025A
:10267000020202020202020202020202020202023A
:10268000020202020202020202020202020202022A
:10269000020202020202020202020202020202021A
:1026A0000202020202020203000000000000000019
:1026B0000402020202020203000000000000000007
:1026C00004020202030000000000000000000004F9
:1026D00002020202030000000000000000000004EB
:1026E00002020000000101010101000000000402DB
:1026F00002030000000001010101010000000202CC
:1027000000000001000000010000000000040300C0
:1027100000000000010000000100000002020000B3
:10272000000100090001000000000000000000009E
:10273000000001000700010000000202000000018B
:102740000000000100000000000000000000000088
:102750000100000001000000020200000001010170
:102760000101000000000000000000000000010165
:102770000101010000000202000000000000000052
:102780000000000000000000000000000000000049
:102790000000000002020500000000000000000030
:1027A0000000000000000000000000000000000029
:1027B0000006020202050000000000000000000107
:1027C00001010101010100000000000000000602FB
:1027D0000202020205005800000000000001000093
:1027E0000000000100000000630000060202020277
:1027F00002020300000000000000000100000800C9
:1028000000010000000000000004020202020203B6
:1028100000000000000000000001000000000001B6
:10282000000000000000000004020202030000009B
:102830000000000000000001010101010101000091
:102840000000000000000004020200000000000080
:102850000000000000000000000000000000000078
:102860000000000000000202000000000000000064
:102870000000000000000000000000000000000058
:10288000000000000202000000010101010100003F
:102890000000000000000000000001010101010033
:1028A0000000020200000001000000010000000022
:1028B0000000000000000000010000000100000016
:1028C00002020000000100070001000000000000FB
:1028D00000000000000001000900010000000202E9
:1028E00000000001000000010000000000060500DB
:1028F00000000000010000000100000002020000D2
:1029000000010101010100000000060202050000B3
:1029100000000101010101000000020205000000A9
:102920000000000000000006020202020500000094
:102930000000000000000006020202050000000086
:102940000000000006020202020202050000000070
:10295000000000000602020202020202020202025B
:102960000202020202020202020202020202020247
:102970000202020202020202020202020202020237
:102980000202020202020202020202020202020227
:10299000020202020000000000000000000000002F
:1029A0000000000000000000000000000000000027
:1029B0000202000000000000000000000000000013
:1029C0000000000000000000000000000000020203
:1029D00000000000000000000000000000000000F7
:1029E00000000000000000000000000002020000E3
:1029F00000000000000000000000000000000000D7
:102A000000000000000000000000020200000000C2
:102A1000000000020202020202020202020202029C
:102A200002000000000000000202000000000000A0
:102A30000000000000000000000000000000000096
:102A40000000000000000202000000000000000082
:102A50000000000000000000000000010101010171
:102A6000010101010202000007000009000000004E
:102A7000000000000000000000010101010101014F
:102A80000101020200000000000000000000000040
:102A90004242424200000001010101010101010125
:102AA0000202000000000000000000000000424D93
:102AB0004D4200000001010100000000010102027E
:102AC000000000580000000000000000424D4D4290
:102AD000000000010101006300000101020200008A
:102AE00000000000000000000000424D4D420000C8
:102AF00000010101000000000101020200000000CD
:102B00000000000000000000422C4D4200000001C7
:102B100001010000000001010202000000000000AD
:102B2000000000000000424D4D4200000001010184
:102B3000010101010101020200000000000000008B
:102B40000000000042424242000000010101010178
:102B5000010101010202000000000000000000006D
:102B6000000000000000000000010101010101015E
:102B7000010102020000000000000000000000004F
:102B80000000000000000000000000000000000045
:102B90000202000000000000000000000000000031
:102BA0000000000000000000000000000000020221
:102BB0000000000000000002020202020202020203
:102BC00002020202020000000000000002020000F7
:102BD00000000000000000000000000000000000F5
:102BE00000000000000000000000020200000000E1
:102BF00000000000000000000000000000000000D5
:102C000000000000000000000202000000000000C0
:102C100000000000000000000000000000000000B4
:102C200000000000000002020000000000000000A0
:102C30000000000000000000000000000000000094
:102C4000000000000202020202020202020202026C
:102C50000202020202020202020202020202020254
:102C60000202020202020202020202020202020244
:102C70000202020202020202020202020202020234
:102C80000202000000000000000000000000000040
:102C90000000000000000000000000000000020230
:102CA0000000000000000000000000000000000024
:102CB0000000000000000000000000000202000010
:102CC0000000000000000000000000000000000004
:102CD00000000000000000000000020200000000F0
:102CE00000000000000000000000000000000000E4
:102CF00000000000000000000202000000000000D0
:102D000000020202020202020202020202020200A7
:102D100000000000000002020000000000000000AF
:102D200000000000000000000000000000000000A3
:102D30000000000002020101010101010101010086
:102D40000000000000000000000000000000000083
:102D50000000020201010101010101010100000066
:102D60000000000000000000000007000009000053
:102D700002020101010101010101010000004242C2
:102D800042420000000000000000000000000202BB
:102D9000010100000000010101000000424D4D4210
:102DA000000000000000000000000000020201011D
:102DB00000580000010101000000424D4D4200009A
:102DC000000000000063000000000202010100009A
:102DD0000000010101000000424D2C4200000000F3
:102DE00000000000000000000202010100000000DD
:102DF000010101000000424D4D42000000000000B2
:102E000000000000000002020101010101010101B6
:102E100001000000424D4D42000000000000000093
:102E20000000000002020101010101010101010095
:102E3000000042424242000000000000000000008A
:102E40000000020201010101010101010100000075
:102E50000000000000000000000000000000000072
:102E6000020200000000000000000000000000005E
:102E7000000000000000000000000000000002024E
:102E80000000000000000000000000000000000042
:102E9000000000000000000000000000020200002E
:102EA000000000000002020202020202020202020C
:102EB0000202020000000000000002020000000008
:102EC0000000000000000000000000000000000002
:102ED00000000000000000000202000000000000EE
:102EE00000000000000000000000000000000000E2
:102EF00000000000000002020000000000000000CE
:102F000000000000000000000000000000000000C1
:102F100000000000020200000000000000000000AD
:102F200000000000000000000000000000000000A1
:102F30000000020202020202020202020202020275
:102F40000202020202020202020202020202020261
:102F50000202020202020202020202020202020251
:102F60000202020202020202020202020202020241
:102F7000000000000000000000010100000000004F
:102F8000000101000000000000000000020200003B
:102F9000000000000000000101000000000000012E
:102FA000010000000000000000000202000000001C
:102FB000000000000001010000000000000101000D
:102FC00000000000000000000202005800000000A5
:102FD00000000001010000000000000101000000ED
:102FE00000000000000002020000000000000000DD
:102FF00000010100070000090001010000000000BD
:1030000000000000020200000000000000000001BB
:1030100001000000000000010100000000000000AD
:103020000000020200000000000000000001010199
:103030000101010101010100000000000000000089
:103040000202000000000000000000010101010177
:103050000101010101000000000000000000020267
:103060000000000000000000000000000000000060
:1030700000000000000000000000000002023737DE
:1030800037373737373737373737373737373737D0
:103090003737373737373737373702024D4D4D4DD2
:1030A0004D4D4D4D4D4D4D4D4D4D4D4D4D4D4D4D50
:1030B0004D4D4D4D4D4D4D4D02024D4D4D4D4D4DD6
:1030C0004D4D4D4D4D4D2C4D4D4D4D4D4D4D4D4D51
:1030D0004D4D4D4D4D4D02024D4D4D4D4D4D4D4DB6
:1030E0004D4D4D4D4D4D4D4D4D4D4D4D4D4D4D4D10
:1030F0004D4D4D4D02023737373737373737373772
:10310000373737373737373737373737373737374F
:10311000373702020000000000000000000000003D
:10312000000000000000000000000000000000009F
:103130000202000000000000000000010101010186
:103140000101010101000000000000000000020276
:103150000000000000000000000101010101010168
:103160000101010000000000000000000202000058
:10317000000000000000000101000000000000014C
:10318000010000000000000000000202000000003A
:10319000000000000001010009000007000101001B
:1031A000000000000000000002020000000000001B
:1031B000000000010100000000000001010000000B
:1031C0000000006300000202000000000000000098
:1031D00000010100000000000001010000000000EB
:1031E00000000000020200000000000000000001DA
:1031F00001000000000000010100000000000000CC
:1032000000000202000000000000000000010100B8
:1032100000000000000101000000000000000000AC
:10322000020202020202020202020202020202027E
:10323000020202020202020202020202020202026E
:10324000020202020202020202020202020202025E
:1032500002020202020202020202020202024D4DB8
:103260004D4D4D4D4D4D4D4D4D4D4D4D4D4D4D4D8E
:103270004D4D4D4D4D4D4D4D4D4D02024D4D4D4D14
:103280004D4D4D4D4D4D4D4D4D4D4D4D4D4D4D4D6E
:103290004D4D4D4D4D4D4D4D02024D4D4D4D4D4DF4
:1032A0004D4D4D4D4D4D4D4D4D4D4D4D4D4D4D4D4E
:1032B0004D4D4D4D4D4D02024D4D4D4D4D4D4D4DD4
:1032C0004D4D4D4D4D4D4D4D4D4D4D4D4D4D4D4D2E
:1032D0004D4D4D4D02024D4D4D4D4D4D4D4D4D4DB4
:1032E0004D4D4D4D4D4D4D4D4D4D4D4D4D4D4D4D0E
:1032F0004D4D02024D4D4D4D4D4D4D4D4D4D4D4D94
:103300004D4D4D4D4D4D4D4D4D4D4D4D4D4D4D4DED
:1033100002024D4D4D4D4D4D4D4D4D4D4D4D4D4D73
:103320004D4D4D4D4D4D4D4D4D4D4D4D4D4D020263
:103330004D4D4D4D4D4D4D4D4D4D4D4D4D4D4D4DBD
:103340004D4D4D4D4D4D4D4D4D4D4D4D02024D4D43
:103350004D4D4D4D4D4D4D4D4D4D4D4D4D4D4D4D9D
:103360004D4D4D4D4D4D4D4D4D4D02024D4D4D4D23
:103370004D4D4D4D4D4D4D4D4D4D4D4D4D4D4D4D7D
:103380004D4D4D4D4D4D4D4D02024D4D4D4D4D4D03
:103390004D4D4D4D4D4D4D4D4D4D4D4D4D4D4D4D5D
:1033A0004D4D4D4D4D4D0202373737373737373793
:1033B000373737373737373737373737373737379D
:1033C000373737370202000000000000000000001D
:1033D00000000000000000000000000000000000ED
:1033E00000000202000000000000000000000000D9
:1033F00000000000000000000000000000000000CD
:1034000002020000000000000000000000000000B8
:1034100000000000000000000000000000000202A8
:10342000000000000000000000000000000000009C
:103430000000000000000000000000000202000088
:103440000058000000000000000000000000000024
:103450000000000000006300000002020000000005
:10346000000000000000000000000000000000005C
:103470000000000000000000020200000000000048
:10348000000000000000000000000000000000003C
:103490000000000000000202000000000000000028
:1034A000000000000000000000000000000000001C
:1034B0000000000002020000000000000000000008
:1034C00000000000000000000000000000000000FC
:1034D00000000202000000000000000000000000E8
:1034E00000000700000000000000000000000000D5
:1034F00002020000000000000000000000000000C8
:1035000000000000000000000000000000000202B7
:10351000020202020202020202020202020202028B
:1035200002020202020202020202020202FEFEFE87
:10353000FEFEFE2B2BFEFEFEFEFEFEFE2BFEFEFE24
:10354000FEFEFEFE2B2B2B2BFEFEFEFE2B1212127E
:10355000FEFE20202B2B2B2B202020202B121212A2
:10356000202020202B2B2B2B20202029292B2BFE29
:10357000FEFEFEFEFE2BFEFEFEFEFEFEFE2BFEFE11
:10358000FEFEFEFEFE2BFEFEFEFE2B2B2B2B202036
:10359000FEFE1212122B202020202B2B2B2B202062
:1035A000202012121229292020202B2B2B2B122B0A
:1035B000122B122B122B122B122B122B122B122B23
:1035C000122B122B12FEFE202020202020FEFE2097
:1035D0002020202020FEFEFE2020202020FEFEFEB7
:1035E000FE20202929FEFEFEFE2020292B2B122B57
:1035F000122BFEFEFE2B122B122BFEFEFE2B122B8D
:10360000122BFEFEFE202020FEFEFEFEFE202020CD
:10361000FEFEFEFEFE20202020FEFEFEFE292020D3
:1036200020FEFEFE2B292B2B2B2B2B2B2BFEFEFE05
:10363000FEFEFEFEFEFEFEFEFEFEFEFEFEFEFEFFA9
:10364000FFFEFE3F3FFEFEFFFFFEFE3F3FFEFEFE93
:10365000FEFFFF3F3FFEFEFEFEFFFF3F3FFEFEFE82
:10366000FE3F3F3F3FFEFEFEFE3F3F3F3FFEFEFE72
:10367000FEFEFEFEFEFEFEFEFEFEFEFEFEFEFEFE6A
:10368000FEFFFFFEFEFEFEFEFEFFFFFEFEFEFEFF55
:10369000FFFEFEFEFEFEFEFFFFFEFEFEFE3F3F3F84
:1036A0003F3F3FFEFE3F3F3F3F3F3FFEFE3F3F3F2E
:1036B0003FFEFEFEFE3F3F3F3FFEFEFEFE3F3FFF62
:1036C000FF1F1F3F3F3F3FFFFF1F1F3F3FFEFE1FEC
:1036D0001FFFFF3F3FFEFE1F1FFFFF3F3FFEFEFE9F
:1036E000FE3F3F3F3FFEFEFEFE3F3F3F3FFEFEFEF2
:1036F000FE3F3F3F3FFEFEFEFE3F3F3F3FFEFE1FC1
:103700001FFFFF3F3FFEFE1F1FFFFF3F3FFEFEFF6D
:10371000FF3F3FFEFEFEFEFFFF3F3FFEFE3F3F3FFF
:103720003F3F3FFEFE3F3F3F3F3F3FFEFEFEFEFE70
:10373000FEFEFEFEFEFEFEFEFEFEFEFEFEFEFEFFA8
:10374000FFFEFEFEFEFEFEFFFFFEFEFEFEFEFEFE96
:10375000FEFFFFFEFEFEFEFEFEFFFFFEFEFEFEFE85
:10376000FEFEFEFEFEFEFEFEFEFEFEFEFEFEFEFE79
:10377000FEFEFEFEFEFEFEFEFEFEFEFEFEFEFEFE69
:10378000FEFFFFFEFEFEFEFEFEFFFFFEFEFEFEFF54
:10379000FFFEFEFEFEFEFEFFFFFEFEFEFEFEFEFE46
:1037A000FEFEFEFEFEFEFEFEFEFEFEFEFE121212FD
:1037B000202020292B2B2B2B2020202929121212EC
:1037C00020202020202B2B2B202020202012121202
:1037D000202020FEFE2B2B2B2020FEFEFE1212129C
:1037E000FEFEFEFEFE2B2B2BFEFEFEFEFE2B2920F8
:1037F000202012121229292020202B2B2B202020C0
:10380000202012121220202020202B2B2BFEFE2005
:103810002020121212FEFEFE20202B2B2BFEFEFE7D
:10382000FEFE121212FEFEFEFEFE2B2B2BFEFEFEF5
:10383000FE2020292BFEFEFEFE20202929FEFEFE72
:103840002020202020FEFE202020202020FEFE2000
:1038500020202020202B122B122B122B122B122B6C
:10386000122B122B122B122B122B122B12292B2B59
:103870002B2B2B2B2B29202020FEFEFE2B20202063
:1038800020FEFEFEFE202020FEFEFEFEFE2020206A
:10389000FEFEFEFEFE2B122B122BFEFEFE2B122B2B
:1038A000122BFEFEFE2B122B122BFEFEFEFEFE3F07
:1038B0003F3F3F3F3FFEFE3F3F3F3F3F3FFEFEFE5D
:1038C000FEFFFFFEFEFEFEFEFEFFFFFEFEFEFEFF13
:1038D000FFFEFEFEFEFEFEFFFFFEFEFEFEFEFEFE05
:1038E000FEFEFEFEFEFEFEFEFEFEFEFEFE3F3F3F35
:1038F0003FFEFEFEFE3F3F3F3FFEFEFEFE3F3FFF20
:10390000FFFEFEFEFE3F3FFFFFFEFEFEFE3F3FFED0
:10391000FEFFFFFEFE3F3FFEFEFFFFFEFEFEFEFE41
:10392000FEFEFEFEFEFEFEFEFEFEFEFEFEFEFE3F76
:103930003F3F3F3F3FFEFE3F3F3F3F3F3FFEFE1FBB
:103940001FFFFFFEFEFEFE1F1FFFFFFEFE3F3FFFAD
:10395000FF1F1FFEFE3F3FFFFF1F1FFEFE3F3F3FBB
:103960003FFEFEFEFE3F3F3F3FFEFEFEFE3F3F3F6F
:103970003FFEFEFEFE3F3F3F3FFEFEFEFE3F3FFF9F
:10398000FF1F1FFEFE3F3FFFFF1F1FFEFE3F3F1FAB
:103990001FFFFF3F3F3F3F1F1FFFFF3F3FFEFEFE5A
:1039A000FE3F3F3F3FFEFEFEFE3F3F3F3FFEFEFE2F
:1039B000FEFEFEF5F5FEFEFEFEFEFEFEF5FEFEFE42
:1039C000FEFEFEFEF5F5F5F5FEFEFEFEF59090908E
:1039D000FEFEE1E1F5F5F5F5E1E1E1E1F59090902C
:1039E000E1E1E1E1F5F5F5F5E1E1E1F0F0F5F5FE14
:1039F000FEFEFEFEFEF5FEFEFEFEFEFEFEF5FEFEF9
:103A0000FEFEFEFEFEF5FEFEFEFEF5F5F5F5E1E13D
:103A1000FEFE909090F5E1E1E1E1F5F5F5F5E1E1EB
:103A2000E1E1909090F0F0E1E1E1F5F5F5F590F548
:103A300090F590F590F590F590F590F590F590F55E
:103A400090F590F590FEFEE1E1E1E1E1E1FEFEE1BD
:103A5000E1E1E1E1E1FEFEFEE1E1E1E1E1FEFEFEA8
:103A6000FEE1E1F0F0FEFEFEFEE1E1F0F5F590F59D
:103A700090F5FEFEFEF590F590F5FEFEFEF590F554
:103A800090F5FEFEFEE1E1E1FEFEFEFEFEE1E1E17B
:103A9000FEFEFEFEFEE1E1E1E1FEFEFEFEF0E1E102
:103AA000E1FEFEFEF5F0F5F5F5F5F5F5F5FEFEFEA9
:103AB000FEFEFEFEFEFEFEFEFEFEFEFEFEFEFEFE26
:103AC000ADADFEFEFEFEFEADADADADFEFEFEFEAD4D
:103AD000ADADADFEFEFEFEFEADADFEFEFEFEFEFE9B
:103AE000FEFEFEFEFEFEFEFEFEFEFEFEFEFEFEFEF6
:103AF000ADADFEFEFEFEFEFEADADFEFEFEFEFEAD7B
:103B0000ADADADFEFEFEFEADADADADFEFEFEADADAE
:103B1000ADADADADFEFEFE3F3F3F3FFEFEFEFEFE05
:103B20003F3FFEFEFEFEFEFEFEFEFEFEFEFEFEFE33
:103B3000ADADFEFEFEFEFEFEADADFEFEFEFEFEAD3A
:103B4000ADADADFEFEFEFEADADADADFEFEFEADAD6E
:103B5000ADADADADFEFEFEFE3F3FFEFEFEFEFEFE47
:103B6000FEFEFEFEFEFEFEFEFEFEFEFEFEFEFEFE75
:103B7000FEFEFEFEFEFEFEFEADFEFEFEFEFEFE3F75
:103B8000ADADADFEFEFE3F3FADADADADADFE3F3FD9
:103B9000ADADADADADFEFE3FADADADFEFEFEFEFE8C
:103BA000ADFEFEFEFEFEFEFEFEFEFEFEFEFEFEFE86
:103BB000FEFEFEFEFEFEFEFEADFEFEFEFEFEFEFE76
:103BC000ADADADFEFEFEFE3FADADADADADFEFE3F1B
:103BD000ADADADADADFEFEFEADADADFEFEFEFEFE8D
:103BE000ADFEFEFEFEFEFEFEFEFEFEFEFEFEFEFE46
:103BF000FEFEFEFEFEFEFEFEFEFEFEFEFEFEFEFEE5
:103C00009F9FFEFEFEFEFE9F9F9F9FFEFEFEFE9F6D
:103C10009F9F9FFEFEFEFEFE9F9FFEFEFEFEFEFE9F
:103C2000FEFEFEFEFEFEFEFEFEFEFEFEFE909090FE
:103C3000E1E1E1F0F5F5F5F5E1E1E1F0F0909090EA
:103C4000E1E1E1E1E1F5F5F5E1E1E1E1E19090901B
:103C5000E1E1E1FEFEF5F5F5E1E1FEFEFE9090907A
:103C6000FEFEFEFEFEF5F5F5FEFEFEFEFEF5F0E1C3
:103C7000E1E1909090F0F0E1E1E1F5F5F5E1E1E1CD
:103C8000E1E1909090E1E1E1E1E1F5F5F5FEFEE1A1
:103C9000E1E1909090FEFEFEE1E1F5F5F5FEFEFE1D
:103CA000FEFE909090FEFEFEFEFEF5F5F5FEFEFE99
:103CB000FEE1E1F0F5FEFEFEFEE1E1F0F0FEFEFECB
:103CC000E1E1E1E1E1FEFEE1E1E1E1E1E1FEFEE170
:103CD000E1E1E1E1E1F590F590F590F590F590F5F1
:103CE00090F590F590F590F590F590F590F0F5F54C
:103CF000F5F5F5F5F5F0E1E1E1FEFEFEF5E1E1E1D6
:103D0000E1FEFEFEFEE1E1E1FEFEFEFEFEE1E1E19E
:103D1000FEFEFEFEFEF590F590F5FEFEFEF590F53A
:103D200090F5FEFEFEF590F590F5FEFEFEFEFEFE21
:103D3000FEFEFEFEFEFEFEFEFEFFFEFEFEFEFEFEA2
:103D4000FE7FFFFEFEFEFEFEFE7F7FFFFEFEFEFE0E
:103D5000FE7F7F7FFFFEFEFEFE7F7F7FFEFEFEFE7C
:103D6000FE7F7FFEFEFEFEFEFE7FFEFEFEFEFEFEF0
:103D7000FEFEFEFEFEFEFEFEFEFEFEFEFEFEFEFE63
:103D8000FEFEFEFEFEFEFEFEFEFEFEFEFE7F7F7FD0
:103D90007F7F7FFFFEFE7F7F7F7FFFFEFEFEFE7F39
:103DA0007FFFFEFEFEFEFEFEFEFEFEFEFEFEFEFEB1
:103DB000FFFEFEFEFEFEFEFF7F7FFEFEFEFEFF7F9D
:103DC0007F7F7FFEFEFF7F7F7F7F7F7FFEFEFEFE89
:103DD000FEFEFEFEFEFEFEFEFEFEFEFEFEFEFEFE03
:103DE000FEFEFEFEFEFEFEFEFEFEFEFEFE4A4A4A0F
:103DF0004A4A4A4A4A4A4A4A4A4A4A4A4A4A4A4A23
:103E0000A6A64A4A4A4A4A4AA6A64A4A4AFE4A4AEE
:103E1000A6A64A4AFEFEFE4AA6A64AFEFEFEFEFEF2
:103E2000A6A6FEFEFEFEFEFEA6A6FEFEFEFEFEFE12
:103E3000FEFEFEFEFEFEFEFEFEFEFEFEFEFEFEFEA2
:103E4000FEFEFEFEFEFEFEFEFEFEFEFEFEFEFEFE92
:103E5000FEFEFEFEFEFEFEFEFEFEFEFEFEFEFEFE82
:103E6000FEFEFEFEFEFEFEFEFEFEFEFEFE01012347
:103E700001011B01012201012101012001011A019F
:103E800001190101180101170101160202080909AF
:103E900008020206071011020204050E0F020214A6
:103EA000151E1F020212131C1D020202030C0D023A
:103EB0000200010A0B020224242424010124000030
:103EC00000000000000000000000000000000000F2
:103ED00000000000000000000000000000000000E2
:103EE00000000000000000000000000000000000D2
:103EF00000000000000000000000000000006666F6
:103F00006626666666667777772677777777777738
:103F10007726777777777777772677777777262675
:103F20002626262626267777777777777726777758
:103F3000777777777726777777777777772600D2CF
:103F4000D2D2D2D2D200D2FFFFFFFFFFFFD2D2D215
:103F5000FFFFFFFFF6D2D2D2D2FFFFF6D2D2D2D2EB
:103F6000D2FFF6D2D2D2D2D2FFF6D2D2D2D2D2D28F
:103F7000D2D2D2D2D2D200D2D2D2D2D2D20000D297
:103F8000D2D2D2D2D200D2FFD2D2D2D2FFD2D2D289
:103F9000FFD2D2FFD2D2D2D2D23F3FD2D2D2D2D2CD
:103FA000D23F3FD2D2D2D2D2FFD2D2FFD2D2D2FF90
:103FB000D2D2D2D2FFD200D2D2D2D2D2D20000D22A
:103FC000D2D2D2D2D200D2D2D2D2D2D2FFD2D2D276
:103FD000D2D2FFFFD2D2D2D2D2FFFFFFD2D2D2FFB3
:103FE000F6FFFFD2D2D2D2D2FFF6D2D2D2D2D23F75
:103FF000D2FFD2D2D2D200D2D2D2D2D2D2000505B2
:104000000505050505050505050505050504050561
:104010000505050504040505050707040404050551
:104020000507070404040505050404040404050544
:104030000404040404040504040404040404000047
:1040400000000000000000FF003F0000FF00000033
:10405000FF3F00FF000000003F3F3F3F3F00003FA9
:104060003F3F3F3F00000000FF003FFF000000FF18
:1040700000003F00FF0000000000000000003F3F84
:10408000000000003F3F3FFF1F3F001FFF3F001F9A
:10409000FF3F00FF3F0000003F3F3F3F3F00003F2A
:1040A0003F3F3F3F0000001FFF003FFF1F003FFF5B
:1040B0001F003F1FFF3F3F3F000000003F3F000049
:1040C00000000000000000FF00000000FF000000F2
:1040D000FF0000FF000000000000000000000000E2
:1040E0000000000000000000FF0000FF000000FFD3
:1040F00000000000FF0000000000000000000505B7
:104100000505050505050505050505050500050564
:104110000505050500000505050707000000050564
:10412000050700000000050505000000000005056A
:10413000000000000000050000000000000000007A
:104140000000000000040000000000000404000063
:104150000000000404040000000007040404000040
:104160000007070404040000040404040404000419
:1041700004040404040404040404040404040505FD
:1041800005050505050500050505050505050000EE
:1041900005050505050500000007070505050000E4
:1041A00000000705050500000000000505050000EA
:1041B00000000000050500000000000000050400EC
:1041C00000000000000004040000000000000404DF
:1041D00004000000000004040407000000000404C0
:1041E000040707000000040404040404000004049D
:1041F0000404040404000404040404040404F0F3A8
:10420000F0F0F3F0F3F0F5F0F0F5F5F0F0F5F4F58B
:10421000F5F4F4F5F5F4F0F0F3F0F0F3F0F0F3F07A
:10422000F2F3F0F0F3F0F0F5F5F0F3F5F5F0F5F466
:10423000F4F5F5F4F4F5F0F0F3F0F3F0F3F01864BE
:1042400018186418186418626418186462181864DE
:104250001862641864186418621818621862186486
:1042600018646218641864186418186218181864BE
:1042700018626418641818181864181818646565AA
:10428000656565656565656565656565656516652D
:1042900065656565651616166565656516161616F7
:1042A000161616161616161414141414141614656D
:1042B0006565656565146565656565656565F0F3E6
:1042C000F0F0F3F0F3F0F5F0F0F5F5F0F0F5F4F5CB
:1042D000F5F4F4F5F5F4F0F0F3F0F0F3F0F0F3F0BA
:1042E000F2F3F0F0F3F0F0F5FFFFFFFFF5F0F5FF6C
:1042F000FFFFFFFFFFF5F0F0FFFFFFFFF3F0F0F32C
:10430000F0F0F3F0F3F0F5F0F0F5F5F0F0F5F4F58A
:10431000F54A4A4AF5F4F0F04A4ABFBF4AF0F3F0D2
:104320004A4ABFBF4AF0F0F5FF4A4A4AF5F0F5FFA6
:10433000FFFFFFFFFFF5F0F0FFFFFFFFF3F0F0F3EB
:10434000F04A4A4AF3F0F5F04A4ABFBF4AF5F4F59D
:104350004A4ABFBF4AF4F0F0F34A4A4AF0F0F3F099
:10436000F24A4AF0F3F0F0F5FF4A4AFFF5F0F5FFA4
:10437000FFFFFFFFFFF5F0F0FFFFFFFFF3F07F7F90
:104380007F7F7F7F7F7F7F282828282828287F28F5
:104390002828282828287F282828282828287F28EF
:1043A0002828282828287F282828282828287F28DF
:1043B0002828282828287F282828282828287F7F78
:1043C0007F7F7F7F7F7F2828282828282828282863
:1043D000282828282828282828282828282828285D
:1043E000282828282828282828282828282828284D
:1043F000282828282828282828282828282800008D
:1044000000000000000000000000000000000000AC
:1044100000000000000000000000000000007F7F9E
:104420007F7F7F7F7F7F2828282828282828282802
:10443000282828282828282828282828282800004C
:10444000000000007F7F0000000000007F280000C7
:10445000000000007F280000000000007F2800000E
:10446000000000007F280000000000007F280000FE
:10447000000000007F280000000000007F287F7FF0
:104480007F7F7F7F000028282828282800002828F0
:10449000282828280000282828282828000028283C
:1044A000282828280000282828282828000028282C
:1044B000282828280000282828282828000000006C
:1044C000000000002B2B000000000000002B00006B
:1044D00000000000002B2B2B2B000000002B1212E1
:1044E00012000020202B2B2B2B202020202B1212FF
:1044F00012202020202B2B2B2B20202029292B2B76
:104500000000000000002B000000000000002B0055
:104510000000000000002B000000002B2B2B2B20A4
:104520002000001212122B202020202B2B2B2B20BE
:1045300020202012121229292020202B2B2B7F280B
:104540002828282828287F282828282828287F283D
:104550002828282828287F282828282828287F282D
:104560002828282828287F282828282828287F281D
:104570002828282828287F28282828282828282864
:1045800028282828282828282828282828282828AB
:1045900028282828282828282828282828280000EB
:1045A000000000000000000000000000000000000B
:1045B00000000000000000000000000000002828AB
:1045C000282828282828282828282828282828286B
:1045D00028282828282828282828282828287F2804
:1045E0002828282828287F282828282828287F289D
:1045F0002828282828287F282828282828287F7F36
:104600007F7F7F7F7F282828282828282828282877
:10461000282828282828282828282828282828281A
:10462000282828282828282828282828282828280A
:1046300028282828282828282828282828282828FA
:1046400028282828000000000000000000000000CA
:10465000000000000000000000000000000000005A
:10466000000000000000000000000000000000004A
:10467000000000000000000000000000000000003A
:10468000F590F590F5900000F590F590F59000000C
:10469000F590F590F59000000000E1E1E1E1000007
:1046A0000000E1E1E1E10000000000E1E1E10000E3
:1046B00000000000E1E1000000000000E1E1F590F1
:1046C000F590F590F500F590F590F590F500F590E2
:1046D000F590F590F500E1E1E1E1E1000000E1E1B4
:1046E000E1E1E1000000E1E1E1E1E1E10000F0F001
:1046F000F0E1E1E10000F0F5F0F5F5F5F5F5000089
:1047000000000000000000000000000000000000A9
:104710000000000000000000000000000000000099
:10472000000000000000000000000000000000F594
:10473000000000000000F5F500000000000000008F
:104740000000000000000000000000000000000069
:104750000000000000000000000000000000000059
:104760000000000000007F7F7F7F7F7F7F7F282801
:1047700028282828282828282828282828281212E5
:1047800012202020292B2B2B2B202020292912120C
:104790001220202020202B2B2B2020202020121222
:1047A0001220202000002B2B2B20200000001212B2
:1047B0001200000000002B2B2B00000000002B2912
:1047C00020202012121229292020202B2B2B2020E0
:1047D00020202012121220202020202B2B2B000022
:1047E00020202012121200000020202B2B2B000072
:1047F00000000012121200000000002B2B2B7F285B
:104800002828282828282828282828282828282828
:104810002828282828282828282828282828282818
:104820002828282828282828282828282828282808
:1048300028282828282828282828282828282828F8
:1048400028282828282828282828282828282828E8
:1048500028282828282828282828282828282828D8
:1048600028282828282828282828282828282828C8
:104870002828282828282828282828282828000008
:1048800000000000E1E1000000000000E1E10000A4
:10489000000000E1E1E100000000E1E1E1E10000F1
:1048A0000000E1E1E1E10000F590F590F5900000F5
:1048B000F590F590F5900000F590F590F590F0F5F5
:1048C000F0F5F5F5F5F5F0F0F0E1E1E10000E1E1FA
:1048D000E1E1E1E10000E1E1E1E1E1000000E1E12D
:1048E000E1E1E1000000F590F590F590F500F5901C
:1048F000F590F590F500F590F590F590F500F5F54B
:1049000000000000000000F50000000000000000B2
:104910000000000000000000000000000000000097
:104920000000000000000000000000000000000087
:104930000000000000000000000000000000282827
:1049400028282828282828282828282828282828E7
:1049500028282828282828282828282828282828D7
:104960002828282828280000000000000000000057
:104970000000000000000000000000000000000037
:1049800000000000F5F500000000000000F5000048
:104990000000000000F5F5F5F500000000F590902E
:1049A000900000E1E1F5F5F5F5E1E1E1E1F5909048
:1049B00090E1E1E1E1F5F5F5F5E1E1E1F0F0F5F5A2
:1049C000000000000000F500000000000000F500FD
:1049D000000000000000F500000000F5F5F5F5E12D
:1049E000E10000909090F5E1E1E1E1F5F5F5F5E108
:1049F000E1E1E1909090F0F0E1E1E1F5F5F5000002
:104A0000000000007F280000000000007F28000058
:104A1000000000007F280000000000007F28000048
:104A2000000000007F280000000000007F28000038
:104A3000000000007F280000000000007F282828D8
:104A40002828282800002828282828280000282886
:104A50002828282800002828282828280000282876
:104A60002828282800002828282828280000282866
:104A700028282828000028282828282800000000A6
:104A80000000000000007F7F7F7F7F7F7F7F2828DE
:104A90002828282828282828282828282828282896
:104AA0002828282828282828282828282828282886
:104AB00028282828282828282828282828287F281F
:104AC0002828282828287F2828282828282828280F
:104AD0002828282828282828282828282828282856
:104AE0002828282828282828282828282828282846
:104AF0002828282828282828282828282828909066
:104B000090E1E1E1F0F5F5F5F5E1E1E1F0F090900B
:104B100090E1E1E1E1E1F5F5F5E1E1E1E1E190903C
:104B200090E1E1E10000F5F5F5E1E1000000909091
:104B3000900000000000F5F5F50000000000F5F021
:104B4000E1E1E1909090F0F0E1E1E1F5F5F5E1E1EE
:104B5000E1E1E1909090E1E1E1E1E1F5F5F50000BE
:104B6000E1E1E1909090000000E1E1F5F5F5000051
:104B70000000009090900000000000F5F5F5F0F3C3
:104B8000F0F0F3F0F3F0F5F0F0F5F5F0F0F5F4F502
:104B9000F5F4F4F5F5F4F0F0F3F0F0F3F0F0F3F0F1
:104BA000F2F3F3F0F2F3F0F5F5F0F0F5F5F0F5F4DB
:104BB000F4F5F5F4F4F5F0F0F3F0F0F0F3F0F0F3D1
:104BC000F0F0F3F0F3F0F5F0F0F5F5F0F0F5F4F5C2
:104BD000F5F4F4F5F5F4F0F0F3F0F0F3F0F0F3F0B1
:104BE000F2F3F0F0F3F0F0F5F5E8E8E8E8E8F5F4D2
:104BF000F4E8E8E8F4F5F0F0F3E8E8E8F3F0F0F3CF
:104C0000F0F0F3F0F3F0F5F0F0F5F5F0F0F5F4F581
:104C1000F5F4F4F5F5F4F0F0F3F0F0F3F0F0F3F070
:104C2000F2F3F0F0F3F0F0F5F5F0F3F5F5F0E8F469
:104C3000F4F5F5F4F4F5F0E8F3F0F3F0F3F0F0F355
:104C4000F0F0F3F0F3F0F5F0F0F5F5F0F0F5F4F541
:104C5000F5F4F4F5F5F4F0F0F3F0F0F3F0F0A3A3CD
:104C6000A3A3A3A3A3A3A3A3A3A3A3A3A3A3A3A314
:104C7000A3A3A3A3A3A3A3A3A3A3A3A3A3A3F0F367
:104C8000F0F0F3F0F3F0F5F0F0F5F0F3F0F0F4F508
:104C9000F5F4F5F0F0F5F0F0F3F0F0F3F0F0A3A395
:104CA000A3A3A3A3A3A3A3A3A3A3A3A3A3A3A3A3D4
:104CB000A3A3A3A3A3A3A3A3A4A4A4A4A4A4F0F321
:104CC000F0F0F3F0F3F0F3F0F3F0F5F0F0F5F5F0C9
:104CD000F0A3A3A3A3A3F0F0F3A3A3A3A3A3A3A36D
:104CE000A3A3A3A3A3A3A3A3A3A3A3A3A3A3A3A394
:104CF000A3A3A3A3A3A3A4A4A4A4A4A4A4A4F0F3DF
:104D0000F0F0F3F0F3F0F5F0F0F5F5F0F0F5A3A323
:104D1000A3A3A3A3A3A3A3A3A3A3A3A3A3A3A3A363
:104D2000A3A3A3A3A3A3A3A3A3A3A3A3A3A3A3A353
:104D3000A3A3A3A3A3A4A4A4A4A4A49AA4A4F0F3A7
:104D4000F0F0F3F0F3A3F5F0F0F5F5F0F0A3A3A382
:104D5000A3A3A3A3A3A3A3A3A3A3A3A3A3A3A3A323
:104D6000A3A3A3A3A3A3A3A3A3A3A3A3A3A3A4A411
:104D7000A4A4A4A4A4A4A4A4A4A4A4A4A4A4A3A3F5
:104D8000A3A3A3A3A3A3A3A3A3A3A3A3A3A3A3A3F3
:104D9000A3A3A3A3A3A3A3A3A3A3A3A3A3A3A3A3E3
:104DA000A3A3A3A3A3A3A3A3A3A3A3A3A3A3A4A4D1
:104DB000A4A4A4A4A4A4A4A4A4A4A4A4A4A4A3F365
:104DC000F0F0F3F0F3F0A3F0F0F5F5F0F0F5A3A3B5
:104DD000A3A3A3A3A3A3A3A3A3A3A3A3A3A3A3A3A3
:104DE000A3A3A3A3A3A3A3A3A3A3A3A3A3A3A4A491
:104DF000A4A4A4A4A4A4A4A4A4A4A4A4A4A4F0F3D8
:104E0000F0F0F3F0F3F0F5F0F0F5F5F0F0F5A3A322
:104E1000A3A3A3A3A3A3A3A3A3A3A3A3A3A3A3A362
:104E2000A3A3A3A3A3A3A3A3A3A3A3A3A3A3A4A450
:104E3000A3A3A3A3A3A3A4A4A49AA4A4A4A4F0F3A7
:104E4000F0F0F3F0F3F0F5F0F0F5F5F0F0F5A3A3E2
:104E5000A3A3A3F5F5F4A3A3A3A3A3F3F0F0A3A343
:104E6000A3A3A3A3A3A3A3A3A3A3A3A3A3A3A3A312
:104E7000A3A3A3A3A3A3A4A4A4A4A4A4A4A4F0F35D
:104E8000F0F0F3F0F3F0F5F0F0F5F5F0F0F5F4F5FF
:104E9000F5F4F4F5F5F4F0F0F3F0F0F3F0F0A3A38B
:104EA000A3A3A3A3A3A3A3A3A3A3A3A3A3A3A3A3D2
:104EB000A3A3A3A3A3A3A4A4A4A4A4A4A3A3F0F31F
:104EC000F0F0F3F0F3F0F5F0F0F5F5F0F0F5F4F5BF
:104ED000F5F4F4F5F5F4F0F0F3F0F0F3F0F0F3F0AE
:104EE000F2E8E8E8E8E8F0F5F5E8E8E8E8F0F5F4F5
:104EF000F4E8E8E8E8F5F0F0F3E8E8E8E8F0F0F3E3
:104F0000F0F0F3F0F3F0F5F0F0F5F5F0F0F5F4F57E
:104F1000F5F4F4F5F5F4F0F0F3F0F0F3F0F0E8F078
:104F2000F2F3F0F0F3F0F0E8F5F0F3F5F5F0F5F466
:104F3000E8F5F5F4F4F5F0F0F3E8F3F0F3F0F0F35E
:104F4000F0F0F3F0F3F0F5F0F0F5F5F0F0F5F4F53E
:104F5000F5F4F4F5F5F4F0F0F3F0F0F3F0FFF3F01E
:104F6000F2F3FFFFFFA3F0FFFFFFFFFFFFA3FFF43C
:104F7000F4A3A3A3A3A3F0F0A3A3A3A3A3A3F0F379
:104F8000F0F0F3FFFFF0F5F0F0F5FFFFFFF5F4F5BB
:104F9000FFFFFFFFF5F4FFFFFFFFFFF3F0F0A3A318
:104FA000A3A3A3A3A3A3A3A3A3A3A3A3A3A3A3A3D1
:104FB000A39AA3A3A3A3A3A39A9A9AA3A3A3F0F348
:104FC000F0E8E8E8F3F0A3A3A3A3A3A3A3A3A3A3F8
:104FD000A3A3A3A3A3A3A3A3A3A3A3A3A3A3A3A3A1
:104FE000A3A3A3A3A3A3A3A3A3A3A3A3A3A3A3A391
:104FF000A3A3A3A3A3A3A3A3A3A3A3A3A3A3F0F3E4
:10500000E8F0F3F0F3F0A3A3A3A3A3A3A3A3A3A3A4
:10501000A3A3A3A3A3A3A3A3A3A3A3A3A3A3A3A360
:10502000A3A3A3A3A3A3A3A4A4A4A4A4A4A4A3A448
:10503000A4A4A4A4A49AA3A4A4A4A4A4A49AF0F3AA
:10504000F0F0F3F0F3F0A3A3A3A3A3A3A3A3A3A35C
:10505000A3A3A3A3A3A3A3A3A3A3A3A3A3A3A3A320
:10506000A3A3A3A3A3A3A4A4A4A4A4A4A49A9A9A24
:105070009AA4A4A4A4A49A9A9AA4A4A4A4A4F0F37D
:10508000F0F0F3F0F3F0A3A3A3A3A3A3A3A3A3A31C
:10509000A3A3A3A3A3A3A3A3A3A3A3A3A3A3A3A3E0
:1050A000A3A3A3A3A3A39A9A9A9A9A9A9A9A9A9A2A
:1050B0009A9A9A9A9A9AA4A4A4A4A4A4A4A4A3A3EE
:1050C000A3A3A3A3A3A3A3A3A3A3A3A3A3A3A3A3B0
:1050D000A3A3A3A3A3A3A3A3A3A3A3A3A3A3A3A3A0
:1050E000A3A3A3A3A3A39A9A9A9A9A9A9A9A9A9AEA
:1050F0009A9A9A9A9A9AA4A4A4A4A4A4A4A4A3A3AE
:105100009AA4A49A9AA4A3A3A4A4A4A4A4A4A3A381
:105110009AA4A49A9AA4A3A3A4A4A4A4A4A4A3A371
:105120009A9A9A9A9A9A9AA4A4A4A4A4A4A4A4A485
:10513000A4A4A4A4A4A4A4A4A4A4A4A4A4A4A49A39
:105140009AA4A49A9AA4A4A4A4A4A4A4A4A4A49A47
:105150009AA4A49A9AA4A4A4A4A4A4A4A4A49A9A41
:105160009A9A9A9A9A9AA4A4A4A4A4A4A4A4A4A43B
:10517000A4A4A4A4A4A4A4A4A4A4A4A4A4A4A49AF9
:105180009AA4A49A9AA4A4A4A4A4A49AA4A4A49A11
:105190009AA4A49A9AA4A4A4A4A4A49AA4A49A9A0B
:1051A0009A9A9A9A9A9AA4A4A4A4A4A4A4A4A4A4FB
:1051B000A4A4A4A4A4A4A4A4A4A4A4A4A4A4A49AB9
:1051C0009AA4A49A9AA4A4A4A4A4A4A4A4A4A49AC7
:1051D0009AA4A49A9AA4A4A4A4A4A4A4A4A39A9AC2
:1051E0009A9A9A9A9AA3A4A4A4A4A4A4A3A3A4A4B4
:1051F000A4A4A4A3A3A3A4A4A4A4A4A3A3A3A49A7F
:105200009AA4A3A3A3A3A49AA3A3A3A3A3A3A3A37E
:10521000A3A3A3A3A3A3A3A3A3A3A3A3A3A3A3A35E
:10522000A3A3A3A3A3A3A3A3A3A3A3A3A3A3A3A34E
:10523000A3A34AA3A3A3A3A3A34A4A4AA3A3A3A3A2
:10524000A3A4A49A9AA4A3A3A3A3A4A4A4A4A3A339
:10525000A3A0A0A0A0A0A3A3A0A0A0A0A0A0A3A042
:10526000A0A0A0A0A0A0A3A0A0A0A0A0A0A0A3A038
:10527000A0A04A4A4AA0A3A0A04A4A4A4A4AA49ADD
:105280009AA4A49A9AA4A4A4A4A4A4A4A4A4A0A004
:10529000A0A4A49A9AA4A0A0A0A4A4A4A4A4A0A0FA
:1052A000A0A0A0A0A09AA0A0A0A0A0A0A0A4A0A000
:1052B000A0A0A0A0A09AA0A0A0A0A0A0A0ADA49AE9
:1052C0009AA4A49A9AA4A4A4A4A4A4A4A4A4A49AC6
:1052D0009AA4A49A9AA4A4A4A4A4A4A4A4A49A9AC0
:1052E0009A9A9A9A9A9AA4A4A4A4A4A4A4A4A4A4BA
:1052F000A4A4A4A4A4A4ADADADADADADADADA49A30
:105300009A9AA49A9AA4A4A4A49AA4A4A4A4A49A99
:105310009A9AA49A9AA4A4A4A49AA4A4A4A49A9A93
:105320009A9A9A9A9A9AA4A4A4A4A4A4A4A4A4A479
:10533000A4A4A4A4A4A4ADADADADADADADADA49AEF
:105340009AA4A49A9AA4A4A4A4A4A4A4A4A4A49A45
:105350009AA4A49A9AA4A4A4A4A4A4A4A4A49A9A3F
:105360009A9A9A9A9A9AA4A4A4A4A4A4A4A4A4A439
:10537000A4A4A4A49A9AADADADADADADADADA49AC3
:105380009AA4A49AA3A3A4A4A4A4A4A49AA3A49A08
:105390009AA4A49A9AA3A4A4A4A4A4A49AA39A9A0B
:1053A0009A9A9A9A9AA3A4A4A4A4A4A4A4A49A9A04
:1053B0009A9A9A9A9AA4ADADADADADADADADA3A399
:1053C000A3A3A3A3A3A3A3A3A3A3A3A3A3A3A3A3AD
:1053D000A3A3A3A3A3A3A3A3A3A3A3A3A3A3A3A39D
:1053E000A3A3A3A3A3A3A4A4A4A4A4A4A4A4A4A483
:1053F000A4A4A4A4A4A4ADADADADADADADADF0F38A
:10540000F0F0F3F0F3F0A3A3A3A3A3A3A3A3A3A398
:10541000A3A3A3A3A3A3A3A3A3A3A3A3A3A3A3A35C
:10542000A3A3A3A3A3A3A4A4A4A4A4A4A4A4A4A442
:10543000A4A4A4A4A4A4ADADADADADADADADF0F349
:10544000F0E8E8E8E8F0A3A3A3A3A3A3A3A3A3A37E
:10545000A3A3A3A3A3A3A3A3A3A3A3A3A3A3A3A31C
:10546000A3A3A3A3A3A3A4A4A4A4A4A4A4A3A4A403
:10547000A4A4A4A4A4A3ADADADADADADADADF0F30A
:10548000F0F0E8F0F3F0A3A3A3A3A3A3A3A3A3A323
:10549000A3A3A3A3A3A3A3A3A3A3A3A3A3A3A3A3DC
:1054A000A3A3A3A3A3A3A3A3A3A3A3A3A3A3A3A3CC
:1054B000A3A3A3A3A3A3ADADADADADADADADF0FFC3
:1054C000FFF0F3F0F3F0F5FFFFFFF5F0F0F5F4F582
:1054D000FFFFFFFFF5F4F0F0F3F0F0FFFFFFA3A3F1
:1054E000A3A3A3A3A3A3A3A3A3A3A3A3A3A3A3A38C
:1054F000A3A3A3A3A3A3ADADADADADADADADF0F38F
:10550000F0F0F3F0F3F0F5F0F0F5F5F0F0F5F4F578
:10551000F5F4F4F5F5F4FFF0F3F0F0F3F0F0A3FF99
:10552000FFFFF0F0F3F0A3FFFFFFFFFFFFF0A3A3E7
:10553000A3A3A3F4F4FFADADADADAD9A9AF0F0F333
:10554000A3A3A3A3A3A3FFF0F0A3A3A3A3A3F4FF88
:10555000FFFFFFFFFFA3F0FFFFFFFFFFFF9AF3F046
:10556000F2F3F0F0F3FFF0F5F5F0F3F5F5F0F5F404
:10557000F4F5F5F4F4F5F0F0F3F0F3F0F3F0A3A3A1
:105580009A9A9AA3A3A3A3A3A39AA3A3A3A3A3A30F
:10559000A3A3A3A3A3A39A9A9A9A9A9A9A9AFF9AD0
:1055A0009A9A9A9A9A9AF0F5FFFFFFFFF59AF5F406
:1055B000F4F5F5FFFF9AF0F0F3F0F3FFFF9AA3A3E1
:1055C000A3A3A3A3A3A3A3A3A3A3A3A3A3A3A3A3AB
:1055D000A3A3A3A3A3A39AA3A3A3A3A3A3A39AA3AD
:1055E000A3A3A3A3A3A39AA3A3A3A3A3A3A39A9AA6
:1055F0009A9A9A9A9A9A9A9A9A9A9A9A9A9AA3A4F8
:10560000A4A4A4A4A49AA3A4A4A4A4A4A49AA3A470
:10561000A4A4A4A4A4A4A3A39A9A9A9A9A9AA3A38A
:10562000A3A3A3A3A3A3A3A3A3A3A3A3A3A39A9A5C
:105630009A9A9A9A9A9A9A9A9A9A9A9A9A9A9A9ACA
:105640009AA4A4A4A4A49A9A9AA4A4A4A4A4A4A442
:10565000A4A4A4A4A49A9A9A9A9A9A9A9A9AA3A366
:10566000A3A3A3A3A3A3A3A3A3A3A3A3A3A39A9A1C
:105670009A9A9A9A9A9A9A9A9A9A9A9A9A9AA4A476
:10568000A4A4A4A4A4A49A9A9A9A9A9A9A9A9A9A3E
:105690009A9A9A9A9A9A9A9A9A9A9A9A9A9AA3A358
:1056A000A3A3A3A3A3A3A3A3A3A3A3A3A3A39A9ADC
:1056B0009A9A9A9A9A9A9A9A9A9A9A9A9A9AA4A436
:1056C000A4A4A4A4A4A49A9A9A9A9A9A9A9A9A9AFE
:1056D0009A9A9A9A9A9A9A9A9A9A9A9A9A9AA3A318
:1056E000A3A3A3A3A3A3A3A3A3A3A3A3A3A39AA393
:1056F000A3A3A3A3A3A39AA3A3A3A3A3A3A3A4A481
:10570000A4A4A4A4A4A4A4A4A4A4A4A4A4A49AA463
:10571000A4A4A4A4A4A49A9A9A9A9A9A9A9AA3A39B
:10572000A4A4A4A4A4A4A3A39AA4A49A9AA4A3A35B
:10573000A4A4A4A4A4A4A3A39AA4A49A9AA4A4A449
:10574000A4A4A4A4A4A4A4A4A4A4A4A4A4A4A4A419
:10575000A4A4A4A4A4A49A9A9A9A9A9A9A9AA4A459
:10576000A4A4A4A4A4A4A49A9AA4A49A9AA4A4A421
:10577000A4A4A4A4A4A4A49A9AA4A49A9AA4A4A411
:10578000A4A4A4A4A4A4A4A4A4A4A4A4A4A4A4A4D9
:10579000A4A4A4A4A4A49A9A9A9A9A9A9A9AA4A419
:1057A000A4A4A49AA4A4A49A9AA4A49A9AA4A4A4EB
:1057B000A4A4A49AA4A4A49A9AA4A49A9AA4A4A4DB
:1057C000A4A4A4A3A3A3A4A4A4A4A4A3A3A3A4A49F
:1057D000A4A4A4A49AA39A9A9A9A9A9A9AA3A4A4DB
:1057E000A4A4A4A49A9AA4A49A9AA4A49A9AA4A4B5
:1057F000A4A4A4A4A4A4A4A49A9AA4A49A9AA3A393
:10580000A34A4A4AA3A3A3A3A3A34AA3A3A3A3A3CC
:10581000A3A3A3A3A3A3A3A3A3A3A3A3A3A3A3A358
:10582000A3A3A3A3A3A39AA3A3A3A3A3A3A39A9A63
:105830009A9AA3A3A3A3A49A9A9A9A9A9A9AA3A08B
:10584000A04A4A4A4A4AA3A0A0A04A4A4AA0A3A002
:10585000A0A0A0A0A0A0A3A0A0A0A0A0A0A0A3A33F
:105860009AA0A0A0A0A0A3A3A39A9A9A9A9AA3A34D
:10587000A39A9A9A9A9A9A9A9A9A9A9A9AA4A0A069
:10588000A0A0A0A0A09AA0A0A0A0A0A09AA4A0A020
:10589000A0A0A0A09A9AA0A09A9A9A9A9A9AA0A038
:1058A0009A9A9A9A9A9A9A9A9A9AA49A9AA49A9A44
:1058B0009AA4A4A4A4A4A49A9AA4A49A9AA4A4A4DA
:1058C000A4A4A4A4A4A4A4A4A4A4A4A4A4A4A4A498
:1058D000A4A4A4A4A4A49A9A9A9A9A9A9A9AA4A4D8
:1058E000A49AA4A4A4A4A49A9A9AA49A9AA4A4A4B4
:1058F000A49AA4A4A4A4A49A9A9AA49A9AA4A4A4A4
:10590000A4A4A4A49A9AA4A4A4A4A4A4A4A4A4A46B
:10591000A4A4A4A4A4A49A9A9A9A9A9A9A9AA4A497
:10592000A4A4A4A4A4A4A49A9AA4A49A9AA4A4A45F
:10593000A4A4A4A4A4A4A49A9AA4A49A9AA49A9A63
:105940009A9A9A9A9AA4A4A4A4A4A4A4A4A4A4A449
:10595000A4A4A4A4A4A49A9A9A9A9A9A9A9AA4A457
:10596000A4A4A4A4A3A3A49A9AA4A49AA3A3A4A419
:10597000A4A4A4A49AA3A49A9AA4A49A9AA3A4A41B
:10598000A4A4A4A4A4A4A4A4A4A4A4A4A4A4A4A4D7
:10599000A4A4A4A4A4A49A9A9A9A9A9A9A9AA3A319
:1059A000A3A3A3A3A3A3A3A3A3A3A3A3A3A3A3A3C7
:1059B000A3A3A3A3A39AA3A3A3A3A3A3A39AA4A4C7
:1059C000A4A4A4A4A4A4A4A4A4A4A4A4A4A4A4A497
:1059D000A4A4A4A4A4A49A9A9A9A9A9A9A9AA3A3D9
:1059E000A3A3A3A3A3A3A3A3A3A3A3A3A3A39A9A99
:1059F0009A9A9A9A9A9A9A9A9A9A9A9A9A9AA4A4F3
:105A0000A4A4A4A4A49AA4A4A4A4A4A4A49AA4A46A
:105A1000A4A4A4A4A49A9A9A9A9A9A9A9A9AA3A3A2
:105A2000A3A3A3A3A3A3A3A3A3A3A3A3A3A39A9A58
:105A30009A9A9A9A9A9A9A9A9A9A9A9A9A9AA3A3B4
:105A4000A3A3A3A3A3A3A3A3A3A3A3A3A3A3A3A326
:105A5000A3A3A3A3A3A3A3A3A3A3A3A3A39AA3A31F
:105A6000A3A3A3A3A39AA3A3A3A3A3A3A39A9A9A2A
:105A70009A9A9A9A9A9A9A9A9A9A9A9A9A9AA3A374
:105A8000A3A3A3A3A3A3A3A3A3A3A3A3A3A3A3A3E6
:105A9000A3A3A3A3A3A39A9A9A9A9A9A9A9A9A9A30
:105AA0009A9A9A9A9A9A9AF5FFFFFFFFF5F09AFF51
:105AB000FFFFFFF4F4F59AFFFFF0F3F0F3F0A3A378
:105AC000A3A3A39A9AF09A9A9A9A9A9A9AFF9A9A60
:105AD0009A9A9AFFFFF49A9AFFFFFFF3F0F09A9ACE
