:100000000C94ED410C945A420C945A420C945A426E
:100010000C945A420C945A420C945A420C945A42F0
:100020000C9459460C945A420C945A420C945A42DD
:100030000C945A420C9430440C9470440C945A42E0
:100040000C945A420C945A420C945A420C945A42C0
:100050000C945A420C945A420C945A420C945A42B0
:100060000C945A420C945A420C945A420C945A42A0
:100070008100450027FF24FF2A902B1C210C22FB26
:10008000850084008903888D81096F0244424700FE
:100090004501B083B300B10125118A4F8B035A5536
:1000A00001200101003808000000000000000000ED
:1000B0000000000000000000000000000000BB473E
:1000C000BE4719481D482548C647CB47D0472D484D
:1000D000D347D647D947164800408891D2E4ADB5FA
:1000E000B6BEBFFF050300131415161718191A1B07
:1000F0001C1D1E1F0005040001020304050607085D
:10010000090A0B0C0D000E0F101112000000000068
:1001100000000000000000000000000000000000DF
:1001200000000000000000000000000000000000CF
:1001300000000000000000000000000000000000BF
:1001400000000000000000000000000000000000AF
:10015000000000000000000000000000000000009F
:100160000000000000000000000049000000000046
:100170004952520000004952531C25004952522452
:1001800025251B52525C2D2D1C1212000000000070
:100190000000000000000040494949004049495220
:1001A0005B5B5B4A52525B1C1C13125B1C241C12CF
:1001B000090909241B12090909090A0A0A0A0A0A73
:1001C0000A0A130A0A120A0A12130A00000000009F
:1001D0000000009252525252525249131213090017
:1001E0001C1B130A1212401B65641C090A00092417
:1001F0001B1C65120000251C1C1C1C010025241C56
:100200001C1C1C0024252424241C1C0000000000AD
:100210000000004940000000000000524949000071
:100220000000001C5B4A48000000001C25524900E9
:100230000000006524644900000000652564490051
:100240000000006D2E5C490000000000000000006E
:10025000004052000000000049525C0000000053C2
:10026000522425000000535225252500004A52251E
:10027000251B0000005B251300001B005B53000AD8
:100280001C3737095B1C657F372E2E522E2E1C1310
:100290001312002E251B13120000121C1C1200004A
:1002A00012251C120000122E371C1300132E373695
:1002B0001C131B37372E2E25131C1C2E2E2E2E1BE7
:1002C0001C1C1C6E6E6E1C1C1C1C1C0913131212B1
:1002D00013130013131313131C0009131313131C0C
:1002E0000100371313131C13002E2E1B1B1C1C00A4
:1002F0001C772E1B1B2500137F251C1C1C010A3795
:10030000241C1C1C130A2E25250900132E24252528
:100310002525252E2525252525252525252D2E2573
:100320001B1C1C2E2E251C13251B13251C1C1C1CE2
:100330000109521C1C1300011C5B5C0A000165775B
:100340005C1B00016E7F6E521B00006D1C52490049
:100350000000001C135300000000001C524A000063
:100360000000005B5B0000000000005C000000007B
:10037000000000000000000000000000000000007D
:100380000000000000000000000000135B7F776E9B
:100390006E6E6E136577766E6E6E6E1B6577767613
:1003A000766E771B5BBF76B676767609136DBFB730
:1003B000B6B765001B125C76BF766D0000121B128B
:1003C0005B5B5C00000000090A12136E77241C1CA2
:1003D0001C1C1C77251C1C1C1C24256E1C1C1C248E
:1003E00025251B1C1C242525130000646D6D1B0096
:1003F000096EBF6D5B09126EBF6D5B5B125B645B68
:10040000121312131B1212090100001C242E1C09C6
:1004100000096E2524010009767F7F000012777F96
:100420007F641264BFBF775B121B09BF6D5B121B39
:1004300009000012131B0900000000090000000061
:1004400000000000000000000000007F7F53131335
:1004500000000064121B01000000001B12000000DD
:10046000000000000000000000000000000000008C
:10047000000000000000000000000000000000007C
:10048000000000000000000000000000000000006C
:1004900000000026000000260026262F0000002F66
:1004A0000000003700000037000000FF000000FFE0
:1004B000000000BF000000BF0000BF370000370091
:1004C000003700002626000000262600000000005D
:1004D000000000262626002626262600002F002FB4
:1004E0000000000037000037000000FF000000FFA0
:1004F000FFFFFF00000000BF000000000000003709
:1005000000000026262600262626260000000000E1
:10051000000000260026262626000000002F0000EE
:10052000002F0000003700000037000000FFFFFF31
:10053000FF00000000BF000000BF00000037000007
:1005400000370026002626262600000000000000B6
:100550000000000000262626002600002F00002FA5
:10056000002F003700000037000037FF000000FFB9
:10057000000000BF000000BF0000BF3700003700D0
:10058000003700262626000000260000000000009C
:10059000000000000026000000000000002F000006
:1005A0000000000037000000000000FF0000000015
:1005B00000000000BF000000000000000037000045
:1005C0000000000000260000000000000000000005
:1005D000000000000000000000000000000000001B
:1005E00000000000000000000000E400000000091E
:1005F0009BEDF60000009BA4ADBFBF00529BA4760C
:100600007F7FB75B9B6D777F766EB7000000000041
:10061000000000000000005BB6F6F6005BF6FFFF8E
:10062000FFFFBFF6FFFFFFFFBFBFAEFFBFFFFFFF34
:10063000B7AD65BFBFFFFFB7B6AD65B7BFFFFFBFC3
:10064000B7AE6EB7BFFFFFBFB7B7650000000000D1
:10065000000000F6F6EDEDADA4A49BB66D6D5C5206
:100660006E65646565655265766D255C5C52536E9A
:1006700024656E6552526E252524255B52772D2503
:10068000252524526E6E2D2525252500000000000D
:100690000000009B49000000000000A49B920000A5
:1006A0000000002564934900000000652E9B520065
:1006B0000000006D256552000000006D2D655200A0
:1006C0000000006E2E6452000000000000000000D8
:1006D00000495B00000000004A5B65000000005B11
:1006E0009B6D2D0000005B5B2D2E250000525B2EC4
:1006F0002E1C0900015B2D1C01091C005C5B014ADA
:1007000065777F4A5B1C6E7F7777769B77776D6521
:100710006E6EA4776E6565655BA4B725255C525245
:100720006DBFBF130949647FBFBFBF095C7F7FBF37
:10073000BFB7BF7F7F777F7FB7BFBF77777F7F6E82
:10074000B7BFBF777F7F6E77BFBFBFB6FFFFFFBF6B
:10075000BFB75BBFFFFFFFBFBFA464BFFFFFFFBF0B
:10076000ADA47FBFFFFFFFBFA4BF7FFFFFFFBFADF3
:10077000BFBFBFFFFFFFB6BFBFBF77FFFFF7BFBF62
:10078000BF7777FFFFFFBFBFBF64526D7F6E2E2D17
:100790002D256E7F766E6E6E2E2565777777762E99
:1007A0001C25247F776E251C251C1B776525251CA1
:1007B000090A5B6E6E1C09492564645B494A6E7FB9
:1007C000645C005377BF775B5C00006E255B4A007A
:1007D0000000001C1B5B0000000000245B530000B5
:1007E0000000005B5C0000000000006400000000EE
:1007F00000000000000000000000000000000000F9
:1008000000000000000000000000005B5C7FBF777C
:100810007677775C6D7FB7777777775C6D7FBF771B
:100820007777BF5C64BFBFBFBFBF7F0A5C6EBFBFCF
:10083000BFBF760065646DBFBFBFBF00005B6D6466
:100840006DADB600000000125B646D777F6E6E7751
:10085000BFBFBF7F766D7677BFBFBF776D6E767F88
:10086000BFBFBF6D6E767FBFB7ADF676BFBF76A454
:10087000ADFFFFBFB664ADFFFFFFFFB6ADBFFFFF2B
:10088000FFFFF6ADB6AD645B520000FFFFBFBFAD2A
:100890005B64BFFFFFB6ADADBFFFBFFFF6FFFFFF5D
:1008A000FFBF64FFFFFFFFBFB6765BFFFFFFBFBF69
:1008B0005B0000FFFFFF5C00000000A400000000E0
:1008C0000000000000000000000000BFBF645C5C8E
:1008D0000000006E5C6549000000006D5B000000D8
:1008E0000000000000000000000000000000000008
:1008F00000000000000000000000000000000000F8
:1009000000000000000000000000000000001409CA
:100910000000000000020800085504085A0000F812
:10092000000990000A1E32050000FF0001140D00AE
:100930000102140E000203140F000304141000043B
:10094000051411000506141200555A454C4A42413F
:10095000414142424243434344444445454546465F
:1009600046474747435055202020424F4F5420438D
:10097000414D5020202000205448452042524943F8
:100980004B59415244200020202056454C4F4349AA
:100990005459202020200020202020204D415A455D
:1009A00020202020202000202020524943484F436F
:1009B000484554202020002054484520484F4E45AB
:1009C0005920504F5420002020464F43414C205086
:1009D0004F494E5420200049542753204E4F542055
:1009E0004641495221200020204D55434820424590
:1009F000545445522020002020544845204841525C
:100A0000424F555220200050415553454400424129
:100A1000494C202D205800544F54414C3A00534328
:100A20004F52453A00202020202020202020202046
:100A30002020200053554348204641494C20202087
:100A40002020004C4F4C202020202020202020203F
:100A5000200042524F4B454E20425554544F4E3F7A
:100A600000545259204154204C45415354202000F9
:100A7000544F4F2045415359202020202020005919
:100A800041574E20202020202020202020004E4FA3
:100A90004F422020202020202020202000544841A8
:100AA0005427532049543F20202020004E454544E0
:100AB0002048454C503F20202020005046465420DE
:100AC0002020202020202020200046494E414C207C
:100AD00053434F5245004259004F574E530045442F
:100AE0004954202D2055502F444F574E0052455306
:100AF00045542044454641554C5453202D20534CD9
:100B000020283553290043414E43454C202D205881
:100B100000434F4E4649524D202D20410053454C35
:100B2000454354202D2041005032005031003B00FD
:100B30005F5F5F5F5F5F5F5F5F5F5F00454449547A
:100B40002048414E444C450054414E4B2052414EAA
:100B50004B00504C4159455220565320504C41595E
:100B6000455200504C415945522056532043505550
:100B70000032303135204C415752454E43452042DA
:100B8000524F4F4B530002A61B00004F0750070265
:100B9000C1140000E306E406027A12000045024692
:100BA0000202C9100000AF01B00102C7100000002E
:100BB00000010002C51000000000010002A50E00A7
:100BC000001E021F0202330D000070017101027A43
:100BD000120000450246020000002C0D000000003B
:100BE00002C1140000E306E40602280D0000000024
:100BF000010002260D000000000000000000040CAF
:100C000000000000000202000432010301010301A0
:100C100001030101030101030101030101030101BA
:100C200003010103010103010103010103010103A8
:100C30000101030101030101030101040101040198
:100C40000104010104010104010104010104010185
:100C50000401010401010401010401010401010472
:100C60000101040101040101030101030101030168
:100C7000010301010301010301010301010301015A
:100C80000301010301010301010301010301010348
:100C90000101030101030101040101040101040137
:100CA0000104010104010104010104010104010125
:100CB0000401010401010401010401010401010412
:100CC0000101040101030101030101030101030109
:100CD00001030101030101030101030101030101FA
:100CE00003010103010103010103010103010103E8
:100CF00001010301010401010401010401010401D6
:100D000001040101040101040101040101040101C4
:100D100004010104010104010104010104010104B1
:100D20000101050000FF00000000000000050000B8
:100D3000FF000000FCFEFEF3EDF0031724180F097E
:100D400001F7F2F4F900FBF4F0F5FC0201FBF8FB0B
:100D500002090A0700FFFF01000002030300FF0071
:100D60000302FFFEFFFFFEFCFBFC0103030100FF8B
:100D7000FEFEFF0001000000000102020200FEFD75
:100D8000FCFCFBFAFD0000FEFDFE0003050504006F
:100D9000FEFCFDFE02080903FAF7F8FDFF00010161
:100DA000FDFCFE00020301FDFBFCFF010504020146
:100DB000010000FFFF010100FEFEFFFFFF0101FF38
:100DC000FEFDFCFCFE0001020200FFFFFEFEFF0034
:100DD000000001FFFDFCFE00010201FFFEFEFD0020
:100DE0000205040200FEFEFCFEFF020302FEFBFA07
:100DF000FBFDFE000101FFFFFFFFFDFD00010A0AF0
:100E00000700F8F3EFF6FE0B10110B00F6EEEFF40F
:100E1000FF080D0E0A03F9F4F0F4FC040C0D0D06A6
:100E2000FEF4EFF1F7020A0E0D06FDF4F0F2FA03FC
:100E30000B0D0A04FDF8F5F6FB03090A0802FCF79E
:100E4000F5F6FA000507070502FEFBF8F9FD0308B1
:100E50000A0700F9F4F5F901090C0A03FCF7F5F8A3
:100E6000FB000509080400FCFAF8FAFD050A0B0668
:100E7000FFF9F6F5F7FD040A0A05FFF9F7F7FAFEA0
:100E80000408080500FCFAFAFCFF0205060400FB52
:100E9000F8F8FBFF03060704FFFBF8FAFD01030463
:100EA00003010000000000FF00FF00FE03FCEDED69
:100EB000EDED110F111111111110100A11110D0189
:100EC00008FA0BFBFCF601F900F2F5FA0201FFFF4C
:100ED000FBFEF903F7FFFF07FBF6FBFA04FF01F740
:100EE00007F801F2FDF80AFDFAF7F405FF03F4062E
:100EF000FA0AF503FA0C0308FD01040206FD02FEDE
:100F000007F9FEF7010304FFF9F40302FAFA0002FD
:100F100005FD0202080806030101FD01F701FC03BB
:100F2000F9FEF3FFFD02FEFF00FF06FA04FC07FCDA
:100F300002F402FF080504030405FA03F3FFF800B6
:100F4000F7FEFA0300FEFFFE070105FC00FE0BFFA3
:100F500001FD0204FFFEFCFEFB01F8FEFD0601029E
:100F6000F902030400FDFEFFFEFCFEFC030402FF89
:100F70000000040100FE00FF02FFFDFEFEFFFAFD7F
:100F8000FAFFFC00FE02FF0301010303040302FD5C
:100F900000FE00FDFFFDFFFDFCFBFD00FF00FD006E
:100FA00000030102000000FEFDFD0001030000003F
:100FB00001010000FF01FFFFFC00FF00FEFDFDFE40
:100FC000FFFD00FE030002FF01020201FEFFFE0121
:100FD000FE00FC00FE00FEFFFFFF02FE00FD02FF20
:100FE00002FF01010200FE00FE02FE00FD00FD0006
:100FF000FDFFFF0000FEFFFD01FF01FE00FF00FFFF
:10100000FE0000020001FE010001FFFEFFFEFEFDEA
:10101000FEFD01FF01FF010102000001FE00FDFFD6
:10102000FE010000FFFF00FF00FE00FE00FEFEFECE
:1010300000000000FE01FF01FF00FF01FFFFFF00B5
:10104000010000FF00FE00FEFFFEFFFFFFFFFF01AB
:10105000FF00FF00FF00FFFFFF00000000FF010096
:1010600001FF00FFFFFFFEFDFEFEFEFFFF0000018F
:1010700001010101010000FF00FFFFFEFFFFFF0073
:10108000FF000000FFFFFEFEFEFEFEFEFFFF000071
:1010900001000101010000000000FFFFFFFFFEFF53
:1010A000FEFFFFFFFFFFFFFFFFFFFF00000000FF4D
:1010B00000000000000001010000FF0000FFFFFE33
:1010C000FFFFFF000000000000FFFFFFFF00000027
:1010D00000FFFEFF00010100FFFEFEFF010100FF17
:1010E000FEFEFF000101FFFEFEFF00020100FEFD0B
:1010F000FE00020200FEFDFD00020201FEFCFD00FA
:10110000020301FEFCFD00030301FEFBFC000304DF
:1011100001FDFBFC00030401FDFBFC01040400FCD9
:10112000FAFD01050400FBFAFD020604FFFAF9FED0
:10113000040704FEF9F9FF050703FCF8FA000607A7
:1011400001FAF8FC030705FEF8F8FE060803FBF7B2
:10115000FA02080700F8F7FD050905FCF6F8010892
:101160000801F8F6FC060A05FBF5F802090800F785
:10117000F6FD070A04FAF5F9030A08FEF5F6FF0979
:101180000B03F8F3FA060C07FBF3F6020B0A00F563
:10119000F3FD090D04F7F2F9060D08FBF2F5020C58
:1011A0000B00F4F3FE0A0C03F7F2FA070C06FAF34D
:1011B000F8040C08FDF4F6010A09FFF7F6FE07082B
:1011C00002F9F7FD050803FBF8FC030603FDFAFD31
:1011D000010302FEFCFE010200FEFE000201FEFC15
:1011E000FE020402FDFAFC030603FCF8FB030805FB
:1011F000FDF7FA020706FEF8F9000605FFFAFAFF06
:10120000040501FCFBFE030401FDFCFE010201FFDD
:10121000FEFE00010100FEFDFF010100FFFEFF00D8
:10122000000000FFFFFFFF000100FFFEFE000101C4
:10123000FFFEFE000201FFFDFF010200FEFDFF01B7
:101240000200FEFDFF010200FEFE000101FFFEFFA5
:10125000000100FEFEFF0101FFFEFEFF010100FE96
:10126000FEFF000101FFFDFEFF010200FEFDFF0188
:101270000100FFFEFF0000000000FFFFFEFEFEFE7B
:10128000FEFFFFFFFF000000000000FFFFFF000067
:101290000000000000010101010101000000FFFF4A
:1012A000FFFFFF0000FFFFFFFFFFFFFFFFFFFFFF4C
:1012B0000000010203030303030100FEFDFCFAFA30
:1012C000F9F9F9FAFAFBFDFEFF0102030303030239
:1012D0000100FFFEFEFEFEFEFEFFFF000001020316
:1012E00004040404030202010000FFFFFFFFFFFEED
:1012F000FEFEFEFEFEFEFFFF0001020303040303E9
:10130000020100FEFDFBF9F8F7F6F6F7F8FAFCFE2D
:10131000000204050607070706050301FFFCFAF9AA
:10132000F8F8F9FBFCFE00020304050506050504B8
:101330000201FFFEFEFDFDFDFEFFFF0000000000BC
:10134000FFFFFFFEFEFEFDFDFDFEFF00020406079F
:10135000070706050300FDFBF8F7F5F4F4F4F5F7CD
:10136000F9FBFE010407090A0B0A08060401FFFC49
:10137000FAF9F8F7F7F8F9FBFDFF0204060707078B
:101380000604020100FFFEFDFDFDFDFEFEFF000064
:10139000010101010000FFFEFEFEFEFEFF00010252
:1013A00003040506070706050300FDFAF8F5F4F344
:1013B000F2F3F4F6F8FAFD000306080A0B0B0A092B
:1013C000070402FFFCFAF9F8F7F7F8F9FBFD000251
:1013D0000305060606050403020100FFFEFDFDFDF0
:1013E000FDFEFF0000010101010000FFFFFEFEFF06
:1013F000FFFF0000000000010102020303030201DD
:1014000000FEFCFBFAF9F9F9F9FAFBFCFDFEFF011D
:101410000203040405040403020100FEFDFDFCFCBC
:10142000FCFDFDFEFF0001010202030303020202B4
:10143000010000FFFEFEFDFEFEFEFF0000010101B7
:1014400001010101010100000000FFFFFEFEFEFF9F
:10145000FFFFFFFFFFFEFEFEFEFEFF000101020197
:101460000100FFFEFEFDFDFDFDFDFDFDFDFDFEFE9F
:10147000FF00010203030303020100FFFFFFFFFF60
:10148000FFFEFEFEFEFEFEFFFF0001020202020161
:101490000100000000000000000000FFFFFFFFFF50
:1014A000FF00000000FFFFFFFFFEFFFFFFFFFFFF49
:1014B000FFFFFFFFFFFFFFFFFFFFFFFFFFFFFF003B
:1014C0000000FF00FF00000000000000FF00FFFF21
:1014D000FFFFFFFFFFFFFF00000000000000000013
:1014E00000FFFF000000000000FFFF000000FFFF02
:1014F000FFFFFFFFFFFF00000000000000000000F2
:1015000000FF00FF000504030602FCFEFBFAFBF7E8
:10151000F6F8F8FBFF000507060608090803FFFEBA
:10152000FDFEFCF8FBFBFC0100FDFDFF01030402D6
:10153000FF0000FF0102FEFE0303FFFFFFFEFE00AF
:1015400000FEFFFEFC0104FFFCFD0100FDFFFDFFAE
:1015500003FFFE01FFFE0203FFFD00FFFF01FFFE90
:10156000FCFCFCFB010506090B080401FFFDFAF871
:10157000F8F7F8F8FAFE01FFFF0304040506060475
:10158000030100FFFEFDFDFFFEFCFDFDFCFCFDFF79
:101590000208060403FEFDFBFAFBF8F8FAF8FC016A
:1015A0000305060808070503040401FAF9FCFBFA21
:1015B000FCFAFDFEFC000101050601050300020026
:1015C0000002FDFDFEF7FAFFFEFFFFFD0201FFFF37
:1015D0000103000004010002FEFDFDFCFAFC05030E
:1015E000FE0100FD0001FFFFFF010101FFFBFAFD0D
:1015F000FCFBFCFF00060C0A0B0C070401FDF9F3D1
:10160000F2F6F6F6F9FBFCFFFF00050707070807EF
:1016100004020301FFFFFCFAFCFBFAFCFEFEFDFEE8
:10162000FDFDFF010103050301020301000201FFAB
:10163000FFFFFFFF00010A1209FEF5F0EDEEF1F1E8
:10164000F0F2F7FE0811120F0F0E0C0B080502FC4A
:10165000FAF2EFF2F40100F5FB04FF0005060201C7
:1016600002FEFD0200040F0A02FFFF0301F9F5FA72
:10167000FCF7F6FE0201FF0301FEFF0000FEFCFD89
:101680000102FF00070603FFFDFEFEFAFAFEFDFA67
:10169000FC0000FEFEFF0001FEF8FE0F110D100E13
:1016A0000905FFFBF8F3F0F2F3F4F5F9FDFCFE0297
:1016B00003030506090B0804030403FEFBFEFFFBFE
:1016C000FAFCFCFBFBFCFAF8FAFD01050504040436
:1016D0000202050603030301FEFEFF0100FEFBFB01
:1016E000FBFBF9FBFEFDFDFB0213180D00F8F5F204
:1016F000F2F9F9EFEEF901070A0B0C0903FF0107F4
:101700000801FB00FFF4F90101F9F3020BFFFD05ED
:101710000C10FFFB02FBF7FBFF0203FDFB010202C3
:10172000FEFD04FDFA0000FFFF0102FEFAF8FEFFD5
:1017300000FCFC0300FDFE0505FEFE0505FFFAFDAD
:10174000050301010001F8F7FCFE0000FFFFFF01A7
:1017500001000303FBF8F4F00417170F090D0B0643
:1017600002FAF3EEEBEEF2F2F5F8FAFFFE000406F1
:101770000B0C0A090807050302FEFBFCFEFCFBFD3F
:10178000FCFBFAF9FBFDFEFE01070601020506035C
:10179000030300FDFCFBFFFFFF01FEFDFEFEFF005B
:1017A000FEFEFCFAFCFDFD0719180AFFF9F5F2F13F
:1017B000F1F1EFF1F8FE050B08060C0D05030C081E
:1017C00000FFFCF8F6FA020000020401FE02070224
:1017D000FBFAFE00F9FB0200FE03FEF7020302071C
:1017E00004FFFEFE02FC0008FDF8F9FBF6F9FFFE1F
:1017F000FC0005F8FF0A00070402FEFF03030106D0
:10180000FEFB0602FCFFFBF6F6FCFFFC0001FF02FC
:101810000701FC0405FC0005FDFEFFFEFDF9F8EEE6
:10182000FC1414110F0A070400F8F3F5F2EFF0F3BB
:10183000F4F7FCFE010408090A090B0A0705040174
:10184000FEFBFAFFFFFBFCFDFDFAFBFCFEFDFEFECE
:10185000000503010000000001FFFF0300FE01027C
:1018600002FF0001FDFEFFFEFAFBFF00FEFBFE0192
:1018700000FF0B20170BFFEFEBF1F0F3F2F0EDF0B0
:10188000FB00060F0F0F0F0D100C0B0800F6F2EC0B
:10189000F1FEFDFCFCFC0602FE06020704F9010253
:1018A000FCFE00080AFAFCFAFB07FBFBFEFD01FC4C
:1018B000FD0203050400FFFDF80300F5F9FCF7FA4B
:1018C00001070E0303060003FFFDFEFCFD00FBFE07
:1018D000FCF6FD020504FF020200030303FCFAFE0E
:1018E00001FC000603FFFBFCFD0000FE0002FDFE04
:1018F000FEFBFEF3F60C10100E080A0601FEF8F5CA
:10190000F3F2F2F1F2F7FB000401020508070B11F4
:101910000F05FF0300FAFAFF03FFFBFAF7F6F8F7EB
:10192000FAFF01FDFA01060502050705000105069B
:10193000030100FEFDFE00FEFAF9F8FAFCFF0202C8
:10194000FEFCFD0002020404020004030717170B4B
:1019500000F5ECE9EAEAECF0F3F6F7FB06101113F8
:101960001413110B080603FCF9F6EFF1FAFDFBFC6A
:10197000FEFAFA0204030808030101010405FDFA56
:10198000FCF9FBFF0102FD0102FB0007010404F961
:10199000FBF9F5FBFA04FDFE02FE05060C0D06063A
:1019A00000FEFBF8F8F8F9FAF7F4F6F8FE0007097C
:1019B0000809070407040404FF0100FCFBFBFDFE0B
:1019C000FCF9FBF8F9FCFE020200FEFF0202010333
:1019D00003FCF6FC0B0F0D0D090A0902FEF6EEEEF4
:1019E000EFF2F6F9FCF9FBFCFF06080C100E0B08F1
:1019F0000201020300FEFBF6F7F7F8FCFCFCF7F827
:101A0000F8FBFF03090B06040606020000FEFEFEBB
:101A1000FF0100FFFEFDFEFDFDFEFEFF00FFFDFFDE
:101A2000FEFBFD000202030605040301FF0101FFA6
:101A3000FF01FCF9F9F7F7FAFF0D180E02FCF1EFC0
:101A4000F5F4F5F9FCFDFF0506060C0B080909087D
:101A50000702FEFBF4F0F1F5FCFEFC0201FE0105BD
:101A60000503050501010201000505FDFAF9F4F77A
:101A70000000FFFE00FEFC04060105050001FFFD5D
:101A8000FFFCF9FBFBFDFDFD04030405FEFEFF0169
:101A900001FBFF0400FDFEFAFCFDFF03020603FF4D
:101AA0000401FEFFFFFDFDFFFFFDFE01FCFE000047
:101AB000030100030301FEFD00FEFBFDFDFFFBF73C
:101AC000FF0506090A0D0E0A03FEF5F0F1F6F9F915
:101AD000FBFBFBFCFDFF04050608070604050503E8
:101AE00003FFFDFAFDFBF9FDFEFEFBF9FAFAFAFE33
:101AF000040705010102FF010201000001020201C9
:101B000000000201FEFF0001FCFAFCFAFAFCFCFEF8
:101B10000103060706050400FDFE00000102FFFCAC
:101B2000FBFBF9FAFDFDFE000202000100000303C9
:101B300002020100FFFF01FFFEFF050C01FAF9F5AB
:101B4000F3F6F8FAFFFFFF02020203040406070897
:101B500008060503FDFCFCF6F6FAFAF8FBFDFCFEB0
:101B6000010203030305060508060204FEF9FBFA59
:101B7000FCFDFDFEFFFBFAFDFCFCFF010103020181
:101B80000502FE0403FF0403000201FEFCFDFCFA53
:101B9000FDFDFCFEFBFCFBFAFEFF0005050506054E
:101BA000060404020100FFFFFFFFFFFEFFFEFFFE31
:101BB000FEFEFEFEFEFEFEFEFFFF0000010203022F
:101BC000030203020301020000FFFFFEFEFDFDFD14
:101BD000FCFDFBFCFCFBFBF9FBFAFBFAFDFDFF0047
:101BE0000203060608080908070805040401FFFFA8
:101BF000FCFBFAF8F9F7F7F8F7F5F7F6F7F8F8FA63
:101C0000FBFDFF00030506090A0C0D0E0D0E0D0C61
:101C100009080401FEFAF7F4F1F0F1EFF0F2F1F344
:101C2000F6F6F8FAFCFEFF02030508080C14101281
:101C300016140F0D0704FCF5F6F1EBEFF2EEF4F8D5
:101C4000F8FAFDFF00FEFD00FBF9F8F8F6F7F9FEE3
:101C5000FE061113151C1B19150E0A02F5F3F2E608
:101C6000E8EBEBEEF3F7FB01020708050503FCF9CF
:101C7000F7F4F3F1F6F9FC090E111B1C1A1B120DF7
:101C800009FBF3F5E9E5EAE9EBF2F5F90303080DE1
:101C900009080500FAF5F2EFEFF0F3F8050E0F1B57
:101CA000211B1F190E0CFFF4F3EAE0E6E5E6EDF464
:101CB000F800070911110C0C06FEF8F3ECEDEAEC44
:101CC000F1F7070C121E201D1F16100BFDF5F4E78F
:101CD000E4E7E6E7F0F5FA03070D110F0B0B03FA43
:101CE000F7EFEBEBE8EBF1F8090D141F221E1F18BC
:101CF000100CFAF7F2E5E4E8E5E8F2F3FC03070C70
:101D0000100C0C0800F9F6EDE9EAE6EBF0F5080F27
:101D1000131E2820221E150F01F9F6E8E3E7E4E47C
:101D2000EEF1F6FD040B0E0D0D0B03FEF9F3ECEADC
:101D3000E8EAECF0FC0C0F17242720241F150D00F7
:101D4000FBF1E6E4E5E0E7EBEEF5FE04080B0C0C36
:101D50000604FFFAF3F0ECEAEAEDF3F6070F141FBE
:101D6000272327211A1306FCF6E7E5E3DEE2E7E87E
:101D7000F1F7FF04080C0E080804FEF7F4F0EDE993
:101D8000ECEFF4F70611161D282824241C1506FD77
:101D9000F8EAE2E4E1DFE6EAEFF5FB0306090B0A05
:101DA0000605FEF9F5F2EDEDEEF0F4F8FF050F167D
:101DB0001C2025231E19130A00FBF3EDEAE9E8EACB
:101DC000ECF0F2F8FBFEFF0201FEFEFCF9F6F6F67F
:101DD000F4F8F9FBFF0206080B0D0F13141214158B
:101DE000100D0C070001FBF7F4F3EFEFEEEEEAEE57
:101DF000EFEFF2F5F7F8FD00010106040405060512
:101E000003040401020403040807090B0B0C0A0C69
:101E100009060602FEFAF9F5F2EFF1EEEEF0F1F244
:101E2000F7F9FBFF010304050405040502030202A0
:101E300002010201FF010000020203020404030385
:101E4000020301FEFEFCFBF9F9F7F8F8F7F9FAFBDB
:101E5000FCFE00000302030503040202FFFFFEFC78
:101E6000FCFBFCFBFDFDFF00010203030404040373
:101E70000300FFFEFCFBF9FAF9FAFAFDFD0001038D
:101E8000040504060505030300FFFCFCFCF9FAFA4F
:101E9000FBFBFCFDFDFFFF00000100000000FFFE5A
:101EA000FDFEFDFEFDFEFE00000101020103010139
:101EB0000000FEFE00FEFF0000FF01000100010027
:101EC000FFFDFDFBFBFAFBFBFCFCFE00FF02020337
:101ED0000302020000FEFEFDFCFCFFFFFEFEFFFE13
:101EE000000000FF00FF00FF00000000000000FFF6
:101EF000FFFFFFFEFFFEFFFEFFFEFFFEFF000000F4
:101F00000000FF00FF00FF000000FF00FF00FF00D7
:101F1000FE00FEFFFEFFFEFFFEFFFEFFFEFFFFFED8
:101F2000FFFFFEFFFEFFFEFFFFFEFF00FF00FF00C2
:101F3000FF00FF000000FF00FF0000FF00FF00FFA8
:101F4000FFFFFFFFFEFFFEFFFEFFFEFEFDFEFEFDAC
:101F5000FEFEFDFEFDFEFEFDFFFE00000000010195
:101F6000020203020203020303030203020201014D
:101F7000FFFFFDFDFCFAFAF8F9F8F9F9F8FAFBFAB7
:101F8000FCFDFDFFFEFF000001FF01000100020259
:101F90000405070809090C0B0A0909060100FEFAE5
:101FA000F6F4F3F0F1F1F2F2F6F8FAFCFEFFFF01BD
:101FB0000100FFFFFEFBFDFCFBFAFDFE02020A1022
:101FC00010151B171514110A02FEF8F0ECEBE8E8E7
:101FD000E9EEEFF2FAFD00050909080906FFFDFB2D
:101FE000F7F3F3F3F1F1F5F5FAFE0409131A1C21E6
:101FF00026211D1B110800F6EDE5E1DEDDDEE4E93A
:10200000EFF4FF0309101112120E0A02FEF8F2EDAE
:10201000EDEAEBECF0F2F8FD020B191E202B2E2559
:1020200023201408FDF5E6DDDAD5D5D7DEE4ECF49F
:1020300002060E161A191A150F06FFF9EFEBE8E65D
:10204000E5E6E8EEF3F8010B1F1F263332292C23B7
:102050001608FFF2E0D8D3CDCCD3D7DFE6F50108E0
:10206000131E1E22201C130A02F8EDE9E3E0DFE054
:10207000E2E9EEF6FF152020323C32313224150819
:10208000FEEBDBD6CFC8CACFD4DCE6F8000C1A21B1
:102090002227221D140B02F5EFE8E1DEDDDDE2E789
:1020A000EFF50C1B1B2B3C3432362C1B1006F5E2D3
:1020B000DAD3C7C8CBCCD4DDEEF604151C20292614
:1020C000211A1309FDF6EFE5E1E0DCDEE4EAF20BAC
:1020D00013172A382E35352A1D1408F8E7E1D5CB19
:1020E000CCCBCBD0DCE9EE0012131F2623211B182A
:1020F0000C02FEF5E9E7E4DFE0E4E9F8070D182C4F
:102100002B2C332E241C1405F7EDE3D5D2CFCCCDE8
:10211000D3DEE3F0030A111D201D1E1B160C050162
:10212000F4EFEBE7E2E6E6EF00040C2124222E2A8E
:10213000221D170CFFF6EFE3DAD9D4D1D2DDE0E6A9
:10214000F802051218171918170F0B0700F8F6F107
:10215000ECEAEEEAF706030D221B1D2621171610E6
:1021600006FBF6EFE3E1DEDBD6DBE4E4EDFCFF06A5
:102170001013131316130B0A07FFFCFAF6F0F0F313
:10218000EEFA07030D1C1B18201C140F0E03FBF5A1
:10219000EFE6E0E0DCD9DEE5E5EFFBFF030F111031
:1021A0001116100B0A09FEFDFDF6F3F6F5F2F70223
:1021B0000505111916171D170E100BFFFAF5EDE5A1
:1021C000E3E1DDDDE4E6EAF5FB00090E101115138D
:1021D0000E0E0A04FFFFF9F6F5F6F4F5FAFDFF031B
:1021E0000B0E0E16171515150D0602F9F3EEE7E4A2
:1021F000E1E2E1E5E9F0F4FC03090D12121211101D
:102200000B0604FEFAF7F4F3F2F3F6F6FBFF04070D
:102210000C0F101211100D090400FCF6F1EFEDEC9B
:10222000EEEFF3F7FA000406090B0C0A0B0807039C
:1022300001FCFAF6F5F3F4F4F4F7F9FD0002060AEE
:102240000A0C0C0C0A070601FCFBF6F4F4F2F4F598
:10225000F8FAFE0105060A0B0C0B0A09050301FC3E
:10226000F9F7F4F2F1F3F3F3F7FAFBFF01040607D1
:10227000090808060501FFFCFBF8F8F7F8F9FBFC74
:10228000FF02040607080A090907050302FDFCFA14
:10229000F8F6F8F5F6F9F8FBFDFE0203040506046E
:1022A00005040100FDFCFBF9F9F8FAFAFCFD000257
:1022B00003050606060705050300FFFDFCF9FAF80D
:1022C000F8F9F9FBFCFCFFFF020204040404030319
:1022D0000100FEFDFCFAFBFAFAFBFCFCFEFF00012C
:1022E0000204040505030102FFFFFDFDFAFBFAFAF3
:1022F000FAFCFDD000000002020202020202020209
:1023000002020202020202020202020202020202AD
:1023100002020202020200000000000000000000B1
:1023200000000000000000000000000000000000AD
:10233000000002020000000605000000000000008E
:102340000000000000000000004242424242420001
:10235000020200000602020500000000000000006A
:1023600000000000000000424D4D4D4D42000202B1
:10237000000602020202050000000000000000004A
:102380000000000000424D4D4D4D4200020200048D
:102390000202020203000000000000000000000032
:1023A000000000424D4D4D4D42000202000004026B
:1023B0000203000000000000000000000000000018
:1023C00000424D4D4D4D420002020000000403004A
:1023D00000000000000000000000000000000042BB
:1023E000424242424200020200000000000000009F
:1023F00000000000000202000000000000000000D9
:1024000000000000020200000000000000000000C8
:1024100000000002020000000000000000000000B8
:1024200000000202000000000000000101010101A3
:102430000002020001010101010000000000000093
:102440000202000000000000000101010101000281
:102450000200010101010100000000000000020271
:10246000000058000000000101010101000202000B
:1024700001010101010000006300000002020000F0
:102480000000000000010101010100020200010141
:102490000101010000000000000002020000000035
:1024A000000000010101010100020200010101011F
:1024B0000100000000000000020200000000000017
:1024C0000000000000000002020000000000000008
:1024D00000000000000002020000000000000000F8
:1024E00000000000000202000000000000000000E8
:1024F000000000000202004242424242420000004C
:1025000000000000000000000000000000060500C0
:102510000000020200424D4D4D4D420000000000FF
:10252000000000000000000000000602020500009C
:10253000020200424D4D4D4D4200000000000000DF
:102540000000000000000006020202020500020274
:1025500000424D2C4D4D42000000000000000000E4
:102560000000000000040202020203000202004216
:102570004D4D4D4D420000000000000000000000E5
:102580000000000004020203000002020042424276
:102590004242420000000000000000000000000075
:1025A0000000000403000000020200000000000020
:1025B000000000000000000000000000000000001B
:1025C00000000000000002020202020202020202F7
:1025D00002020202020202020202020202020202DB
:1025E00002020202020202020202020202020202CB
:1025F00002020202020202020202020202020202BB
:1026000002020202010101000000000000000000BF
:1026100000000000000000000000000000000000BA
:1026200002020101010000000000000000000000A3
:102630000000000000000000000000000000020296
:10264000010101010101010100000101010101017C
:10265000010100000101010101010101020201016A
:10266000010101010101000001010101010101015C
:10267000000001010101010101010202010101014A
:10268000010101010000010142424242010100003A
:10269000010101010101010102020100000000012C
:1026A000010100000101424D4D4201010000010104
:1026B0000100000000010202010000000001010110
:1026C00000000101422C4D42010100000101010006
:1026D00000000001020201000000000101010000F1
:1026E0000101424D4D4201010000010101000000C5
:1026F00000010202010000000001010100000101CF
:1027000042424242010100000101010000000001BB
:1027100002020100000000000001000001010101AF
:10272000010101010000010000000000000102029F
:102730000100580000090001000001010101010130
:102740000101000001000900000000010202010077
:102750000000000000010000000000000000000078
:1027600000000100000063000001020201000000FF
:10277000000101010000010101010101010100004E
:10278000010101000000000102020100000000013F
:10279000010100000101010101010101000001012D
:1027A000010000000001020201000000000101011F
:1027B000000001014242424201010000010101000A
:1027C0000000000102020100000000010101000000
:1027D0000101424D4D4201010000010101000000D4
:1027E00000010202010101010101010100000101DA
:1027F000424D4D42010100000101010101010101B1
:102800000202010101010101010100000101424D2B
:102810004D4201010000010101010101010102021B
:102820000101010101010101000001014242424296
:102830000101000001010101010101010202010188
:10284000010101010101000001010101010101017A
:102850000000010101010101010102020101010168
:10286000010101010000010101010101010100005C
:102870000101010101010101020201010100000049
:102880000000000000000000000000000000000048
:10289000000000010101020201010100000000002E
:1028A0000000000000000000000000000000000028
:1028B00000010101020202020202020202020202FD
:1028C00002020202020202020202020202020202E8
:1028D00002020202020202020202020202020202D8
:1028E00002020202020202020202020202020202C8
:1028F00002020000000000000000000000000000D4
:1029000000000000000000000000000000000202C3
:1029100000000000000000000000000000000000B7
:1029200000000000000000000000000002020000A3
:102930000000000000000000000000000000000097
:102940000000000000000000000002020000000083
:102950000000000000000000000000000000000077
:102960000000000000000000020200000000000063
:102970000000000000000000000000000000000057
:102980000000000000000202000000000000000043
:102990000000000000000000000000000000000037
:1029A000000000000202010101010101000000001D
:1029B0000000000000000000000000000100000016
:1029C0000001020201000000000100000000000000
:1029D00000000000000000000000010000000001F5
:1029E00002020100000000010000000002000000DF
:1029F00000000002000000000100070000010202C8
:102A0000010058000001000000000200000000006A
:102A100000020000000001000000000102020100AD
:102A200000000001000000000200000000000002A1
:102A3000000000000100000000010202010000008F
:102A40000001000000000202020202020202000075
:102A5000000001000000000102020100000000016E
:102A60000000000002000000000000020000000062
:102A7000010000000001020201000000000100004E
:102A80000000020000000000000200000000010041
:102A9000000000010202010000000001000000002F
:102AA00002000000000000020000000001006300BE
:102AB0000001020201000007000100000000000008
:102AC0000000000000000000000001000000000104
:102AD00002020100000000010000000000000000F0
:102AE00000000000000000000100000000010202E0
:102AF00001000000000100000000000000000000D4
:102B000000000000000001010101010102020000BB
:102B100000000000000000000000000000000000B5
:102B200000000000000000000000020200000000A1
:102B30000000000000000000000000000000000095
:102B40000000000000000000020200000000000081
:102B50000000000000000000000000000000000075
:102B60000000000000000202000000000000000061
:102B70000000000000000000000000000000000055
:102B80000000000002020000000000000000000041
:102B90000000000000000000000000000000000035
:102BA0000000020202020202020202020202020209
:102BB00002020202020202020202020202020202F5
:102BC00002020202020202020202020202020202E5
:102BD00002020202020202020202020202020202D5
:102BE000000000424D4D4D4200000000000000007A
:102BF00000000000424D4D4D42000000020200085E
:102C000000424D4D4D420000000000000000000059
:102C10000000424D4D4D42000800020200000042FB
:102C20004D4D4D4200010101000000000101010075
:102C3000424D4D4D42000000020202020202424299
:102C400042020001010100020200010101000242F2
:102C500042420202020202020000000000000002E2
:102C60000001010100020200010101000200000058
:102C70000000000002020001010101010002000049
:102C8000000000020200000000000200010101013A
:102C90000100020200010101010100020000000226
:102CA0000202020202000000020001010101010013
:102CB0000202000101010101000200000000000009
:102CC00000000000000002000101010101000202F9
:102CD00000000000000000000000000000000000F4
:102CE00000000000000000000000000002020202DC
:102CF00002020000000000000000000000000000D0
:102D000000000000000002020202020000000002B7
:102D10000000000000580002000000000200000057
:102D2000000000000200000000000000000200009F
:102D30000002000000020000000002630000020028
:102D4000000002000000000000000002000000027D
:102D50000000000202020202020000000200000065
:102D60000200000000020202020200000002000055
:102D7000000000000000000000000200000002024D
:102D8000020202024D4D4D42000000020000000010
:102D9000000000000000000002000000424D4D4D08
:102DA00002024D4D4D4200000002000000000000F4
:102DB00000000000000002000000424D4D4D0202E4
:102DC0004D2C4D42000000020000000202020202EF
:102DD0000200000002000000424D4D4D02024D4D28
:102DE0004D02000000000000000000020200000090
:102DF000000000000000024D4D4D02024D4D4D02FD
:102E000000000101010000000002020000000001BA
:102E100001010000024D4D4D0202424242020000FB
:102E20000101010000000002020000000001010198
:102E300000000242424202020000000200000101C2
:102E4000010000000000000000000001010100007E
:102E50000200000002020008000200000000000062
:102E60000000000900000000000000000000020057
:102E70000800020200000002000000000000000044
:102E80000000000000000000000000000200000040
:102E90000202020202020202020202020202020212
:102EA0000202020202020202020202020202020202
:102EB00002020202020202020202020202020202F2
:102EC00002020202020202020202020202020202E2
:102ED00003000000000000000000000000000000EF
:102EE00000000000000000040202020202030000D1
:102EF00000000000000000000000000000000000D2
:102F000000000000000004020202030000000000B4
:102F100000000000000000000000000000000000B1
:102F2000000000000004020200000000000006058E
:102F30000000000000000800000000000000000089
:102F4000000000000202000000000006020205006E
:102F50000000000000000000000000000000000071
:102F6000000002020000000006024D4D02050000B4
:102F70000000000000000000000000000000000051
:102F800002020000000004024D4D02030000000098
:102F9000000000000000000000000000000002022D
:102FA0000000000000040202030000000000000016
:102FB000000000000000000000000000020200000D
:102FC00000000000040300000000000605000000EF
:102FD00000000000000000000000020200000000ED
:102FE00000000000000000000602020500000000D2
:102FF00000000000000000000202000000000000CD
:1030000000000000000602010102050000000000AF
:103010000000000000000202000058000000000054
:103020000000000402010102030000000000000093
:103030006300000002020000000000000000000029
:103040000000040202030000000000000000000075
:10305000000002020000000000000000000000006C
:103060000004030000000000000000000000000059
:10307000020200000000000000000000000000004C
:103080000000000000000605000000000000020231
:103090000000000000000000000000000000000030
:1030A000000000060202050000000000020200000D
:1030B0000000000000000000000000000000000010
:1030C00006024D4D02050000000002020000000053
:1030D00000000000000000000000000000000402EA
:1030E0004D4D02030000000002020000000000003D
:1030F00000000000000000000000000000040202C8
:1031000003000000000002020000000000000000B8
:1031100000000000000700000000000004030000A1
:103120000000000002020500000000000000000096
:10313000000000000000000000000000000000008F
:10314000000602020205000000000000000000006E
:103150000000000000000000000000000000060267
:103160000202020205000000000000000000000052
:103170000000000000000000000000060202020241
:10318000020202020202020202020202020202021F
:10319000020202020202020202020202020202020F
:1031A00002020202020202020202020202020202FF
:1031B00002020202020202020202020200000000F7
:1031C00000000000000004020202020202030000EC
:1031D00000000000000000000202000000000000EB
:1031E00000000000000402020202030000000000D0
:1031F00000000000000002020000010101010000C7
:1032000000000000040202030000000000000101B1
:1032100001010000020200000101010100000000A4
:103220000000000403000000000000000101010193
:103230000000020200000101010100000000000086
:10324000000000000000000000000101010100007A
:103250000202000001010101000000000000000066
:103260000000000000000000010101010000020256
:10327000000000000000000000000000000000004E
:10328000000000000000000000000000020200003A
:10329000000000000000000002000000000000022A
:1032A000000000000000000000000202000000001A
:1032B000000000000000024242424242420200007E
:1032C00000000000000000000202000000000000FA
:1032D00000000000024D4D4D4D4D4D02000000001C
:1032E0000000000000000202005800000000000082
:1032F0000000024D4D4D4D4D4D02000000000000FC
:103300000063000002020000000000000000000056
:10331000024D4D2C4D4D4D020000000000000000FC
:103320000000020200000000000000000000024D4A
:103330004D4D4D4D4D02000000000000000000000A
:1033400002020000000000000000000002424242B1
:1033500042424202000000000000000000000202A1
:10336000000000000000000000000200000000005B
:103370000002000000000000000000000202000047
:103380000000000000000000020007000009000229
:103390000000000000000000000002020000000029
:1033A000000000000000020500000000060200000E
:1033B0000000000000000000020200000000010107
:1033C00001010100020205000006020200010101E4
:1033D00001010000000002020000000001010101E3
:1033E00001000202020202020202000101010101C7
:1033F00000000000020200000000010100000000C7
:1034000000000000000000000000000001010000BA
:10341000000002020000000001010008000000009E
:103420000000000000000000080001010000000092
:103430000202000000000101000000000000000086
:103440000000000000000000010100000000020276
:10345000000000000000000000000000000000006C
:103460000000000000000000000000000202020254
:10347000020202020202020202020202020202022C
:10348000020202020202020202020202020202021C
:10349000020202020202020202020202020202020C
:1034A0000202020202020202020202030000000003
:1034B00000000000040202020202020300000000F9
:1034C00000000000040202020300000000000000EF
:1034D00000000004020202020300000000000000DD
:1034E00000000004020200000001010101010000CF
:1034F00000000402020300000000010101010100BC
:1035000000000202000000010000000100000000B5
:1035100000040300000000000100000001000000A2
:10352000020200000001000900010000000000008C
:10353000000000000000010007000100000002027E
:103540000000000100000001000000000000000079
:103550000000000001000000010000000202000065
:103560000001010101010000000000000000000056
:103570000000010101010100000002020000000042
:10358000000000000000000000000000000000003B
:103590000000000000000000020205000000000022
:1035A000000000000000000000000000000000001B
:1035B00000000000000602020205000000000000FA
:1035C00000000001010101010101000000000000F4
:1035D000000006020202020205005800000000007E
:1035E0000001000000000001000000006300000670
:1035F00002020202020203000000000000000001BB
:1036000000000800000100000000000000040202A9
:1036100002020203000000000000000000010000A0
:10362000000000010000000000000000040202028F
:103630000300000000000000000000010101010182
:103640000101000000000000000000040202000070
:10365000000000000000000000000000000000006A
:103660000000000000000000000002020000000056
:10367000000000000000000000000000000000004A
:103680000000000000000000020200000001010133
:103690000101000000000000000000000000010126
:1036A0000101010000000202000000010000000111
:1036B0000000000000000000000000000100000009
:1036C00001000000020200000001000700010000EC
:1036D00000000000000000000000010009000100DF
:1036E00000000202000000010000000100000000D4
:1036F00000060500000000000100000001000000BD
:1037000002020000000101010101000000000602A8
:103710000205000000000101010101000000020299
:103720000500000000000000000000060202020286
:103730000500000000000000000000060202020573
:103740000000000000000000060202020202020562
:103750000000000000000000060202020202020255
:103760000202020202020202020202020202020239
:103770000202020202020202020202020202020229
:103780000202020202020202020202020202020219
:103790000202020202020202000000000000000019
:1037A0000000000000000000000000000000000019
:1037B0000000000002020000000000000000000005
:1037C00000000000000000000000000000000000F9
:1037D00000000202000000000000000000000000E5
:1037E00000000000000000000000000000000000D9
:1037F00002020000000000000000000000000000C5
:1038000000000000000000000000000000000202B4
:103810000000000000000002020202020202020296
:10382000020202020200000000000000020200008A
:103830000000000000000000000000000000000088
:103840000000000000000000000002020000000074
:103850000000000000000000000000000000000167
:10386000010101010101010102020000070000093C
:103870000000000000000000000000000001010145
:10388000010101010101020200000000000000002E
:10389000000000004242424200000001010101011B
:1038A0000101010102020000000000000000000010
:1038B0000000424D4D4200000001010100000000E7
:1038C000010102020000005800000000000000009A
:1038D000424D4D4200000001010100630000010162
:1038E0000202000000000000000000000000424D45
:1038F0004D42000000010101000000000101020230
:10390000000000000000000000000000422C4D42BA
:10391000000000010101000000000101020200009E
:1039200000000000000000000000424D4D42000079
:10393000000101010101010101010202000000007A
:10394000000000000000000042424242000000016E
:10395000010101010101010102020000000000005B
:103960000000000000000000000000000001010154
:10397000010101010101020200000000000000003D
:103980000000000000000000000000000000000037
:103990000000000002020000000000000000000023
:1039A0000000000000000000000000000000000017
:1039B00000000202000000000000000202020202F9
:1039C00002020202020202020200000000000000E5
:1039D00002020000000000000000000000000000E3
:1039E00000000000000000000000000000000202D3
:1039F00000000000000000000000000000000000C7
:103A000000000000000000000000000002020000B2
:103A100000000000000000000000000000000000A6
:103A20000000000000000000000002020000000092
:103A30000000000000000000000000000000000086
:103A40000000000000000000020202020202020266
:103A50000202020202020202020202020202020246
:103A60000202020202020202020202020202020236
:103A70000202020202020202020202020202020226
:103A8000020202020202000000000000000000002A
:103A90000000000000000000000000000000000026
:103AA0000000020200000000000000000000000012
:103AB0000000000000000000000000000000000006
:103AC00002020000000000000000000000000000F2
:103AD00000000000000000000000000000000202E2
:103AE00000000000000000000000000000000000D6
:103AF00000000000000000000000000002020000C2
:103B0000000000000002020202020202020202029F
:103B1000020202000000000000000202000000009B
:103B20000000000000000000000000000000000095
:103B3000000000000000000002020101010101017B
:103B40000101010000000000000000000000000072
:103B50000000000000000202010101010101010159
:103B6000010000000000000000000000000007004D
:103B7000000900000202010101010101010101002F
:103B8000000042424242000000000000000000002D
:103B9000000002020101000000000101010000001C
:103BA000424D4D42000000000000000000000000F7
:103BB0000202010100580000010101000000424D15
:103BC0004D420000000000000063000000000202FF
:103BD000010100000000010101000000424D2C42E3
:103BE00000000000000000000000000002020101CF
:103BF00000000000010101000000424D4D420000A4
:103C000000000000000000000000020201010101AC
:103C10000101010101000000424D4D420000000081
:103C2000000000000000000002020101010101018A
:103C30000101010000004242424200000000000079
:103C40000000000000000202010101010101010168
:103C50000100000000000000000000000000000063
:103C60000000000002020000000000000000000050
:103C70000000000000000000000000000000000044
:103C80000000020200000000000000000000000030
:103C90000000000000000000000000000000000024
:103CA0000202000000000000000202020202020202
:103CB00002020202020202000000000000000202F2
:103CC00000000000000000000000000000000000F4
:103CD00000000000000000000000000002020000E0
:103CE00000000000000000000000000000000000D4
:103CF00000000000000000000000020200000000C0
:103D000000000000000000000000000000000000B3
:103D1000000000000000000002020000000000009F
:103D20000000000000000000000000000000000093
:103D3000000000000000020202020202020202026F
:103D40000202020202020202020202020202020253
:103D50000202020202020202020202020202020243
:103D60000202020202020202020202020202020233
:103D7000020202024D4D4D4D4D4D4D4D4D4D4D4D9F
:103D80004D4D4D4D4D4D4D4D4D4D4D4D4D4D4D4D63
:103D900002024D4D4D4D4D4D4D4D4D4D4D4D4D4DE9
:103DA0004D4D4D4D4D4D4D4D4D4D4D4D4D4D0202D9
:103DB0004D4D4D4D4D4D4D4D4D4D4D4D4D4D4D4D33
:103DC0004D4D4D4D4D4D4D4D4D4D4D4D02024D4DB9
:103DD0004D4D4D4D4D4D4D4D4D4D4D4D4D4D4D4D13
:103DE0004D4D4D4D4D4D4D4D4D4D02024D4D4D4D99
:103DF0004D4D4D4D4D4D4D4D4D4D4D4D4D4D4D4DF3
:103E00004D4D4D4D4D4D4D4D02024D4D4D4D4D4D78
:103E10004D4D4D4D4D4D4D4D4D4D4D4D4D4D4D4DD2
:103E20004D4D4D4D4D4D02024D4D4D4D4D4D4D4D58
:103E30004D4D4D4D4D4D4D4D4D4D4D4D4D4D4D4DB2
:103E40004D4D4D4D02024D4D4D4D4D4D4D4D4D4D38
:103E50004D4D4D4D4D4D4D4D4D4D4D4D4D4D4D4D92
:103E60004D4D02024D4D4D4D4D4D4D4D4D4D4D4D18
:103E70004D4D4D4D4D4D4D4D4D4D4D4D4D4D4D4D72
:103E800002024D4D4D4D4D4D4D4D4D4D4D4D4D4DF8
:103E90004D4D4D4D4D4D4D4D4D4D4D4D4D4D0202E8
:103EA0004D4D4D4D4D4D4D4D4D4D4D4D4D4D4D4D42
:103EB0004D4D4D4D4D4D4D4D4D4D4D4D02023737F4
:103EC0003737373737373737373737373737373782
:103ED00037373737373737373737020200000000B8
:103EE00000000000000000000000000000000000D2
:103EF00000000000000000000202000000000000BE
:103F000000000000000000000000000000000000B1
:103F1000000000000000020200000000000000009D
:103F20000000000000000000000000000000000091
:103F3000000000000202000000000000000000007D
:103F40000000000000000000000000000000000071
:103F50000000020200000058000000000000000005
:103F600000000000000000000000000063000000EE
:103F7000020200000000000000000000000000003D
:103F8000000000000000000000000000000002022D
:103F90000000000000000000000000000000000021
:103FA000000000000000000000000000020200000D
:103FB0000000000000000000000000000000000001
:103FC00000000000000000000000020200000000ED
:103FD00000000000000000000000000000000000E1
:103FE00000000000000000000202000000000000CD
:103FF00000000000000000000700000000000000BA
:1040000000000000000002020000000000000000AC
:1040100000000000000000000000000000000000A0
:104020000000000002020202020202020202020278
:104030000202020202020202020202020202020260
:10404000020202FEFEFEFEFEFE2B2BFEFEFEFEFE2A
:10405000FEFE2BFEFEFEFEFEFEFE2B2B2B2BFEFE9F
:10406000FEFE2B121212FEFE20202B2B2B2B2020CB
:1040700020202B121212202020202B2B2B2B202033
:104080002029292B2BFEFEFEFEFEFE2BFEFEFEFE51
:10409000FEFEFE2BFEFEFEFEFEFEFE2BFEFEFEFEE6
:1040A0002B2B2B2B2020FEFE1212122B2020202047
:1040B0002B2B2B2B202020201212122929202020EC
:1040C0002B2B2B2B122B122B122B122B122B122BD6
:1040D000122B122B122B122B122B12FEFE20202041
:1040E000202020FEFE202020202020FEFEFE20207A
:1040F000202020FEFEFEFE20202929FEFEFEFE20BE
:1041000020292B2B122B122BFEFEFE2B122B122BF7
:10411000FEFEFE2B122B122BFEFEFE202020FEFEAA
:10412000FEFEFE202020FEFEFEFEFE20202020FEC1
:10413000FEFEFE29202020FEFEFE2B292B2B2B2B02
:104140002B2B2BFEFEFEFEFEFEFEFEFEFEFEFEFE08
:10415000FEFEFEFEFEFFFFFEFE3F3FFEFEFFFFFEF9
:10416000FE3F3FFEFEFEFEFFFF3F3FFEFEFEFEFF68
:10417000FF3F3FFEFEFEFE3F3F3F3FFEFEFEFE3F97
:104180003F3F3FFEFEFEFEFEFEFEFEFEFEFEFEFE8C
:10419000FEFEFEFEFEFEFEFFFFFEFEFEFEFEFEFF3C
:1041A000FFFEFEFEFEFFFFFEFEFEFEFEFEFFFFFE2A
:1041B000FEFEFE3F3F3F3F3F3FFEFE3F3F3F3F3F54
:1041C0003FFEFE3F3F3F3FFEFEFEFE3F3F3F3FFEC6
:1041D000FEFEFE3F3FFFFF1F1F3F3F3F3FFFFF1F12
:1041E0001F3F3FFEFE1F1FFFFF3F3FFEFE1F1FFF43
:1041F000FF3F3FFEFEFEFE3F3F3F3FFEFEFEFE3F17
:104200003F3F3FFEFEFEFE3F3F3F3FFEFEFEFE3FC6
:104210003F3F3FFEFE1F1FFFFF3F3FFEFE1F1FFFF2
:10422000FF3F3FFEFEFFFF3F3FFEFEFEFEFFFF3F64
:104230003FFEFE3F3F3F3F3F3FFEFE3F3F3F3F3F92
:104240003FFEFEFEFEFEFEFEFEFEFEFEFEFEFEFE4D
:10425000FEFEFEFEFEFFFFFEFEFEFEFEFEFFFFFE7A
:10426000FEFEFEFEFEFEFEFFFFFEFEFEFEFEFEFF6B
:10427000FFFEFEFEFEFEFEFEFEFEFEFEFEFEFEFE5D
:10428000FEFEFEFEFEFEFEFEFEFEFEFEFEFEFEFE4E
:10429000FEFEFEFEFEFEFEFFFFFEFEFEFEFEFEFF3B
:1042A000FFFEFEFEFEFFFFFEFEFEFEFEFEFFFFFE29
:1042B000FEFEFEFEFEFEFEFEFEFEFEFEFEFEFEFE1E
:1042C000FEFEFE121212202020292B2B2B2B202049
:1042D00020292912121220202020202B2B2B2020D5
:1042E000202020121212202020FEFE2B2B2B20201B
:1042F000FEFEFE121212FEFEFEFEFE2B2B2BFEFE1B
:10430000FEFEFE2B29202020121212292920202017
:104310002B2B2B20202020201212122020202020A6
:104320002B2B2BFEFE202020121212FEFEFE202040
:104330002B2B2BFEFEFEFEFE121212FEFEFEFEFEDA
:104340002B2B2BFEFEFEFE2020292BFEFEFEFE2048
:10435000202929FEFEFE2020202020FEFE202020F5
:10436000202020FEFE2020202020202B122B122B8C
:10437000122B122B122B122B122B122B122B122B55
:10438000122B12292B2B2B2B2B2B2B29202020FE01
:10439000FEFE2B20202020FEFEFEFE202020FEFE22
:1043A000FEFEFE202020FEFEFEFEFE2B122B122B18
:1043B000FEFEFE2B122B122BFEFEFE2B122B122BBF
:1043C000FEFEFEFEFE3F3F3F3F3F3FFEFE3F3F3FC4
:1043D0003F3F3FFEFEFEFEFFFFFEFEFEFEFEFEFF37
:1043E000FFFEFEFEFEFFFFFEFEFEFEFEFEFFFFFEE8
:1043F000FEFEFEFEFEFEFEFEFEFEFEFEFEFEFEFEDD
:10440000FEFEFE3F3F3F3FFEFEFEFE3F3F3F3FFEC4
:10441000FEFEFE3F3FFFFFFEFEFEFE3F3FFFFFFEB4
:10442000FEFEFE3F3FFEFEFFFFFEFE3F3FFEFEFFA5
:10443000FFFEFEFEFEFEFEFEFEFEFEFEFEFEFEFE9B
:10444000FEFEFEFEFE3F3F3F3F3F3FFEFE3F3F3F43
:104450003F3F3FFEFE1F1FFFFFFEFEFEFE1F1FFF32
:10446000FFFEFE3F3FFFFF1F1FFEFE3F3FFFFF1F00
:104470001FFEFE3F3F3F3FFEFEFEFE3F3F3F3FFE33
:10448000FEFEFE3F3F3F3FFEFEFEFE3F3F3F3FFE44
:10449000FEFEFE3F3FFFFF1F1FFEFE3F3FFFFF1FD1
:1044A0001FFEFE3F3F1F1FFFFF3F3F3F3F1F1FFFFE
:1044B000FF3F3FFEFEFEFE3F3F3F3FFEFEFEFE3F54
:1044C0003F3F3FFEFEFEFEFEFEF5F5FEFEFEFEFE5B
:1044D000FEFEF5FEFEFEFEFEFEFEF5F5F5F5FEFE29
:1044E000FEFEF5909090FEFEE1E1F5F5F5F5E1E1D7
:1044F000E1E1F5909090E1E1E1E1F5F5F5F5E1E13B
:10450000E1F0F0F5F5FEFEFEFEFEFEF5FEFEFEFE1F
:10451000FEFEFEF5FEFEFEFEFEFEFEF5FEFEFEFECD
:10452000F5F5F5F5E1E1FEFE909090F5E1E1E1E1D0
:10453000F5F5F5F5E1E1E1E1909090F0F0E1E1E1F0
:10454000F5F5F5F590F590F590F590F590F590F579
:1045500090F590F590F590F590F590FEFEE1E1E193
:10456000E1E1E1FEFEE1E1E1E1E1E1FEFEFEE1E1AA
:10457000E1E1E1FEFEFEFEE1E1F0F0FEFEFEFEE125
:10458000E1F0F5F590F590F5FEFEFEF590F590F56D
:10459000FEFEFEF590F590F5FEFEFEE1E1E1FEFE89
:1045A000FEFEFEE1E1E1FEFEFEFEFEE1E1E1E1FEF6
:1045B000FEFEFEF0E1E1E1FEFEFEF5F0F5F5F5F5BB
:1045C000F5F5F5FEFEFEFEFEFEFEFEFEFEFEFEFE26
:1045D000FEFEFEFEFEFEADADFEFEFEFEFEADADAD90
:1045E000ADFEFEFEFEADADADADFEFEFEFEFEADAD22
:1045F000FEFEFEFEFEFEFEFEFEFEFEFEFEFEFEFEDB
:10460000FEFEFEFEFEFEADADFEFEFEFEFEFEADAD0E
:10461000FEFEFEFEFEADADADADFEFEFEFEADADADF1
:10462000ADFEFEFEADADADADADADFEFEFE3F3F3F1E
:104630003FFEFEFEFEFE3F3FFEFEFEFEFEFEFEFED7
:10464000FEFEFEFEFEFEADADFEFEFEFEFEFEADADCE
:10465000FEFEFEFEFEADADADADFEFEFEFEADADADB1
:10466000ADFEFEFEADADADADADADFEFEFEFE3F3F1F
:10467000FEFEFEFEFEFEFEFEFEFEFEFEFEFEFEFE5A
:10468000FEFEFEFEFEFEFEFEFEFEFEFEFEFEADFE9B
:10469000FEFEFEFEFE3FADADADFEFEFE3F3FADAD0C
:1046A000ADADADFE3F3FADADADADADFEFE3FADAD91
:1046B000ADFEFEFEFEFEADFEFEFEFEFEFEFEFEFEBC
:1046C000FEFEFEFEFEFEFEFEFEFEFEFEFEFEADFE5B
:1046D000FEFEFEFEFEFEADADADFEFEFEFE3FADAD4E
:1046E000ADADADFEFE3FADADADADADFEFEFEADADD3
:1046F000ADFEFEFEFEFEADFEFEFEFEFEFEFEFEFE7C
:10470000FEFEFEFEFEFEFEFEFEFEFEFEFEFEFEFEC9
:10471000FEFEFEFEFEFE9F9FFEFEFEFEFE9F9F9F94
:104720009FFEFEFEFE9F9F9F9FFEFEFEFEFE9F9F42
:10473000FEFEFEFEFEFEFEFEFEFEFEFEFEFEFEFE99
:10474000FEFEFE909090E1E1E1F0F5F5F5F5E1E196
:10475000E1F0F0909090E1E1E1E1E1F5F5F5E1E1E2
:10476000E1E1E1909090E1E1E1FEFEF5F5F5E1E1B6
:10477000FEFEFE909090FEFEFEFEFEF5F5F5FEFEBE
:10478000FEFEFEF5F0E1E1E1909090F0F0E1E1E174
:10479000F5F5F5E1E1E1E1E1909090E1E1E1E1E1C0
:1047A000F5F5F5FEFEE1E1E1909090FEFEFEE1E11F
:1047B000F5F5F5FEFEFEFEFE909090FEFEFEFEFE7E
:1047C000F5F5F5FEFEFEFEE1E1F0F5FEFEFEFEE192
:1047D000E1F0F0FEFEFEE1E1E1E1E1FEFEE1E1E11A
:1047E000E1E1E1FEFEE1E1E1E1E1E1F590F590F5E5
:1047F00090F590F590F590F590F590F590F590F591
:1048000090F590F0F5F5F5F5F5F5F5F0E1E1E1FE5F
:10481000FEFEF5E1E1E1E1FEFEFEFEE1E1E1FEFE8C
:10482000FEFEFEE1E1E1FEFEFEFEFEF590F590F5F6
:10483000FEFEFEF590F590F5FEFEFEF590F590F586
:10484000FEFEFEFEFEFEFEFEFEFEFEFEFEFEFEFF87
:10485000FEFEFEFEFEFEFE7FFFFEFEFEFEFEFE7F75
:104860007FFFFEFEFEFEFE7F7F7FFFFEFEFEFE7FE1
:104870007F7FFEFEFEFEFE7F7FFEFEFEFEFEFE7FD3
:10488000FEFEFEFEFEFEFEFEFEFEFEFEFEFEFEFE48
:10489000FEFEFEFEFEFEFEFEFEFEFEFEFEFEFEFE38
:1048A000FEFEFE7F7F7F7F7F7FFFFEFE7F7F7F7F1D
:1048B000FFFEFEFEFE7F7FFFFEFEFEFEFEFEFEFE14
:1048C000FEFEFEFEFEFEFFFEFEFEFEFEFEFF7F7F04
:1048D000FEFEFEFEFF7F7F7F7FFEFEFF7F7F7F7FEE
:1048E0007F7FFEFEFEFEFEFEFEFEFEFEFEFEFEFEE6
:1048F000FEFEFEFEFEFEFEFEFEFEFEFEFEFEFEFED8
:10490000FEFEFE4A4A4A4A4A4A4A4A4A4A4A4A4AEB
:104910004A4A4A4A4A4AA6A64A4A4A4A4A4AA6A687
:104920004A4A4AFE4A4AA6A64A4AFEFEFE4AA6A6A7
:104930004AFEFEFEFEFEA6A6FEFEFEFEFEFEA6A6AB
:10494000FEFEFEFEFEFEFEFEFEFEFEFEFEFEFEFE87
:10495000FEFEFEFEFEFEFEFEFEFEFEFEFEFEFEFE77
:10496000FEFEFEFEFEFEFEFEFEFEFEFEFEFEFEFE67
:10497000FEFEFEFEFEFEFEFEFEFEFEFEFEFEFEFE57
:10498000FEFEFE01012301011B01012201012101A3
:10499000012001011A01011901011801011701018A
:1049A0001602020809090802020607101102020491
:1049B000050E0F020214151E1F020212131C1D0207
:1049C0000202030C0D020200010A0B02022424243D
:1049D000240101240000000000000000000000008D
:1049E00000000000000000000000000000000000C7
:1049F00000000000000000000000000000000000B7
:104A000000000000000000000000000000000000A6
:104A1000000000006666662666666666777777261B
:104A200077777777777777267777777777777726B8
:104A3000777777772626262626262626777777778E
:104A40007777772677777777777777267777777798
:104A50007777772600ECECECECECEC00ECFFFFFF5A
:104A6000FFFFFFECECEDFFFFFFFFF6ECECEDEEFFE0
:104A7000FFF6EDECECEDEEFFF6EEEDECECEDFFF617
:104A8000EEEEEDECECFFEDEDEDEDEDEC00ECECEC35
:104A9000ECECEC0000ECECECECECEC00ECFFEDED05
:104AA000EDEDFFECECEDFFF6EEFFEDECECEDF63F9F
:104AB000FFEEEDECECEDEEFF3FF6EDECECEDFFEE96
:104AC000F6FFEDECECFFEDEDEDEDFFEC00ECECECCA
:104AD000ECECEC0000ECECECECECEC00ECEDEDEDD7
:104AE000EDEDFFECECEDEEEEFFFFEDECECEDEEFFAF
:104AF000FFFFEDECECFFF6FFFFEEEDECECEDFFF66B
:104B0000EEEEEDECEC3FEDFFEDEDEDEC00ECECEC62
:104B1000ECECEC0005050505050505050505050595
:104B20000505050405050505050504040505050736
:104B30000704040405050507070404040505050426
:104B40000404040405050404040404040504040422
:104B500004040404000000000000000000FF003F07
:104B60000000FF000000FF3F00FF000000003F3F8B
:104B70003F3F3F00003F3F3F3F3F00000000FF003E
:104B80003FFF000000FF00003F00FF0000000000AA
:104B9000000000003F3F000000003F3F3FFF1F3F7D
:104BA000001FFF3F001FFF3F00FF3F0000003F3F8F
:104BB0003F3F3F00003F3F3F3F3F0000001FFF00DF
:104BC0003FFF1F003FFF1F003F1FFF3F3F3F000011
:104BD00000003F3F000000000000000000FF000058
:104BE0000000FF000000FF0000FF000000000000C8
:104BF0000000000000000000000000000000FF00B6
:104C000000FF000000FF00000000FF0000000000A7
:104C10000000000005050505050505050505050558
:104C20000505050005050505050500000505050741
:104C30000700000005050507000000000505050048
:104C40000000000005050000000000000500000055
:104C50000000000000000000000000040000000050
:104C60000000040400000000000404040000000030
:104C700007040404000000070704040400000404FF
:104C800004040404000404040404040404040404E8
:104C900004040404050505050505050500050505CD
:104CA00005050505000005050505050500000007CB
:104CB00007050505000000000705050500000000C8
:104CC00000050505000000000000050500000000CB
:104CD00000000005040000000000000004040000C3
:104CE00000000000040404000000000004040407A5
:104CF000000000000404040707000000040404048A
:104D0000040400000404040404040400040404046F
:104D100004040404F0F3F0F0F3F0F3F0F5F0F0F530
:104D2000F5F0F0F5F4F5F5F4F4F5F5F4F0F0F3F052
:104D3000F0F3F0F0F3F0F2F3F0F0F3F0F0F5F5F05B
:104D4000F3F5F5F0F5F4F4F5F5F4F4F5F0F0F3F02F
:104D5000F3F0F3F0186418186418186418626418F3
:104D60001864621818641862641864186418621869
:104D70001862186218641864621864186418641859
:104D800018621818186418626418641818181864DF
:104D900018181864656565656565656565656565AB
:104DA00065656565166565656565651616166565EF
:104DB00065651616161616161616161616141414FB
:104DC0001414141614656565656565146565656577
:104DD00065656565F0F3F0F0F3F0F3F0F5F0F0F5EC
:104DE000F5F0F0F5F4F5F5F4F4F5F5F4F0F0F3F092
:104DF000F0F3F0F0F3F0F2F3F0F0F3F0F0F5FFFF82
:104E0000FFFFF5F0F5FFFFFFFFFFFFF5F0F0FFFFFD
:104E1000FFFFF3F0F0F3F0F0F3F0F3F0F5F0F0F55E
:104E2000F5F0F0F5F4F5F54A4A4AF5F4F0F04A4A9F
:104E3000BFBF4AF0F3F04A4ABFBF4AF0F0F5FF4A5D
:104E40004A4AF5F0F5FFFFFFFFFFFFF5F0F0FFFF27
:104E5000FFFFF3F0F0F3F04A4A4AF3F0F5F04A4A64
:104E6000BFBF4AF5F4F54A4ABFBF4AF4F0F0F34A2F
:104E70004A4AF0F0F3F0F24A4AF0F3F0F0F5FF4A54
:104E80004AFFF5F0F5FFFFFFFFFFFFF5F0F0FFFF32
:104E9000FFFFF3F07F7F7F7F7F7F7F7F7F28282842
:104EA000282828287F282828282828287F282828D4
:104EB000282828287F282828282828287F282828C4
:104EC000282828287F282828282828287F282828B4
:104ED000282828287F7F7F7F7F7F7F7F282828289A
:104EE0002828282828282828282828282828282842
:104EF0002828282828282828282828282828282832
:104F00002828282828282828282828282828282821
:104F100028282828000000000000000000000000F1
:104F20000000000000000000000000000000000081
:104F3000000000007F7F7F7F7F7F7F7F28282828D9
:104F400028282828282828282828282828282828E1
:104F5000282828280000000000007F7F00000000B3
:104F600000007F280000000000007F2800000000F3
:104F700000007F280000000000007F2800000000E3
:104F800000007F280000000000007F2800000000D3
:104F900000007F287F7F7F7F7F7F000028282828D0
:104FA0002828000028282828282800002828282821
:104FB0002828000028282828282800002828282811
:104FC0002828000028282828282800002828282801
:104FD000282800000000000000002B2B000000002B
:104FE0000000002B000000000000002B2B2B2B00EA
:104FF0000000002B121212000020202B2B2B2B2044
:105000002020202B121212202020202B2B2B2B2093
:10501000202029292B2B0000000000002B0000007D
:10502000000000002B000000000000002B0000002A
:10503000002B2B2B2B202000001212122B202020C3
:10504000202B2B2B2B20202020121212292920204C
:10505000202B2B2B7F282828282828287F28282821
:10506000282828287F282828282828287F28282812
:10507000282828287F282828282828287F28282802
:10508000282828287F282828282828287F282828F2
:105090002828282828282828282828282828282890
:1050A0002828282828282828282828282828282880
:1050B0002828282800000000000000000000000050
:1050C00000000000000000000000000000000000E0
:1050D00000000000282828282828282828282828F0
:1050E0002828282828282828282828282828282840
:1050F000282828287F282828282828287F28282882
:10510000282828287F282828282828287F28282871
:10511000282828287F7F7F7F7F7F7F2828282828AE
:1051200028282828282828282828282828282828FF
:1051300028282828282828282828282828282828EF
:1051400028282828282828282828282828282828DF
:1051500028282828282828282828000000000000BF
:10516000000000000000000000000000000000003F
:10517000000000000000000000000000000000002F
:10518000000000000000000000000000000000001F
:10519000000000000000F590F590F5900000F590FB
:1051A000F590F5900000F590F590F5900000000066
:1051B000E1E1E1E100000000E1E1E1E100000000E7
:1051C00000E1E1E1000000000000E1E1000000007A
:1051D0000000E1E1F590F590F590F500F590F5907F
:1051E000F590F500F590F590F590F500E1E1E1E13D
:1051F000E1000000E1E1E1E1E1000000E1E1E1E1E5
:10520000E1E10000F0F0F0E1E1E10000F0F5F0F59F
:10521000F5F5F5F5000000000000000000000000BA
:10522000000000000000000000000000000000007E
:10523000000000000000000000000000000000006E
:105240000000000000F5000000000000F5F500007F
:10525000000000000000000000000000000000004E
:10526000000000000000000000000000000000003E
:105270000000000000000000000000007F7F7F7F32
:105280007F7F7F7F28282828282828282828282842
:1052900028282828121212202020292B2B2B2B20E3
:1052A0002020292912121220202020202B2B2B20F5
:1052B0002020202012121220202000002B2B2B2037
:1052C0002000000012121200000000002B2B2B0007
:1052D000000000002B292020201212122929202052
:1052E000202B2B2B202020202012121220202020C7
:1052F000202B2B2B00002020201212120000002057
:10530000202B2B2B000000000012121200000000C6
:10531000002B2B2B7F2828282828282828282828D5
:1053200028282828282828282828282828282828FD
:1053300028282828282828282828282828282828ED
:1053400028282828282828282828282828282828DD
:1053500028282828282828282828282828282828CD
:1053600028282828282828282828282828282828BD
:1053700028282828282828282828282828282828AD
:10538000282828282828282828282828282828289D
:1053900028282828000000000000E1E100000000AB
:1053A0000000E1E10000000000E1E1E10000000098
:1053B000E1E1E1E100000000E1E1E1E10000F59060
:1053C000F590F5900000F590F590F5900000F590BF
:1053D000F590F590F0F5F0F5F5F5F5F5F0F0F0E174
:1053E000E1E10000E1E1E1E1E1E10000E1E1E1E131
:1053F000E1000000E1E1E1E1E1000000F590F5905D
:10540000F590F500F590F590F590F500F590F59094
:10541000F590F500F5F500000000000000F5000033
:10542000000000000000000000000000000000007C
:10543000000000000000000000000000000000006C
:10544000000000000000000000000000000000005C
:10545000000000002828282828282828282828286C
:1054600028282828282828282828282828282828BC
:10547000282828282828282828282828000000004C
:10548000000000000000000000000000000000001C
:1054900000000000000000000000F5F50000000022
:1054A000000000F500000000000000F5F5F5F50033
:1054B000000000F59090900000E1E1F5F5F5F5E1D0
:1054C000E1E1E1F5909090E1E1E1E1F5F5F5F5E15B
:1054D000E1E1F0F0F5F5000000000000F50000004B
:1054E00000000000F500000000000000F5000000D2
:1054F00000F5F5F5F5E1E10000909090F5E1E1E1CE
:10550000E1F5F5F5F5E1E1E1E1909090F0F0E1E110
:10551000E1F5F5F50000000000007F280000000024
:1055200000007F280000000000007F28000000002D
:1055300000007F280000000000007F28000000001D
:1055400000007F280000000000007F28000000000D
:1055500000007F2828282828282800002828282814
:10556000282800002828282828280000282828285B
:10557000282800002828282828280000282828284B
:10558000282800002828282828280000282828283B
:105590002828000000000000000000007F7F7F7FBF
:1055A0007F7F7F7F2828282828282828282828281F
:1055B000282828282828282828282828282828286B
:1055C000282828282828282828282828282828285B
:1055D000282828287F282828282828287F2828289D
:1055E000282828282828282828282828282828283B
:1055F000282828282828282828282828282828282B
:10560000282828282828282828282828282828281A
:1056100028282828909090E1E1E1F0F5F5F5F5E1F2
:10562000E1E1F0F0909090E1E1E1E1E1F5F5F5E103
:10563000E1E1E1E1909090E1E1E10000F5F5F5E1D3
:10564000E10000009090900000000000F5F5F500EA
:1056500000000000F5F0E1E1E1909090F0F0E1E170
:10566000E1F5F5F5E1E1E1E1E1909090E1E1E1E1E1
:10567000E1F5F5F50000E1E1E1909090000000E136
:10568000E1F5F5F5000000000090909000000000AA
:1056900000F5F5F5F0F3F0F0F3F0F3F0F5F0F0F5D8
:1056A000F5F0F0F5F4F5F5F4F4F5F5F4F0F0F3F0C9
:1056B000F0F3F0F0F3F0F2F3F3F0F2F3F0F5F5F0CD
:1056C000F0F5F5F0F5F4F4F5F5F4F4F5F0F0F3F0A9
:1056D000F0F0F3F0F0F3F0F0F3F0F3F0F5F0F0F5B4
:1056E000F5F0F0F5F4F5F5F4F4F5F5F4F0F0F3F089
:1056F000F0F3F0F0F3F0F2F3F0F0F3F0F0F5F5E89A
:10570000E8E8E8E8F5F4F4E8E8E8F4F5F0F0F3E8C0
:10571000E8E8F3F0F0F3F0F0F3F0F3F0F5F0F0F583
:10572000F5F0F0F5F4F5F5F4F4F5F5F4F0F0F3F048
:10573000F0F3F0F0F3F0F2F3F0F0F3F0F0F5F5F051
:10574000F3F5F5F0E8F4F4F5F5F4F4F5F0E8F3F03A
:10575000F3F0F3F0F0F3F0F0F3F0F3F0F5F0F0F530
:10576000F5F0F0F5F4F5F5F4F4F5F5F4F0F0F3F008
:10577000F0F3F0F0A3A3A3A3A3A3A3A3A3A3A3A3C2
:10578000A3A3A3A3A3A3A3A3A3A3A3A3A3A3A3A3E9
:10579000A3A3A3A3F0F3F0F0F3F0F3F0F5F0F0F52A
:1057A000F0F3F0F0F4F5F5F4F5F0F0F5F0F0F3F0D7
:1057B000F0F3F0F0A3A3A3A3A3A3A3A3A3A3A3A382
:1057C000A3A3A3A3A3A3A3A3A3A3A3A3A3A3A4A4A7
:1057D000A4A4A4A4F0F3F0F0F3F0F3F0F3F0F3F0EA
:1057E000F5F0F0F5F5F0F0A3A3A3A3A3F0F0F3A375
:1057F000A3A3A3A3A3A3A3A3A3A3A3A3A3A3A3A379
:10580000A3A3A3A3A3A3A3A3A3A3A3A3A4A4A4A464
:10581000A4A4A4A4F0F3F0F0F3F0F3F0F5F0F0F5A5
:10582000F5F0F0F5A3A3A3A3A3A3A3A3A3A3A3A30A
:10583000A3A3A3A3A3A3A3A3A3A3A3A3A3A3A3A338
:10584000A3A3A3A3A3A3A3A3A3A3A3A4A4A4A4A423
:10585000A49AA4A4F0F3F0F0F3F0F3A3F5F0F0F5BC
:10586000F5F0F0A3A3A3A3A3A3A3A3A3A3A3A3A31C
:10587000A3A3A3A3A3A3A3A3A3A3A3A3A3A3A3A3F8
:10588000A3A3A3A3A4A4A4A4A4A4A4A4A4A4A4A4DC
:10589000A4A4A4A4A3A3A3A3A3A3A3A3A3A3A3A3D4
:1058A000A3A3A3A3A3A3A3A3A3A3A3A3A3A3A3A3C8
:1058B000A3A3A3A3A3A3A3A3A3A3A3A3A3A3A3A3B8
:1058C000A3A3A3A3A4A4A4A4A4A4A4A4A4A4A4A49C
:1058D000A4A4A4A4A3F3F0F0F3F0F3F0A3F0F0F584
:1058E000F5F0F0F5A3A3A3A3A3A3A3A3A3A3A3A34A
:1058F000A3A3A3A3A3A3A3A3A3A3A3A3A3A3A3A378
:10590000A3A3A3A3A4A4A4A4A4A4A4A4A4A4A4A45B
:10591000A4A4A4A4F0F3F0F0F3F0F3F0F5F0F0F5A4
:10592000F5F0F0F5A3A3A3A3A3A3A3A3A3A3A3A309
:10593000A3A3A3A3A3A3A3A3A3A3A3A3A3A3A3A337
:10594000A3A3A3A3A4A4A3A3A3A3A3A3A4A4A49A2B
:10595000A4A4A4A4F0F3F0F0F3F0F3F0F5F0F0F564
:10596000F5F0F0F5A3A3A3A3A3F5F5F4A3A3A3A3D4
:10597000A3F3F0F0A3A3A3A3A3A3A3A3A3A3A3A30D
:10598000A3A3A3A3A3A3A3A3A3A3A3A3A4A4A4A4E3
:10599000A4A4A4A4F0F3F0F0F3F0F3F0F5F0F0F524
:1059A000F5F0F0F5F4F5F5F4F4F5F5F4F0F0F3F0C6
:1059B000F0F3F0F0A3A3A3A3A3A3A3A3A3A3A3A380
:1059C000A3A3A3A3A3A3A3A3A3A3A3A3A4A4A4A4A3
:1059D000A4A4A3A3F0F3F0F0F3F0F3F0F5F0F0F5E6
:1059E000F5F0F0F5F4F5F5F4F4F5F5F4F0F0F3F086
:1059F000F0F3F0F0F3F0F2E8E8E8E8E8F0F5F5E8C5
:105A0000E8E8E8F0F5F4F4E8E8E8E8F5F0F0F3E8C1
:105A1000E8E8E8F0F0F3F0F0F3F0F3F0F5F0F0F58B
:105A2000F5F0F0F5F4F5F5F4F4F5F5F4F0F0F3F045
:105A3000F0F3F0F0E8F0F2F3F0F0F3F0F0E8F5F066
:105A4000F3F5F5F0F5F4E8F5F5F4F4F5F0F0F3E836
:105A5000F3F0F3F0F0F3F0F0F3F0F3F0F5F0F0F52D
:105A6000F5F0F0F5F4F5F5F4F4F5F5F4F0F0F3F005
:105A7000F0F3F0FFF3F0F2F3FFFFFFA3F0FFFFFFFF
:105A8000FFFFFFA3FFF4F4A3A3A3A3A3F0F0A3A33A
:105A9000A3A3A3A3F0F3F0F0F3FFFFF0F5F0F0F50C
:105AA000FFFFFFF5F4F5FFFFFFFFF5F4FFFFFFFF3A
:105AB000FFF3F0F0A3A3A3A3A3A3A3A3A3A3A3A370
:105AC000A3A3A3A3A3A3A39AA3A3A3A3A3A39A9AC1
:105AD0009AA3A3A3F0F3F0E8E8E8F3F0A3A3A3A349
