:100000000C94452C0C94BE2C0C94BE2C0C94BE2C41
:100010000C94BE2C0C94BE2C0C94BE2C0C94BE2CB8
:100020000C94BE2C0C94BE2C0C94BE2C0C94BE2CA8
:100030000C94BE2C0C94932E0C94D32E0C94BE2CAA
:100040000C94BE2C0C94BE2C0C94BE2C0C94BE2C88
:100050000C94BE2C0C94BE2C0C94BE2C0C94BE2C78
:100060000C94BE2C0C94BE2C0C94BE2C0C94BE2C68
:10007000A64AA94AAE4AB14AB44AB74ABA4ABD4AA0
:10008000C04A8100450027FF24FF2A902B1C210C29
:1000900022FB850084008903888D81096F02444218
:1000A00047004501B083B300B10125118A4F8B038E
:1000B0005A5501200101003808000000000000002E
:1000C0000000000000000000000000000000000030
:1000D00019321C3277327B328332243229322E326B
:1000E0008B32313234323732743200408891D2E46C
:1000F000ADB5B6BEBFFF05030013141516171819CA
:100100001A1B1C1D1E1F0005040001020304050626
:100110000708090A0B0C0D000E0F10111200000049
:1001200000000000000000000000000000000000CF
:1001300000000000000000000000000000000000BF
:1001400000000000000000000000000000000000AF
:10015000000000000000000000000000000000009F
:10016000000000000000000000000000000000008F
:100170000000000000000000000000004900000036
:1001800000004952520000004952531C25004952B8
:10019000522425251B52525C2D2D1C1212000000EA
:1001A00000000000000000000040494949004049AB
:1001B00049525B5B5B4A52525B1C1C13125B1C2452
:1001C0001C12090909241B12090909090A0A0A0A49
:1001D0000A0A0A0A130A0A120A0A12130A0000007B
:1001E0000000000000925252525252524913121310
:1001F00009001C1B130A1212401B65641C090A002B
:1002000009241B1C65120000251C1C1C1C01002558
:10021000241C1C1C1C0024252424241C1C0000005D
:100220000000000000494000000000000052494961
:1002300000000000001C5B4A48000000001C255222
:100240004900000000652464490000000065256441
:1002500049000000006D2E5C490000000000000015
:100260000000004052000000000049525C00000005
:100270000053522425000000535225252500004A32
:100280005225251B0000005B251300001B005B535B
:10029000000A1C3737095B1C657F372E2E522E2E25
:1002A0001C131312002E251B13120000121C1C120B
:1002B000000012251C120000122E371C1300132EF2
:1002C00037361C131B37372E2E25131C1C2E2E2EB3
:1002D0002E1B1C1C1C6E6E6E1C1C1C1C1C0913137C
:1002E000121213130013131313131C000913131307
:1002F000131C0100371313131C13002E2E1B1B1C81
:100300001C001C772E1B1B2500137F251C1C1C01A9
:100310000A37241C1C1C130A2E25250900132E2421
:1003200025252525252E2525252525252525252D6C
:100330002E251B1C1C2E2E251C13251B13251C1CB7
:100340001C1C0109521C1C1300011C5B5C0A0001EF
:1003500065775C1B00016E7F6E521B00006D1C52A6
:1003600049000000001C135300000000001C524A0A
:1003700000000000005B5B0000000000005C00006B
:10038000000000000000000000000000000000006D
:1003900000000000000000000000000000135B7F70
:1003A000776E6E6E6E136577766E6E6E6E1B65770A
:1003B0007676766E771B5BBF76B676767609136DAA
:1003C000BFB7B6B765001B125C76BF766D00001232
:1003D0001B125B5B5C00000000090A12136E77249D
:1003E0001C1C1C1C1C77251C1C1C1C24256E1C1C86
:1003F0001C2425251B1C1C242525130000646D6D61
:100400001B00096EBF6D5B09126EBF6D5B5B125BFB
:10041000645B121312131B1212090100001C242E1C
:100420001C0900096E2524010009767F7F00001257
:10043000777F7F641264BFBF775B121B09BF6D5B60
:10044000121B09000012131B090000000009000024
:10045000000000000000000000000000007F7F534B
:10046000131300000064121B01000000001B1200A7
:10047000000000000000000000000000000000007C
:10048000000000000000000000000000000000006C
:10049000000000000000000000000000000000005C
:1004A000000000000026000000260026262F000085
:1004B000002F0000003700000037000000FF0000A0
:1004C00000FF000000BF000000BF0000BF370000B9
:1004D0003700003700002626000000262600000016
:1004E0000000000000262626002626262600002FD3
:1004F000002F0000000037000037000000FF000060
:1005000000FFFFFFFF00000000BF00000000000030
:10051000003700000026262600262626260000009A
:100520000000000000260026262626000000002FDE
:100530000000002F0000003700000037000000FF1F
:10054000FFFFFF00000000BF000000BF00000037F9
:1005500000000037002600262626260000000000A6
:1005600000000000000000262626002600002F00C4
:10057000002F002F003700000037000037FF000079
:1005800000FF000000BF000000BF0000BF370000F8
:100590003700003700262626000000260000000055
:1005A0000000000000000026000000000000002FF6
:1005B00000000000000037000000000000FF000005
:1005C000000000000000BF00000000000000003735
:1005D00000000000000000260000000000000000F5
:1005E000000000000000000000000000000000000B
:1005F000000000000000000000000000E400000017
:1006000000099BEDF60000009BA4ADBFBF00529B0C
:10061000A4767F7FB75B9B6D777F766EB700000017
:100620000000000000000000005BB6F6F6005BF67C
:10063000FFFFFFFFBFF6FFFFFFFFBFBFAEFFBFFF24
:10064000FFFFB7AD65BFBFFFFFB7B6AD65B7BFFF73
:10065000FFBFB7AE6EB7BFFFFFBFB7B76500000003
:100660000000000000F6F6EDEDADA4A49BB66D6DA4
:100670005C526E65646565655265766D255C5C529D
:10068000536E24656E6552526E252524255B527784
:100690002D25252524526E6E2D25252525000000AB
:1006A00000000000009B49000000000000A49B9295
:1006B00000000000002564934900000000652E9BA7
:1006C00052000000006D256552000000006D2D6590
:1006D00052000000006E2E64520000000000000076
:1006E000000000495B00000000004A5B650000005C
:1006F000005B9B6D2D0000005B5B2D2E25000052E2
:100700005B2E2E1C0900015B2D1C01091C005C5B8B
:10071000014A65777F4A5B1C6E7F7777769B777798
:100720006D656E6EA4776E6565655BA4B725255C07
:1007300052526DBFBF130949647FBFBFBF095C7FC1
:100740007FBFBFB7BF7F7F777F7FB7BFBF77777F21
:100750007F6EB7BFBF777F7F6E77BFBFBFB6FFFF2C
:10076000FFBFBFB75BBFFFFFFFBFBFA464BFFFFFFB
:10077000FFBFADA47FBFFFFFFFBFA4BF7FFFFFFF91
:10078000BFADBFBFBFFFFFFFB6BFBFBF77FFFFF764
:10079000BFBFBF7777FFFFFFBFBFBF64526D7F6EE4
:1007A0002E2D2D256E7F766E6E6E2E2565777777D2
:1007B000762E1C25247F776E251C251C1B7765252E
:1007C000251C090A5B6E6E1C09492564645B494A55
:1007D0006E7F645C005377BF775B5C00006E255BC7
:1007E0004A000000001C1B5B0000000000245B535B
:1007F00000000000005B5C000000000000640000DE
:1008000000000000000000000000000000000000E8
:10081000000000000000000000000000005B5C7FA2
:10082000BF777677775C6D7FB7777777775C6D7F0B
:10083000BF777777BF5C64BFBFBFBFBF7F0A5C6E07
:10084000BFBFBFBF760065646DBFBFBFBF00005BA9
:100850006D646DADB600000000125B646D777F6E55
:100860006E77BFBFBF7F766D7677BFBFBF776D6E88
:10087000767FBFBFBF6D6E767FBFB7ADF676BFBF69
:1008800076A4ADFFFFBFB664ADFFFFFFFFB6ADBFFF
:10089000FFFFFFFFF6ADB6AD645B520000FFFFBF88
:1008A000BFAD5B64BFFFFFB6ADADBFFFBFFFF6FFDF
:1008B000FFFFFFBF64FFFFFFFFBFB6765BFFFFFFD9
:1008C000BFBF5B0000FFFFFF5C00000000A4000052
:1008D00000000000000000000000000000BFBF6436
:1008E0005C5C0000006E5C6549000000006D5B0010
:1008F00000000000000000000000000000000000F8
:1009000000000000000000000000000000000000E7
:1009100000000000000000000000000000000000D7
:1009200026090000000000020800085504085A00CB
:1009300000F8000990000A1E32050000FF506175A2
:10094000736564004261696C202D205800546F74F7
:10095000616C3A0053636F72653A002020202020BA
:10096000202020202020202020005254464D21000D
:100970004E6565642068656C703F0054686174273B
:10098000732069743F0041207475726B6579207320
:10099000686F6F74002A5941574E2A00546F6F20B8
:1009A00065617379004174206C65617374207472A1
:1009B000790042726F6B656E20627574746F6E3F62
:1009C000004C4F4C00596F75207375636B20627239
:1009D0006F0042790050776E730045646974202D72
:1009E0002055502F444F574E0043616E63656C2075
:1009F0002D205800436F6E6669726D202D204100D6
:100A000053656C656374202D2041005032005031D5
:100A1000007C005F5F5F5F5F5F5F5F5F5F5F004500
:100A20006469742048616E646C650054616E6B206B
:100A300052616E6B00506C61796572207673205044
:100A40006C6179657200506C6179657220767320F3
:100A50004350550032303134202D204C617772657F
:100A60006E63652042726F6F6B73000101010101BB
:100A70000101010101010101010101010101010166
:100A80000101010101010101010101010101010156
:100A90000101010101010101010101010101010146
:100AA0000101010101010101010202030000000036
:100AB0000000000000000000000000000000000036
:100AC0000402020101010102030000000000000015
:100AD0000000000000000000000000000000000412
:100AE00002010101010300000000000000000000FD
:100AF00000000000000000000000000000000401F1
:100B000001010100000000000000000000000000E2
:100B100000000000000000000000000000010101D2
:100B200001000000000200000000000000000000C2
:100B300000000000000002000000000101010100AF
:100B400000000002000000000000000000000000A3
:100B5000000000000200000000010101010000008F
:100B60000002000000000000000000000000000083
:100B7000000002000000000101010100000000026D
:100B8000000000000000000800000000000000005D
:100B9000020000000001010101000000000200004D
:100BA0000000000000000000000000000000020043
:100BB000000000010101010000000002000000002F
:100BC0000000000000000000000000000200000023
:100BD00000010101010058000002000000000000B7
:100BE000000000000000000000000200630000019F
:100BF00001010100000000020000000000000000F0
:100C000000000000000000000200000000010101DF
:100C100001000000000200000000000000000000D1
:100C200000000000000002000000000101010100BE
:100C300000000002000000000000000007000000AB
:100C4000000000000200000000010101010000009E
:100C50000002000000000000000000000000000092
:100C6000000002000000000101010100000000027C
:100C70000000000000000000000000000000000074
:100C8000020000000001010101000000000200005C
:100C90000000000000000000000000000000020052
:100CA0000000000101010100000000000000000040
:100CB0000000000000000000000000000000000034
:100CC000000101010105000000000000000000001B
:100CD000000000000000000000000000000006010D
:100CE00001010102050000000000000000000000FA
:100CF00000000000000000000000000602010101E9
:100D000001020205000000000000000000000000D9
:100D100000000000000000000602020101010101C4
:100D200001010101010101010101010101010101B3
:100D300001010101010101010101010101010101A3
:100D40000101010101010101010101010101010193
:100D5000010101010101010101000000000000008A
:100D60000000000000000000000000000000000083
:100D70000000000000000000000000000000000073
:100D80000000000000000000000000000000000063
:100D90000000000000000000000000000000000053
:1027B00000000000000000010126010125010124A4
:1027C00001012301012202020C0D0D0C02020A0B71
:1027D0001819020208091617020220212E2F0202E0
:1027E0001E1F2C2D02021C1D2A2B02021A1B282937
:1027F0000202060714150202040512130202020364
:102800001011020200010E0F0101270202272727E3
:102810002701010C01010B01010A01010901010855
:102820000101070101060101040101030101020187
:1028300001050101010F0401010101010101010173
:102840000101010101010100000000000000000081
:102850000000000001010000000000000000000076
:10286000000000010101010101010101010101015B
:1028700001010115040D0E0F10111213141516008D
:102880001700000010110F1600180019001A001B85
:102890001C1D1E1F20000000002122001A001B002A
:1028A00019002311241A001B2526000000002728E8
:1028B000001A001B0029002A002B2A002B2A0017CF
:1028C0000000002A00002C2D2EFEFEFEFEFEFE2B38
:1028D0002BFEFEFEFEFEFEFE2BFEFEFEFEFEFEFEBE
:1028E0002B2B2B2BFEFEFEFE2B121212FEFE2020A7
:1028F0002B2B2B2B202020202B12121220202020CB
:102900002B2B2B2B20202029292B2BFEFEFEFEFE1D
:10291000FE2BFEFEFEFEFEFEFE2BFEFEFEFEFEFE7D
:10292000FE2BFEFEFEFE2B2B2B2B2020FEFE12127A
:10293000122B202020202B2B2B2B2020202012128A
:102940001229292020202B2B2BFEFEFEFEFEFE2B23
:102950002BFEFEFEFEFEFEFE2BFEFEFEFEFEFEFE3D
:102960002B121212FEFEFEFE2B2B2B2BFEFE202026
:102970002B121212202020202B2B2B2B202020204A
:102980002B12121220202029292B2BFEFEFEFEFEE8
:10299000FE2BFEFEFEFEFEFEFE2BFEFEFEFEFEFEFD
:1029A000FE2BFEFEFEFE1212122B2020FEFE2B2B13
:1029B0002B2B202020201212122B202020202B2B0A
:1029C0002B29292020201212122B122B122B122B12
:1029D000122B122B122B122B122B122B122B122B0F
:1029E00012FEFE202020202020FEFE20202020207D
:1029F00020FEFEFE2020202020FEFEFEFE202029BC
:102A000029FEFEFEFE2020292B2B122B122BFEFE70
:102A1000FE2B122B122BFEFEFE2B122B122BFEFE78
:102A2000FE202020FEFEFEFEFE202020FEFEFEFEFA
:102A3000FE20202020FEFEFEFE29202020FEFEFE9D
:102A40002B292B2B2B2B2B2B2B122B122B122B123C
:102A50002B122B122B122B122B122B122B122B128E
:102A60002BFEFE202020202020FEFE2020202020E3
:102A700020FEFEFE2020202020FEFEFEFE2020293B
:102A800029FEFEFEFE2020292B122B122B12FEFE09
:102A9000FE122B122B12FEFEFE122B122B12FEFE2A
:102AA000FE202020FEFEFEFEFE202020FEFEFEFE7A
:102AB000FE20202020FEFEFEFE29202020FEFEFE1D
:102AC0002B292B2B2B2B2B2B2BFEFEFEFEFEFEFE93
:102AD000FEFEFEFEFEFEFEFEFEFEFEFFFFFEFE3FD3
:102AE0003FFEFEFFFFFEFE3F3FFEFEFEFEFFFF3FFE
:102AF0003FFEFEFEFEFFFF3F3FFEFEFEFE3F3F3F6E
:102B00003FFEFEFEFE3F3F3F3FFEFEFEFEFEFEFEA0
:102B1000FEFEFEFEFEFEFEFEFEFEFEFEFEFFFFFED3
:102B2000FEFEFEFEFEFFFFFEFEFEFEFFFFFEFEFEC1
:102B3000FEFEFEFFFFFEFEFEFE3F3F3F3F3F3FFE2D
:102B4000FE3F3F3F3F3F3FFEFE3F3F3F3FFEFEFE1B
:102B5000FE3F3F3F3FFEFEFEFE3F3FFFFF1F1F3F8A
:102B60003F3F3FFFFF1F1F3F3FFEFE1F1FFFFF3F77
:102B70003FFEFE1F1FFFFF3F3FFEFEFEFE3F3F3FAB
:102B80003FFEFEFEFE3F3F3F3FFEFEFEFE3F3F3F5D
:102B90003FFEFEFEFE3F3F3F3FFEFE1F1FFFFF3F8B
:102BA0003FFEFE1F1FFFFF3F3FFEFEFFFF3F3FFEBA
:102BB000FEFEFEFFFF3F3FFEFE3F3F3F3F3F3FFE2B
:102BC000FE3F3F3F3F3F3FFEFEFEFEFEFEFEFEFE9F
:102BD000FEFEFEFEFEFEFEFEFEFEFEFFFFFEFEFE13
:102BE000FEFEFEFFFFFEFEFEFEFEFEFEFEFFFFFE01
:102BF000FEFEFEFEFEFFFFFEFEFEFEFEFEFEFEFEF3
:102C0000FEFEFEFEFEFEFEFEFEFEFEFEFEFEFEFEE4
:102C1000FEFEFEFEFEFEFEFEFEFEFEFEFEFFFFFED2
:102C2000FEFEFEFEFEFFFFFEFEFEFEFFFFFEFEFEC0
:102C3000FEFEFEFFFFFEFEFEFEFEFEFEFEFEFEFEB2
:102C4000FEFEFEFEFEFEFEFEFE12121220202029D7
:102C50002B2B2B2B20202029291212122020202060
:102C6000202B2B2B2020202020121212202020FE8F
:102C7000FE2B2B2B2020FEFEFE121212FEFEFEFE6D
:102C8000FE2B2B2BFEFEFEFEFE2B292020201212F7
:102C90001229292020202B2B2B202020202012122B
:102CA0001220202020202B2B2BFEFE202020121271
:102CB00012FEFEFE20202B2B2BFEFEFEFEFE12122D
:102CC00012FEFEFEFEFE2B2B2B2B2B2B2020202971
:102CD0002B12121220202029292B2B2B20202020E0
:102CE0002012121220202020202B2B2B202020FE0F
:102CF000FE1212122020FEFEFE2B2B2BFEFEFEFEED
:102D0000FE121212FEFEFEFEFE2B292020202B2B8F
:102D10002B292920202012121220202020202B2BAA
:102D20002B2020202020121212FEFE2020202B2BF0
:102D30002BFEFEFE2020121212FEFEFEFEFE2B2BAC
:102D40002BFEFEFEFEFE121212FEFEFEFE202029CB
:102D50002BFEFEFEFE20202929FEFEFE2020202044
:102D600020FEFE202020202020FEFE2020202020EB
:102D7000202B122B122B122B122B122B122B122B5D
:102D8000122B122B122B122B12292B2B2B2B2B2B12
:102D90002B29202020FEFEFE2B20202020FEFEFEE0
:102DA000FE202020FEFEFEFEFE202020FEFEFEFE77
:102DB000FE2B122B122BFEFEFE2B122B122BFEFED5
:102DC000FE2B122B122BFEFEFEFEFEFEFE20202905
:102DD0002BFEFEFEFE20202929FEFEFE20202020C4
:102DE00020FEFE202020202020FEFE20202020206B
:102DF00020122B122B122B122B122B122B122B12F6
:102E00002B122B122B122B122B292B2B2B2B2B2B78
:102E10002B29202020FEFEFE2B20202020FEFEFE5F
:102E2000FE202020FEFEFEFEFE202020FEFEFEFEF6
:102E3000FE122B122B12FEFEFE122B122B12FEFE86
:102E4000FE122B122B12FEFEFEFEFE3F3F3F3F3FC7
:102E50003FFEFE3F3F3F3F3F3FFEFEFEFEFFFFFEC9
:102E6000FEFEFEFEFEFFFFFEFEFEFEFFFFFEFEFE7E
:102E7000FEFEFEFFFFFEFEFEFEFEFEFEFEFEFEFE70
:102E8000FEFEFEFEFEFEFEFEFE3F3F3F3FFEFEFE5E
:102E9000FE3F3F3F3FFEFEFEFE3F3FFFFFFEFEFECA
:102EA000FE3F3FFFFFFEFEFEFE3F3FFEFEFFFFFE3A
:102EB000FE3F3FFEFEFFFFFEFEFEFEFEFEFEFEFEAE
:102EC000FEFEFEFEFEFEFEFEFEFEFE3F3F3F3F3FDD
:102ED0003FFEFE3F3F3F3F3F3FFEFE1F1FFFFFFE07
:102EE000FEFEFE1F1FFFFFFEFE3F3FFFFF1F1FFEF8
:102EF000FE3F3FFFFF1F1FFEFE3F3F3F3FFEFEFE28
:102F0000FE3F3F3F3FFEFEFEFE3F3F3F3FFEFEFED9
:102F1000FE3F3F3F3FFEFEFEFE3F3FFFFF1F1FFE07
:102F2000FE3F3FFFFF1F1FFEFE3F3F1F1FFFFF3FF4
:102F30003F3F3F1F1FFFFF3F3FFEFEFEFE3F3F3F65
:102F40003FFEFEFEFE3F3F3F3FFEFEFEFEFEFEF565
:102F5000F5FEFEFEFEFEFEFEF5FEFEFEFEFEFEFEA3
:102F6000F5F5F5F5FEFEFEFEF5909090FEFEE1E132
:102F7000F5F5F5F5E1E1E1E1F5909090E1E1E1E1D0
:102F8000F5F5F5F5E1E1E1F0F0F5F5FEFEFEFEFE0A
:102F9000FEF5FEFEFEFEFEFEFEF5FEFEFEFEFEFE63
:102FA000FEF5FEFEFEFEF5F5F5F5E1E1FEFE909084
:102FB00090F5E1E1E1E1F5F5F5F5E1E1E1E1909090
:102FC00090F0F0E1E1E1F5F5F5FEFEFEFEFEFEF526
:102FD000F5FEFEFEFEFEFEFEF5FEFEFEFEFEFEFE23
:102FE000F5909090FEFEFEFEF5F5F5F5FEFEE1E1B2
:102FF000F5909090E1E1E1E1F5F5F5F5E1E1E1E150
:10300000F5909090E1E1E1F0F0F5F5FEFEFEFEFEB8
:10301000FEF5FEFEFEFEFEFEFEF5FEFEFEFEFEFEE2
:10302000FEF5FEFEFEFE909090F5E1E1FEFEF5F568
:10303000F5F5E1E1E1E1909090F5E1E1E1E1F5F50F
:10304000F5F0F0E1E1E1909090F590F590F590F5D4
:1030500090F590F590F590F590F590F590F590F548
:1030600090FEFEE1E1E1E1E1E1FEFEE1E1E1E1E12D
:10307000E1FEFEFEE1E1E1E1E1FEFEFEFEE1E1F066
:10308000F0FEFEFEFEE1E1F0F5F590F590F5FEFEB6
:10309000FEF590F590F5FEFEFEF590F590F5FEFE3E
:1030A000FEE1E1E1FEFEFEFEFEE1E1E1FEFEFEFEEE
:1030B000FEE1E1E1E1FEFEFEFEF0E1E1E1FEFEFE09
:1030C000F5F0F5F5F5F5F5F5F590F590F590F59049
:1030D000F590F590F590F590F590F590F590F590C8
:1030E000F5FEFEE1E1E1E1E1E1FEFEE1E1E1E1E148
:1030F000E1FEFEFEE1E1E1E1E1FEFEFEFEE1E1F0E6
:10310000F0FEFEFEFEE1E1F0F590F590F590FEFE9A
:10311000FE90F590F590FEFEFE90F590F590FEFE87
:10312000FEE1E1E1FEFEFEFEFEE1E1E1FEFEFEFE6D
:10313000FEE1E1E1E1FEFEFEFEF0E1E1E1FEFEFE88
:10314000F5F0F5F5F5F5F5F5F5FEFEFEFEFEFEFEF5
:10315000FEFEFEFEFEFEFEFEFEFEFEFEADADFEFE31
:10316000FEFEFEADADADADFEFEFEFEADADADADFE07
:10317000FEFEFEFEADADFEFEFEFEFEFEFEFEFEFE11
:10318000FEFEFEFEFEFEFEFEFEFEFEFEADADFEFE01
:10319000FEFEFEFEADADFEFEFEFEFEADADADADFE35
:1031A000FEFEFEADADADADFEFEFEADADADADADAD69
:1031B000FEFEFE3F3F3F3FFEFEFEFEFE3F3FFEFEA9
:1031C000FEFEFEFEFEFEFEFEFEFEFEFEADADFEFEC1
:1031D000FEFEFEFEADADFEFEFEFEFEADADADADFEF5
:1031E000FEFEFEADADADADFEFEFEADADADADADAD29
:1031F000FEFEFEFE3F3FFEFEFEFEFEFEFEFEFEFE6D
:10320000FEFEFEFEFEFEFEFEFEFEFEFEFEFEFEFEDE
:10321000FEFEFEFEADFEFEFEFEFEFE3FADADADFED1
:10322000FEFE3F3FADADADADADFE3F3FADADADAD93
:10323000ADFEFE3FADADADFEFEFEFEFEADFEFEFE02
:10324000FEFEFEFEFEFEFEFEFEFEFEFEFEFEFEFE9E
:10325000FEFEFEFEADFEFEFEFEFEFEFEADADADFED2
:10326000FEFEFE3FADADADADADFEFE3FADADADADD5
:10327000ADFEFEFEADADADFEFEFEFEFEADFEFEFE03
:10328000FEFEFEFEFEFEFEFEFEFEFEFEFEFEFEFE5E
:10329000FEFEFEFEFEFEFEFEFEFEFEFEFEFEFEFE4E
:1032A000FEFEFEFEFEFEFEFEFEFEFEFEFEFEFEFE3E
:1032B000FEFEFEFEFEFEFEFEFEFEFEFEFEFEFEFE2E
:1032C000FEFEFEFEFEFEFEFEFE909090E1E1E1F0CD
:1032D000F5F5F5F5E1E1E1F0F0909090E1E1E1E163
:1032E000E1F5F5F5E1E1E1E1E1909090E1E1E1FE68
:1032F000FEF5F5F5E1E1FEFEFE909090FEFEFEFE8D
:10330000FEF5F5F5FEFEFEFEFEF5F0E1E1E1909042
:1033100090F0F0E1E1E1F5F5F5E1E1E1E1E1909036
:1033200090E1E1E1E1E1F5F5F5FEFEE1E1E190900A
:1033300090FEFEFEE1E1F5F5F5FEFEFEFEFE90904C
:1033400090FEFEFEFEFEF5F5F5F5F5F5E1E1E1F0A6
:10335000F5909090E1E1E1F0F0F5F5F5E1E1E1E1E2
:10336000E1909090E1E1E1E1E1F5F5F5E1E1E1FEE7
:10337000FE909090E1E1FEFEFEF5F5F5FEFEFEFE0C
:10338000FE909090FEFEFEFEFEF5F0E1E1E1F5F527
:10339000F5F0F0E1E1E1909090E1E1E1E1E1F5F5B6
:1033A000F5E1E1E1E1E1909090FEFEE1E1E1F5F58A
:1033B000F5FEFEFEE1E1909090FEFEFEFEFEF5F5CC
:1033C000F5FEFEFEFEFE909090FEFEFEFEE1E1F0B8
:1033D000F5FEFEFEFEE1E1F0F0FEFEFEE1E1E1E1E0
:1033E000E1FEFEE1E1E1E1E1E1FEFEE1E1E1E1E159
:1033F000E1F590F590F590F590F590F590F590F554
:1034000090F590F590F590F590F0F5F5F5F5F5F56A
:10341000F5F0E1E1E1FEFEFEF5E1E1E1E1FEFEFEB7
:10342000FEE1E1E1FEFEFEFEFEE1E1E1FEFEFEFE6A
:10343000FEF590F590F5FEFEFEF590F590F5FEFE9A
:10344000FEF590F590F5FEFEFEFEFEFEFEE1E1F0DB
:10345000F5FEFEFEFEE1E1F0F0FEFEFEE1E1E1E15F
:10346000E1FEFEE1E1E1E1E1E1FEFEE1E1E1E1E1D8
:10347000E190F590F590F590F590F590F590F59038
:10348000F590F590F590F590F5F0F5F5F5F5F5F585
:10349000F5F0E1E1E1FEFEFEF5E1E1E1E1FEFEFE37
:1034A000FEE1E1E1FEFEFEFEFEE1E1E1FEFEFEFEEA
:1034B000FE90F590F590FEFEFE90F590F590FEFEE4
:1034C000FE90F590F590FEFEFE000000000000006A
:1034D00000000000000000000000000000000000EC
:1034E00000000000000000000000000000000000DC
:1034F00000000000000000000000000000000000CC
:103500000000000000000000006666662666666631
:1035100066777777267777777777777726777777EE
:1035200077777777267777777726262626262626B3
:1035300026777777777777772677777777777777BD
:1035400026777777777777772600ECECECECECEC66
:1035500000ECFFFFFFFFFFFFECECEDFFFFFFFFEDD7
:10356000ECECEDEEFFFFEEEDECECEDEEFFEFEEED53
:10357000ECECEDFFEEEEEEEDECECFFEDEDEDEDED58
:10358000EC00ECECECECECEC0000ECECECECECEC3F
:1035900000ECFFEDEDEDEDFFECECEDFFEEEEFFED01
:1035A000ECECEDEEFFFFEEEDECECEDEEFFFFEEED03
:1035B000ECECEDFFEEEEFFEDECECFFEDEDEDEDFFF5
:1035C000EC00ECECECECECEC0000ECECECECECECFF
:1035D00000ECEDEDEDEDEDFFECECEDEEEEFFFFEDD3
:1035E000ECECEDEEFFFFFFEDECECFFEEFFFFEEEDA0
:1035F000ECECEDFFEEEEEEEDECECFFEDFFEDEDEDC6
:10360000EC00ECECECECECEC000505050505050523
:10361000050505050505050504050505050505045C
:103620000405050507070404040505050707040448
:103630000405050504040404040505040404040445
:103640000405040404040404040000000000000055
:103650000000FF003F0000FF000000FF3F00FF00F0
:103660000000003F3F3F3F3F00003F3F3F3F3F00E4
:10367000000000FF003FFF000000FF00003F00FFD0
:103680000000000000000000003F3F000000003F7D
:103690003F3FFF1F3F001FFF3F001FFF3F00FF3F57
:1036A0000000003F3F3F3F3F00003F3F3F3F3F00A4
:1036B00000001FFF003FFF1F003FFF1F003F1FFFD5
:1036C0003F3F3F000000003F3F00000000000000BF
:1036D0000000FF00000000FF000000FF0000FF00EE
:1036E00000000000000000000000000000000000DA
:1036F000000000FF0000FF000000FF00000000FFCE
:103700000000000000000000000505050505050596
:103710000505050505050505000505050505050063
:103720000005050507070000000505050700000066
:103730000005050500000000000505000000000070
:103740000005000000000000000000000000000074
:103750000400000000000004040000000000040455
:10376000040000000007040404000000070704042C
:103770000400000404040404040004040404040415
:1037800004040404040404040405050505050505F2
:1037900005000505050505050500000505050505E8
:1037A00005000000070705050500000000070505E6
:1037B00005000000000005050500000000000005F0
:1037C00005000000000000000504000000000000EB
:1037D00000040400000000000004040400000000D5
:1037E00000040404070000000004040407070000AC
:1037F0000004040404040400000404040404040495
:10380000000404040404040404ADADADADADADADDD
:10381000ADAD81818182828383AD8181818282830A
:1038200083AD81818182828383AD81818182828324
:1038300083AD81818182828383AD81818182828314
:1038400083ADADADADADADADADADADADADADADADD2
:10385000AD858586878786858585858687878685E4
:1038600085858586878786858585858687878685FC
:1038700085858586878786858585858687878685EC
:1038800085AD858687878685ADADADADADADADAD7A
:10389000AD83838282818181AD83838282818181B4
:1038A000AD83838282818181AD83838282818181A4
:1038B000AD83838282818181AD8383828281818194
:1038C000ADADADADADADADADADADADADADADADAD28
:1038D000ADAD81818182828383AD8181818282834A
:1038E00083AD81818182828383AD81818182828364
:1038F00083AD81818182828383AD81818182828354
:1039000083AD818181828283ADADADADADADADAD15
:10391000AD85858687878685858585868787868523
:10392000858585868787868585858586878786853B
:10393000858585868787868585858586878786852B
:1039400085ADADADADADADADADADADADADADADADCF
:10395000AD83838282818181AD83838282818181F3
:10396000AD83838282818181AD83838282818181E3
:10397000AD83838282818181AD83838282818181D3
:10398000ADAD838282818181ADADADADADADADAD6B
:10399000ADAD818181828283ADAD8181818282835F
:1039A000ADAD818181828283ADAD8181818282834F
:1039B000ADAD81818182828383AD81818182828369
:1039C00083AD81818182828383000000000000003A
:1039D00000000000000000000000000000000000E7
:1039E000000000000000000000ADADADADADADAD1C
:1039F000AD85858687878685858585868787868543
:103A00008585858687878685850000000000000003
:103A100000000000000000000000000000000000A6
:103A2000000000000000000000ADADADADADADADDB
:103A3000AD83838282818181AD8383828281818112
:103A4000AD83838282818181ADADADADADADADADD4
:103A5000ADAD818181828283ADAD8181818282839E
:103A6000ADAD818181828283ADAD8181818282838E
:103A7000ADAD818181828283ADAD8181818282837E
:103A8000ADAD818181828283ADADADADADADADAD6A
:103A9000ADAD838282818181ADAD8382828181815E
:103AA000ADAD838282818181ADAD8382828181814E
:103AB000ADAD838282818181ADAD8382828181813E
:103AC000ADADADADADADADADADADADADADADADAD26
:103AD000ADAD838282818181ADAD8382828181811E
:103AE000ADAD838282818181ADAD8382828181810E
:103AF000ADAD838282818181ADAD838282818181FE
:103B0000ADAD838282818181ADAD858687878685D3
:103B1000ADAD858687878685ADAD858687878685A9
:103B2000ADAD858687878685ADAD85868787868599
:103B3000ADAD858687878685ADAD85868787868589
:103B4000ADAD858687878685ADAD81818182828393
:103B5000ADAD818181828283ADAD8181818282839D
:103B6000ADAD818181828283ADAD8181818282838D
:103B7000ADAD818181828283ADAD8181818282837D
:103B8000ADAD818181828283ADAD8382828181816D
:103B9000ADAD838282818181ADAD8382828181815D
:103BA000ADAD838282818181ADAD8382828181814D
:103BB000ADAD838282818181ADAD8382828181813D
:103BC000ADAD838282818181ADAD8181818282832D
:103BD00083AD81818182828383AD81818182828371
:103BE00083AD818181828283ADAD81818182828337
:103BF000ADAD818181828283ADAD818181828283FD
:103C0000ADAD818181828283AD85858687878685FA
:103C10008585858687878685858585868787868548
:103C200085ADADADADADADADAD00000000000000A7
:103C30000000000000000000000000000000000084
:103C400000000000000000000083838282818181E7
:103C5000AD83838282818181AD83838282818181F0
:103C6000ADAD838282818181ADAD8382828181818C
:103C7000ADAD838282818181ADAD8382828181817C
:103C8000ADAD838282818181ADAD8181818282836C
:103C9000ADAD81818182828383AD81818182828386
:103CA00083AD81818182828383AD818181828283A0
:103CB00083AD81818182828383AD81818182828390
:103CC00083AD81818182828383ADADADADADADAD7C
:103CD000AD85858687878685AD8585868787868538
:103CE000AD85858687878685AD8585868787868528
:103CF000AD85858687878685AD8585868787868518
:103D0000AD85858687878685ADAD818181828283F9
:103D1000ADAD818181828283ADAD818181828283DB
:103D2000ADAD818181828283ADAD818181828283CB
:103D3000ADAD818181828283ADAD818181828283BB
:103D400083AD8181818282838300000000000000B6
:103D50000000000000000000000000000000000063
:103D60000000000000000000000000000000000053
:103D700000ADADADADADADADAD8585868787868532
:103D8000AD85858687878685ADAD81818182828379
:103D9000ADAD81818182828383AD81818182828385
:103DA00083AD81818182828383AD8181818282839F
:103DB00083AD81818182828383AD8181818282838F
:103DC00083AD818181828283ADAD83828281818155
:103DD000AD83838282818181AD838382828181816F
:103DE000AD83838282818181AD838382828181815F
:103DF000AD83838282818181AD838382828181814F
:103E0000ADAD838282818181ADAD818181828283EA
:103E100083AD81818182828383AD8181818282832E
:103E200083AD81818182828383AD8181818282831E
:103E300083AD81818182828383AD8181818282830E
:103E400083AD818181828283AD85858687878685E2
:103E5000AD85858687878685AD85858687878685B6
:103E6000AD85858687878685AD85858687878685A6
:103E7000AD85858687878685AD8585868787868596
:103E8000ADADADADADADADADADAD81818182828366
:103E900083AD81818182828383AD818181828283AE
:103EA00083AD81818182828383AD8181818282839E
:103EB000ADAD818181828283ADAD8181818282833A
:103EC000ADAD818181828283AD8585868787868538
:103ED000AD85858687878685AD8585868787868536
:103EE000AD85858687878685ADADADADADADADAD14
:103EF000AD00000000000000000000000000000015
:103F0000000000000000000000AD858687878685E0
:103F1000ADAD858687878685ADAD858687878685A5
:103F2000ADAD858687878685ADAD85868787868595
:103F3000ADAD858687878685ADAD85868787868585
:103F4000ADADADADADADADADADAD818181828283A5
:103F5000ADAD818181828283ADAD81818182828399
:103F6000ADAD818181828283ADAD81818182828389
:103F7000ADAD818181828283ADAD81818182828379
:103F8000ADADADADADADADADADAD83828281818165
:103F9000ADAD838282818181ADAD83828281818159
:103FA000ADAD838282818181ADAD83828281818149
:103FB000ADAD838282818181ADAD83828281818139
:103FC000ADADADADADADADADADAD81818182828325
:103FD000ADAD818181828283ADAD81818182828319
:103FE00083AD81818182828383AD8181818282835D
:103FF00083AD81818182828383AD8181818282834D
:1040000083ADADADADADADADAD00000000000000C5
:1040100000ADADADADADADADAD858586878786858F
:104020008585858687878685858585868787868534
:104030008585858687878685858585868787868524
:1040400085ADADADADADADADADAD838282818181CC
:10405000ADAD838282818181AD83838282818181C2
:10406000AD83838282818181AD83838282818181DC
:10407000AD83838282818181AD83838282818181CC
:10408000ADADADADADADADADAD000000000000001B
:104090000000000000000000000000000000000020
:1040A0000000000000000000000000000000000010
:1040B0000000000000000000000000000000000000
:1040C00000000000000000000000000000000000F0
:1040D00000000000FFFF000000000000FFFF0000E4
:1040E00000000000FFFF000000000000FFFF0000D4
:1040F000000000000000000000000000FFFF0000C2
:1041000000000000000000000000000000000000AF
:104110000000FFFF0000FFFF0000FFFF0000FFFFA7
:104120000000FFFF0000FFFF000000000000000093
:10413000000000000000000000000000000000007F
:10414000000000000000000000000000000000006F
:104150000000FFFF0000FFFF00FFFFFFFFFFFFFF6A
:10416000FF00FFFF0000FFFF0000FFFF0000FFFF58
:1041700000FFFFFFFFFFFFFFFF00FFFF0000FFFF4B
:10418000000000000000000000000000FFFF000031
:10419000000000FFFFFFFFFF0000FFFF0000000026
:1041A000000000FFFFFFFF00000000000000FFFF15
:1041B0000000FFFFFFFFFF0000000000FFFF000006
:1041C00000000000000000000000000000000000EF
:1041D0000000FFFF0000FFFF0000FFFF00FFFF00E7
:1041E00000000000FFFF0000000000FFFF000000D3
:1041F0000000FFFF0000FFFF0000FF000000FFFFC6
:10420000000000000000000000000000FFFFFF00B1
:10421000000000FFFF00FFFF00000000FFFFFF00A5
:10422000000000FFFFFF00000000FFFF00FFFFFF96
:10423000FF00FFFF0000FFFF000000FFFFFF00FF87
:10424000FF0000000000000000000000000000006F
:1042500000000000FFFF000000000000FFFF000062
:1042600000000000FFFF0000000000000000000050
:10427000000000000000000000000000000000003E
:10428000000000000000000000000000000000002E
:104290000000000000FFFFFF00000000FFFFFF0024
:1042A00000000000FFFF000000000000FFFF000012
:1042B00000000000FFFFFF000000000000FFFFFF04
:1042C00000000000000000000000000000000000EE
:1042D0000000FFFFFF000000000000FFFFFF0000E4
:1042E00000000000FFFF000000000000FFFF0000D2
:1042F000000000FFFFFF00000000FFFFFF000000C4
:1043000000000000000000000000000000000000AD
:104310000000FFFF0000FFFF000000FFFFFFFF00A5
:1043200000FFFFFFFFFFFFFFFF0000FFFFFFFF0099
:104330000000FFFF0000FFFF000000000000000081
:10434000000000000000000000000000000000006D
:1043500000000000FFFF000000000000FFFF000061
:104360000000FFFFFFFFFFFF00000000FFFF000055
:1043700000000000FFFF000000000000000000003F
:10438000000000000000000000000000000000002D
:10439000000000000000000000000000000000001D
:1043A000000000000000000000000000000000000D
:1043B00000000000FFFF000000000000FFFF000001
:1043C000000000FFFF0000000000000000000000EF
:1043D00000000000000000000000000000000000DD
:1043E0000000FFFFFFFFFFFF0000000000000000D3
:1043F00000000000000000000000000000000000BD
:1044000000000000000000000000000000000000AC
:10441000000000000000000000000000000000009C
:10442000000000000000000000000000000000008C
:1044300000000000FFFF000000000000FFFF000080
:10444000000000000000000000000000000000006C
:10445000000000000000FFFF0000000000FFFF0060
:1044600000000000FFFF0000000000FFFF00000050
:104470000000FFFF000000000000FF00000000003F
:10448000000000000000000000000000000000002C
:10449000000000FFFFFFFF000000FFFF0000FFFF24
:1044A0000000FFFF00FFFFFF0000FFFFFF00FFFF16
:1044B0000000FFFF0000FFFF000000FFFFFFFF0004
:1044C00000000000000000000000000000000000EC
:1044D00000000000FFFF0000000000FFFFFF0000E1
:1044E00000000000FFFF000000000000FFFF0000D0
:1044F00000000000FFFF00000000FFFFFFFFFFFFC4
:1045000000000000000000000000000000000000AB
:10451000000000FFFFFFFF000000FFFF0000FFFFA3
:104520000000000000FFFF0000000000FFFF00008F
:10453000000000FFFF0000000000FFFFFFFFFFFF83
:10454000000000000000000000000000000000006B
:104550000000FFFFFFFFFFFF0000000000FFFF0063
:1045600000000000FFFF00000000000000FFFF004F
:104570000000FFFF0000FFFF000000FFFFFFFF0043
:10458000000000000000000000000000000000002B
:104590000000000000FFFF0000000000FFFFFF0020
:1045A000000000FFFFFFFF000000FFFF00FFFF0013
:1045B0000000FFFFFFFFFFFF0000000000FFFF0003
:1045C00000000000000000000000000000000000EB
:1045D0000000FFFFFFFFFFFF0000FFFF00000000E3
:1045E0000000FFFFFFFFFF00000000000000FFFFD2
:1045F0000000FFFF0000FFFF000000FFFFFFFF00C3
:1046000000000000000000000000000000000000AA
:10461000000000FFFFFFFF000000FFFF00000000A0
:104620000000FFFFFFFFFF000000FFFF0000FFFF93
:104630000000FFFF0000FFFF000000FFFFFFFF0082
:10464000000000000000000000000000000000006A
:104650000000FFFFFFFFFFFF000000000000FFFF62
:104660000000000000FFFF0000000000FFFF00004E
:10467000000000FFFF000000000000FFFF0000003E
:10468000000000000000000000000000000000002A
:10469000000000FFFFFFFF000000FFFF0000FFFF22
:1046A000000000FFFFFFFF000000FFFF0000FFFF12
:1046B0000000FFFF0000FFFF000000FFFFFFFF0002
:1046C00000000000000000000000000000000000EA
:1046D000000000FFFFFFFF000000FFFF0000FFFFE2
:1046E000000000FFFFFFFFFF000000000000FFFFD1
:1046F0000000000000FFFF00000000FFFFFF0000BF
:1047000000000000000000000000000000000000A9
:10471000000000000000000000000000FFFF00009B
:1047200000000000FFFF000000000000000000008B
:1047300000000000FFFF000000000000FFFF00007D
:104740000000000000000000000000000000000069
:10475000000000000000000000000000FFFF00005B
:1047600000000000FFFF000000000000000000004B
:1047700000000000FFFF000000000000FFFF00003D
:10478000000000FFFF000000000000000000FFFF2D
:104790000000000000FFFF0000000000FFFF00001D
:1047A000000000FFFF00000000000000FFFF00000D
:1047B0000000000000FFFF00000000000000FFFFFD
:1047C00000000000000000000000000000000000E9
:1047D00000000000000000000000FFFFFFFFFFFFDF
:1047E00000000000000000000000000000000000C9
:1047F0000000FFFFFFFFFFFF0000000000000000BF
:1048000000000000000000000000FFFF00000000AA
:10481000000000FFFF00000000000000FFFF00009C
:104820000000000000FFFF0000000000FFFF00008C
:10483000000000FFFF0000000000FFFF000000007C
:104840000000000000000000000000000000000068
:10485000000000FFFFFFFF000000FFFF0000FFFF60
:104860000000000000FFFF0000000000FFFF00004C
:10487000000000000000000000000000FFFF00003A
:104880000000000000000000000000000000000028
:10489000000000FFFFFFFF000000FFFF0000FFFF20
:1048A0000000FFFF00FFFFFF0000FFFF00FFFFFF12
:1048B0000000FFFF00000000000000FFFFFFFFFFFF
:1048C00000000000000000000000000000000000E8
:1048D00000000000FFFF0000000000FFFFFFFF00DE
:1048E0000000FFFF0000FFFF0000FFFF0000FFFFD0
:1048F0000000FFFFFFFFFFFF0000FFFF0000FFFFC2
:1049000000000000000000000000000000000000A7
:104910000000FFFFFFFFFF000000FFFF0000FFFFA0
:104920000000FFFFFFFFFF000000FFFF0000FFFF90
:104930000000FFFF0000FFFF0000FFFFFFFFFF0080
:104940000000000000000000000000000000000067
:10495000000000FFFFFFFF000000FFFF0000FFFF5F
:104960000000FFFF000000000000FFFF000000004B
:104970000000FFFF0000FFFF000000FFFFFFFF003F
:104980000000000000000000000000000000000027
:104990000000FFFFFFFF00000000FFFF00FFFF001F
:1049A0000000FFFF0000FFFF0000FFFF0000FFFF0F
:1049B0000000FFFF00FFFF000000FFFFFFFF0000FF
:1049C00000000000000000000000000000000000E7
:1049D0000000FFFFFFFFFFFF0000FFFF00000000DF
:1049E0000000FFFFFFFFFF000000FFFF00000000CE
:1049F0000000FFFF000000000000FFFFFFFFFFFFBF
:104A000000000000000000000000000000000000A6
:104A10000000FFFFFFFFFFFF0000FFFF000000009E
:104A20000000FFFFFFFFFF000000FFFF000000008D
:104A30000000FFFF000000000000FFFF000000007A
:104A40000000000000000000000000000000000066
:104A5000000000FFFFFFFFFF0000FFFF000000005D
:104A60000000FFFF000000000000FFFF00FFFFFF4D
:104A70000000FFFF0000FFFF000000FFFFFFFFFF3F
:104A80000000000000000000000000000000000026
:104A90000000FFFF0000FFFF0000FFFF0000FFFF1E
:104AA0000000FFFFFFFFFFFF0000FFFF0000FFFF10
:104AB0000000FFFF0000FFFF0000FFFF0000FFFFFE
:104AC00000000000000000000000000000000000E6
:104AD0000000FFFFFFFFFFFF00000000FFFF0000DE
:104AE00000000000FFFF000000000000FFFF0000CA
:104AF00000000000FFFF00000000FFFFFFFFFFFFBE
:104B000000000000000000000000000000000000A5
:104B10000000000000FFFFFF000000000000FFFF9A
:104B2000000000000000FFFF000000000000FFFF89
:104B30000000FFFF0000FFFF000000FFFFFFFF007D
:104B40000000000000000000000000000000000065
:104B50000000FFFF0000FFFF0000FFFF00FFFF005D
:104B60000000FFFFFFFF00000000FFFFFFFF00004D
:104B70000000FFFF00FFFF000000FFFF0000FFFF3D
:104B80000000000000000000000000000000000025
:104B90000000FFFF000000000000FFFF0000000019
:104BA0000000FFFF000000000000FFFF0000000009
:104BB0000000FFFF000000000000FFFFFFFFFFFFFD
:104BC00000000000000000000000000000000000E5
:104BD0000000FFFF000000FFFF00FFFFFF00FFFFDE
:104BE000FF00FFFFFFFFFFFFFF00FFFF00FF00FFD1
:104BF000FF00FFFF000000FFFF00FFFF000000FFBD
:104C0000FF000000000000000000000000000000A5
:104C10000000FFFF0000FFFF0000FFFFFF00FFFF9D
:104C20000000FFFFFFFFFFFF0000FFFFFFFFFFFF90
:104C30000000FFFF00FFFFFF0000FFFF0000FFFF7D
:104C40000000000000000000000000000000000064
:104C5000000000FFFFFFFF000000FFFF0000FFFF5C
:104C60000000FFFF0000FFFF0000FFFF0000FFFF4C
:104C70000000FFFF0000FFFF000000FFFFFFFF003C
:104C80000000000000000000000000000000000024
:104C90000000FFFFFFFFFF000000FFFF0000FFFF1D
:104CA0000000FFFF0000FFFF0000FFFFFFFFFF000D
:104CB0000000FFFF000000000000FFFF00000000F8
:104CC00000000000000000000000000000000000E4
:104CD000000000FFFFFFFF000000FFFF0000FFFFDC
:104CE0000000FFFF0000FFFF0000FFFF0000FFFFCC
:104CF0000000FFFF00FFFF00000000FFFF00FFFFBC
:104D000000000000000000000000000000000000A3
:104D10000000FFFFFFFFFF000000FFFF0000FFFF9C
:104D20000000FFFF0000FFFF0000FFFFFFFFFF008C
:104D30000000FFFF00FFFF000000FFFF0000FFFF7B
:104D40000000000000000000000000000000000063
:104D5000000000FFFFFFFF000000FFFF0000000059
:104D6000000000FFFFFFFF00000000000000FFFF49
:104D7000000000000000FFFF000000FFFFFFFF0039
:104D80000000000000000000000000000000000023
:104D90000000FFFFFFFFFFFF00000000FFFF00001B
:104DA00000000000FFFF000000000000FFFF000007
:104DB00000000000FFFF000000000000FFFF0000F7
:104DC00000000000000000000000000000000000E3
:104DD0000000FFFF0000FFFF0000FFFF0000FFFFDB
:104DE0000000FFFF0000FFFF0000FFFF0000FFFFCB
:104DF0000000FFFF0000FFFF0000FFFFFFFFFFFFBD
:104E000000000000000000000000000000000000A2
:104E10000000FFFF0000FFFF0000FFFF0000FFFF9A
:104E20000000FFFF0000FFFF0000FFFF0000FFFF8A
:104E3000000000FFFFFFFF0000000000FFFF000078
:104E40000000000000000000000000000000000062
:104E50000000FFFF000000FFFF00FFFF000000FF59
:104E6000FF00FFFF00FF00FFFF00FFFFFFFFFFFF4E
:104E7000FF00FFFFFF00FFFFFF00FFFF000000FF3C
:104E8000FF00000000000000000000000000000023
:104E90000000FFFF0000FFFF0000FFFF0000FFFF1A
:104EA000000000FFFFFFFF00000000FFFFFFFF000A
:104EB0000000FFFF0000FFFF0000FFFF0000FFFFFA
:104EC00000000000000000000000000000000000E2
:104ED0000000FFFF0000FFFF0000FFFF0000FFFFDA
:104EE000000000FFFFFFFF0000000000FFFF0000C8
:104EF00000000000FFFF000000000000FFFF0000B6
:104F000000000000000000000000000000000000A1
:104F10000000FFFFFFFFFFFF0000000000FFFF0099
:104F200000000000FFFF0000000000FFFF00000085
:104F30000000FFFF000000000000FFFFFFFFFFFF79
:104F40000000000000000000000000000000000061
:104F500000000000FFFFFFFF00000000FFFF000057
:104F600000000000FFFF000000000000FFFF000045
:104F700000000000FFFF000000000000FFFFFFFF37
:104F80000000000000000000000000000000000021
:104F90000000FF00000000000000FFFF0000000014
:104FA000000000FFFF00000000000000FFFF000005
:104FB0000000000000FFFF00000000000000FFFFF5
:104FC00000000000000000000000000000000000E1
:104FD0000000FFFFFFFF000000000000FFFF0000D7
:104FE00000000000FFFF000000000000FFFF0000C5
:104FF00000000000FFFF00000000FFFFFFFF0000B7
:1050000000000000000000000000000000000000A0
:105010000000000000FF000000000000FFFFFF0094
:10502000000000FFFF00FFFF0000FFFF000000FF87
:10503000FF00000000000000000000000000000071
:105040000000000000000000000000000000000060
:105050000000000000000000000000000000000050
:105060000000000000000000000000000000000040
:10507000000000000000000000FFFFFFFFFFFFFF37
:10508000FF00000000000000000000000000000021
:1050900000000000FFFF0000000000FFFFFFFF0016
:1050A0000000FFFFFFFFFFFF0000FFFFFFFFFFFF0C
:1050B000000000FFFFFFFF0000000000FFFF0000F6
:1050C00000000000000000000000000000000000E0
:1050D0000000000000000000000000FFFFFFFF00D4
:1050E000000000000000FFFF000000FFFFFFFFFFC7
:1050F0000000FFFF0000FFFF000000FFFFFFFFFFB9
:10510000000000000000000000000000000000009F
:105110000000FFFF000000000000FFFF0000000093
:105120000000FFFFFFFFFF000000FFFF0000FFFF88
:105130000000FFFF0000FFFF0000FFFFFFFFFF0078
:10514000000000000000000000000000000000005F
:105150000000000000000000000000FFFFFFFF0053
:105160000000FFFF000000000000FFFF0000000043
:105170000000FFFF00000000000000FFFFFFFF0035
:10518000000000000000000000000000000000001F
:10519000000000000000FFFF000000000000FFFF13
:1051A000000000FFFFFFFFFF0000FFFF0000FFFF08
:1051B0000000FFFF0000FFFF000000FFFFFFFFFFF8
:1051C00000000000000000000000000000000000DF
:1051D0000000000000000000000000FFFFFFFF00D3
:1051E0000000FFFF0000FFFF0000FFFFFFFFFFFFC9
:1051F0000000FFFF00000000000000FFFFFFFF00B5
:10520000000000000000000000000000000000009E
:105210000000000000FFFFFF00000000FFFF000093
:10522000000000FFFFFFFFFF00000000FFFF000085
:1052300000000000FFFF000000000000FFFF000072
:10524000000000000000000000000000000000005E
:105250000000000000000000000000FFFFFFFFFF53
:105260000000FFFF0000FFFF0000FFFF0000FFFF46
:10527000000000FFFFFFFFFF000000000000FFFF35
:105280000000FFFFFFFFFF00000000000000000023
:105290000000FFFF000000000000FFFF0000000012
:1052A0000000FFFFFFFFFF000000FFFF0000FFFF07
:1052B0000000FFFF0000FFFF0000FFFF0000FFFFF6
:1052C00000000000000000000000000000000000DE
:1052D00000000000FFFF00000000000000000000D0
:1052E000000000FFFFFF000000000000FFFF0000C3
:1052F00000000000FFFF0000000000FFFFFFFF00B4
:10530000000000000000000000000000000000009D
:10531000000000000000FFFF00000000000000008F
:10532000000000000000FFFF000000000000FFFF81
:10533000000000000000FFFF000000000000FFFF71
:10534000000000FFFFFFFF00000000000000000061
:105350000000FFFF000000000000FFFF0000000051
:105360000000FFFF00FFFF000000FFFFFFFF000045
:105370000000FFFF00FFFF000000FFFF0000FFFF35
:10538000000000000000000000000000000000001D
:10539000000000FFFFFF000000000000FFFF000012
:1053A00000000000FFFF000000000000FFFF000001
:1053B00000000000FFFF0000000000FFFFFFFF00F3
:1053C00000000000000000000000000000000000DD
:1053D00000000000000000000000FFFF0000FFFFD1
:1053E0000000FFFFFFFFFFFFFF00FFFFFFFFFFFFCA
:1053F000FF00FFFF00FF00FFFF00FFFF000000FFB6
:10540000FF0000000000000000000000000000009D
:1054100000000000000000000000FFFFFFFFFF0091
:105420000000FFFF0000FFFF0000FFFF0000FFFF84
:105430000000FFFF0000FFFF0000FFFF0000FFFF74
:10544000000000000000000000000000000000005C
:105450000000000000000000000000FFFFFFFF0050
:105460000000FFFF0000FFFF0000FFFF0000FFFF44
:105470000000FFFF0000FFFF000000FFFFFFFF0034
:10548000000000000000000000000000000000001C
:1054900000000000000000000000FFFFFFFFFF0011
:1054A0000000FFFF0000FFFF0000FFFF0000FFFF04
:1054B0000000FFFFFFFFFF000000FFFF00000000F3
:1054C0000000FFFF000000000000000000000000DE
:1054D0000000000000000000000000FFFFFFFFFFD1
:1054E0000000FFFF0000FFFF0000FFFF0000FFFFC4
:1054F000000000FFFFFFFFFF000000000000FFFFB3
:10550000000000000000FFFF00000000000000009D
:1055100000000000000000000000FFFFFFFFFF0090
:105520000000FFFF0000FFFF0000FFFF0000000081
:105530000000FFFF000000000000FFFF000000006F
:10554000000000000000000000000000000000005B
:105550000000000000000000000000FFFFFFFFFF50
:105560000000FFFF00000000000000FFFFFFFF0041
:10557000000000000000FFFF0000FFFFFFFFFF0032
:10558000000000000000000000000000000000001B
:1055900000000000FFFF00000000FFFFFFFFFFFF13
:1055A00000000000FFFF000000000000FFFF0000FF
:1055B00000000000FFFF00000000000000FFFFFFF0
:1055C00000000000000000000000000000000000DB
:1055D00000000000000000000000FFFF0000FFFFCF
:1055E0000000FFFF0000FFFF0000FFFF0000FFFFC3
:1055F0000000FFFF0000FFFF000000FFFFFFFFFFB4
:10560000000000000000000000000000000000009A
:1056100000000000000000000000FFFF0000FFFF8E
:105620000000FFFF0000FFFF0000FFFF0000FFFF82
:10563000000000FFFFFFFF0000000000FFFF000070
:10564000000000000000000000000000000000005A
:1056500000000000000000000000FFFF000000FF4D
:10566000FF00FFFF00FF00FFFF00FFFFFFFFFFFF46
:10567000FF0000FFFFFFFFFF000000FFFF00FFFF34
:10568000000000000000000000000000000000001A
:1056900000000000000000000000FFFF0000FFFF0E
:1056A000000000FFFFFFFF0000000000FFFF000000
:1056B000000000FFFFFFFF000000FFFF0000FFFFF2
:1056C00000000000000000000000000000000000DA
:1056D00000000000000000000000FFFF0000FFFFCE
:1056E0000000FFFF0000FFFF0000FFFF0000FFFFC2
:1056F000000000FFFFFFFFFF0000000000FFFF00B1
:105700000000FFFFFFFF000000000000000000009D
:1057100000000000000000000000FFFFFFFFFFFF8F
:105720000000000000FFFF0000000000FFFF00007D
:10573000000000FFFF0000000000FFFFFFFFFFFF71
:105740000000000000000000000000000000000059
:1057500000000000FFFF0000000000FFFFFFFF004F
:105760000000FFFFFFFFFFFF0000FFFFFFFFFFFF45
:1057700000000000FFFF0000000000FFFFFFFF002F
:10578000000000000000000000000000FFFF00001B
:1057900000000000FFFF000000000000FFFF00000D
:1057A00000000000FFFF000000000000FFFF0000FD
:1057B00000000000FFFF000000000000FFFF0000ED
:1057C00000000000FFFF00000000000000000000DB
:1057D0000000FFFFFFFFFFFF0000FFFFFFFF0000D3
:1057E0000000FFFFFFFFFF000000FFFF00FFFFFFC3
:1057F0000000FFFF0000FFFF000000000000FFFFAF
:1058000000000000000000000000000000FF000099
:1058100000000000FFFF0000000000FFFFFF00008D
:105820000000FFFFFFFF0000000000FFFFFF00007F
:1058300000000000FFFF00000000000000FF00006B
:10584000000000000000000000000000FF00000059
:1058500000000000FFFF000000000000FFFFFF004D
:1058600000000000FFFFFFFF00000000FFFFFF003F
:1058700000000000FFFF000000000000FF0000002B
:105880000000000000000000000011241FBECFEF48
:10589000D0E1DEBFCDBF11E0A0E0B1E0E8E3F2EA85
:1058A00002C005900D92A835B107D9F71FE0A8E511
:1058B000B1E001C01D92A33FB107E1F714BE88E13A
:1058C0000FB6F89480936000109260000FBE0E94A3
:1058D0004C31811102C00E942A31F894E1E4F9E0D0
:1058E00080E881932BE0ED34F207D9F781E499E069
:1058F00090934E0B80934D0B10924F0B81E0809351
:10590000660B8093670B8093650B1092520B10927D
:10591000580B10925E0B1092640B109216091092A5
:10592000180992E19093170990EE909320099093B3
:105930001E0994E190931F0990931D091092240968
:105940001092230910922809109227098093510B75
:105950000E94DF3D82E890E0FC0125913491F9013D
:10596000FF273083029620E0803B9207A9F77894C6
:105970000E949E3E0E94754E0C941A510C94000099
:105980000CE00A95F1F7E8EDF8E0C0E6D1E02091EF
:10599000E70B0027A081B181AC0FBD1F1C911283C2
:1059A000021708F4102F1C9333960395003190F3DF
:1059B0000DE216E01A95F1F70A95D9F7209014092F
:1059C00030901509009110091091110968013801F2
:1059D0008CE1C0E6D1E04E01002430911309303053
:1059E00009F0C8EA09F0D4E009F0832F09F0610159
:1059F00000EEA02E662778E07ED236E23A95F1F7E7
:105A000000000E94322D3FE03A95F1F700000000BF
:105A1000AA94A9F06395C895683031F033E03A95BF
:105A2000F1F700000000E8CF662700243EE1C30F35
:105A3000D01D8A9509F4E40109F46301DDCF36E055
:105A40003A95F1F758D211240E94803CE091180950
:105A500042E0E160E427E0931809E2E0E0933600D9
:105A600011240895DE01679F860100501440000D47
:105A7000111D180108ED14E0000D111D280130E47E
:105A80001EE12D91239FA101203108F4A201040EF3
:105A9000151EF0012031F0F0059108B92D91059106
:105AA00008B9239F059108B920310000059108B974
:105AB00008F4A201059108B9040E151E059108B954
:105AC00020311A95059108B9059131F1F00108B915
:105AD00018F700C0019108B92D910191000008B993
:105AE000239F0191000008B9203100C0019108B93D
:105AF00008F0A1010191040E08B9151E00C0019122
:105B000008B9203100C0019108B901911A9521F01E
:105B1000F00108B908F6DECF08B90027C8950000E3
:105B200008B9089520E4E0911009F091110980511D
:105B3000829FE00DF11DA8EDB4E0629FA00DB11DA4
:105B4000002405900D9205900D9205900D92059000
:105B50000D9205900D9205900D9205900D92059075
:105B60000D9205900D9205900D9205900D92059065
:105B70000D9205900D9205900D9205900D92059055
:105B80000D9205900D9205900D9205900D92059045
:105B90000D9205900D9205900D9205900D92059035
:105BA0000D9205900D9205900D9205900D92059025
:105BB0000D9205900D9205900D9205900D92059015
:105BC0000D9205900D9205900D9205900D92059005
:105BD0000D9205900D9205900D9205900D920590F5
:105BE0000D9205900D9205900D9205900D920590E5
:105BF0000D9205900D9205900D9205900D920590D5
:105C00000D9205900D9205900D9205900D920590C4
:105C10000D9205900D9205900D9205900D920590B4
:105C20000D9205900D9205900D9205900D920590A4
:105C30000D9205900D9205900D9205900D92059094
:105C40000D92112408950F931F93CF93DF9394E047
:105C5000899FE8EAF4E0E00DF11D03818281E0E430
:105C60008E9FD00198E0099FC8E0D9E00024C10DC3
:105C7000D01DE881F981EA0FFB1FA8EDB4E090E4A4
:105C8000699FA00DB11D1124DD27403051F4A20FF2
:105C9000B11D822FC22F00FF11C03796C0E1C21B79
:105CA0000DC088E0821B00FD04C0C82FE80FF11D65
:105CB00005C0C8E0C20FE20FF11D3197503041F42A
:105CC00098E0939FA00DB11D932F01FDF8960AC097
:105CD00098E0931B632F6A9501FF692F58E0569F48
:105CE000E00DF11D6FEF7FEF00FF61E000FF772710
:105CF00001FD609711243EEF58E0591B48E0481B16
:105D0000249123132C931196E60FF71F4A95C1F7A0
:105D1000EC0FFD1FA80FB11D5A9581F7DF91CF91B0
:105D20001F910F9108950F921F92EF93FF93EFB77A
:105D3000EF93E0918400E251F1E0EF1700F0F3956A
:105D4000FA30D8F30C94A42EE0911709EA95E09369
:105D50001709F0911609F0FD57C0EC3098F0F3E008
:105D6000F0938900FDE8F0938800E0FB289826F482
:105D7000E1E00E945C30B8C0E5E1EA95F1F700008F
:105D8000289AB2C0E63038F100C000C02898E0FB85
:105D9000E4E016F40E945C30E4E0E0933600E6E0D4
:105DA000E0936F00A1C0EF93EFB7EF93E091840011
:105DB000ED55E13000F0E23000F0E33000F0E43087
:105DC00000F0E53000F0289AE2E0E0936F00EF91F8
:105DD000EFBFEF91189500C0E0FB289826F4E1E0B2
:105DE0000E945C3005C0E5E1EA95F1F70000289AD1
:105DF000E0911709E03009F077C0EDEFE093170963
:105E0000E1E0E093160970C0E7E0E0938900EBE180
:105E1000E093880000C02898E2E000C00E945C3057
:105E2000FDEF00901D09F019E0911709EF17E0F45C
:105E3000FDEF00901D09F01900901E09F019EF17F1
:105E400098F0EDE1FF2700800F92EA95E1F70FE16E
:105E50000A95F1F7000000000E94C02CE1E0FF2746
:105E60000F900192EE31E0F3E0911709E03009F074
:105E70003BC02F933F934F935F936F937F938F9389
:105E80009F93AF93BF9378941124EE27E093160964
:105E9000E2E1E0931709F0911F09F0931D09F091D9
:105EA0002009F0931E09E0911909F0911A09E115F2
:105EB000F10509F009950E941A310E94203F0E94C5
:105EC000862F1124E0911B09F0911C09E115F105C1
:105ED00009F00995BF91AF919F918F917F916F913B
:105EE0005F914F913F912F91EF91EFBFFF91EF9114
:105EF0001F900F9018952898E2E000C00E945C3037
:105F0000E0911709EA95E09317090895E091510B84
:105F1000E0FD0E94DE3300904F0B002019F4A1E455
:105F2000B9E002C0A7E4BAE021E0022600924F0BDC
:105F300022E02093500BE091510BE0FF08952F9247
:105F40003F924F925F926F927F928F929F92AF9209
:105F5000BF92CF92DF92EF92FF920F931F93CF9356
:105F6000DF935091640B6091660B7091670B809189
:105F7000680B2090530B3090540B4090560B509070
:105F8000570B6090550B1091520B7090590B8090ED
:105F90005A0B90905B0BA0905C0BB0905D0B209126
:105FA000580BC0905F0BD090600BE090620BF090AC
:105FB000630B0091610B30915E0B9FEF620C431CF1
:105FC000F201449141030008C12DD02D970CA81C6B
:105FD000F501449142030008C10DD01D0C0DED1CCC
:105FE000F701449143030008C10DD01D8A956AF45E
:105FF0004091650B842F8695062E0694062600FA9E
:106000007695679576F940FF66F940E860FD4FE7C1
:1060100045030008C10DD01D0024C038D0050CF088
:10602000CFE70A94C038D0050CF4C0E8C058CD932F
:106030009A9509F0C3CF4091500B4A954093500B6D
:1060400097E009F0BBCF6092550B4092560B9092AF
:106050005B0BA0925C0B0093610BE092620B609370
:10606000660B7093670B8093680BDF91CF911F9144
:106070000F91FF90EF90DF90CF90BF90AF909F90E7
:106080008F907F906F905F904F903F902F900895EA
:10609000E0914D0BF0914E0B019100000093B30085
:1060A0000BE0ED34F00701E419E008F0F801E093AB
:1060B0004D0BF0934E0B08950F931F932F93EF9377
:1060C000E0914D0BF0914E0B01910093B3000BE06A
:1060D000ED34F00701E419E008F0F801E0934D0B0E
:1060E000F0934E0BE8E0EA95F1F7EF912F911F91B5
:1060F0000F91E0FD289AE0FF01C00895F4E1FA95C0
:10610000F1F700C0E1FD289AE1FF00C008958093F7
:106110000809909309090895E8E4F3E0A0E6B1E0E6
:1061200060E16D933197E9F71124089550911209B8
:10613000450F00C0992777272EE1629F080E191E90
:10614000A0E6B1E0A00DB11D405F4C93112408956D
:10615000809312090895809310099093110908956E
:106160008091180981700895209118092E7F20933D
:1061700018090895882329F4809121099091220912
:10618000089580912509909126090895F999FECFE7
:1061900092BD81BD60BDF894FA9AF99A78940895F9
:1061A000F999FECF92BD81BDF894F89A80B57894A4
:1061B000089598E088E10FB6F894A8958093600060
:1061C0000FBE90936000FFCF129AC895C895C895EE
:1061D000C895129840E180E090E020E030E03695EC
:1061E000279596958795C895C895C895C89513988D
:1061F000009B3068019B9068139AC895C895C89514
:10620000C895415061F7309322092093210990935A
:1062100026098093250980912109909122090F97E1
:1062200031F080912509909126090F9711F40E9471
:10623000D930089510927C0B009903C081E08093BF
:106240007C0B019905C080917C0B826080937C0B54
:106250000C94E430CF93DF93C0E0D0E0FE01E05532
:10626000FF4F6491CE010E94C6302196C032D10505
:10627000A9F7C0E2D0E06FEFCE010E94C6306FEF09
:10628000CE0101960E94C630A096C11588E0D807BD
:1062900091F7DF91CF910895CF9380E090E00E9435
:1062A000D030C82F81E090E00E94D030282F30E01D
:1062B000322F22272C0F311D81E02A35354509F078
:1062C00080E0CF910895CF92DF92EF92FF920F93EB
:1062D0001F93CF93DF931F92CDB7DEB76C010E945F
:1062E0004C31882309F44DC0F601808191818F3FA4
:1062F000FFEF9F0709F447C08A35954509F443C06D
:1063000000E210E0F12C41E0C80149830E94D03046
:10631000E82EC80101960E94D030282F30E0322F9D
:106320002227C9018E0D911DF601208131814981FD
:106330008217930719F4FF2089F00CC0019619F415
:10634000F11001C0F42E4F5F005E1F4F4034E1F6A4
:10635000FF20D9F020E2F29E80011124760180E234
:10636000E80EF11C0C191D09C601800F911FF601E2
:1063700061916F010E94C630CE14DF04A9F780E05E
:1063800005C084E003C081E001C082E00F90DF918E
:10639000CF911F910F91FF90EF90DF90CF900895D4
:1063A000DF92EF92FF920F931F93CF93DF937C01C5
:1063B000EB010E944C31882389F18FEFE816F80633
:1063C00079F100E010E0C8010E94D030D82EC80159
:1063D00001960E94D030282F30E0322F22272D0D39
:1063E000311D2E153F0539F47E0180E2E80EF11CC7
:1063F0000C1B1D0B08C0005E1F4F011584E0180721
:1064000011F783E00EC0CE01800F911F0E94D030A3
:106410008993CE15DF05B9F780E003C084E001C0A1
:1064200081E0DF91CF911F910F91FF90EF90DF906E
:106430000895FC0145870895E2E5FBE081E091E0E5
:10644000958B848B438B0895FC0190819F7590837D
:106450000895FC019081906490830895FC01448725
:106460000895FC0147830895FC01408708951F9318
:10647000CF93DF93EC01162F298130E0F901EE0F65
:10648000FF1FE85FF24965917491F901E40FF11D76
:1064900047FDFA95EE0FFF1FE85FF2498591949151
:1064A000861B970B6091840B70E00E94EA4E611589
:1064B000710511F461E070E086E0189FF00111248D
:1064C000EE5AF44F81819281860F971F92838183C8
:1064D0007B836A838881886088838981480F4C83A5
:1064E000DF91CF911F9108954093840B0895862FDB
:1064F000642F0C941F36FC01862F9181642F690F45
:1065000061830C940836FC01862F9181692F641BEE
:1065100061830C9408360F931F93CF93DF931F92E0
:10652000CDB7DEB78C01862F642F49830E940836D1
:106530004981F80141838081877F80830F90DF91BB
:10654000CF911F910F9108959093DA0B8093D90BFF
:106550008FE68093DC0B10924009EDE8FBE080E1D0
:106560009FEF28E1DF011E978C931B961C921297D8
:106570009C9311969C93108212972C9313978C9353
:1065800076963BE0E53EF30769F70895EFE7FBE019
:106590008AEF858783A381AF8093CE0B1092400949
:1065A0000895DC01ED91FC9111979F012F5F3F4F02
:1065B00011963C932E93E491E7FD03C08E2F90E05B
:1065C0000895EF778E2F90E09695982F88279795CE
:1065D00087952F5F3F4FF9013197E4914E2F4F7709
:1065E000840F911DE7FDF0CF2D933C930895FF920A
:1065F0000F931F93CF93DF93182F062FC82FD0E050
:1066000086E1189FF0011124E158F44F9081F92E92
:10661000FF1CFF24FF1C128A15868FEF8487438797
:10662000138A977B9062908317828187218313302E
:1066300069F4F11001C0022F81E091E09093670BA3
:106640008093660B81E08093650B08C0622F812FD9
:106650000E94083660E0812F0E941F3686E18C9FE1
:10666000F0018D9FF00D1124E158F44FFF2011F03F
:10667000078701C00687E091D90BF091DA0B89E01A
:10668000089FE00DF11D1124339685919491009798
:1066900059F486E18C9FF0018D9FF00D1124E15893
:1066A000F44F158A148A0EC0FC01249136E13C9FF8
:1066B000F0013D9FF00D1124E158F44F218B01961C
:1066C000958B848BDF91CF911F910F91FF9008954F
:1066D000982FE091D90BF091DA0B29E0829FE00D21
:1066E000F11D1124E491E130E9F0E230E9F020916C
:1066F000950B27FF1DC02091A40B281302C0411148
:1067000017C02091AB0B27FF11C02091BA0B2913A2
:1067100002C041110BC02091A80B8091BE0B8217C3
:1067200028F406C083E005C084E003C082E001C015
:1067300081E026E1829FF0011124E158F44F20818D
:106740002068208320E5462F692F0C94F732322FE2
:10675000A82FB0E096E1899FF0011124E158F44F91
:10676000908195FF02C097FD28C0311118C086E1C5
:106770008A9FF0018B9FF00D1124E158F44F85851D
:10678000811102C096FF138686E18A9FF0018B9FDC
:10679000F00D1124E158F44F9F7B9083089526E17A
:1067A0002A9FF0012B9FF00D1124E158F44F9F77A1
:1067B0009083242F432F0C94F73208955F926F92A9
:1067C0007F928F929F92AF92BF92CF92DF92EF9281
:1067D000FF920F931F93CF93DF93CFE7DBE082E528
:1067E000E82E8BE0F82ED7019E0140E050E0CA0170
:1067F0008158944F6C01FC018585882391F0648554
:10680000992787FD9095860F911D8F3F910519F06F
:1068100014F08FEF90E097FF02C080E090E0F60167
:106820008487F901108113FF29C062817381119659
:106830008D919C911297860F971F12969C938E9321
:106840001197F6010481E02FF0E0EE0FFF1FE85FE3
:10685000F249C590D4901616170624F48C159D05A0
:1068600030F40CC0672B51F0C816D90638F01296D8
:10687000DC92CE921197177FF90110834A5E5F4F29
:106880002A5E3F4F16964835510509F0B0CF8091EA
:106890004009882309F4CBC016E18091D70B909171
:1068A000D80B2091DD0B3091DE0B8217930709F096
:1068B000B9C02091E00B3091E10BB9016F5F7F4FC0
:1068C0007093E10B6093E00BF90144914F3F79F530
:1068D000A9014E5F5F4F5093E10B4093E00BFB012A
:1068E00064916F3219F4109240099CC0663009F02F
:1068F0008CC0FA014491C90104969093E10B8093F6
:10690000E00BF9013396E491E33529F49093E30B1E
:106910008093E20B7AC0E53409F077C08091E20BF6
:106920009091E30B9093E10B8093E00B6EC047FDD9
:106930004093DB0B9091DB0B892F8F7047FF08C0D2
:106940002E5F3F4F3093E10B2093E00BFB0144910E
:10695000907F903BE1F0903C09F451C0903909F0F0
:1069600054C0E091E00BF091E10B9F012F5F3F4F8E
:106970003093E10B2093E00B2491220F189FF0013C
:106980001124E158F44F66850E94A7333EC0E09180
:10699000E00BF091E10B9F012F5F3F4F3093E10B34
:1069A0002093E00BE491473049F4189FD001112463
:1069B000A158B44FEE0F1A96EC9327C04B3049F410
:1069C000189FD0011124A158B44FEE0F1996EC93E3
:1069D0001CC04C3549F4189FD0011124A158B44F64
:1069E000EE0F1796EC9311C0443679F4189FD0013E
:1069F0001124A158B44FEE0F1896EC9306C0189FBF
:106A0000F0011124E158F44F468780EE9BE00E948C
:106A1000D1329093DE0B8093DD0B1092D80B109245
:106A2000D70B3BCF01969093D80B8093D70B95E86B
:106A3000A92E9BE0B92E01E91BE020E9C22E2BE034
:106A4000D22E32E9832E3BE0932E512C66246A9499
:106A5000712C888186FD43C08C899D89892B09F41E
:106A60003AC0D8019C91F6018081981708F433C090
:106A7000D8019C91F601808198132DC0EC89FD8985
:106A8000AF014F5F5F4F5D8B4C8B84918F3F31F433
:106A900088818F7788831D8A1C8A1DC03296FD8B62
:106AA000EC8BFA014491E82FF0E0EE0FFF1FE0536A
:106AB000FF4F25913491652DCE01F9010995EC899F
:106AC000FD89CF0101969D8B8C8BE491D601EC93CF
:106AD000F8011082CDCFD8018C918F5F8C93988173
:106AE00095FF6CC0F40180818F3F11F08F5F808330
:106AF00097FD04C0F8013897908101C09FEFF8011D
:106B000037978081882309F44EC0319650815523F0
:106B100009F449C0992309F446C04091DC0B442391
:106B200009F441C0899FC00111249395892F9927A9
:106B3000589F9001599F300D1124C9019395892FB9
:106B4000992733975081589F9001599F300D1124F8
:106B50003395232F3327429FC001439F900D11246B
:106B60009395892F9927329720812223F1F0D5011F
:106B7000EC91F0E0E050F149E491E0582E9FF001F3
:106B80001124F395EF2FFF27A3014E1B5F0B489FA6
:106B90009001499F300D589F300D1124C9019395E4
:106BA000892F992702C080E090E0F5013081F8013B
:106BB0003A972081230FD5012C9302C080E090E00A
:106BC000F701808353946696F6E0EF0EF11C86E1A0
:106BD000A80EB11C0A5E1F4F96E1C90ED11CA6E19A
:106BE0008A0E911CB4E05B1234CFDF91CF911F91DC
:106BF0000F91FF90EF90DF90CF90BF90AF909F905C
:106C00008F907F906F905F9008958093DC0B089534
:106C100099277727833008F00895E8E0FDE6660FAE
:106C2000771FE60FF71FA591B491E2E5FBE026E0A0
:106C3000289FE00DF11DA183B283112408959927A7
:106C40007727E2E5FBE026E0289FE00DF11D6E3F8F
:106C500031F46091650B6E7F6093650B0BC06F3FE5
:106C600031F46091650B6E6F6093650B03C07FE636
:106C7000760F7583112408950000000000000000C5
:106C80000000000000000000000000000000000004
:106C900000000000000000000000000000000000F4
:106CA00000000000000000000000000000000000E4
:106CB00000000000000000000000000000000000D4
:106CC00000000000000000000000000000000000C4
:106CD00000000000000000000000000000000000B4
:106CE00000000000000000000000000000000000A4
:106CF0000000000000000000000000000000000094
:106D000080E08093510B0895220024002600280083
:106D10002B002D0030003300360039003D004000CC
:106D2000440048004C00510056005B0060006600C3
:106D30006C00730079008100880090009900A20027
:106D4000AC00B600C100CC00D800E500F3000101A2
:106D5000100121013201440157016C0181019801A8
:106D6000B001CA01E5010202210241026402880267
:106D7000AE02D7020303300361039403CB0305047F
:106D800042048304C70410055D05AF0505066106CE
:106D9000C206290796070908830805098E09200AF3
:106DA000BA0A5D0B0A0CC10C840D510E2B0F121088
:106DB00007110A121D1340147415BA1614188319FA
:106DC000071BA31C571E24200E22142439267F28BB
:106DD000E82A752D293006330F364539AD3C494038
:106DE0001B442848734CFE50CF55EA5A51600C663C
:106DF0001D6C8B725A79928037885090E598FDA16E
:106E00009FABD3B5A3C0000000000000000000004D
:106E10000000000000000000000000000000000072
:106E20000000000000000000000000000000000062
:106E30000000000000000000000000000000000052
:106E40000000000000000000000000000000000042
:106E50000000000000000000000000000000000032
:106E60000000000000000000000000000000000022
:106E70000000000000000000000000000000000012
:106E80000000000000000000000000000000000002
:106E900000000000000000000000000000000000F2
:106EA00000000000000000000000000000000000E2
:106EB00000000000000000000000000000000000D2
:106EC00000000000000000000000000000000000C2
:106ED00000000000000000000000000000000000B2
:106EE00000000000000000000000000000000000A2
:106EF0000000000000000000000000000000000092
:106F0000000306090C101316191C1F2225282B2E0E
:106F1000313336393C3F414447494C4E5153555823
:106F20005A5C5E60626466686A6B6D6F70717374E0
:106F3000757678797A7A7B7C7D7D7E7E7E7F7F7F99
:106F40007F7F7F7F7E7E7E7D7D7C7B7A7A7978767F
:106F500075747371706F6D6B6A68666462605E5C95
:106F60005A585553514E4C494744413F3C393633AA
:106F7000312E2B2825221F1C191613100C0906036D
:106F800000FDFAF7F4F0EDEAE7E4E1DEDBD8D5D274
:106F9000CFCDCAC7C4C1BFBCB9B7B4B2AFADABA83F
:106FA000A6A4A2A09E9C9A9896959391908F8D8C62
:106FB0008B8A888786868584838382828281818189
:106FC0008181818182828283838485868687888A83
:106FD0008B8C8D8F9091939596989A9C9EA0A2A44D
:106FE000A6A8ABADAFB2B4B7B9BCBFC1C4C7CACD18
:106FF000CFD2D5D8DBDEE1E4E7EAEDF0F4F7FAFD35
:10700000808182838485868788898A8B8C8D8E8F08
:10701000909192939495969798999A9B9C9D9E9FF8
:10702000A0A1A2A3A4A5A6A7A8A9AAABACADAEAFE8
:10703000B0B1B2B3B4B5B6B7B8B9BABBBCBDBEBFD8
:10704000C0C1C2C3C4C5C6C7C8C9CACBCCCDCECFC8
:10705000D0D1D2D3D4D5D6D7D8D9DADBDCDDDEDFB8
:10706000E0E1E2E3E4E5E6E7E8E9EAEBECEDEEEFA8
:10707000F0F1F2F3F4F5F6F7F8F9FAFBFCFDFEFF98
:10708000000102030405060708090A0B0C0D0E0F88
:10709000101112131415161718191A1B1C1D1E1F78
:1070A000202122232425262728292A2B2C2D2E2F68
:1070B000303132333435363738393A3B3C3D3E3F58
:1070C000404142434445464748494A4B4C4D4E4F48
:1070D000505152535455565758595A5B5C5D5E5F38
:1070E000606162636465666768696A6B6C6D6E6F28
:1070F000707172737475767778797A7B7C7D7E7F18
:1071000000020406080A0C0E10121416181A1C1E8F
:1071100020222426282A2C2E30323436383A3C3E7F
:1071200040424446484A4C4E50525456585A5C5E6F
:1071300060626466686A6C6E70727476787A7C7E5F
:107140007F7D7B79777573716F6D6B69676563613F
:107150005F5D5B59575553514F4D4B49474543412F
:107160003F3D3B39373533312F2D2B29272523211F
:107170001F1D1B19171513110F0D0B09070503010F
:10718000FFFDFBF9F7F5F3F1EFEDEBE9E7E5E3E1FF
:10719000DFDDDBD9D7D5D3D1CFCDCBC9C7C5C3C1EF
:1071A000BFBDBBB9B7B5B3B1AFADABA9A7A5A3A1DF
:1071B0009F9D9B99979593918F8D8B8987858381CF
:1071C00080828486888A8C8E90929496989A9C9ECF
:1071D000A0A2A4A6A8AAACAEB0B2B4B6B8BABCBEBF
:1071E000C0C2C4C6C8CACCCED0D2D4D6D8DADCDEAF
:1071F000E0E2E4E6E8EAECEEF0F2F4F6F8FAFCFE9F
:107200007F7F7F7F7F7F7F7F7F7F7F7F7F7F7F7F8E
:107210007F7F7F7F7F7F7F7F7F7F7F7F7F7F7F7F7E
:107220007F7F7F7F7F7F7F7F7F7F7F7F7F7F7F7F6E
:107230007F7F7F7F7F7F7F7F7F7F7F7F7F7F7F7F5E
:107500000309131E28313A40464C5054585B5E61C3
:10751000636567696B6C6E6F707172737475767783
:10752000777879797A7A7B7B7C7C7C7D7D7D7E7EA9
:107530007E7E7F7F7F7F7F7F7F7F7F7F7F7F7F7F5D
:107540007F7F7F7F7F7F7F7F7F7F7F7F7F7E7E7E4E
:107550007E7D7D7D7C7C7C7B7B7A7A797978777780
:10756000767574737271706F6E6C6B696765636149
:107570005E5B5854504C46403A31281E13090300B4
:10758000C6CCD5DBDFE3E5E7E9EAEBECEDEEEFEFC8
:10759000F0F0F0F1F1F1F1F2F2F2F2F2F2F2F2F3D4
:1075A000F3F3F3F3F3F3F3F3F3F3F3F3F3F3F3F3AB
:1075B000F3F3F3F3F3F3F3F3F3F3F3F3F3F3F3F39B
:1075C000F3F3F3F3F3F3F3F3F3F3F3F3F3F3F3F38B
:1075D000F3F3F3F3F3F3F3F3F3F3F3F3F3F3F3F37B
:1075E000F2F2F2F2F2F2F2F2F1F1F1F1F0F0F0EF88
:1075F000EFEEEDECEBEAE9E7E5E3DFDBD5CCC60047
:1076000000283D42302D2C2B2C2D2E2F303233359F
:1076100037393B3D3F414345484A4C4E50535557FF
:10762000595B5D5F61636567696B6C6E70717374E4
:10763000757778797A7B7C7D7D7E7E7F7F7F7F7F8B
:107640007F7F7F7F7F7F7E7E7D7D7C7B7A79787771
:1076500075747371706E6C6B69676563615F5D5B98
:1076600059575553504E4C4A484543413F3D3B398D
:1076700037353332302F2E2D2C2B2C2D30423D28F8
:1076800000E9E5FED4D7D7D7D6D4D2D0CECCCAC85D
:10769000C6C3C1BFBDBAB8B6B4B1AFADABA9A7A59B
:1076A000A3A19F9E9C9A999795949391908F8D8C6E
:1076B0008B8A89888887868585848484838383836D
:1076C0008383838383848484858586878888898A65
:1076D0008B8C8D8F909193949597999A9C9E9FA156
:1076E000A3A5A7A9ABADAFB1B4B6B8BABDBFC1C36E
:1076F000C6C8CACCCED0D2D4D6D7D7D7D4FEE5E927
:10770000F9F8F9F5EBE1DDDEE0E2E4E5E6E5E4E2F7
:10771000DED9D2CAC1B7ACA299918A868381808012
:107720008182838586888A8C8D8F90929395969797
:1077300098999A9B9B9C9D9D9D9E9E9E9F9F9F9F7F
:107740009F9F9F9E9E9E9D9D9D9C9B9B9A99989777
:1077500096959392908F8D8C8A888685838281807E
:10776000808183868A9199A2ACB7C1CAD2D9DEE260
:10777000E4E5E6E5E4E2E0DEDDE1EBF5F9F8F90069
:107780000708070B151F2322201E1C1B1A1B1C1E7B
:1077900022272E363F49545E676F767A7E7F7F7F41
:1077A0007F7E7D7B7A7876747371706E6D6B6A699B
