:100000000C94123D0C947F3D0C947F3D0C947F3DED
:100010000C947F3D0C947F3D0C947F3D0C947F3D70
:100020000C947E410C947F3D0C947F3D0C947F3D5D
:100030000C947F3D0C94553F0C94953F0C947F3D60
:100040000C947F3D0C947F3D0C947F3D0C947F3D40
:100050000C947F3D0C947F3D0C947F3D0C947F3D30
:100060000C947F3D0C947F3D0C947F3D0C947F3D20
:100070008100450027FF24FF2A902B1C210C22FB26
:10008000850084008903888D81096F0244424700FE
:100090004501B083B300B10125118A4F8B035A5536
:1000A00001200101003808000000000000000000ED
:1000B0000000000000000000000000000000E0421E
:1000C000E3423E4342434A43EB42F042F54252434D
:1000D000F842FB42FE423B4300408891D2E4ADB57A
:1000E000B6BEBFFF0001140D000102140E00020392
:1000F000140F000304141000040514110005061465
:100100001200555A454C4A42414141424242434302
:100110004344444445454546464647474743505572
:10012000202020424F4F542043414D50202020009A
:100130002054484520425249434B594152442000E3
:1001400020202056454C4F43495459202020200060
:1001500020202020204D415A452020202020200012
:10016000202020524943484F434845542020200036
:100170002054484520484F4E455920504F542000A8
:100180002020464F43414C20504F494E54202000E0
:1001900049542753204E4F542046414952212000B4
:1001A00020204D55434820424554544552202000BC
:1001B000202054484520484152424F5552202000AB
:1001C000504155534544004241494C202D20580090
:1001D000544F54414C3A0053434F52453A0020206B
:1001E00020202020202020202020202000535543A4
:1001F00048204641494C2020202020004C4F4C20D4
:10020000202020202020202020200042524F4B453B
:100210004E20425554544F4E3F00545259204154A1
:10022000204C45415354202000544F4F204541530A
:1002300059202020202020005941574E20202020E6
:10024000202020202020004E4F4F42202020202020
:100250002020202020005448415427532049543F57
:1002600020202020004E4545442048454C503F204A
:1002700020202000504646542020202020202020EE
:1002800020200046494E414C2053434F52450042E6
:1002900059004F574E530045444954202D20555086
:1002A0002F444F574E005245534554204445464134
:1002B000554C5453202D20534C20283553290043AE
:1002C000414E43454C202D205800434F4E46495245
:1002D0004D202D20410053454C454354202D2041B5
:1002E000005032005031003B005F5F5F5F5F5F5F37
:1002F0005F5F5F5F00454449542048414E444C4590
:100300000054414E4B2052414E4B00504C415945F8
:100310005220565320504C4159455200504C41599F
:100320004552205653204350550032303135204C31
:10033000415752454E43452042524F4F4B530002C6
:10034000311200004F075007024C0B0000E306E497
:10035000060205090000450246020254070000AFEC
:1003600001B0010252070000000001000250070026
:10037000000000010002300500001E021F0202BE44
:1003800003000070017101020509000045024602E8
:1003900002BA03000000000100024C0B0000E3065B
:1003A000E40602B60300000000010002B4030000EE
:1003B000000000000000000000000000000000FC41
:1003C000FEFEF3EDF0031724180F0901F7F2F4F91C
:1003D00000FBF4F0F5FC0201FBF8FB02090A070040
:1003E000FFFF01000002030300FF000302FFFEFF06
:1003F000FFFEFCFBFC0103030100FFFEFEFF00010A
:10040000000000000102020200FEFDFCFCFBFAFD00
:100410000000FEFDFE000305050400FEFCFDFE02DB
:10042000080903FAF7F8FDFF000101FDFCFE0002D8
:100430000301FDFBFCFF0105040201010000FFFFB9
:10044000010100FEFEFFFFFF0101FFFEFDFCFCFEBF
:100450000001020200FFFFFEFEFF00000001FFFDA1
:10046000FCFE00010201FFFEFEFD00020504020089
:10047000FEFEFCFEFF020302FEFBFAFBFDFE000196
:1004800001FFFFFFFFFDFD00010A0A0700F8F3EF7F
:10049000F6FE0B10110B00F6EEEFF4FF080D0E0A3E
:1004A00003F9F4F0F4FC040C0D0D06FEF4EFF1F783
:1004B000020A0E0D06FDF4F0F2FA030B0D0A04FD1C
:1004C000F8F5F6FB03090A0802FCF7F5F6FA000551
:1004D00007070502FEFBF8F9FD03080A0700F9F417
:1004E000F5F901090C0A03FCF7F5F8FB000509080A
:1004F0000400FCFAF8FAFD050A0B06FFF9F6F5F719
:10050000FD040A0A05FFF9F7F7FAFE0408080500DA
:10051000FCFAFAFCFF0205060400FBF8F8FBFF03F7
:10052000060704FFFBF8FAFD0103040301000000C5
:100530000000FF00FF00FE03FCEDEDEDED110F11DB
:100540001111111110100A11110D0108FA0BFBFC09
:10055000F601F900F2F5FA0201FFFFFBFEF903F7DD
:10056000FFFF07FBF6FBFA04FF01F707F801F2FDB6
:10057000F80AFDFAF7F405FF03F406FA0AF503FAA0
:100580000C0308FD01040206FD02FE07F9FEF70157
:100590000304FFF9F40302FAFA000205FD0202085F
:1005A0000806030101FD01F701FC03F9FEF3FFFD5D
:1005B00002FEFF00FF06FA04FC07FC02F402FF083B
:1005C0000504030405FA03F3FFF800F7FEFA03003D
:1005D000FEFFFE070105FC00FE0BFF01FD0204FF0C
:1005E000FEFCFEFB01F8FEFD060102F90203040019
:1005F000FDFEFFFEFCFEFC030402FF000004010000
:10060000FE00FF02FFFDFEFEFFFAFDFAFFFC00FE0A
:1006100002FF0301010303040302FD00FE00FDFFCE
:10062000FDFFFDFCFBFD00FF00FD000003010200DB
:100630000000FEFDFD00010300000001010000FFBD
:1006400001FFFFFC00FF00FEFDFDFEFFFD00FE03BD
:100650000002FF01020201FEFFFE01FE00FC00FE9F
:1006600000FEFFFFFF02FE00FD02FF02FF0101028C
:1006700000FE00FE02FE00FD00FD00FDFFFF000089
:10068000FEFFFD01FF01FE00FF00FFFE0000020073
:1006900001FE010001FFFEFFFEFEFDFEFD01FF0168
:1006A000FF010102000001FE00FDFFFE010000FF4E
:1006B000FF00FF00FE00FE00FEFEFE00000000FE48
:1006C00001FF01FF00FF01FFFFFF00010000FF002D
:1006D000FE00FEFFFEFFFFFFFFFF01FF00FF00FF28
:1006E00000FFFFFF00000000FF010001FF00FFFF0F
:1006F000FFFEFDFEFEFEFFFF000001010101010102
:100700000000FF00FFFFFEFFFFFF00FF000000FFF3
:10071000FFFEFEFEFEFEFEFFFF00000100010101E4
:100720000000000000FFFFFFFFFEFFFEFFFFFFFFD6
:10073000FFFFFFFFFFFF00000000FF0000000000C0
:100740000001010000FF0000FFFFFEFFFFFF0000AF
:1007500000000000FFFFFFFF00000000FFFEFF00A1
:10076000010100FFFEFEFF010100FFFEFEFF000190
:1007700001FFFEFEFF00020100FEFDFE000202007E
:10078000FEFDFD00020201FEFCFD00020301FEFC75
:10079000FD00030301FEFBFC00030401FDFBFC0064
:1007A000030401FDFBFC01040400FCFAFD01050447
:1007B00000FBFAFD020604FFFAF9FE040704FEF945
:1007C000F9FF050703FCF8FA00060701FAF8FC0335
:1007D0000705FEF8F8FE060803FBF7FA0208070013
:1007E000F8F7FD050905FCF6F801080801F8F6FC24
:1007F000060A05FBF5F802090800F7F6FD070A04EA
:10080000FAF5F9030A08FEF5F6FF090B03F8F3FA07
:10081000060C07FBF3F6020B0A00F5F3FD090D04C5
:10082000F7F2F9060D08FBF2F5020C0B00F4F3FEEB
:100830000A0C03F7F2FA070C06FAF3F8040C08FDA9
:10084000F4F6010A09FFF7F6FE070802F9F7FD05BD
:100850000803FBF8FC030603FDFAFD010302FEFC9E
:10086000FE010200FEFE000201FEFCFE020402FD8B
:10087000FAFC030603FCF8FB030805FDF7FA020780
:1008800006FEF8F9000605FFFAFAFF040501FCFB75
:10089000FE030401FDFCFE010201FFFEFE0001015A
:1008A00000FEFDFF010100FFFEFF00000000FFFF52
:1008B000FFFF000100FFFEFE000101FFFEFE00023F
:1008C00001FFFDFF010200FEFDFF010200FEFDFF32
:1008D000010200FEFE000101FFFEFF000100FEFE1E
:1008E000FF0101FFFEFEFF010100FEFEFF0001010E
:1008F000FFFDFEFF010200FEFDFF010100FFFEFF04
:100900000000000000FFFFFEFEFEFEFEFFFFFFFFF7
:10091000000000000000FFFFFF00000000000000DA
:10092000010101010101000000FFFFFFFFFF0000C6
:10093000FFFFFFFFFFFFFFFFFFFFFF0000010203BC
:10094000030303030100FEFDFCFAFAF9F9F9FAFAD0
:10095000FBFDFEFF010203030303020100FFFEFE95
:10096000FEFEFEFEFFFF0000010203040404040378
:100970000202010000FFFFFFFFFFFEFEFEFEFEFE83
:10098000FEFFFF0001020303040303020100FEFD5A
:10099000FBF9F8F7F6F6F7F8FAFCFE000204050694
:1009A00007070706050301FFFCFAF9F8F8F9FBFC55
:1009B000FE000203040505060505040201FFFEFE14
:1009C000FDFDFDFEFFFF0000000000FFFFFFFEFE3B
:1009D000FEFDFDFDFEFF00020406070707060503F6
:1009E00000FDFBF8F7F5F4F4F4F5F7F9FBFE01046C
:1009F00007090A0B0A08060401FFFCFAF9F8F7F7E1
:100A0000F8F9FBFDFF0204060707070604020100D0
:100A1000FFFEFDFDFDFDFEFEFF00000101010100E6
:100A200000FFFEFEFEFEFEFF0001020304050607B6
:100A30000706050300FDFAF8F5F4F3F2F3F4F6F80F
:100A4000FAFD000306080A0B0B0A09070402FFFC63
:100A5000FAF9F8F7F7F8F9FBFD00020305060606B8
:100A6000050403020100FFFEFDFDFDFDFEFF000089
:100A7000010101010000FFFFFEFEFFFFFF0000007B
:100A8000000001010202030303020100FEFCFBFA65
:100A9000F9F9F9F9FAFBFCFDFEFF01020304040574
:100AA000040403020100FEFDFDFCFCFCFDFDFEFF55
:100AB0000001010202030303020202010000FFFE23
:100AC000FEFDFEFEFEFF000001010101010101012A
:100AD0000100000000FFFFFEFEFEFFFFFFFFFFFF23
:100AE000FEFEFEFEFEFF00010102010100FFFEFE10
:100AF000FDFDFDFDFDFDFDFDFDFEFEFF0001020310
:100B0000030303020100FFFFFFFFFFFFFEFEFEFEE7
:100B1000FEFEFFFF000102020202010100000000D0
:100B2000000000000000FFFFFFFFFFFF00000000CB
:100B3000FFFFFFFFFEFFFFFFFFFFFFFFFFFFFFFFC6
:100B4000FFFFFFFFFFFFFFFFFFFF000000FF00FFB1
:100B500000000000000000FF00FFFFFFFFFFFFFF9D
:100B6000FFFF00000000000000000000FFFF000089
:100B700000000000FFFF000000FFFFFFFFFFFFFF7E
:100B8000FF0000000000000000000000FF00FF0068
:100B90000504030602FCFEFBFAFBF7F6F8F8FBFF80
:100BA000000507060608090803FFFEFDFEFCF8FB2A
:100BB000FBFC0100FDFDFF01030402FF0000FF013B
:100BC00002FEFE0303FFFFFFFEFE0000FEFFFEFC31
:100BD0000104FFFCFD0100FDFFFDFF03FFFE01FF1F
:100BE000FE0203FFFD00FFFF01FFFEFCFCFCFB011A
:100BF0000506090B080401FFFDFAF8F8F7F8F8FA02
:100C0000FE01FFFF03040405060604030100FFFEC6
:100C1000FDFDFFFEFCFDFDFCFCFDFF0208060403DC
:100C2000FEFDFBFAFBF8F8FAF8FC010305060808DC
:100C3000070503040401FAF9FCFBFAFCFAFDFEFCCB
:100C400000010105060105030002000002FDFDFE92
:100C5000F7FAFFFEFFFFFD0201FFFF0103000004A2
:100C6000010002FEFDFDFCFAFC0503FE0100FD0093
:100C700001FFFFFF010101FFFBFAFDFCFBFCFF0090
:100C8000060C0A0B0C070401FDF9F3F2F6F6F6F96F
:100C9000FBFCFFFF0005070707080704020301FF2D
:100CA000FFFCFAFCFBFAFCFEFEFDFEFDFDFF010170
:100CB00003050301020301000201FFFFFFFFFF0024
:100CC000010A1209FEF5F0EDEEF1F1F0F2F7FE087F
:100CD00011120F0F0E0C0B080502FCFAF2EFF2F4E2
:100CE0000100F5FB04FF000506020102FEFD020003
:100CF000040F0A02FFFF0301F9F5FAFCF7F6FE0202
:100D000001FF0301FEFF0000FEFCFD0102FF0007E2
:100D10000603FFFDFEFEFAFAFEFDFAFC0000FEFEF1
:100D2000FF0001FEF8FE0F110D100E0905FFFBF884
:100D3000F3F0F2F3F4F5F9FDFCFE020303050609F6
:100D40000B0804030403FEFBFEFFFBFAFCFCFBFBA9
:100D5000FCFAF8FAFD010505040404020205060385
:100D6000030301FEFEFF0100FEFBFBFBFBF9FBFEA4
:100D7000FDFDFB0213180D00F8F5F2F2F9F9EFEEA4
:100D8000F901070A0B0C0903FF01070801FB00FF2B
:100D9000F4F90101F9F3020BFFFD050C10FFFB0252
:100DA000FBF7FBFF0203FDFB010202FEFD04FDFA5F
:100DB0000000FFFF0102FEFAF8FEFF00FCFC03004A
:100DC000FDFE0505FEFE0505FFFAFD050301010018
:100DD00001F8F7FCFE0000FFFFFF0101000303FB29
:100DE000F8F4F00417170F090D0B0602FAF3EEEBF7
:100DF000EEF2F2F5F8FAFFFE0004060B0C0A090801
:100E000007050302FEFBFCFEFCFBFDFCFBFAF9FB05
:100E1000FDFEFE0107060102050603030300FDFCBB
:100E2000FBFFFFFF01FEFDFEFEFF00FEFEFCFAFCE5
:100E3000FDFD0719180AFFF9F5F2F1F1F1EFF1F8EC
:100E4000FE050B08060C0D05030C0800FFFCF8F668
:100E5000FA020000020401FE020702FBFAFE00F99A
:100E6000FB0200FE03FEF70203020704FFFEFE0280
:100E7000FC0008FDF8F9FBF6F9FFFEFC0005F8FFA1
:100E80000A00070402FEFF03030106FEFB0602FC44
:100E9000FFFBF6F6FCFFFC0001FF020701FC040566
:100EA000FC0005FDFEFFFEFDF9F8EEFC1414110F29
:100EB0000A070400F8F3F5F2EFF0F3F4F7FCFE0193
:100EC0000408090A090B0A07050401FEFBFAFFFFE3
:100ED000FBFCFDFDFAFBFCFEFDFEFE000503010030
:100EE00000000001FFFF0300FE010202FF0001FD00
:100EF000FEFFFEFAFBFF00FEFBFE0100FF0B2017CA
:100F00000BFFEFEBF1F0F3F2F0EDF0FB00060F0F4B
:100F10000F0F0D100C0B0800F6F2ECF1FEFDFCFCBF
:100F2000FC0602FE06020704F90102FCFE00080AA4
:100F3000FAFCFAFB07FBFBFEFD01FCFD02030504C6
:100F400000FFFDF80300F5F9FCF7FA01070E0303B3
:100F5000060003FFFDFEFCFD00FBFEFCF6FD0205A6
:100F600004FF020200030303FCFAFE01FC00060377
:100F7000FFFBFCFD0000FE0002FDFEFEFBFEF3F6A3
:100F80000C10100E080A0601FEF8F5F3F2F2F1F269
:100F9000F7FB000401020508070B110F05FF030012
:100FA000FAFAFF03FFFBFAF7F6F8F7FAFF01FDFA8A
:100FB0000106050205070500010506030100FEFD07
:100FC000FE00FEFAF9F8FAFCFF0202FEFCFD000248
:100FD000020404020004030717170B00F5ECE9EA0A
:100FE000EAECF0F3F6F7FB061011131413110B08DB
:100FF0000603FCF9F6EFF1FAFDFBFCFEFAFA020437
:10100000030808030101010405FDFAFCF9FBFF01D7
:1010100002FD0102FB0007010404F9FBF9F5FBFAEC
:1010200004FDFE02FE05060C0D060600FEFBF8F8A8
:10103000F8F9FAF7F4F6F8FE0007090809070407BB
:10104000040404FF0100FCFBFBFDFEFCF9FBF8F9C6
:10105000FCFE020200FEFF0202010303FCF6FC0B91
:101060000F0D0D090A0902FEF6EEEEEFF2F6F9FC9D
:10107000F9FBFCFF06080C100E0B0802010203002E
:10108000FEFBF6F7F7F8FCFCFCF7F8F8FBFF0309AA
:101090000B06040606020000FEFEFEFF0100FFFE36
:1010A000FDFEFDFDFEFEFF00FFFDFFFEFBFD00025D
:1010B00002030605040301FF0101FFFF01FCF9F92A
:1010C000F7F7FAFF0D180E02FCF1EFF5F4F5F9FC55
:1010D000FDFF0506060C0B080909080702FEFBF4D4
:1010E000F0F1F5FCFEFC0201FE010505030505011A
:1010F000010201000505FDFAF9F4F70000FFFE000A
:10110000FEFC04060105050001FFFDFFFCF9FBFBE9
:10111000FDFDFD04030405FEFEFF0101FBFF0400CD
:10112000FDFEFAFCFDFF03020603FF0401FEFFFFC4
:10113000FDFDFFFFFDFE01FCFE00000301000303B7
:1011400001FEFD00FEFBFDFDFFFBF7FF0506090AA2
:101150000D0E0A03FEF5F0F1F6F9F9FBFBFBFCFDC1
:10116000FF0405060807060405050303FFFDFAFD55
:10117000FBF9FDFEFEFBF9FAFAFAFE040705010190
:1011800002FF01020100000102020100000201FE53
:10119000FF0001FCFAFCFAFAFCFCFE01030607065C
:1011A000050400FDFE00000102FFFCFBFBF9FAFD57
:1011B000FDFE00020200010000030302020100FF25
:1011C000FF01FFFEFF050C01FAF9F5F3F6F8FAFF4F
:1011D000FFFF02020203040406070808060503FDD8
:1011E000FCFCF6F6FAFAF8FBFDFCFE010203030331
:1011F00005060508060204FEF9FBFAFCFDFDFEFFEC
:10120000FBFAFDFCFCFF01010302010502FE0403E1
:10121000FF0403000201FEFCFDFCFAFDFDFCFEFBE9
:10122000FCFBFAFEFF0005050506050604040201A5
:1012300000FFFFFFFFFFFEFFFEFFFEFEFEFEFEFEC5
:10124000FEFEFEFFFF000001020302030203020391
:1012500001020000FFFFFEFEFDFDFDFCFDFBFCFCAE
:10126000FBFBF9FBFAFBFAFDFDFF00020306060893
:10127000080908070805040401FFFFFCFBFAF8F958
:10128000F7F7F8F7F5F7F6F7F8F8FAFBFDFF0003C4
:101290000506090A0C0D0E0D0E0D0C09080401FEC1
:1012A000FAF7F4F1F0F1EFF0F2F1F3F6F6F8FAFCF8
:1012B000FEFF02030508080C14101216140F0D0788
:1012C00004FCF5F6F1EBEFF2EEF4F8F8FAFDFF00AE
:1012D000FEFD00FBF9F8F8F6F7F9FEFE061113150E
:1012E0001C1B19150E0A02F5F3F2E6E8EBEBEEF320
:1012F000F7FB01020708050503FCF9F7F4F3F1F623
:10130000F9FC090E111B1C1A1B120D09FBF3F5E960
:10131000E5EAE9EBF2F5F90303080D09080500FA1F
:10132000F5F2EFEFF0F3F8050E0F1B211B1F190E5E
:101330000CFFF4F3EAE0E6E5E6EDF4F80007091146
:10134000110C0C06FEF8F3ECEDEAECF1F7070C12C9
:101350001E201D1F16100BFDF5F4E7E4E7E6E7F08D
:10136000F5FA03070D110F0B0B03FAF7EFEBEBE8A0
:10137000EBF1F8090D141F221E1F18100CFAF7F2DA
:10138000E5E4E8E5E8F2F3FC03070C100C0C0800B8
:10139000F9F6EDE9EAE6EBF0F5080F131E28202236
:1013A0001E150F01F9F6E8E3E7E4E4EEF1F6FD04BB
:1013B0000B0E0D0D0B03FEF9F3ECEAE8EAECF0FC82
:1013C0000C0F17242720241F150D00FBF1E6E4E580
:1013D000E0E7EBEEF5FE04080B0C0C0604FFFAF355
:1013E000F0ECEAEAEDF3F6070F141F272327211A82
:1013F0001306FCF6E7E5E3DEE2E7E8F1F7FF0408B1
:101400000C0E080804FEF7F4F0EDE9ECEFF4F70633
:1014100011161D282824241C1506FDF8EAE2E4E133
:10142000DFE6EAEFF5FB0306090B0A0605FEF9F510
:10143000F2EDEDEEF0F4F8FF050F161C2025231E4B
:1014400019130A00FBF3EDEAE9E8EAECF0F2F8FB25
:10145000FEFF0201FEFEFCF9F6F6F6F4F8F9FBFFDA
:101460000206080B0D0F1314121415100D0C0700B3
:1014700001FBF7F4F3EFEFEEEEEAEEEFEFF2F5F744
:10148000F8FD000101060404050605030404010239
:101490000403040807090B0B0C0A0C09060602FEDC
:1014A000FAF9F5F2EFF1EEEEF0F1F2F7F9FBFF01E8
:1014B000030405040504050203020202010201FF00
:1014C0000100000202030204040303020301FEFE02
:1014D000FCFBF9F9F7F8F8F7F9FAFBFCFE0000035A
:1014E00002030503040202FFFFFEFCFCFBFCFBFD04
:1014F000FDFF0001020303040404030300FFFEFCDC
:10150000FBF9FAF9FAFAFDFD0001030405040605EA
:1015100005030300FFFCFCFCF9FAFAFBFBFCFDFDF4
:10152000FFFF00000100000000FFFEFDFEFDFEFDCC
:10153000FEFE0000010102010301010000FEFE00A9
:10154000FEFF0000FF010001000100FFFDFDFBFBAD
:10155000FAFBFBFCFCFE00FF020203030202000098
:10156000FEFEFDFCFCFFFFFEFEFFFE000000FF0094
:10157000FF00FF00000000000000FFFFFFFFFEFF74
:10158000FEFFFEFFFEFFFEFF0000000000FF00FF69
:1015900000FF000000FF00FF00FF00FE00FEFFFE56
:1015A000FFFEFFFEFFFEFFFEFFFFFEFFFFFEFFFE52
:1015B000FFFEFFFFFEFF00FF00FF00FF00FF000037
:1015C00000FF00FF0000FF00FF00FFFFFFFFFFFE26
:1015D000FFFEFFFEFFFEFEFDFEFEFDFEFEFDFEFD2C
:1015E000FEFEFDFFFE0000000001010202030202F8
:1015F0000302030303020302020101FFFFFDFDFCDE
:10160000FAFAF8F9F8F9F9F8FAFBFAFCFDFDFFFE31
:10161000FF000001FF0100010002020405070809A4
:10162000090C0B0A0909060100FEFAF6F4F3F0F1C1
:10163000F1F2F2F6F8FAFCFEFFFF010100FFFFFEF7
:10164000FBFDFCFBFAFDFE02020A1010151B17152C
:1016500014110A02FEF8F0ECEBE8E8E9EEEFF2FA1A
:10166000FD00050909080906FFFDFBF7F3F3F3F197
:10167000F1F5F5FAFE0409131A1C2126211D1B1190
:101680000800F6EDE5E1DEDDDEE4E9EFF4FF030955
:10169000101112120E0A02FEF8F2EDEDEAEBECF078
:1016A000F2F8FD020B191E202B2E2523201408FD15
:1016B000F5E6DDDAD5D5D7DEE4ECF402060E161A2F
:1016C000191A150F06FFF9EFEBE8E6E5E6E8EEF389
:1016D000F8010B1F1F263332292C231608FFF2E0D6
:1016E000D8D3CDCCD3D7DFE6F50108131E1E2220B8
:1016F0001C130A02F8EDE9E3E0DFE0E2E9EEF6FFB1
:10170000152020323C323132241508FEEBDBD6CFD7
:10171000C8CACFD4DCE6F8000C1A212227221D14F7
:101720000B02F5EFE8E1DEDDDDE2E7EFF50C1B1B78
:101730002B3C3432362C1B1006F5E2DAD3C7C8CB6B
:10174000CCD4DDEEF604151C202926211A1309FD40
:10175000F6EFE5E1E0DCDEE4EAF20B13172A382EBF
:1017600035352A1D1408F8E7E1D5CBCCCBCBD0DC3E
:10177000E9EE0012131F2623211B180C02FEF5E9C7
:10178000E7E4DFE0E4E9F8070D182C2B2C332E24D6
:101790001C1405F7EDE3D5D2CFCCCDD3DEE3F003B7
:1017A0000A111D201D1E1B160C0501F4EFEBE7E2CC
:1017B000E6E6EF00040C2124222E2A221D170CFF3E
:1017C000F6EFE3DAD9D4D1D2DDE0E6F8020512185B
:1017D000171918170F0B0700F8F6F1ECEAEEEAF705
:1017E00006030D221B1D262117161006FBF6EFE33C
:1017F000E1DEDBD6DBE4E4EDFCFF06101313131689
:10180000130B0A07FFFCFAF6F0F0F3EEFA07030DEC
:101810001C1B18201C140F0E03FBF5EFE6E0E0DCA8
:10182000D9DEE5E5EFFBFF030F11101116100B0ACF
:1018300009FEFDFDF6F3F6F5F2F70205051119169E
:10184000171D170E100BFFFAF5EDE5E3E1DDDDE402
:10185000E6EAF5FB00090E101115130E0E0A04FF3F
:10186000FFF9F6F5F6F4F5FAFDFF030B0E0E161769
:101870001515150D0602F9F3EEE7E4E1E2E1E5E9FD
:10188000F0F4FC03090D12121211100B0604FEFAFB
:10189000F7F4F3F2F3F6F6FBFF04070C0F10121146
:1018A000100D090400FCF6F1EFEDECEEEFF3F7FAA2
:1018B000000406090B0C0A0B08070301FCFAF6F5F5
:1018C000F3F4F4F4F7F9FD0002060A0A0C0C0C0A12
:1018D000070601FCFBF6F4F4F2F4F5F8FAFE010554
:1018E000060A0B0C0B0A09050301FCF9F7F4F2F1E7
:1018F000F3F3F3F7FAFBFF010406070908080605EE
:1019000001FFFCFBF8F8F7F8F9FBFCFF02040607FF
:10191000080A090907050302FDFCFAF8F6F8F5F6CE
:10192000F9F8FBFDFE02030405060405040100FDB1
:10193000FCFBF9F9F8FAFAFCFD00020305060606BD
:101940000705050300FFFDFCF9FAF8F8F9F9FBFCBF
:10195000FCFFFF02020404040403030100FEFDFC7B
:10196000FAFBFAFAFBFCFCFEFF0001020404050589
:10197000030102FFFFFDFDFAFBFAFAFAFCFDD000BD
:10198000000002020202020202020202020202023B
:101990000202020202020202020202020202020227
:1019A0000200000000000000000000000000000035
:1019B0000000000000000000000000000002020023
:1019C000000006050000000000000000000000000C
:1019D0000000000042424242424200020200000671
:1019E00002020500000000000000000000000000EE
:1019F0000000424D4D4D4D4200020200060202021F
:101A000002050000000000000000000000000000CF
:101A1000424D4D4D4D4200020200040202020203FB
:101A20000000000000000000000000000000424D27
:101A30004D4D4D420002020000040202030000006E
:101A4000000000000000000000000000424D4D4D6D
:101A50004D420002020000000403000000000000EC
:101A600000000000000000000000424242424242EA
:101A70000002020000000000000000000000000062
:101A80000202000000000000000000000000000250
:101A90000200000000000000000000000000020240
:101AA0000000000000000000000000000002020032
:101AB000000000000000010101010100020200011C
:101AC000010101010000000000000002020000000E
:101AD00000000000010101010100020200010101FA
:101AE0000101000000000000000202000058000098
:101AF00000000101010101000202000101010101D8
:101B0000000000630000000202000000000000006E
:101B100001010101010002020001010101010000B7
:101B200000000000000202000000000000000101AF
:101B30000101010002020001010101010000000099
:101B40000000000202000000000000000000000091
:101B50000000020200000000000000000000000081
:101B60000002020000000000000000000000000071
:101B7000020200000000000000000000000000025F
:101B800002004242424242420000000000000000C7
:101B90000000000000000000060500000002020036
:101BA000424D4D4D4D42000000000000000000007D
:101BB0000000000000060202050000020200424D83
:101BC0004D4D4D42000000000000000000000000EC
:101BD000000006020202020500020200424D2C4DE6
:101BE0004D42000000000000000000000000000066
:101BF00004020202020300020200424D4D4D4D421A
:101C000000000000000000000000000000000004D0
:101C1000020203000002020042424242424200002D
:101C200000000000000000000000000000000403AD
:101C300000000002020000000000000000000000A0
:101C40000000000000000000000000000000000094
:101C50000002020202020202020202020202020266
:101C60000202020202020202020202020202020254
:101C70000202020202020202020202020202020244
:101C80000202020202020202020202020202020135
:101C90000101000000000000000000000000000042
:101CA000000000000000000000000002020101012D
:101CB0000000000000000000000000000000000024
:101CC000000000000000000000020201010101010B
:101CD00001010100000101010101010101000001F8
:101CE00001010101010101020201010101010101E2
:101CF00001000001010101010101010000010101D8
:101D000001010101010202010101010101010100C2
:101D100000010142424242010100000101010101B2
:101D200001010102020100000000010101000001A7
:101D300001424D4D4201010000010101000000007F
:101D40000102020100000000010101000001014246
:101D50002C4D4201010000010101000000000102C0
:101D600002010000000001010100000101424D4D8F
:101D70004201010000010101000000000102020116
:101D80000000000001010100000101424242420145
:101D90000100000101010000000001020201000039
:101DA000000000000100000101010101010101002A
:101DB00000010000000000000102020100580000C4
:101DC0000900010000010101010101010100000100
:101DD00000090000000001020201000000000000F4
:101DE00001000000000000000000000000010000F1
:101DF0000063000001020201000000000101010077
:101E000000010101010101010100000101010000C7
:101E100000000102020100000000010101000001B8
:101E200001010101010101000001010100000000A8
:101E30000102020100000000010101000001014255
:101E400042424201010000010101000000000102C4
:101E500002010000000001010100000101424D4D9E
:101E60004201010000010101000000000102020125
:101E70000101010101010100000101424D4D42013A
:101E80000100000101010101010101020201010142
:101E9000010101010100000101424D4D420101001B
:101EA0000001010101010101010202010101010121
:101EB0000101010000010142424242010100000112
:101EC0000101010101010102020101010101010100
:101ED00001000001010101010101010000010101F6
:101EE00001010101010202010101010101010100E1
:101EF00000010101010101010100000101010101D5
:101F000001010102020101010000000000000000C7
:101F100000000000000000000000000000000101BF
:101F200001020201010100000000000000000000A9
:101F3000000000000000000000000000010101029C
:101F40000202020202020202020202020202020271
:101F50000202020202020202020202020202020261
:101F60000202020202020202020202020202020251
:101F70000202020202020202020202020200000047
:101F80000000000000000000000000000000000051
:101F9000000000000000000000020200000000003D
:101FA0000000000000000000000000000000000031
:101FB000000000000000000202000000000000001D
:101FC0000000000000000000000000000000000011
:101FD00000000000000202000000000000000000FD
:101FE00000000000000000000000000000000000F1
:101FF00000000002020000000000000000000000DD
:1020000000000000000000000000000000000000D0
:1020100000020200000000000000000000000000BC
:1020200000000000000000000000000000000002AE
:102030000201010101010100000000000000000098
:102040000000000000000001000000000102020189
:10205000000000000100000000000000000000007F
:102060000000000000010000000001020201000069
:10207000000001000000000200000000000002005B
:1020800000000001000700000102020100580000EA
:10209000010000000002000000000000020000003B
:1020A0000001000000000102020100000000010028
:1020B000000000020000000000000200000000011B
:1020C0000000000001020201000000000100000009
:1020D00000020202020202020200000000010000EF
:1020E00000000102020100000000010000000002E7
:1020F00000000000000002000000000100000000DD
:1021000001020201000000000100000000020000C6
:1021100000000000020000000001000000000102B9
:1021200002010000000001000000000200000000A9
:102130000000020000000001006300000102020133
:102140000000070001000000000000000000000087
:102150000000000000010000000001020201000078
:10216000000001000000000000000000000000006E
:102170000000000100000000010202010000000058
:10218000010000000000000000000000000000004E
:102190000001010101010102020000000000000035
:1021A000000000000000000000000000000000002F
:1021B000000000000002020000000000000000001B
:1021C000000000000000000000000000000000000F
:1021D00000000002020000000000000000000000FB
:1021E00000000000000000000000000000000000EF
:1021F00000020200000000000000000000000000DB
:1022000000000000000000000000000000000002CC
:1022100002000000000000000000000000000000BC
:1022200000000000000000000000000000020202A8
:10223000020202020202020202020202020202027E
:10224000020202020202020202020202020202026E
:10225000020202020202020202020202020202025E
:102260000202020202020202020202000000424DC9
:102270004D4D420000000000000000000000004240
:102280004D4D4D420000000202000800424D4D4DF0
:1022900042000000000000000000000000424D4D20
:1022A0004D420008000202000000424D4D4D420028
:1022B0000101010000000001010100424D4D4D42AD
:1022C0000000000202020202024242420200010138
:1022D0000100020200010101000242424202020228
:1022E00002020200000000000000020001010100E3
:1022F00002020001010100020000000000000002D3
:1023000002000101010101000200000000000202C0
:1023100000000000000200010101010100020200B2
:10232000010101010100020000000202020202029A
:102330000000000200010101010100020200010190
:102340000101010002000000000000000000000088
:102350000002000101010101000202000000000072
:10236000000000000000000000000000000000006D
:102370000000000000000002020202020200000051
:10238000000000000000000000000000000000004D
:102390000002020202020000000002000000000031
:1023A00058000200000000020000000000000002CF
:1023B0000000000000000000020000000200000019
:1023C00002000000000263000002000000020000A2
:1023D00000000000000002000000020000000202F5
:1023E00002020202000000020000000200000000E1
:1023F00002020202020000000200000000000000D1
:102400000000000000020000000202020202024D71
:102410004D4D4200000002000000000000000000DE
:1024200000000002000000424D4D4D02024D4D4D96
:102430004200000002000000000000000000000058
:102440000002000000424D4D4D02024D2C4D420055
:10245000000002000000020202020202000000026C
:10246000000000424D4D4D02024D4D4D0200000056
:102470000000000000000202000000000000000058
:1024800000024D4D4D02024D4D4D02000001010173
:102490000000000002020000000001010100000233
:1024A0004D4D4D0202424242020000010101000076
:1024B000000002020000000001010100000242428F
:1024C00042020200000002000001010100000000C1
:1024D00000000000000001010100000200000002F5
:1024E00002000800020000000000000000000900D7
:1024F00000000000000000000002000800020200CE
:1025000000000200000000000000000000000000C9
:1025100000000000000000020000000202020202AF
:10252000020202020202020202020202020202028B
:10253000020202020202020202020202020202027B
:10254000020202020202020202020202020202026B
:102550000202020202020202020202030000000062
:10256000000000000000000000000000000000006B
:10257000000004020202020203000000000000004A
:10258000000000000000000000000000000000004B
:10259000000402020203000000000000000000002E
:1025A000000000000000000000000000000000002B
:1025B0000402020000000000000605000000000008
:1025C0000008000000000000000000000000000201
:1025D00002000000000006020205000000000000EA
:1025E00000000000000000000000000000020200E7
:1025F00000000006024D4D02050000000000000032
:1026000000000000000000000000000202000000C6
:102610000004024D4D020300000000000000000015
:1026200000000000000000000002020000000000A6
:10263000040202030000000000000000000000008F
:102640000000000000000002020000000000000482
:10265000030000000000060500000000000000006C
:102660000000000000020200000000000000000066
:10267000000000060202050000000000000000004B
:102680000000000202000000000000000000000046
:102690000602010102050000000000000000000029
:1026A00000020200005800000000000000000402C8
:1026B00001010203000000000000006300000002AE
:1026C0000200000000000000000000000004020200
:1026D00003000000000000000000000000020200F3
:1026E00000000000000000000000000004030000E3
:1026F00000000000000000000000000202000000D6
:1027000000000000000000000000000000000000C9
:1027100000060500000000000002020000000000AA
:1027200000000000000000000000000000000602A1
:10273000020500000000000202000000000000008E
:10274000000000000000000000000006024D4D02E5
:102750000500000000020200000000000000000070
:1027600000000000000000000004024D4D020300C4
:102770000000000202000000000000000000000055
:10278000000000000000000004020203000000003E
:102790000002020000000000000000000000000035
:1027A0000700000000000004030000000000000219
:1027B0000205000000000000000000000000000012
:1027C00000000000000000000000000006020202FD
:1027D00005000000000000000000000000000000F4
:1027E00000000000000000000006020202020205D4
:1027F00000000000000000000000000000000000D9
:1028000000000000000006020202020202020202B0
:102810000202020202020202020202020202020298
:102820000202020202020202020202020202020288
:102830000202020202020202020202020202020278
:10284000020202020202020000000000000000007A
:102850000004020202020202030000000000000065
:102860000000000202000000000000000000000064
:102870000402020202030000000000000000000049
:10288000000202000001010101000000000000043C
:10289000020203000000000000010101010000022B
:1028A000020000010101010000000000000004031B
:1028B0000000000000000001010101000002020010
:1028C0000001010101000000000000000000000004
:1028D00000000000000101010100000202000001EF
:1028E00001010100000000000000000000000000E5
:1028F00000000001010101000002020000000000D0
:1029000000000000000000000000000000000000C7
:1029100000000000000000020200000000000000B3
:1029200000000002000000000000020000000000A3
:102930000000000000020200000000000000000093
:1029400000024242424242420200000000000000F7
:102950000000000202000000000000000000000271
:102960004D4D4D4D4D4D0200000000000000000097
:1029700000020200580000000000000000024D4D5F
:102980004D4D4D4D020000000000000063000002AC
:102990000200000000000000000000024D4D2C4D20
:1029A0004D4D020000000000000000000002020087
:1029B000000000000000000000024D4D4D4D4D4D47
:1029C0000200000000000000000000020200000001
:1029D0000000000000000002424242424242020067
:1029E00000000000000000000002020000000000E3
:1029F00000000000000200000000000002000000D3
:102A000000000000000000020200000000000000C2
:102A100000000002000700000900020000000000A2
:102A200000000000000202000000000000000000A2
:102A30000002050000000006020000000000000087
:102A4000000000020200000000010101010100027B
:102A50000205000006020200010101010100000060
:102A60000002020000000001010101010002020257
:102A70000202020202000101010101000000000245
:102A80000200000000010100000000000000000042
:102A90000000000000000001010000000002020030
:102AA000000000010100080000000000000000001C
:102AB0000000000800010100000000020200000008
:102AC0000001010000000000000000000000000004
:102AD00000000001010000000002020000000000F0
:102AE00000000000000000000000000000000000E6
:102AF00000000000000000020202020202020202C4
:102B000002020202020202020202020202020202A5
:102B10000202020202020202020202020202020295
:102B20000202020202020202020202020202020285
:102B30000202020202020300000000000000000482
:102B40000202020202020300000000000000000472
:102B50000202020300000000000000000000040266
:102B60000202020300000000000000000000040256
:102B70000200000001010101010000000004020246
:102B80000300000000010101010100000002020039
:102B9000000001000000010000000000040300002C
:102BA000000000010000000100000002020000001F
:102BB000010009000100000000000000000000000A
:102BC00000010007000100000002020000000100F7
:102BD00000000100000000000000000000000001F3
:102BE00000000001000000020200000001010101DC
:102BF00001000000000000000000000000010101D1
:102C000001010000000202000000000000000000BE
:102C100000000000000000000000000000000000B4
:102C2000000000020205000000000000000000009B
:102C30000000000000000000000000000000000094
:102C40000602020205000000000000000000010171
:102C50000101010101000000000000000006020265
:102C60000202020500580000000000000100000000
:102C700000000100000000630000060202020202E0
:102C80000203000000000000000001000008000036
:102C90000100000000000000040202020202030022
:102CA0000000000000000000010000000000010022
:102CB0000000000000000004020202030000000007
:102CC00000000000000001010101010101000000FD
:102CD00000000000000004020200000000000000EC
:102CE00000000000000000000000000000000000E4
:102CF00000000000000202000000000000000000D0
:102D000000000000000000000000000000000000C3
:102D100000000002020000000101010101000000AA
:102D2000000000000000000000010101010100009E
:102D3000000202000000010000000100000000008D
:102D4000000000000000000100000001000000027F
:102D50000200000001000700010000000000000068
:102D60000000000000010009000100000002020054
:102D70000000010000000100000000000605000046
:102D8000000000010000000100000002020000003D
:102D9000010101010100000000060202050000001F
:102DA0000001010101010000000202050000000015
:102DB0000000000000000602020202050000000000
:102DC00000000000000006020202050000000000F2
:102DD00000000006020202020202050000000000DC
:102DE00000000006020202020202020202020202C5
:102DF00002020202020202020202020202020202B3
:102E000002020202020202020202020202020202A2
:102E10000202020202020202020202020202020292
:102E2000020202000000000000000000000000009C
:102E30000000000000000000000000000000000290
:102E40000200000000000000000000000000000080
:102E5000000000000000000000000000000202006E
:102E60000000000000000000000000000000000062
:102E7000000000000000000000000002020000004E
:102E80000000000000000000000000000000000042
:102E9000000000000000000000020200000000002E
:102EA0000000020202020202020202020202020206
:102EB000000000000000000202000000000000000E
:102EC0000000000000000000000000000000000002
:102ED00000000000000202000000000000000000EE
:102EE00000000000000000000000010101010101DC
:102EF00001010102020000070000090000000000BB
:102F000000000000000000000101010101010101B9
:102F1000010202000000000000000000000000426A
:102F200042424200000001010101010101010102D0
:102F300002000000000000000000000000424D4DB3
:102F40004200000001010100000000010102020036
:102F50000000580000000000000000424D4D4200FB
:102F600000000101010063000001010202000000F5
:102F7000000000000000000000424D4D4200000033
:102F80000101010000000001010202000000000038
:102F900000000000000000422C4D42000000010132
:102FA000010000000001010202000000000000001A
:102FB0000000000000424D4D4200000001010101EF
:102FC00001010101010202000000000000000000F8
:102FD00000000042424242000000010101010101E3
:102FE00001010102020000000000000000000000DA
:102FF00000000000000000000101010101010101C9
:1030000001020200000000000000000000000000BB
:1030100000000000000000000000000000000002AE
:10302000020000000000000000000000000000009E
:10303000000000000000000000000000000202008C
:10304000000000000000020202020202020202026C
:103050000202020200000000000000020200000064
:103060000000000000000000000000000000000060
:10307000000000000000000000020200000000004C
:103080000000000000000000000000000000000040
:10309000000000000000000202000000000000002C
:1030A0000000000000000000000000000000000020
:1030B000000000000002020000000000000000000C
:1030C0000000000000000000000000000000000000
:1030D00000000002020202020202020202020202D6
:1030E00002020202020202020202020202020202C0
:1030F00002020202020202020202020202020202B0
:10310000020202020202020202020202020202029F
:1031100002000000000000000000000000000000AD
:10312000000000000000000000000000000202009B
:10313000000000000000000000000000000000008F
:10314000000000000000000000000002020000007B
:10315000000000000000000000000000000000006F
:10316000000000000000000000020200000000005B
:10317000000000000000000000000000000000004F
:10318000000000000000000202000000000000003B
:103190000202020202020202020202020202000013
:1031A000000000000002020000000000000000001B
:1031B000000000000000000000000000000000000F
:1031C00000000002020101010101010101010000F2
:1031D00000000000000000000000000000000000EF
:1031E00000020201010101010101010100000000D2
:1031F00000000000000000000007000009000002BD
:1032000002010101010101010101000000424242ED
:103210004200000000000000000000000002020167
:103220000100000000010101000000424D4D42007C
:103230000000000000000000000000020201010088
:10324000580000010101000000424D4D4200000005
:103250000000000063000000000202010100000005
:1032600000010101000000424D2C4200000000005E
:103270000000000000000002020101000000000147
:103280000101000000424D4D42000000000000001E
:103290000000000000020201010101010101010121
:1032A000000000424D4D4200000000000000000000
:1032B0000000000202010101010101010101000001
:1032C00000424242420000000000000000000000F6
:1032D00000020201010101010101010100000000E1
:1032E00000000000000000000000000000000002DC
:1032F00002000000000000000000000000000000CC
:1033000000000000000000000000000000020200B9
:1033100000000000000000000000000000000000AD
:103320000000000000000000000000020200000099
:103330000000000002020202020202020202020275
:103340000202000000000000000202000000000075
:10335000000000000000000000000000000000006D
:103360000000000000000002020000000000000059
:10337000000000000000000000000000000000004D
:103380000000000000020200000000000000000039
:10339000000000000000000000000000000000002D
:1033A0000000000202000000000000000000000019
:1033B000000000000000000000000000000000000D
:1033C00000020202020202020202020202020202DF
:1033D00002020202020202020202020202020202CD
:1033E00002020202020202020202020202020202BD
:1033F0000202020202020202020202020202024D62
:103400004D4D4D4D4D4D4D4D4D4D4D4D4D4D4D4DEC
:103410004D4D4D4D4D4D4D4D4D4D4D02024D4D4D72
:103420004D4D4D4D4D4D4D4D4D4D4D4D4D4D4D4DCC
:103430004D4D4D4D4D4D4D4D4D02024D4D4D4D4D52
:103440004D4D4D4D4D4D4D4D4D4D4D4D4D4D4D4DAC
:103450004D4D4D4D4D4D4D02024D4D4D4D4D4D4D32
:103460004D4D4D4D4D4D4D4D4D4D4D4D4D4D4D4D8C
:103470004D4D4D4D4D02024D4D4D4D4D4D4D4D4D12
:103480004D4D4D4D4D4D4D4D4D4D4D4D4D4D4D4D6C
:103490004D4D4D02024D4D4D4D4D4D4D4D4D4D4DF2
:1034A0004D4D4D4D4D4D4D4D4D4D4D4D4D4D4D4D4C
:1034B0004D02024D4D4D4D4D4D4D4D4D4D4D4D4DD2
:1034C0004D4D4D4D4D4D4D4D4D4D4D4D4D4D4D0277
:1034D000024D4D4D4D4D4D4D4D4D4D4D4D4D4D4D67
:1034E0004D4D4D4D4D4D4D4D4D4D4D4D4D02024DA2
:1034F0004D4D4D4D4D4D4D4D4D4D4D4D4D4D4D4DFC
:103500004D4D4D4D4D4D4D4D4D4D4D02024D4D4D81
:103510004D4D4D4D4D4D4D4D4D4D4D4D4D4D4D4DDB
:103520004D4D4D4D4D4D4D4D4D02024D4D4D4D4D61
:103530004D4D4D4D4D4D4D4D4D4D4D4D4D4D4D4DBB
:103540004D4D4D4D4D4D4D020237373737373737DB
:1035500037373737373737373737373737373737FB
:103560003737373737020200000000000000000044
:10357000000000000000000000000000000000004B
:103580000000000202000000000000000000000037
:10359000000000000000000000000000000000002B
:1035A0000002020000000000000000000000000017
:1035B0000000000000000000000000000000000209
:1035C00002000000000000000000000000000000F9
:1035D00000000000000000000000000000020200E7
:1035E0000000580000000000000000000000000083
:1035F0000000000000000063000000020200000064
:1036000000000000000000000000000000000000BA
:1036100000000000000000000002020000000000A6
:10362000000000000000000000000000000000009A
:103630000000000000000002020000000000000086
:10364000000000000000000000000000000000007A
:103650000000000000020200000000000000000066
:10366000000000000000000000000000000000005A
:103670000000000202000000000000000000000046
:103680000000000700000000000000000000000033
:103690000002020000000000000000000000000026
:1036A0000000000000000000000000000000000218
:1036B00002020202020202020202020202020202EA
:1036C0000202020202020202020202020202FEFEE2
:1036D000FEFEFEFE2B2BFEFEFEFEFEFEFE2BFEFE83
:1036E000FEFEFEFEFE2B2B2B2BFEFEFEFE2B1212F1
:1036F00012FEFE20202B2B2B2B202020202B121201
:1037000012202020202B2B2B2B20202029292B2B73
:10371000FEFEFEFEFEFE2BFEFEFEFEFEFEFE2BFE6F
:10372000FEFEFEFEFEFE2BFEFEFEFE2B2B2B2B20B6
:1037300020FEFE1212122B202020202B2B2B2B20C0
:1037400020202012121229292020202B2B2B2B1273
:103750002B122B122B122B122B122B122B122B1281
:103760002B122B122B12FEFE202020202020FEFEEA
:10377000202020202020FEFEFE2020202020FEFEF3
:10378000FEFE20202929FEFEFEFE2020292B2B12E2
:103790002B122BFEFEFE2B122B122BFEFEFE2B12EB
:1037A0002B122BFEFEFE202020FEFEFEFEFE202021
:1037B00020FEFEFEFEFE20202020FEFEFEFE292032
:1037C0002020FEFEFE2B292B2B2B2B2B2B2BFEFE42
:1037D000FEFEFEFEFEFEFEFEFEFEFEFEFEFEFEFE09
:1037E000FFFFFEFE3F3FFEFEFFFFFEFE3F3FFEFEF1
:1037F000FEFEFFFF3F3FFEFEFEFEFFFF3F3FFEFEE1
:10380000FEFE3F3F3F3FFEFEFEFE3F3F3F3FFEFED0
:10381000FEFEFEFEFEFEFEFEFEFEFEFEFEFEFEFEC8
:10382000FEFEFFFFFEFEFEFEFEFEFFFFFEFEFEFEB4
:10383000FFFFFEFEFEFEFEFEFFFFFEFEFEFE3F3F22
:103840003F3F3F3FFEFE3F3F3F3F3F3FFEFE3F3F8C
:103850003F3FFEFEFEFE3F3F3F3FFEFEFEFE3F3F80
:10386000FFFF1F1F3F3F3F3FFFFF1F1F3F3FFEFE6A
:103870001F1FFFFF3F3FFEFE1F1FFFFF3F3FFEFEDC
:10388000FEFE3F3F3F3FFEFEFEFE3F3F3F3FFEFE50
:10389000FEFE3F3F3F3FFEFEFEFE3F3F3F3FFEFE40
:1038A0001F1FFFFF3F3FFEFE1F1FFFFF3F3FFEFEAC
:1038B000FFFF3F3FFEFEFEFEFFFF3F3FFEFE3F3F9E
:1038C0003F3F3F3FFEFE3F3F3F3F3F3FFEFEFEFE8E
:1038D000FEFEFEFEFEFEFEFEFEFEFEFEFEFEFEFE08
:1038E000FFFFFEFEFEFEFEFEFFFFFEFEFEFEFEFEF4
:1038F000FEFEFFFFFEFEFEFEFEFEFFFFFEFEFEFEE4
:10390000FEFEFEFEFEFEFEFEFEFEFEFEFEFEFEFED7
:10391000FEFEFEFEFEFEFEFEFEFEFEFEFEFEFEFEC7
:10392000FEFEFFFFFEFEFEFEFEFEFFFFFEFEFEFEB3
:10393000FFFFFEFEFEFEFEFEFFFFFEFEFEFEFEFEA3
:10394000FEFEFEFEFEFEFEFEFEFEFEFEFEFE12126F
:1039500012202020292B2B2B2B202020292912124A
:103960001220202020202B2B2B2020202020121260
:1039700012202020FEFE2B2B2B2020FEFEFE1212FA
:1039800012FEFEFEFEFE2B2B2BFEFEFEFEFE2B2964
:1039900020202012121229292020202B2B2B20201E
:1039A00020202012121220202020202B2B2BFEFE64
:1039B000202020121212FEFEFE20202B2B2BFEFEBA
:1039C000FEFEFE121212FEFEFEFEFE2B2B2BFEFE54
:1039D000FEFE2020292BFEFEFEFE20202929FEFED1
:1039E000FE2020202020FEFE202020202020FEFE81
:1039F0002020202020202B122B122B122B122B12D6
:103A00002B122B122B122B122B122B122B12292BB7
:103A10002B2B2B2B2B2B29202020FEFEFE2B2020B6
:103A20002020FEFEFEFE202020FEFEFEFEFE2020C8
:103A300020FEFEFEFEFE2B122B122BFEFEFE2B1294
:103A40002B122BFEFEFE2B122B122BFEFEFEFEFE79
:103A50003F3F3F3F3F3FFEFE3F3F3F3F3F3FFEFE7A
:103A6000FEFEFFFFFEFEFEFEFEFEFFFFFEFEFEFE72
:103A7000FFFFFEFEFEFEFEFEFFFFFEFEFEFEFEFE62
:103A8000FEFEFEFEFEFEFEFEFEFEFEFEFEFE3F3FD4
:103A90003F3FFEFEFEFE3F3F3F3FFEFEFEFE3F3F3E
:103AA000FFFFFEFEFEFE3F3FFFFFFEFEFEFE3F3F2E
:103AB000FEFEFFFFFEFE3F3FFEFEFFFFFEFEFEFEA0
:103AC000FEFEFEFEFEFEFEFEFEFEFEFEFEFEFEFE16
:103AD0003F3F3F3F3F3FFEFE3F3F3F3F3F3FFEFEFA
:103AE0001F1FFFFFFEFEFEFE1F1FFFFFFEFE3F3FEC
:103AF000FFFF1F1FFEFE3F3FFFFF1F1FFEFE3F3F5A
:103B00003F3FFEFEFEFE3F3F3F3FFEFEFEFE3F3FCD
:103B10003F3FFEFEFEFE3F3F3F3FFEFEFEFE3F3FBD
:103B2000FFFF1F1FFEFE3F3FFFFF1F1FFEFE3F3F29
:103B30001F1FFFFF3F3F3F3F1F1FFFFF3F3FFEFE97
:103B4000FEFE3F3F3F3FFEFEFEFE3F3F3F3FFEFE8D
:103B5000FEFEFEFEF5F5FEFEFEFEFEFEFEF5FEFEA0
:103B6000FEFEFEFEFEF5F5F5F5FEFEFEFEF590907E
:103B700090FEFEE1E1F5F5F5F5E1E1E1E1F590908A
:103B800090E1E1E1E1F5F5F5F5E1E1E1F0F0F5F5E0
:103B9000FEFEFEFEFEFEF5FEFEFEFEFEFEFEF5FE57
:103BA000FEFEFEFEFEFEF5FEFEFEFEF5F5F5F5E17F
:103BB000E1FEFE909090F5E1E1E1E1F5F5F5F5E14A
:103BC000E1E1E1909090F0F0E1E1E1F5F5F5F590BB
:103BD000F590F590F590F590F590F590F590F590BD
:103BE000F590F590F590FEFEE1E1E1E1E1E1FEFE08
:103BF000E1E1E1E1E1E1FEFEFEE1E1E1E1E1FEFE24
:103C0000FEFEE1E1F0F0FEFEFEFEE1E1F0F5F590F2
:103C1000F590F5FEFEFEF590F590F5FEFEFEF590B2
:103C2000F590F5FEFEFEE1E1E1FEFEFEFEFEE1E1C5
:103C3000E1FEFEFEFEFEE1E1E1E1FEFEFEFEF0E160
:103C4000E1E1FEFEFEF5F0F5F5F5F5F5F5F5FEFE24
:103C5000FEFEFEFEFEFEFEFEFEFEFEFEFEFEFEFE84
:103C6000FEADADFEFEFEFEFEADADADADFEFEFEFE5A
:103C7000ADADADADFEFEFEFEFEADADFEFEFEFEFE4A
:103C8000FEFEFEFEFEFEFEFEFEFEFEFEFEFEFEFE54
:103C9000FEADADFEFEFEFEFEFEADADFEFEFEFEFE88
:103CA000ADADADADFEFEFEFEADADADADFEFEFEAD0D
:103CB000ADADADADADFEFEFE3F3F3F3FFEFEFEFEB5
:103CC000FE3F3FFEFEFEFEFEFEFEFEFEFEFEFEFE92
:103CD000FEADADFEFEFEFEFEFEADADFEFEFEFEFE48
:103CE000ADADADADFEFEFEFEADADADADFEFEFEADCD
:103CF000ADADADADADFEFEFEFE3F3FFEFEFEFEFEF7
:103D0000FEFEFEFEFEFEFEFEFEFEFEFEFEFEFEFED3
:103D1000FEFEFEFEFEFEFEFEFEADFEFEFEFEFEFE14
:103D20003FADADADFEFEFE3F3FADADADADADFE3F37
:103D30003FADADADADADFEFE3FADADADFEFEFEFEA9
:103D4000FEADFEFEFEFEFEFEFEFEFEFEFEFEFEFEE4
:103D5000FEFEFEFEFEFEFEFEFEADFEFEFEFEFEFED4
:103D6000FEADADADFEFEFEFE3FADADADADADFEFEBA
:103D70003FADADADADADFEFEFEADADADFEFEFEFEAA
:103D8000FEADFEFEFEFEFEFEFEFEFEFEFEFEFEFEA4
:103D9000FEFEFEFEFEFEFEFEFEFEFEFEFEFEFEFE43
:103DA000FE9F9FFEFEFEFEFE9F9F9F9FFEFEFEFE6D
:103DB0009F9F9F9FFEFEFEFEFE9F9FFEFEFEFEFE5D
:103DC000FEFEFEFEFEFEFEFEFEFEFEFEFEFE9090EF
:103DD00090E1E1E1F0F5F5F5F5E1E1E1F0F0909049
:103DE00090E1E1E1E1E1F5F5F5E1E1E1E1E190907A
:103DF00090E1E1E1FEFEF5F5F5E1E1FEFEFE9090D9
:103E000090FEFEFEFEFEF5F5F5FEFEFEFEFEF5F072
:103E1000E1E1E1909090F0F0E1E1E1F5F5F5E1E12B
:103E2000E1E1E1909090E1E1E1E1E1F5F5F5FEFEFF
:103E3000E1E1E1909090FEFEFEE1E1F5F5F5FEFE98
:103E4000FEFEFE909090FEFEFEFEFEF5F5F5FEFEF7
:103E5000FEFEE1E1F0F5FEFEFEFEE1E1F0F0FEFE29
:103E6000FEE1E1E1E1E1FEFEE1E1E1E1E1E1FEFEB1
:103E7000E1E1E1E1E1E1F590F590F590F590F59063
:103E8000F590F590F590F590F590F590F590F0F5AA
:103E9000F5F5F5F5F5F5F0E1E1E1FEFEFEF5E1E120
:103EA000E1E1FEFEFEFEE1E1E1FEFEFEFEFEE1E1FD
:103EB000E1FEFEFEFEFEF590F590F5FEFEFEF590AD
:103EC000F590F5FEFEFEF590F590F5FEFEFEFEFE89
:103ED000FEFEFEFEFEFEFEFEFEFEFFFEFEFEFEFE01
:103EE000FEFE7FFFFEFEFEFEFEFE7F7FFFFEFEFE6D
:103EF000FEFE7F7F7FFFFEFEFEFE7F7F7FFEFEFEDB
:103F0000FEFE7F7FFEFEFEFEFEFE7FFEFEFEFEFE4E
:103F1000FEFEFEFEFEFEFEFEFEFEFEFEFEFEFEFEC1
:103F2000FEFEFEFEFEFEFEFEFEFEFEFEFEFE7F7FAF
:103F30007F7F7F7FFFFEFE7F7F7F7FFFFEFEFEFE97
:103F40007F7FFFFEFEFEFEFEFEFEFEFEFEFEFEFE8E
:103F5000FEFFFEFEFEFEFEFEFF7F7FFEFEFEFEFF7C
:103F60007F7F7F7FFEFEFF7F7F7F7F7F7FFEFEFE66
:103F7000FEFEFEFEFEFEFEFEFEFEFEFEFEFEFEFE61
:103F8000FEFEFEFEFEFEFEFEFEFEFEFEFEFE4A4AB9
:103F90004A4A4A4A4A4A4A4A4A4A4A4A4A4A4A4A81
:103FA0004AA6A64A4A4A4A4A4AA6A64A4A4AFE4A4D
:103FB0004AA6A64A4AFEFEFE4AA6A64AFEFEFEFE05
:103FC000FEA6A6FEFEFEFEFEFEA6A6FEFEFEFEFE71
:103FD000FEFEFEFEFEFEFEFEFEFEFEFEFEFEFEFE01
:103FE000FEFEFEFEFEFEFEFEFEFEFEFEFEFEFEFEF1
:103FF000FEFEFEFEFEFEFEFEFEFEFEFEFEFEFEFEE1
:10400000FEFEFEFEFEFEFEFEFEFEFEFEFEFE0101CA
:104010002301011B01012201012101012001011ADB
:104020000101190101180101170101160202080915
:104030000908020206071011020204050E0F02020F
:1040400014151E1F020212131C1D020202030C0D86
:10405000020200010A0B020224242424010124008C
:104060000000000000000000000000000000000050
:104070000000000000000000000000000000000040
:104080000000000000000000000000000000000030
:1040900000000000000000000000000000000066BA
:1040A00066662666666666777777267777777777A8
:1040B0007777267777777777777726777777772683
:1040C0002626262626262677777777777777267708
:1040D0007777777777772677777777777777260089
:1040E000ECECECECECEC00ECFFFFFFFFFFFFECEC8A
:1040F000EDFFFFFFFFF6ECECEDEEFFFFF6EDECEC75
:10410000EDEEFFF6EEEDECECEDFFF6EEEEEDECECA9
:10411000FFEDEDEDEDEDEC00ECECECECECEC00008B
:10412000ECECECECECEC00ECFFEDEDEDEDFFECEC91
:10413000EDFFF6EEFFEDECECEDF63FFFEEEDECEC17
:10414000EDEEFF3FF6EDECECEDFFEEF6FFEDECEC07
:10415000FFEDEDEDEDFFEC00ECECECECECEC000039
:10416000ECECECECECEC00ECEDEDEDEDEDFFECEC63
:10417000EDEEEEFFFFEDECECEDEEFFFFFFEDECEC16
:10418000FFF6FFFFEEEDECECEDFFF6EEEEEDECEC06
:104190003FEDFFEDEDEDEC00ECECECECECEC0005B4
:1041A00005050505050505050505050505050405C0
:1041B00005050505050404050505070704040405B0
:1041C00005050707040404050505040404040405A3
:1041D00005040404040404050404040404040400A1
:1041E0000000000000000000FF003F0000FF000092
:1041F00000FF3F00FF000000003F3F3F3F3F000047
:104200003F3F3F3F3F00000000FF003FFF00000036
:10421000FF00003F00FF0000000000000000003F22
:104220003F000000003F3F3FFF1F3F001FFF3F00D8
:104230001FFF3F00FF3F0000003F3F3F3F3F0000A8
:104240003F3F3F3F3F0000001FFF003FFF1F003F79
:10425000FF1F003F1FFF3F3F3F000000003F3F00A8
:104260000000000000000000FF00000000FF000050
:1042700000FF0000FF000000000000000000000040
:10428000000000000000000000FF0000FF00000030
:10429000FF00000000FF000000000000000000051B
:1042A00005050505050505050505050505050005C3
:1042B00005050505050000050505070700000005C3
:1042C00005050700000000050505000000000005C9
:1042D00005000000000000050000000000000000D4
:1042E00000000000000004000000000000040400C2
:1042F000000000000404040000000007040404009F
:10430000000007070404040000040404040404007B
:10431000040404040404040404040404040404055C
:104320000505050505050500050505050505050047
:104330000005050505050500000007070505050042
:104340000000000705050500000000000505050048
:10435000000000000005050000000000000005044A
:104360000000000000000004040000000000000441
:10437000040400000000000404040700000000041E
:1043800004040707000000040404040404000004FB
:10439000040404040404000404040404040404F0F5
:1043A000F3F0F0F3F0F3F0F5F0F0F5F5F0F0F5F4EC
:1043B000F5F5F4F4F5F5F4F0F0F3F0F0F3F0F0F3D4
:1043C000F0F2F3F0F0F3F0F0F5F5F0F3F5F5F0F5C9
:1043D000F4F4F5F5F4F4F5F0F0F3F0F3F0F3F0188D
:1043E000641818641818641862641818646218183D
:1043F00064186264186418641862181862186218E5
:10440000641864621864186418641818621818181C
:104410006418626418641818181864181818646509
:10442000656565656565656565656565656565168B
:104430006565656565651616166565656516161606
:10444000161616161616161614141414141416141A
:10445000656565656565146565656565656565F0D2
:10446000F3F0F0F3F0F3F0F5F0F0F5F5F0F0F5F42B
:10447000F5F5F4F4F5F5F4F0F0F3F0F0F3F0F0F313
:10448000F0F2F3F0F0F3F0F0F5FFFFFFFFF5F0F5D9
:10449000FFFFFFFFFFFFF5F0F0FFFFFFFFF3F0F07E
:1044A000F3F0F0F3F0F3F0F5F0F0F5F5F0F0F5F4EB
:1044B000F5F54A4A4AF5F4F0F04A4ABFBF4AF0F32C
:1044C000F04A4ABFBF4AF0F0F5FF4A4A4AF5F0F514
:1044D000FFFFFFFFFFFFF5F0F0FFFFFFFFF3F0F03E
:1044E000F3F04A4A4AF3F0F5F04A4ABFBF4AF5F4FE
:1044F000F54A4ABFBF4AF4F0F0F34A4A4AF0F0F3F3
:10450000F0F24A4AF0F3F0F0F5FF4A4AFFF5F0F511
:10451000FFFFFFFFFFFFF5F0F0FFFFFFFFF3F07F6E
:104520007F7F7F7F7F7F7F7F282828282828287FFC
:10453000282828282828287F282828282828287F4D
:10454000282828282828287F282828282828287F3D
:10455000282828282828287F282828282828287F2D
:104560007F7F7F7F7F7F7F2828282828282828286A
:1045700028282828282828282828282828282828BB
:1045800028282828282828282828282828282828AB
:1045900028282828282828282828282828282800C3
:1045A000000000000000000000000000000000000B
:1045B0000000000000000000000000000000007F7C
:1045C0007F7F7F7F7F7F7F2828282828282828280A
:1045D0002828282828282828282828282828280083
:1045E00000000000007F7F0000000000007F280026
:1045F00000000000007F280000000000007F28006D
:1046000000000000007F280000000000007F28005C
:1046100000000000007F280000000000007F287FCD
:104620007F7F7F7F7F0000282828282828000028F7
:10463000282828282800002828282828280000289A
:10464000282828282800002828282828280000288A
:1046500028282828280000282828282828000000A2
:1046600000000000002B2B000000000000002B00C9
:104670000000000000002B2B2B2B000000002B1251
:104680001212000020202B2B2B2B202020202B125D
:104690001212202020202B2B2B2B20202029292BED
:1046A0002B0000000000002B000000000000002B89
:1046B000000000000000002B000000002B2B2B2B23
:1046C000202000001212122B202020202B2B2B2B1D
:1046D0002020202012121229292020202B2B2B7F72
:1046E000282828282828287F282828282828287F9C
:1046F000282828282828287F282828282828287F8C
:10470000282828282828287F282828282828287F7B
:10471000282828282828287F2828282828282828C2
:104720002828282828282828282828282828282809
:104730002828282828282828282828282828280021
:104740000000000000000000000000000000000069
:104750000000000000000000000000000000002831
:1047600028282828282828282828282828282828C9
:104770002828282828282828282828282828287F62
:10478000282828282828287F282828282828287FFB
:10479000282828282828287F282828282828287FEB
:1047A0007F7F7F7F7F7F282828282828282828287F
:1047B0002828282828282828282828282828282879
:1047C0002828282828282828282828282828282869
:1047D0002828282828282828282828282828282859
:1047E0002828282828000000000000000000000001
:1047F00000000000000000000000000000000000B9
:1048000000000000000000000000000000000000A8
:104810000000000000000000000000000000000098
:1048200000F590F590F5900000F590F590F590006A
:1048300000F590F590F59000000000E1E1E1E10065
:10484000000000E1E1E1E10000000000E1E1E10041
:104850000000000000E1E1000000000000E1E1F5DF
:1048600090F590F590F500F590F590F590F500F540
:1048700090F590F590F500E1E1E1E1E1000000E163
:10488000E1E1E1E1000000E1E1E1E1E1E10000F06E
:10489000F0F0E1E1E10000F0F5F0F5F5F5F5F500F7
:1048A0000000000000000000000000000000000008
:1048B00000000000000000000000000000000000F8
:1048C00000000000000000000000000000000000E8
:1048D000F5000000000000F5F500000000000000F9
:1048E00000000000000000000000000000000000C8
:1048F00000000000000000000000000000000000B8
:10490000000000000000007F7F7F7F7F7F7F7F2887
:10491000282828282828282828282828282828122D
:104920001212202020292B2B2B2B2020202929126A
:10493000121220202020202B2B2B20202020201280
:10494000121220202000002B2B2B20200000001210
:10495000121200000000002B2B2B00000000002B87
:104960002920202012121229292020202B2B2B2035
:104970002020202012121220202020202B2B2B0060
:104980000020202012121200000020202B2B2B00D0
:104990000000000012121200000000002B2B2B7FE1
:1049A0002828282828282828282828282828282887
:1049B0002828282828282828282828282828282877
:1049C0002828282828282828282828282828282867
:1049D0002828282828282828282828282828282857
:1049E0002828282828282828282828282828282847
:1049F0002828282828282828282828282828282837
:104A00002828282828282828282828282828282826
:104A1000282828282828282828282828282828003E
:104A20000000000000E1E1000000000000E1E10002
:104A300000000000E1E1E100000000E1E1E1E1004F
:104A4000000000E1E1E1E10000F590F590F5900053
:104A500000F590F590F5900000F590F590F590F048
:104A6000F5F0F5F5F5F5F5F0F0F0E1E1E10000E144
:104A7000E1E1E1E1E10000E1E1E1E1E1000000E18B
:104A8000E1E1E1E1000000F590F590F590F500F529
:104A900090F590F590F500F590F590F590F500F50E
:104AA000F500000000000000F5000000000000001C
:104AB00000000000000000000000000000000000F6
:104AC00000000000000000000000000000000000E6
:104AD00000000000000000000000000000000028AE
:104AE0002828282828282828282828282828282846
:104AF0002828282828282828282828282828282836
:104B0000282828282828280000000000000000008D
:104B10000000000000000000000000000000000095
:104B20000000000000F5F500000000000000F500A6
:104B3000000000000000F5F5F5F500000000F5901C
:104B400090900000E1E1F5F5F5F5E1E1E1E1F590A6
:104B50009090E1E1E1E1F5F5F5F5E1E1E1F0F0F565
:104B6000F5000000000000F500000000000000F566
:104B700000000000000000F500000000F5F5F5F56C
:104B8000E1E10000909090F5E1E1E1E1F5F5F5F566
:104B9000E1E1E1E1909090F0F0E1E1E1F5F5F5007F
:104BA00000000000007F280000000000007F2800B7
:104BB00000000000007F280000000000007F2800A7
:104BC00000000000007F280000000000007F280097
:104BD00000000000007F280000000000007F28285F
:104BE00028282828280000282828282828000028E5
:104BF00028282828280000282828282828000028D5
:104C000028282828280000282828282828000028C4
:104C100028282828280000282828282828000000DC
:104C2000000000000000007F7F7F7F7F7F7F7F2864
:104C300028282828282828282828282828282828F4
:104C400028282828282828282828282828282828E4
:104C50002828282828282828282828282828287F7D
:104C6000282828282828287F28282828282828286D
:104C700028282828282828282828282828282828B4
:104C800028282828282828282828282828282828A4
:104C9000282828282828282828282828282828902C
:104CA0009090E1E1E1F0F5F5F5F5E1E1E1F0F0906A
:104CB0009090E1E1E1E1E1F5F5F5E1E1E1E1E1909B
:104CC0009090E1E1E10000F5F5F5E1E100000090F0
:104CD00090900000000000F5F5F50000000000F5E0
:104CE000F0E1E1E1909090F0F0E1E1E1F5F5F5E13E
:104CF000E1E1E1E1909090E1E1E1E1E1F5F5F5003C
:104D000000E1E1E1909090000000E1E1F5F5F500AF
:104D1000000000009090900000000000F5F5F5F014
:104D2000F3F0F0F3F0F3F0F5F0F0F5F5F0F0F5F462
:104D3000F5F5F4F4F5F5F4F0F0F3F0F0F3F0F0F34A
:104D4000F0F2F3F3F0F2F3F0F5F5F0F0F5F5F0F53D
:104D5000F4F4F5F5F4F4F5F0F0F3F0F0F0F3F0F02E
:104D6000F3F0F0F3F0F3F0F5F0F0F5F5F0F0F5F422
:104D7000F5F5F4F4F5F5F4F0F0F3F0F0F3F0F0F30A
:104D8000F0F2F3F0F0F3F0F0F5F5E8E8E8E8E8F534
:104D9000F4F4E8E8E8F4F5F0F0F3E8E8E8F3F0F02C
:104DA000F3F0F0F3F0F3F0F5F0F0F5F5F0F0F5F4E2
:104DB000F5F5F4F4F5F5F4F0F0F3F0F0F3F0F0F3CA
:104DC000F0F2F3F0F0F3F0F0F5F5F0F3F5F5F0E8CC
:104DD000F4F4F5F5F4F4F5F0E8F3F0F3F0F3F0F0B3
:104DE000F3F0F0F3F0F3F0F5F0F0F5F5F0F0F5F4A2
:104DF000F5F5F4F4F5F5F4F0F0F3F0F0F3F0F0A3DA
:104E0000A3A3A3A3A3A3A3A3A3A3A3A3A3A3A3A372
:104E1000A3A3A3A3A3A3A3A3A3A3A3A3A3A3A3F015
:104E2000F3F0F0F3F0F3F0F5F0F0F5F0F3F0F0F468
:104E3000F5F5F4F5F0F0F5F0F0F3F0F0F3F0F0A3A1
:104E4000A3A3A3A3A3A3A3A3A3A3A3A3A3A3A3A332
:104E5000A3A3A3A3A3A3A3A3A3A4A4A4A4A4A4F0CF
:104E6000F3F0F0F3F0F3F0F3F0F3F0F5F0F0F5F524
:104E7000F0F0A3A3A3A3A3F0F0F3A3A3A3A3A3A37E
:104E8000A3A3A3A3A3A3A3A3A3A3A3A3A3A3A3A3F2
:104E9000A3A3A3A3A3A3A3A4A4A4A4A4A4A4A4F08D
:104EA000F3F0F0F3F0F3F0F5F0F0F5F5F0F0F5A332
:104EB000A3A3A3A3A3A3A3A3A3A3A3A3A3A3A3A3C2
:104EC000A3A3A3A3A3A3A3A3A3A3A3A3A3A3A3A3B2
:104ED000A3A3A3A3A3A3A4A4A4A4A4A49AA4A4F056
:104EE000F3F0F0F3F0F3A3F5F0F0F5F5F0F0A3A391
:104EF000A3A3A3A3A3A3A3A3A3A3A3A3A3A3A3A382
:104F0000A3A3A3A3A3A3A3A3A3A3A3A3A3A3A3A470
:104F1000A4A4A4A4A4A4A4A4A4A4A4A4A4A4A4A352
:104F2000A3A3A3A3A3A3A3A3A3A3A3A3A3A3A3A351
:104F3000A3A3A3A3A3A3A3A3A3A3A3A3A3A3A3A341
:104F4000A3A3A3A3A3A3A3A3A3A3A3A3A3A3A3A430
:104F5000A4A4A4A4A4A4A4A4A4A4A4A4A4A4A4A312
:104F6000F3F0F0F3F0F3F0A3F0F0F5F5F0F0F5A3C3
:104F7000A3A3A3A3A3A3A3A3A3A3A3A3A3A3A3A301
:104F8000A3A3A3A3A3A3A3A3A3A3A3A3A3A3A3A4F0
:104F9000A4A4A4A4A4A4A4A4A4A4A4A4A4A4A4F085
:104FA000F3F0F0F3F0F3F0F5F0F0F5F5F0F0F5A331
:104FB000A3A3A3A3A3A3A3A3A3A3A3A3A3A3A3A3C1
:104FC000A3A3A3A3A3A3A3A3A3A3A3A3A3A3A3A4B0
:104FD000A4A3A3A3A3A3A3A4A4A49AA4A4A4A4F055
:104FE000F3F0F0F3F0F3F0F5F0F0F5F5F0F0F5A3F1
:104FF000A3A3A3A3F5F5F4A3A3A3A3A3F3F0F0A3A2
:10500000A3A3A3A3A3A3A3A3A3A3A3A3A3A3A3A370
:10501000A3A3A3A3A3A3A3A4A4A4A4A4A4A4A4F00B
:10502000F3F0F0F3F0F3F0F5F0F0F5F5F0F0F5F45F
:10503000F5F5F4F4F5F5F4F0F0F3F0F0F3F0F0A397
:10504000A3A3A3A3A3A3A3A3A3A3A3A3A3A3A3A330
:10505000A3A3A3A3A3A3A3A4A4A4A4A4A4A3A3F0CD
:10506000F3F0F0F3F0F3F0F5F0F0F5F5F0F0F5F41F
:10507000F5F5F4F4F5F5F4F0F0F3F0F0F3F0F0F307
:10508000F0F2E8E8E8E8E8F0F5F5E8E8E8E8F0F557
:10509000F4F4E8E8E8E8F5F0F0F3E8E8E8E8F0F040
:1050A000F3F0F0F3F0F3F0F5F0F0F5F5F0F0F5F4DF
:1050B000F5F5F4F4F5F5F4F0F0F3F0F0F3F0F0E8D2
:1050C000F0F2F3F0F0F3F0F0E8F5F0F3F5F5F0F5C9
:1050D000F4E8F5F5F4F4F5F0F0F3E8F3F0F3F0F0BC
:1050E000F3F0F0F3F0F3F0F5F0F0F5F5F0F0F5F49F
:1050F000F5F5F4F4F5F5F4F0F0F3F0F0F3F0FFF378
:10510000F0F2F3FFFFFFA3F0FFFFFFFFFFFFA3FF9E
:10511000F4F4A3A3A3A3A3F0F0A3A3A3A3A3A3F0D6
:10512000F3F0F0F3FFFFF0F5F0F0F5FFFFFFF5F41B
:10513000F5FFFFFFFFF5F4FFFFFFFFFFF3F0F0A324
:10514000A3A3A3A3A3A3A3A3A3A3A3A3A3A3A3A32F
:10515000A3A39AA3A3A3A3A3A39A9A9AA3A3A3F0F6
:10516000F3F0E8E8E8F3F0A3A3A3A3A3A3A3A3A306
:10517000A3A3A3A3A3A3A3A3A3A3A3A3A3A3A3A3FF
:10518000A3A3A3A3A3A3A3A3A3A3A3A3A3A3A3A3EF
:10519000A3A3A3A3A3A3A3A3A3A3A3A3A3A3A3F092
:1051A000F3E8F0F3F0F3F0A3A3A3A3A3A3A3A3A3B3
:1051B000A3A3A3A3A3A3A3A3A3A3A3A3A3A3A3A3BF
:1051C000A3A3A3A3A3A3A3A3A4A4A4A4A4A4A4A3A8
:1051D000A4A4A4A4A4A49AA3A4A4A4A4A4A49AF058
:1051E000F3F0F0F3F0F3F0A3A3A3A3A3A3A3A3A36B
:1051F000A3A3A3A3A3A3A3A3A3A3A3A3A3A3A3A37F
:10520000A3A3A3A3A3A3A3A4A4A4A4A4A4A49A9A79
:105210009A9AA4A4A4A4A49A9A9AA4A4A4A4A4F034
:10522000F3F0F0F3F0F3F0A3A3A3A3A3A3A3A3A32A
:10523000A3A3A3A3A3A3A3A3A3A3A3A3A3A3A3A33E
:10524000A3A3A3A3A3A3A39A9A9A9A9A9A9A9A9A7F
:105250009A9A9A9A9A9A9AA4A4A4A4A4A4A4A4A355
:10526000A3A3A3A3A3A3A3A3A3A3A3A3A3A3A3A30E
:10527000A3A3A3A3A3A3A3A3A3A3A3A3A3A3A3A3FE
:10528000A3A3A3A3A3A3A39A9A9A9A9A9A9A9A9A3F
:105290009A9A9A9A9A9A9AA4A4A4A4A4A4A4A4A315
:1052A000A39AA4A49A9AA4A3A3A4A4A4A4A4A4A3E0
:1052B000A39AA4A49A9AA4A3A3A4A4A4A4A4A4A3D0
:1052C000A39A9A9A9A9A9A9AA4A4A4A4A4A4A4A4E5
:1052D000A4A4A4A4A4A4A4A4A4A4A4A4A4A4A4A48E
:1052E0009A9AA4A49A9AA4A4A4A4A4A4A4A4A4A4A6
:1052F0009A9AA4A49A9AA4A4A4A4A4A4A4A4A49AA0
:105300009A9A9A9A9A9A9AA4A4A4A4A4A4A4A4A4A3
:10531000A4A4A4A4A4A4A4A4A4A4A4A4A4A4A4A44D
:105320009A9AA4A49A9AA4A4A4A4A4A49AA4A4A46F
:105330009A9AA4A49A9AA4A4A4A4A4A49AA4A49A69
:105340009A9A9A9A9A9A9AA4A4A4A4A4A4A4A4A463
:10535000A4A4A4A4A4A4A4A4A4A4A4A4A4A4A4A40D
:105360009A9AA4A49A9AA4A4A4A4A4A4A4A4A4A425
:105370009A9AA4A49A9AA4A4A4A4A4A4A4A4A39A20
:105380009A9A9A9A9A9AA3A4A4A4A4A4A4A3A3A41C
:10539000A4A4A4A4A3A3A3A4A4A4A4A4A3A3A3A4D3
:1053A0009A9AA4A3A3A3A3A49AA3A3A3A3A3A3A3E6
:1053B000A3A3A3A3A3A3A3A3A3A3A3A3A3A3A3A3BD
:1053C000A3A3A3A3A3A3A3A3A3A3A3A3A3A3A3A3AD
:1053D000A3A3A34AA3A3A3A3A3A34A4A4AA3A3A301
:1053E000A3A3A4A49A9AA4A3A3A3A3A4A4A4A4A398
:1053F000A3A3A0A0A0A0A0A3A3A0A0A0A0A0A0A39E
:10540000A0A0A0A0A0A0A0A3A0A0A0A0A0A0A0A396
:10541000A0A0A04A4A4AA0A3A0A04A4A4A4A4AA435
:105420009A9AA4A49A9AA4A4A4A4A4A4A4A4A4A068
:10543000A0A0A4A49A9AA4A0A0A0A4A4A4A4A4A058
:10544000A0A0A0A0A0A09AA0A0A0A0A0A0A0A4A05E
:10545000A0A0A0A0A0A09AA0A0A0A0A0A0A0ADA441
:105460009A9AA4A49A9AA4A4A4A4A4A4A4A4A4A424
:105470009A9AA4A49A9AA4A4A4A4A4A4A4A4A49A1E
:105480009A9A9A9A9A9A9AA4A4A4A4A4A4A4A4A422
:10549000A4A4A4A4A4A4A4ADADADADADADADADA484
:1054A0009A9A9AA49A9AA4A4A4A49AA4A4A4A4A4F8
:1054B0009A9A9AA49A9AA4A4A4A49AA4A4A4A49AF2
:1054C0009A9A9A9A9A9A9AA4A4A4A4A4A4A4A4A4E2
:1054D000A4A4A4A4A4A4A4ADADADADADADADADA444
:1054E0009A9AA4A49A9AA4A4A4A4A4A4A4A4A4A4A4
:1054F0009A9AA4A49A9AA4A4A4A4A4A4A4A4A49A9E
:105500009A9A9A9A9A9A9AA4A4A4A4A4A4A4A4A4A1
:10551000A4A4A4A4A49A9AADADADADADADADADA417
:105520009A9AA4A49AA3A3A4A4A4A4A4A49AA3A466
:105530009A9AA4A49A9AA3A4A4A4A4A4A49AA39A69
:105540009A9A9A9A9A9AA3A4A4A4A4A4A4A4A49A62
:105550009A9A9A9A9A9AA4ADADADADADADADADA300
:10556000A3A3A3A3A3A3A3A3A3A3A3A3A3A3A3A30B
:10557000A3A3A3A3A3A3A3A3A3A3A3A3A3A3A3A3FB
:10558000A3A3A3A3A3A3A3A4A4A4A4A4A4A4A4A4E2
:10559000A4A4A4A4A4A4A4ADADADADADADADADF037
:1055A000F3F0F0F3F0F3F0A3A3A3A3A3A3A3A3A3A7
:1055B000A3A3A3A3A3A3A3A3A3A3A3A3A3A3A3A3BB
:1055C000A3A3A3A3A3A3A3A4A4A4A4A4A4A4A4A4A2
:1055D000A4A4A4A4A4A4A4ADADADADADADADADF0F7
:1055E000F3F0E8E8E8E8F0A3A3A3A3A3A3A3A3A38D
:1055F000A3A3A3A3A3A3A3A3A3A3A3A3A3A3A3A37B
:10560000A3A3A3A3A3A3A3A4A4A4A4A4A4A4A3A462
:10561000A4A4A4A4A4A4A3ADADADADADADADADF0B7
:10562000F3F0F0E8F0F3F0A3A3A3A3A3A3A3A3A331
:10563000A3A3A3A3A3A3A3A3A3A3A3A3A3A3A3A33A
:10564000A3A3A3A3A3A3A3A3A3A3A3A3A3A3A3A32A
:10565000A3A3A3A3A3A3A3ADADADADADADADADF07D
:10566000FFFFF0F3F0F3F0F5FFFFFFF5F0F0F5F4D6
:10567000F5FFFFFFFFF5F4F0F0F3F0F0FFFFFFA3FD
:10568000A3A3A3A3A3A3A3A3A3A3A3A3A3A3A3A3EA
:10569000A3A3A3A3A3A3A3ADADADADADADADADF03D
:1056A000F3F0F0F3F0F3F0F5F0F0F5F5F0F0F5F4D9
:1056B000F5F5F4F4F5F5F4FFF0F3F0F0F3F0F0A302
:1056C000FFFFFFF0F0F3F0A3FFFFFFFFFFFFF0A3EA
:1056D000A3A3A3A3F4F4FFADADADADAD9AF3F0F089
:1056E000F3A3A3A3A3A3A3FFF0F0A3A3A3A3A3F4F3
:1056F000FFFFFFFFFFFFA3F0FFFFFFFFFFFF9AF396
:10570000F0F2F3F0F0F3FFF0F5F5F0F3F5F5F0F566
:10571000F4F4F5F5F4F4F5F0F0F3F0F3F0F3F0A3AE
:10572000A39A9A9AA3A3A3A3A3A39AA3A3A3A3A36D
:10573000A3A3A3A3A3A3A39A9A9A9A9A9A9A9AFF25
:10574000FFFFFFFFF0F3F0F0F5FFFFFFFFF5F0F5CF
:10575000F4F4F5F5FFFFF5F0F0F3F0F3FFFFF0A33D
:10576000A3A3A3A3A3A3A3A3A3A3A3A3A3A3A3A309
:10577000A3A3A3A3A3A3A39AA3A3A3A3A3A3A39A0B
:10578000A3A3A3A3A3A3A39AA3A3A3A3A3A3A39AFB
:105790009A9A9A9A9A9A9AF0F0F3E8E8E8F3F0A3C2
:1057A000A4A4A4A4A4A49AA3A4A4A4A4A4A49AA3CF
:1057B000A4A4A4A4A4A4A4A3A39A9A9A9A9A9AA3E8
:1057C000A3A3A3A3A3A3A3A3A3A3A3A3A3A3A39AB2
:1057D0009A9A9A9A9A9A9AF0F0E8F0F3F0F3F09A7B
:1057E0009A9AA4A4A4A4A49A9A9AA4A4A4A4A4A4AB
:1057F000A4A4A4A4A4A49A9A9A9A9A9A9A9A9AA3C4
:10580000A3A3A3A3A3A3A3A3A3A3A3A3A3A3A39A71
:105810009A9A9A9A9A9A9AF0F0F3F0F3F0F3F0A425
:10582000A4A4A4A4A4A4A49A9A9A9A9A9A9A9A9A92
:105830009A9A9A9A9A9A9A9A9A9A9A9A9A9A9AA3BF
:10584000A3A3A3A3A3A3A3A3A3A3A3A3A3A3A39A31
:105850009A9A9A9A9A9A9AF0F0F3F0F3F0F3F0A4E5
:10586000A4A4A4A4A4A4A49A9A9A9A9A9A9A9A9A52
:105870009A9A9A9A9A9A9A9A9A9A9A9A9A9A9AA37F
:10588000A3A3A3A3A3A3A3A3A3A3A3A3A3A3A39AF1
:10589000A3A3A3A3A3A3A39AA3A3A3A3A3A3A3A4E0
:1058A000A4A4A4A4A4A4A4A4A4A4A4A4A4A4A49AC2
:1058B000A4A4A4A4A4A4A49A9A9A9A9A9A9A9AA3F9
:1058C000A3A4A4A4A4A4A4A3A39AA4A49A9AA4A3BA
:1058D000A3A4A4A4A4A4A4A3A39AA4A49A9AA4A4A9
:1058E000A4A4A4A4A4A4A4A4A4A4A4A4A4A4A4A478
:1058F000A4A4A4A4A4A4A49A9A9A9A9A9A9A9AA4B8
:10590000A4A4A4A4A4A4A4A49A9AA4A49A9AA4A47F
:10591000A4A4A4A4A4A4A4A49A9AA4A49A9AA4A46F
:10592000A4A4A4A4A4A4A4A4A4A4A4A4A4A4A4A437
:10593000A4A4A4A4A4A4A49A9A9A9A9A9A9A9AA477
:10594000A4A4A4A49AA4A4A49A9AA4A49A9AA4A449
:10595000A4A4A4A49AA4A4A49A9AA4A49A9AA4A439
:10596000A4A4A4A4A3A3A3A4A4A4A4A4A3A3A3A4FD
:10597000A4A4A4A4A49AA39A9A9A9A9A9A9AA3A439
:10598000A4A4A4A4A4A49AA4A49A9AA4A49A9AA409
:10599000A4A4A4A4A4A4A4A4A49A9AA4A49A9AA3F0
:1059A000A3A34A4A4AA3A3A3A3A3A34AA3A3A3A32B
:1059B000A3A3A3A3A3A3A3A3A3A3A3A3A3A3A3A3B7
:1059C000A3A3A3A3A3A3A39AA3A3A3A3A3A3A3A4AF
:1059D0009A9A9AA3A3A3A3A49A9AA49A9A9A9AA3E6
:1059E000A0A04A4A4A4A4AA3A0A0A04A4A4AA0A361
:1059F000A0A0A0A0A0A0A0A3A0A0A0A0A0A0A0A3A1
:105A0000A39AA0A0A0A0A0A3A3A39A9A9A9A9AA3AB
:105A1000A3A39AA4A4A4A49A9A9AA4A49A9AA4A088
:105A2000A0A0A0A0A0A09AA0A0A0A0A0A09AA4A07E
:105A3000A0A0A0A0A09AA4A0A09A9A9A9A9A9AA08C
:105A4000A09AA4A4A4A4A49A9A9AA4A49A9AA4A456
:105A5000A4A4A4A4A4A4A4A49A9AA4A49A9AA4A42E
:105A6000A4A4A4A4A4A4A4A4A4A4A4A4A4A4A4A4F6
:105A7000A4A4A4A4A4A4A49A9A9A9A9A9A9A9AA436
:105A8000A4A49AA4A4A4A4A49A9A9AA49A9AA4A412
:105A9000A4A49AA4A4A4A4A49A9A9AA49A9AA4A402
:105AA000A4A4A4A4A49A9AA4A4A4A4A4A4A4A4A4CA
:105AB000A4A4A4A4A4A4A49A9A9A9A9A9A9A9AA4F6
:105AC000A4A4A4A4A4A4A4A49A9AA4A49A9AA4A4BE
:105AD000A4A4A4A4A4A4A4A49A9AA4A49A9AA49AB8
