:100000000C9430310C949B310C949B310C949B31AB
:100010000C949B310C949B310C949B310C949B3130
:100020000C949B310C949B310C949B310C949B3120
:100030000C949B310C9471330C94B1330C949B3120
:100040000C949B310C949B310C949B310C949B3100
:100050000C949B310C949B310C949B310C949B31F0
:100060000C949B310C949B310C949B310C949B31E0
:10007000624E674E6A4E6D4E704E734E764E794E9E
:100080007C4E8100450027FF24FF2A902B1C210C69
:1000900022FB850084008903888D81096F02444218
:1000A00047004501B083B300B10125118A4F8B038E
:1000B0005A5501200101003808000000000000002E
:1000C0000000000000000000000000000000000030
:1000D000BB36BE3619371D372537C636CB36D03638
:1000E0002D37D336D636D936163700408891D2E42C
:1000F000ADB5B6BEBFFF20204C6576656C204F6E57
:10010000650020204C6576656C2054776F004C6547
:1001100076656C20546872656500204C6576656C68
:1001200020466F757200204C6576656C20466976B6
:10013000650020204C6576656C20536978004C651D
:1001400076656C20536576656E004C6576656C202F
:10015000456967687400204C6576656C204E696E51
:10016000650020204C6576656C2054656E005061FA
:1001700075736564004261696C202D205800546FCE
:1001800074616C3A0053636F72653A00202020203E
:100190002020202020202020202000596F7520734F
:1001A00075636B2062726F2020004C4F4C20202022
:1001B00020202020202020200042726F6B656E20BE
:1001C000627574746F6E3F00547279206174206C94
:1001D00065617374202000546F6F2065617379200E
:1001E0002020202020002A5941574E2A202020205C
:1001F000202020200041207475726B65792073687F
:100200006F6F74005468617427732069743F2020F5
:100210002020004E6565642068656C703F202020BA
:1002200020005254464D2120202020202020202034
:100230000042790050776E730045646974202D2068
:1002400055502F444F574E0043616E63656C202D0F
:10025000205800436F6E6669726D202D2041005357
:10026000656C656374202D204100503200503100D0
:100270007C005F5F5F5F5F5F5F5F5F5F5F00456444
:1002800069742048616E646C650054616E6B205225
:10029000616E6B00506C6179657220767320506CD2
:1002A0006179657200506C617965722076732043C4
:1002B00050550032303134202D204C617772656EFC
:1002C00063652042726F6F6B7300020202020202CA
:1002D00002020202020202020202020202020202FE
:1002E00002020202020202020202020202030000F1
:1002F00000000000000000000000000000000000FE
:1003000004020202020202020202030000000000D4
:1003100000000000000000000000000000000004D9
:1003200002020202020202030000000000000000BC
:1003300000000000000000000000000000000402B7
:1003400002020202030000000000000000000000A2
:100350000000000000000000000000000004020295
:100360000203000000000000000000000000000088
:100370000000000000000000000000000402020075
:10038000000000000101000000000000000000006B
:100390000000000001010000000000020200000057
:1003A000000001010000000000000000000000004B
:1003B0000000010100000000000202000000000037
:1003C000010100000000000000000000000000002B
:1003D0000101000000000002020000000000010115
:1003E0000000000000000800000000000000010103
:1003F00000000000000202000000000001010000F7
:1004000000000000000000000000000001010000EA
:1004100000000002020000000000010100000000D6
:1004200000000000000000000000010100000000CA
:10043000000202000058000001010000000000005E
:100440000000000000000000010100630000000245
:100450000200000000000101000000000000000098
:100460000000000000000101000000000002020086
:10047000000000000101000000000000000000007A
:100480000000000001010000000000020200000066
:100490000000010100000000000000070000000053
:1004A0000000010100000000000202000000000046
:1004B000010100000000000000000000000000003A
:1004C0000101000000000002020000000000010124
:1004D000000000000000000000000000000001011A
:1004E0000000000000020200000000000101000006
:1004F00000000009000000000000000001010000F1
:1005000000000002020500000000000000000000E2
:1005100000000000000000000000000000000000DB
:1005200006020202050000000000000000000000BA
:1005300000000000000000000000000000060202B1
:1005400002020205000000000000000000000000A0
:10055000000000000000000000000602020202028B
:100560000202050000000000000000000000000082
:100570000000000000000006020202020202020265
:100580000205000000000000000000000000000064
:10059000000000000602020202020202020202023F
:1005A000020202020202020202020202020202022B
:1005B000020202020202020200000000000000002B
:1005C000000000000000000000000000000000002B
:1005D000000000000000000000000000000000001B
:1005E000000000000000000000000000000000000B
:1005F00000000000000000000000000000000000FB
:1006000000000000000000000000000000000000EA
:1006100000000000000000000000000000000000DA
:1006200000000000000000000000000000000000CA
:1006300000000000000000000000000000000000BA
:1006400000000000000000000000000000000000AA
:10065000000000000000000000000000000000009A
:10066000000000000000000000000000000000008A
:10067000000000000000000000000000000000007A
:10068000000000000000000000000000000000006A
:10069000000000000000000000000000000000005A
:1006A000000000000000000000000000000000004A
:1006B000000000000000000000000000000000003A
:1006C000000000000000000000000000000000002A
:1006D000000000000000000000000000000000001A
:1006E000000000000000000000000000000000000A
:1006F00000000000000000000000000000000000FA
:1007000000000000000000000000000000000000E9
:1007100000000000000000000000000000000000D9
:100720000000005800000000000000000000000071
:100730000000000000000000006300000000000056
:1007400000000000000000000000000000000000A9
:100750000000000000000000000000000000000099
:100760000000000000000000000000000000000089
:100770000000000000000000000000000000000079
:100A1000005800000000000000000000000000007E
:100A20000000000000000063000000000000000063
:100A300000000000000000000000000000000000B6
:100A400000000000000000000000000000000000A6
:100A50000000000000000000000000000000000096
:100A60000000000000000000000000000000000086
:100CF000000000000000000000000000000000589C
:100D000000000000000000000000000000000000E3
:100D10000000000000630000000000000000000070
:100D200000000000000000000000000000000000C3
:100D300000000000000000000000000000000000B3
:100D400000000000000000000000000000000000A3
:100D50000000000000000000000000000000000093
:100FE00000000000000000000000000000580000A9
:100FF00000000000000000000000000000000000F1
:10100000000000630000000000000000000000007D
:1010100000000000000000000000000000000000D0
:1010200000000000000000000000000000000000C0
:1010300000000000000000000000000000000000B0
:1010400000000000000000000000000000000000A0
:1012D00000000000000000000000005800000000B6
:1012E00000000000000000000000000000000000FE
:1012F000006300000000000000000000000000008B
:1013000000000000000000000000000000000000DD
:1013100000000000000000000000000000000000CD
:1013200000000000000000000000000000000000BD
:1013300000000000000000000000000000000000AD
:1015C00000000000000000000058000000000000C3
:1015D00000000000000000000000000000000063A8
:1015E00000000000000000000000000000000000FB
:1015F00000000000000000000000000000000000EB
:1016000000000000000000000000000000000000DA
:1016100000000000000000000000000000000000CA
:1018B00000000000000000580000000000000000D0
:1018C00000000000000000000000000000630000B5
:1018D0000000000000000000000000000000000008
:1018E00000000000000000000000000000000000F8
:1018F00000000000000000000000000000000000E8
:1019000000000000000000000000000000000000D7
:101BA00000000000005800000000000000000000DD
:101BB00000000000000000000000006300000000C2
:101BC0000000000000000000000000000000000015
:101BD0000000000000000000000000000000000005
:101BE00000000000000000000000000000000000F5
:101BF00000000000000000000000000000000000E5
:101E900000000058000000000000000000000000EA
:101EA00000000000000000000063000000000000CF
:101EB0000000000000000000000000000000000022
:101EC0000000000000000000000000000000000012
:101ED0000000000000000000000000000000000002
:101EE00000000000000000000000000000000000F2
:101EF00000000000000000000000000000000000E2
:101F000000000000000000000000000000000000D1
:101F100000000000000000000000000000000000C1
:101F200000000000000000000000000000000000B1
:101F300000000000000000000000000000000000A1
:101F40000000000000000000000000000000000091
:101F50000000000000000000000000000000000081
:101F60000000000000000000000000000000000071
:101F70000000000000000000000000000000000061
:101F80000000000000000000000000000000000051
:101F90000000000000000000000000000000000041
:101FA0000000000000000000000000000000000031
:101FB0000000000000000000000000000000000021
:101FC0000000000000000000000000000000000011
:101FD0000000000000000000000000000000000001
:101FE00000000000000000000000000000000000F1
:101FF00000000000000000000000000000000000E1
:1020000000000000000000000000000000000000D0
:10201000000000000000021F2000006A116A11FF8A
:102020000000FFFFFFFF00FF00FFFFFFFFFFFF00BB
:1020300000000000FF00000000FF00FF00FFFFFFA6
:10204000000000000000FF000000000000FF00FF93
:10205000FFFFFFFFFFFFFF00FFFFFF00FF0000008B
:1020600000000000000000000000000000FFFFFF73
:10207000FFFFFFFFFFFFFFFFFFFFFF00FFFF00006D
:1020800000000000FFFF0000FFFFFFFF00FFFFFF59
:10209000FF00FFFFFFFF00000103FFFEFDFCFEFF4E
:1020A000FE02010001000100FEFEFFFFFF01000132
:1020B0000300FEFDFCFEFEFEFF00FFFF0103050521
:1020C000030200FEFCFAFCFCFCFCFE01020102041F
:1020D000030100000100FDFCFFFFFDFEFF0001FF0A
:1020E000FF0101FFFF00000100000101FFFFFEFDF5
:1020F000FEFFFCFEFF00000101020300000101FEE3
:10210000FFFDFDFFFDFE0100FF00000101020203D3
:10211000010100FEFDFCFCFAFAFDFEFF00020404D2
:1021200003030302FFFDFDFDFBFAFD00FFFE0103BB
:102130000402000202FFFDFEFFFEFEFEFF010000A2
:102140000101000000FF00FFFFFFFFFEFF00FF0096
:1021500000FFFF00000000FF0000FFFF0000FFFF86
:1021600000000000FF0001FFFEFFFF00FFFFFF0077
:10217000FFFF00000000000100FFFFFFFFFFFEFF68
:1021800000FF0001010000000000FFFFFFFEFEFE57
:10219000FFFFFF00010001000000FFFFFFFFFFFF46
:1021A000FFFFFFFFFFFF0000000001010000000132
:1021B00000FFFFFFFFFEFEFEFFFFFF00010000002B
:1021C0000000FFFFFFFFFEFEFFFFFEFF000000011B
:1021D000010101000000FFFEFFFFFFFFFF00FFFF06
:1021E000FF00FFFFFF000000FF00000000010201F0
:1021F0000101020100FEFEFFFEFCFCFDFEFEFEFFF3
:102200000000FF0000FFFDFDFEFEFEFDFEFEFEFEE7
:10221000FFFFFF000001020405060605040302019A
:102220000100FFFFFFFFFFFF0000FFFEFEFEFDFCC1
:10223000FCFDFDFCFDFDFDFEFEFDFEFEFEFEFEFDC9
:10224000FDFDFDFEFF00010203040403020405047A
:10225000030303040404040404050401000102FF51
:10226000FDFCFDFBF7F7F8F7F6F8FBFCFCFDFEFFC5
:10227000FEFDFEFEFEFEFEFFFFFEFE00010101026E
:102280000303020102030304060503060C0F0A08F8
:102290000E110A00FEFFFAEFEAEFF0EEEFF6FDFF97
:1022A0000002070803FFFEFDF9F6F6F8F8F7FA005A
:1022B00001000104050401010200FF000001040502
:1022C00004070A0B0D131716100B0802F7EEEAE8C5
:1022D000E6E6EBF4FC01060B100F07FFFCFAF2EC4C
:1022E000EEF3F5F6FC01030204060501FEFEFDFB1C
:1022F000F8FAFDFEFF0307090A0A0A0D0F0D06078B
:10230000151A0F05080C03F1E8EEEDE4E4EEF8FB16
:1023100000070D0C040100FBF5F2F6F9F7F6FD03DA
:10232000FEFAFE0200FBFBFE00FCFA0003020307BC
:1023300009080608080505080908050915181009FF
:102340000D0CFEEEE9ECE8E0E3EFF7FB040C0F0BFD
:10235000070501F9F4F3F2F2F3F4F7FAFAFC0103DA
:102360000103070502010000FEFDFF030404080C41
:102370000B07070A0906080A090C100F0E0B0500C7
:10238000F9EFEAE8E5E4E9F0F70106090A0B0801CC
:10239000FAF9F8F3F1F3F3F2F5F9FCFE00050A0996
:1023A00006070702FEFCFDFF0002060C0D0C0A0DDD
:1023B0000F07FE010504FF010A0F0C080B0A01F6C6
:1023C000F1EEE8E2E2EAF2F7FF060B0C090602FB87
:1023D000F4F1F0EEEFF2F7FB0003070B0B0908072F
:1023E00004FFFCFCFDFD01080B0C0E100E09050599
:1023F00002FAF5F7FE0201030E181510100C02F593
:10240000EBE5E2DEDFE7F0F701080B0C0A05FFF869
:10241000F3F1F1F2F4F7FC020303070A09070808D5
:102420000603010202FF0003050505070A0904036C
:102430000401FAF8F9FC0107080C14191309030246
:10244000FCEDE1E2E5E2E1EAF5FBFE01060A060247
:10245000020300FBFBFDFCF7F7FDFFFE01070C0D7F
:102460000B08090902FCFD00FFFE01070B0B080821
:102470000905FEF9F7F7F6F6FC040A090C12171223
:1024800007FEFDF9ECE2E1E4E4E3E9F4FE02060E06
:10249000120F0A0805FFF8F5F5F3F2F7FE0104093B
:1024A0000E100E0C0A0904FFFE00FFFE00030302DB
:1024B000040503FEFDFFFFFAF6FAFEFCFAFC000439
:1024C0000506080A0B0B0803FDF9F5F0EBEAECEF43
:1024D000F0F3F8FE020406090B09070605030000E5
:1024E0000100000103030201020200FEFFFFFEFEE5
:1024F000FF01020000010202020203030200FFFBCF
:10250000FAFAF9F8FAFDFF0101020300FEFFFFFEEF
:10251000FCFBFD0001000205050302020201FFFFB2
:102520000101FFFEFEFFFEFCFCFEFEFDFDFFFFFFC6
:10253000FDFEFF00FEFE0002000102040200FF019A
:10254000FFFCFCFF00FFFE00000000000102010292
:1025500002010101FFFFFEFCFCFDFCFDFEFF00018E
:10256000010203030203030303030303010100FF4A
:10257000FDFBF9F8F7F7F7F8F8FAFE000003050598
:102580000505040200FF00FFFDFDFEFF0000010342
:102590000301010100FFFDFEFFFFFFFF010201003B
:1025A000000000FEFDFEFEFEFFFF0002020202022E
:1025B0000100FEFEFDFBFAFBFCFCFCFDFF0101013E
:1025C0000203030201020201FF00010100000101F8
:1025D00000FF0000FEFDFDFDFEFEFDFE000000010F
:1025E000020201000000FFFEFEFEFDFFFFFF0002F1
:1025F0000100FFFFFFFEFDFDFEFEFEFE00010202E8
:10260000020201000000FFFF0101010102020201BC
:10261000010000FEFFFFFEFDFDFDFDFCFDFEFFFED7
:10262000FF0001FF00FF00FFFEFEFF00FF000101B1
:1026300000FFFFFFFEFDFF0000000001020100019E
:1026400002010000010000000000FFFEFFFEFEFF8F
:102650000001020303030100FFFEFDFCFCFCFDFD85
:10266000FDFEFDFDFEFFFEFEFF000000000101007B
:102670000002020000000100FFFFFFFEFDFEFFFF61
:10268000FF000203030203030200FFFFFFFEFDFE43
:10269000FEFFFF0000010100000000FFFFFFFFFE42
:1026A000FDFEFFFEFE00FFFFFFFFFFFFFEFF00FF3E
:1026B0000000000000000101010101000000FF0016
:1026C00000FFFF000000000000FFFFFEFFFEFEFE17
:1026D000FEFFFFFF00010000FFFFFFFFFFFF000004
:1026E000FF00010000FFFFFFFEFEFFFEFEFFFFFFF9
:1026F00000000001010102030202010000FFFEFED2
:10270000FEFEFEFF000000FFFFFFFEFEFEFFFEFFDD
:10271000FF00010000010000FFFFFFFEFEFEFFFFC3
:10272000FF0000FFFF0000FFFF00000000010100AC
:10273000000001010000000100FF000000FFFF0099
:1027400000FFFF00FFFEFEFEFEFDFDFDFEFEFFFFA3
:10275000FF0000FFFFFF0000FF000001000101017A
:1027600000000000FFFEFFFFFF000000010101006C
:1027700000FF00FFFFFE000000000001010000005C
:1027800000FFFFFFFFFFFEFEFEFEFEFDFEFEFEFD64
:10279000FEFEFEFEFEFFFF0000010101010102023C
:1027A000010101010100000000FFFEFFFFFEFEFE2F
:1027B000FFFFFFFF00000101010101010000000017
:1027C000FFFFFEFEFDFEFDFDFEFFFFFFFF00000020
:1027D00000000000FFFFFF00FFFF000000000101FC
:1027E000010100000000FFFFFFFFFFFFFFFFFFFFF1
:1027F000FFFFFFFFFFFFFFFFFF00FFFFFF000000E5
:102800000000000000000000FFFFFEFEFEFEFEFFD5
:10281000FF000000010101010000000000000000B5
:10282000FFFF0000FFFFFF00FFFFFFFFFFFFFFFFB5
:10283000FFFFFFFFFFFFFFFF00FFFFFF0000FFFFA5
:102840000000FFFFFF0000FFFF000100000000008C
:1028500000FF000000FFFF0000FFFF000000FF007E
:10286000000000FFFFFFFFFEFEFFFFFFFF00000074
:10287000000000FFFFFFFFFFFFFFFFFFFFFFFFFF65
:10288000FF00000000000000000000000000010147
:102890000101010100FFFFFFFEFDFEFEFFFEFF0044
:1028A000000000000000FFFFFFFFFFFFFF0000FF30
:1028B000000000FFFFFFFFFEFEFFFFFFFF00000024
:1028C0000101010101000000FFFEFEFFFFFFFF000C
:1028D000000000000000FFFFFFFFFFFFFFFF000000
:1028E000000000010000FFFFFFFFFFFFFF000000EE
:1028F000000000FF0000FFFFFFFFFFFFFF000000E0
:1029000000000000FFFF0000000000000000FFFFCB
:1029100000FFFFFFFF0000FEFFFFFEFEFCFEFF00CA
:10292000000102010003030301000000FFFFFFFF9D
:10293000000000FEFCFCFCFCFDFF0002030404049C
:1029400002020000FEFDFDFDFEFDFDFEFFFFFF009B
:10295000010000000001000000FFFFFF00FF00FF7A
:1029600000FFFEFFFFFF00FF00000001000100006C
:1029700000FFFFFFFEFFFFFEFFFFFF00010203035A
:102980000100FFFEFDFCFCFCFDFEFF000202010257
:1029900002000000FFFEFEFEFEFF0000000201023A
:1029A0000300FF02FFFDFDFDFCFDFDFD0001000237
:1029B00003020202FFFF00FEFDFFFFFEFFFFFF001C
:1029C00000FF0000FFFF00FF0000FFFF0100FF000D
:1029D00001000000FF0000FFFF0000FFFFFF0000FC
:1029E0000000010100FFFFFFFEFEFDFEFFFEFF00F5
:1029F000000000000000FFFF0000FFFF00010101D8
:102A00000000FFFFFFFF00000000000000000000CA
:102A1000000000FFFFFFFFFFFFFFFFFFFF00FFFFC2
:102A2000FFFFFFFFFEFEFEFEFFFFFFFF00000000B6
:102A30000000FFFF0000000000000100000100FF97
:102A4000000000000101010202020403030301FF70
:102A5000FEFCFAFAFAF9FBFCFDFEFF0001010000A2
:102A60000000FFFEFEFDFDFCFCFDFDFEFF00000181
:102A70000202010202020100010101000001010144
:102A8000000001020202030504030302020504021E
:102A90000000FFFCF9F5F6F5F3F4F8F9FAFD000192
:102AA0000303030402FFFFFEFCFBFBFCFDFDFE0134
:102AB00003030304040303020203020103020102ED
:102AC00003020100FFFFFEFEFF02040304040507EA
:102AD0000704020200FDF9F5F4F3F2F0F2F6F7FA5A
:102AE000FE010406070707040100FEFBF9FAFBFBE1
:102AF000FCFE0101020404050403020202000000BE
:102B0000010102020202020200FFFFFEFEFEFCFEC5
:102B1000000102030406070707040200FEFAF7F5A6
:102B2000F3F3F2F3F5F9FAFD0103050606050503D3
:102B300000FEFDFBFBFCFCFEFF000203030404039C
:102B40000203010000FFFFFFFF000101010101017D
:102B500000FF00FFFEFEFEFEFFFFFF00020302017A
:102B600002020100FF0000FEFEFFFEFCFDFEFDFC78
:102B7000FCFDFDFCFEFEFFFFFF0000FFFEFFFFFE71
:102B8000FEFEFEFFFFFF0001020303030303020238
:102B90000100FFFFFEFDFDFEFEFEFF000101010141
:102BA000010100FFFFFFFDFDFEFFFF000101020329
:102BB0000404040405040302020100FEFEFCFBFA07
:102BC000F9F8F9F8F8F8F9FAFBFCFDFF0001030445
:102BD00004040404030202010100FFFFFFFEFEFEE5
:102BE000FF00FFFF000100000000010100010101E2
:102BF00001010000FFFFFEFEFEFEFEFF00010204D9
:102C00000404050504030200FFFEFCFBFBFAF9FACD
:102C1000FAFAFAFBFCFCFCFDFEFEFEFF00000001E0
:102C2000020201020302010203020101010100008C
:102C300000000000000000FFFF0000000000000096
:102C400000000000FFFFFFFFFFFFFFFF000001018A
:102C500002020202020101000000FFFFFEFDFDFD75
:102C6000FCFCFCFCFBFBFBFBFBFCFCFCFDFEFEFFA1
:102C7000000102030304040404030302020101002F
:102C800000FFFFFFFFFFFFFFFFFFFFFFFFFF000051
:102C9000FF000000000000FFFFFFFFFFFFFF00013B
:102CA0000102030404040403020100FFFEFDFCFB17
:102CB000FAFAFAFAFAFAFAFBFBFCFCFDFEFEFF0058
:102CC00001010202030302020202010101000000ED
:102CD00000000000000101000101000000000000F0
:102CE0000000FFFFFFFFFFFFFFFFFF0000000000ED
:102CF0000101010102010101010000FFFFFEFDFDD4
:102D0000FDFCFCFCFCFCFCFCFCFCFCFCFDFDFEFEFC
:102D1000FFFF00000001020202020303020303029C
:102D20000202010101000000FFFFFFFFFF000000A1
:102D300000000000000000FFFFFFFFFFFEFEFEFF9F
:102D4000FFFFFFFF0000010102020202020100007A
:102D5000FFFEFEFDFDFCFCFCFCFCFDFDFDFEFEFEA1
:102D6000FEFEFEFFFFFF0000000101010101020164
:102D7000010101010000000000000000010101014B
:102D8000010000000000FFFFFFFFFFFFFFFFFFFF4C
:102D900000FF0000FFFFFFFFFFFFFF00000000013A
:102DA00001010100000000FFFFFEFEFEFDFDFDFD34
:102DB000FDFCFDFDFDFDFDFEFEFEFFFF000001022E
:102DC00002020203030202020202010101010101E7
:102DD00000000000FFFFFFFFFFFEFEFEFEFEFFFF04
:102DE000FFFFFFFFFFFFFFFFFFFFFFFFFFFFFFFFF3
:102DF000FF000001020202020202010000FFFEFDCC
:102E0000FDFDFDFDFDFDFDFEFEFEFEFFFFFFFFFFE4
:102E1000FFFFFF00000001010202020202020201A4
:102E20000101010000FFFFFFFEFEFEFEFEFEFEFFB1
:102E3000FFFF000000000000000000000000000094
:102E400000FFFFFFFFFF0000000101010101010180
:102E500001010000FFFFFEFEFDFDFDFCFCFCFCFC93
:102E6000FCFCFDFDFEFEFF00000102020202020268
:102E7000020202010101000000FFFFFFFFFFFEFE52
:102E8000FEFFFFFFFFFF0000000000000000000049
:102E90000000000000FFFFFFFFFFFFFFFF00000139
:102EA0000101010101010000FFFFFEFEFDFDFDFD2E
:102EB000FDFDFDFDFDFDFEFEFEFEFFFF000001012C
:102EC0000202020202020101010000FFFFFFFEFEFA
:102ED000FEFEFEFEFFFFFFFFFF00000000000001FE
:102EE00001010101010101000000FFFFFFFFFFFEE2
:102EF000FEFFFFFF000000010101020101010000CF
:102F0000FFFEFEFDFDFCFCFCFCFDFDFDFEFEFEFFEC
:102F1000FF000000000001010000000000000000B0
:102F2000000000000000000000000000010101019D
:102F30000101000000000000000000FFFFFFFFFF94
:102F4000FFFFFFFFFFFFFFFFFFFFFFFFFF0000008E
:102F50000000000000000000FFFFFFFFFFFEFEFE7C
:102F6000FEFEFEFEFEFEFEFEFFFFFF000000000173
:102F70000101010101010101010100000000000047
:102F8000000000000000000000000000FFFFFFFF45
:102F9000FFFFFFFFFFFFFFFFFFFFFFFF000000003D
:102FA0000000000000FFFFFFFFFFFFFFFFFFFFFF2C
:102FB000FFFFFFFFFFFFFFFFFFFFFF0000FFFFFF1F
:102FC000FFFFFFFFFF000000000000000000000006
:102FD00000000000000000000000000000000000F1
:102FE0000000000000FFFFFFFFFFFFFFFFFFFFFFEC
:102FF000FFFFFFFFFFFFFFFFFF000000FFFFFFFFDE
:10300000FFFFFFFFFFFFFFFFFFFFFFFFFFFFFF00CF
:1030100000000000000000000000000000000000B0
:10302000000000FFFFFFFFFFFFFFFFFFFFFFFFFFAD
:10303000FF0000000000FFFFFFFFFFFFFFFFFFFF9B
:10304000FFFF000000000000FFFFFFFFFFFFFFFF8A
:10305000FFFFFF00000000000000FF00FFFFFFFF78
:10306000FFFF000000000000000000000000000062
:103070000000000000FFFFFFFFFFFFFFFFFFFFFF5B
:10308000FFFFFFFFFF000000000000000000000045
:1030900000000000FFFFFFFFFFFFFFFFFFFFFFFF3C
:1030A000000000000000000000FFFFFFFFFFFFFF27
:1030B000FFFFFF0000000000000000000000000013
:1030C000000000000000FFFFFFFFFFFFFFFFFFFF0A
:1030D000FFFFFFFFFFFFFF000000000000000000F7
:1030E0000000000000FFFFFFFFFFFFFFFFFFFFFFEB
:1030F000FFFFFFFF00FFFF000000000000000000D6
:1031000000000000000000000000000000FFFFFFC2
:10311000000000FF0000FFFFFFFFFFFFFFFFFFFFBA
:10312000FFFFFFFFFFFFFFFF00000000000100FFA7
:10313000FFFFFFFFFFFFFFFFFF000000000000FF99
:10314000FFFFFFFF00FFFF000000000000FF000086
:103150000000FFFFFF00FFFFFF0000000000000075
:1031600000FFFFFFFFFFFFFFFFFFFFFFFF0000FF6C
:1031700000000000000000000000FFFFFF00FFFF54
:10318000FFFFFFFFFFFFFFFFFF00010126010125F9
:1031900001012401012301012202020C0D0D0C0288
:1031A000020A0B1819020208091617020220212E22
:1031B0002F02021E1F2C2D02021C1D2A2B02021A96
:1031C0001B28290202060714150202040512130225
:1031D0000202031011020200010E0F010127020278
:1031E0002727272701010C01010B01010A01010911
:1031F00001010801010701010601010401010301A8
:1032000001020101050101010101000F0401010199
:1032100001010101010101010101010101000000A1
:10322000000000000000000000000101000000009C
:103230000000000000000000000101010101010187
:1032400001010101010101010115040D0E0F101111
:103250001213141516001700000010110F16001895
:103260000019001A001B1C1D1E1F20000000002159
:1032700022001A001B0019002311241A001B252606
:10328000000000002728001A001B0029002A002B3C
:103290002A002B2A00170000002A00002C2D2EFEE9
:1032A000FEFEFEFEFE2B2BFEFEFEFEFEFEFE2BFEB7
:1032B000FEFEFEFEFEFE2B2B2B2BFEFEFEFE2B1239
:1032C0001212FEFE20202B2B2B2B202020202B1235
:1032D0001212202020202B2B2B2B20202029292BC1
:1032E0002BFEFEFEFEFEFE2BFEFEFEFEFEFEFE2B77
:1032F000FEFEFEFEFEFEFE2BFEFEFEFE2B2B2B2B0D
:103300002020FEFE1212122B202020202B2B2B2BF4
:103310002020202012121229292020202B2B2BFEC6
:10332000FEFEFEFEFE2B2BFEFEFEFEFEFEFE2BFE36
:10333000FEFEFEFEFEFE2B121212FEFEFEFE2B2BEA
:103340002B2BFEFE20202B121212202020202B2BB4
:103350002B2B202020202B12121220202029292B59
:103360002BFEFEFEFEFEFE2BFEFEFEFEFEFEFE2BF6
:10337000FEFEFEFEFEFEFE2BFEFEFEFE1212122BD7
:103380002020FEFE2B2B2B2B202020201212122B74
:10339000202020202B2B2B29292020201212122B19
:1033A000122B122B122B122B122B122B122B122B35
:1033B000122B122B122B12FEFE202020202020FE8A
:1033C000FE202020202020FEFEFE2020202020FEA7
:1033D000FEFEFE20202929FEFEFEFE2020292B2BAA
:1033E000122B122BFEFEFE2B122B122BFEFEFE2B9F
:1033F000122B122BFEFEFE202020FEFEFEFEFE20E3
:103400002020FEFEFEFEFE20202020FEFEFEFE29E5
:10341000202020FEFEFE2B292B2B2B2B2B2B2B12BF
:103420002B122B122B122B122B122B122B122B12B4
:103430002B122B122B122BFEFE202020202020FEF0
:10344000FE202020202020FEFEFE2020202020FE26
:10345000FEFEFE20202929FEFEFEFE2020292B1242
:103460002B122B12FEFEFE122B122B12FEFEFE1250
:103470002B122B12FEFEFE202020FEFEFEFEFE2062
:103480002020FEFEFEFEFE20202020FEFEFEFE2965
:10349000202020FEFEFE2B292B2B2B2B2B2B2BFE53
:1034A000FEFEFEFEFEFEFEFEFEFEFEFEFEFEFEFE3C
:1034B000FEFFFFFEFE3F3FFEFEFFFFFEFE3F3FFE24
:1034C000FEFEFEFFFF3F3FFEFEFEFEFFFF3F3FFE14
:1034D000FEFEFE3F3F3F3FFEFEFEFE3F3F3F3FFE04
:1034E000FEFEFEFEFEFEFEFEFEFEFEFEFEFEFEFEFC
:1034F000FEFEFEFFFFFEFEFEFEFEFEFFFFFEFEFEE8
:10350000FEFFFFFEFEFEFEFEFEFFFFFEFEFEFE3F96
:103510003F3F3F3F3FFEFE3F3F3F3F3F3FFEFE3FBF
:103520003F3F3FFEFEFEFE3F3F3F3FFEFEFEFE3FB3
:103530003FFFFF1F1F3F3F3F3FFFFF1F1F3F3FFE5C
:10354000FE1F1FFFFF3F3FFEFE1F1FFFFF3F3FFE0F
:10355000FEFEFE3F3F3F3FFEFEFEFE3F3F3F3FFE83
:10356000FEFEFE3F3F3F3FFEFEFEFE3F3F3F3FFE73
:10357000FE1F1FFFFF3F3FFEFE1F1FFFFF3F3FFEDF
:10358000FEFFFF3F3FFEFEFEFEFFFF3F3FFEFE3F12
:103590003F3F3F3F3FFEFE3F3F3F3F3F3FFEFEFE80
:1035A000FEFEFEFEFEFEFEFEFEFEFEFEFEFEFEFE3B
:1035B000FEFFFFFEFEFEFEFEFEFFFFFEFEFEFEFE27
:1035C000FEFEFEFFFFFEFEFEFEFEFEFFFFFEFEFE17
:1035D000FEFEFEFEFEFEFEFEFEFEFEFEFEFEFEFE0B
:1035E000FEFEFEFEFEFEFEFEFEFEFEFEFEFEFEFEFB
:1035F000FEFEFEFFFFFEFEFEFEFEFEFFFFFEFEFEE7
:10360000FEFFFFFEFEFEFEFEFEFFFFFEFEFEFEFED6
:10361000FEFEFEFEFEFEFEFEFEFEFEFEFEFEFE12B6
:103620001212202020292B2B2B2B2020202929127D
:10363000121220202020202B2B2B20202020201293
:103640001212202020FEFE2B2B2B2020FEFEFE122D
:103650001212FEFEFEFEFE2B2B2BFEFEFEFEFE2BAE
:103660002920202012121229292020202B2B2B2048
:103670002020202012121220202020202B2B2BFE75
:10368000FE202020121212FEFEFE20202B2B2BFEED
:10369000FEFEFEFE121212FEFEFEFEFE2B2B2B2B5A
:1036A0002B2B202020292B12121220202029292BFD
:1036B0002B2B202020202012121220202020202B13
:1036C0002B2B202020FEFE1212122020FEFEFE2BAD
:1036D0002B2BFEFEFEFEFE121212FEFEFEFEFE2B47
:1036E000292020202B2B2B292920202012121220C8
:1036F000202020202B2B2B2020202020121212FEF5
:10370000FE2020202B2B2BFEFEFE2020121212FE6C
:10371000FEFEFEFE2B2B2BFEFEFEFEFE121212FE06
:10372000FEFEFE2020292BFEFEFEFE20202929FE83
:10373000FEFE2020202020FEFE202020202020FE33
:10374000FE2020202020202B122B122B122B122B9C
:10375000122B122B122B122B122B122B122B122983
:103760002B2B2B2B2B2B2B29202020FEFEFE2B205E
:10377000202020FEFEFEFE202020FEFEFEFEFE207B
:103780002020FEFEFEFEFE2B122B122BFEFEFE2B39
:10379000122B122BFEFEFE2B122B122BFEFEFEFE18
:1037A000FEFEFE2020292BFEFEFEFE20202929FE03
:1037B000FEFE2020202020FEFE202020202020FEB3
:1037C000FE202020202020122B122B122B122B1235
:1037D0002B122B122B122B122B122B122B122B29EA
:1037E0002B2B2B2B2B2B2B29202020FEFEFE2B20DE
:1037F000202020FEFEFEFE202020FEFEFEFEFE20FB
:103800002020FEFEFEFEFE122B122B12FEFEFE12EA
:103810002B122B12FEFEFE122B122B12FEFEFEFEB0
:10382000FE3F3F3F3F3F3FFEFE3F3F3F3F3F3FFEAC
:10383000FEFEFEFFFFFEFEFEFEFEFEFFFFFEFEFEA4
:10384000FEFFFFFEFEFEFEFEFEFFFFFEFEFEFEFE94
:10385000FEFEFEFEFEFEFEFEFEFEFEFEFEFEFE3F47
:103860003F3F3FFEFEFEFE3F3F3F3FFEFEFEFE3F70
:103870003FFFFFFEFEFEFE3F3FFFFFFEFEFEFE3F60
:103880003FFEFEFFFFFEFE3F3FFEFEFFFFFEFEFE91
:10389000FEFEFEFEFEFEFEFEFEFEFEFEFEFEFEFE48
:1038A000FE3F3F3F3F3F3FFEFE3F3F3F3F3F3FFE2C
:1038B000FE1F1FFFFFFEFEFEFE1F1FFFFFFEFE3F5F
:1038C0003FFFFF1F1FFEFE3F3FFFFF1F1FFEFE3F8C
:1038D0003F3F3FFEFEFEFE3F3F3F3FFEFEFEFE3F00
:1038E0003F3F3FFEFEFEFE3F3F3F3FFEFEFEFE3FF0
:1038F0003FFFFF1F1FFEFE3F3FFFFF1F1FFEFE3F5C
:103900003F1F1FFFFF3F3F3F3F1F1FFFFF3F3FFE88
:10391000FEFEFE3F3F3F3FFEFEFEFE3F3F3F3FFEBF
:10392000FEFEFEFEFEF5F5FEFEFEFEFEFEFEF5FED2
:10393000FEFEFEFEFEFEF5F5F5F5FEFEFEFEF59042
:103940009090FEFEE1E1F5F5F5F5E1E1E1E1F590BC
:103950009090E1E1E1E1F5F5F5F5E1E1E1F0F0F577
:10396000F5FEFEFEFEFEFEF5FEFEFEFEFEFEFEF592
:10397000FEFEFEFEFEFEFEF5FEFEFEFEF5F5F5F594
:10398000E1E1FEFE909090F5E1E1E1E1F5F5F5F57C
:10399000E1E1E1E1909090F0F0E1E1E1F5F5F5FE93
:1039A000FEFEFEFEFEF5F5FEFEFEFEFEFEFEF5FE52
:1039B000FEFEFEFEFEFEF5909090FEFEFEFEF5F58C
:1039C000F5F5FEFEE1E1F5909090E1E1E1E1F5F53C
:1039D000F5F5E1E1E1E1F5909090E1E1E1F0F0F55C
:1039E000F5FEFEFEFEFEFEF5FEFEFEFEFEFEFEF512
:1039F000FEFEFEFEFEFEFEF5FEFEFEFE909090F543
:103A0000E1E1FEFEF5F5F5F5E1E1E1E1909090F5FB
:103A1000E1E1E1E1F5F5F5F0F0E1E1E1909090F51B
:103A200090F590F590F590F590F590F590F590F56E
:103A300090F590F590F590FEFEE1E1E1E1E1E1FE27
:103A4000FEE1E1E1E1E1E1FEFEFEE1E1E1E1E1FED5
:103A5000FEFEFEE1E1F0F0FEFEFEFEE1E1F0F5F536
:103A600090F590F5FEFEFEF590F590F5FEFEFEF564
:103A700090F590F5FEFEFEE1E1E1FEFEFEFEFEE1C8
:103A8000E1E1FEFEFEFEFEE1E1E1E1FEFEFEFEF012
:103A9000E1E1E1FEFEFEF5F0F5F5F5F5F5F5F59061
:103AA000F590F590F590F590F590F590F590F590EE
:103AB000F590F590F590F5FEFEE1E1E1E1E1E1FE42
:103AC000FEE1E1E1E1E1E1FEFEFEE1E1E1E1E1FE55
:103AD000FEFEFEE1E1F0F0FEFEFEFEE1E1F0F5901B
:103AE000F590F590FEFEFE90F590F590FEFEFE90AE
:103AF000F590F590FEFEFEE1E1E1FEFEFEFEFEE148
:103B0000E1E1FEFEFEFEFEE1E1E1E1FEFEFEFEF091
:103B1000E1E1E1FEFEFEF5F0F5F5F5F5F5F5F5FE72
:103B2000FEFEFEFEFEFEFEFEFEFEFEFEFEFEFEFEB5
:103B3000FEFEADADFEFEFEFEFEADADADADFEFEFE8B
:103B4000FEADADADADFEFEFEFEFEADADFEFEFEFE7B
:103B5000FEFEFEFEFEFEFEFEFEFEFEFEFEFEFEFE85
:103B6000FEFEADADFEFEFEFEFEFEADADFEFEFEFEB9
:103B7000FEADADADADFEFEFEFEADADADADFEFEFEED
:103B8000ADADADADADADFEFEFE3F3F3F3FFEFEFE37
:103B9000FEFE3F3FFEFEFEFEFEFEFEFEFEFEFEFEC3
:103BA000FEFEADADFEFEFEFEFEFEADADFEFEFEFE79
:103BB000FEADADADADFEFEFEFEADADADADFEFEFEAD
:103BC000ADADADADADADFEFEFEFE3F3FFEFEFEFE79
:103BD000FEFEFEFEFEFEFEFEFEFEFEFEFEFEFEFE05
:103BE000FEFEFEFEFEFEFEFEFEFEADFEFEFEFEFE46
:103BF000FE3FADADADFEFEFE3F3FADADADADADFEAA
:103C00003F3FADADADADADFEFE3FADADADFEFEFE99
:103C1000FEFEADFEFEFEFEFEFEFEFEFEFEFEFEFE15
:103C2000FEFEFEFEFEFEFEFEFEFEADFEFEFEFEFE05
:103C3000FEFEADADADFEFEFEFE3FADADADADADFEEB
:103C4000FE3FADADADADADFEFEFEADADADFEFEFEDB
:103C5000FEFEADFEFEFEFEFEFEFEFEFEFEFEFEFED5
:103C6000FEFEFEFEFEFEFEFEFEFEFEFEFEFEFEFE74
:103C7000FEFEFEFEFEFEFEFEFEFEFEFEFEFEFEFE64
:103C8000FEFEFEFEFEFEFEFEFEFEFEFEFEFEFEFE54
:103C9000FEFEFEFEFEFEFEFEFEFEFEFEFEFEFE90B2
:103CA0009090E1E1E1F0F5F5F5F5E1E1E1F0F0907A
:103CB0009090E1E1E1E1E1F5F5F5E1E1E1E1E190AB
:103CC0009090E1E1E1FEFEF5F5F5E1E1FEFEFE900A
:103CD0009090FEFEFEFEFEF5F5F5FEFEFEFEFEF504
:103CE000F0E1E1E1909090F0F0E1E1E1F5F5F5E14E
:103CF000E1E1E1E1909090E1E1E1E1E1F5F5F5FE4E
:103D0000FEE1E1E1909090FEFEFEE1E1F5F5F5FEC9
:103D1000FEFEFEFE909090FEFEFEFEFEF5F5F5F531
:103D2000F5F5E1E1E1F0F5909090E1E1E1F0F0F5F9
:103D3000F5F5E1E1E1E1E1909090E1E1E1E1E1F52A
:103D4000F5F5E1E1E1FEFE909090E1E1FEFEFEF589
:103D5000F5F5FEFEFEFEFE909090FEFEFEFEFEF5E8
:103D6000F0E1E1E1F5F5F5F0F0E1E1E1909090E1CD
:103D7000E1E1E1E1F5F5F5E1E1E1E1E1909090FECD
:103D8000FEE1E1E1F5F5F5FEFEFEE1E1909090FE49
:103D9000FEFEFEFEF5F5F5FEFEFEFEFE909090FEA8
:103DA000FEFEFEE1E1F0F5FEFEFEFEE1E1F0F0FEDA
:103DB000FEFEE1E1E1E1E1FEFEE1E1E1E1E1E1FE62
:103DC000FEE1E1E1E1E1E1F590F590F590F590F5A6
:103DD00090F590F590F590F590F590F590F590F0C0
:103DE000F5F5F5F5F5F5F5F0E1E1E1FEFEFEF5E1BD
:103DF000E1E1E1FEFEFEFEE1E1E1FEFEFEFEFEE1AE
:103E0000E1E1FEFEFEFEFEF590F590F5FEFEFEF50C
:103E100090F590F5FEFEFEF590F590F5FEFEFEFEA7
:103E2000FEFEFEE1E1F0F5FEFEFEFEE1E1F0F0FE59
:103E3000FEFEE1E1E1E1E1FEFEE1E1E1E1E1E1FEE1
:103E4000FEE1E1E1E1E1E190F590F590F590F5908A
:103E5000F590F590F590F590F590F590F590F5F0DA
:103E6000F5F5F5F5F5F5F5F0E1E1E1FEFEFEF5E13C
:103E7000E1E1E1FEFEFEFEE1E1E1FEFEFEFEFEE12D
:103E8000E1E1FEFEFEFEFE90F590F590FEFEFE9056
:103E9000F590F590FEFEFE90F590F590FEFEFE008A
:103EA0000000000000000000000000000000000012
:103EB0000000000000000000000000000000000002
:103EC00000000000000000000000000000000000F2
:103ED000000000000000000000000000000000667C
:103EE000666626666666667777772677777777776A
:103EF0007777267777777777777726777777772645
:103F000026262626262626777777777777772677C9
:103F1000777777777777267777777777777726004A
:103F2000ECECECECECEC00ECFFFFFFFFFFFFECEC4B
:103F3000EDFFFFFFFFEDECECEDEEFFFFEEEDECEC47
:103F4000EDEEFFEFEEEDECECEDFFEEEEEEEDECEC7A
:103F5000FFEDEDEDEDEDEC00ECECECECECEC00004D
:103F6000ECECECECECEC00ECFFEDEDEDEDFFECEC53
:103F7000EDFFEEEEFFEDECECEDEEFFFFEEEDECEC29
:103F8000EDEEFFFFEEEDECECEDFFEEEEFFEDECEC19
:103F9000FFEDEDEDEDFFEC00ECECECECECEC0000FB
:103FA000ECECECECECEC00ECEDEDEDEDEDFFECEC25
:103FB000EDEEEEFFFFEDECECEDEEFFFFFFEDECECD8
:103FC000FFEEFFFFEEEDECECEDFFEEEEEEEDECECD8
:103FD000FFEDFFEDEDEDEC00ECECECECECEC0005B6
:103FE0000505050505050505050505050505040582
:103FF0000505050505040405050507070404040572
:104000000505070704040405050504040404040564
:104010000504040404040405040404040404040062
:104020000000000000000000FF003F0000FF000053
:1040300000FF3F00FF000000003F3F3F3F3F000008
:104040003F3F3F3F3F00000000FF003FFF000000F8
:10405000FF00003F00FF0000000000000000003FE4
:104060003F000000003F3F3FFF1F3F001FFF3F009A
:104070001FFF3F00FF3F0000003F3F3F3F3F00006A
:104080003F3F3F3F3F0000001FFF003FFF1F003F3B
:10409000FF1F003F1FFF3F3F3F000000003F3F006A
:1040A0000000000000000000FF00000000FF000012
:1040B00000FF0000FF000000000000000000000002
:1040C000000000000000000000FF0000FF000000F2
:1040D000FF00000000FF00000000000000000005DD
:1040E0000505050505050505050505050505000585
:1040F0000505050505000005050507070000000585
:10410000050507000000000505050000000000058A
:104110000500000000000005000000000000000095
:104120000000000000000400000000000004040083
:104130000000000004040400000000070404040060
:10414000000007070404040000040404040404003D
:10415000040404040404040404040404040404051E
:104160000505050505050500050505050505050009
:104170000005050505050500000007070505050004
:10418000000000070505050000000000050505000A
:10419000000000000005050000000000000005040C
:1041A0000000000000000004040000000000000403
:1041B00004040000000000040404070000000004E0
:1041C00004040707000000040404040404000004BD
:1041D000040404040404000404040404040404ADFA
:1041E000ADADADADADADADAD81818182828383AD2D
:1041F00081818182828383AD81818182828383AD4B
:1042000081818182828383AD81818182828383AD3A
:1042100081818182828383ADADADADADADADADADFC
:10422000ADADADADADADAD85858687878685858520
:104230008586878786858585858687878685858522
:104240008586878786858585858687878685858512
:1042500085868787868585AD858687878685ADAD8A
:10426000ADADADADADADAD83838282818181AD83D6
:10427000838282818181AD83838282818181AD83CA
:10428000838282818181AD83838282818181AD83BA
:10429000838282818181ADADADADADADADADADAD52
:1042A000ADADADADADADADAD81818182828383AD6C
:1042B00081818182828383AD81818182828383AD8A
:1042C00081818182828383AD81818182828383AD7A
:1042D00081818182828383AD818181828283ADAD40
:1042E000ADADADADADADAD85858687878685858560
:1042F0008586878786858585858687878685858562
:104300008586878786858585858687878685858551
:1043100085868787868585ADADADADADADADADADDF
:10432000ADADADADADADAD83838282818181AD8315
:10433000838282818181AD83838282818181AD8309
:10434000838282818181AD83838282818181AD83F9
:10435000838282818181ADAD838282818181ADAD95
:10436000ADADADADADADADAD818181828283ADAD81
:10437000818181828283ADAD818181828283ADAD75
:10438000818181828283ADAD81818182828383AD8F
:1043900081818182828383AD818181828283830056
:1043A000000000000000000000000000000000000D
:1043B000000000000000000000000000000000AD50
:1043C000ADADADADADADAD8585868787868585857F
:1043D0008586878786858585858687878685850006
:1043E00000000000000000000000000000000000CD
:1043F000000000000000000000000000000000AD10
:10440000ADADADADADADAD83838282818181AD8334
:10441000838282818181AD83838282818181ADADFE
:10442000ADADADADADADADAD818181828283ADADC0
:10443000818181828283ADAD818181828283ADADB4
:10444000818181828283ADAD818181828283ADADA4
:10445000818181828283ADAD818181828283ADAD94
:10446000ADADADADADADADAD838282818181ADAD80
:10447000838282818181ADAD838282818181ADAD74
:10448000838282818181ADAD838282818181ADAD64
:10449000838282818181ADADADADADADADADADAD50
:1044A000ADADADADADADADAD838282818181ADAD40
:1044B000838282818181ADAD838282818181ADAD34
:1044C000838282818181ADAD838282818181ADAD24
:1044D000838282818181ADAD838282818181ADAD14
:1044E000858687878685ADAD858687878685ADADD0
:1044F000858687878685ADAD858687878685ADADC0
:10450000858687878685ADAD858687878685ADADAF
:10451000858687878685ADAD858687878685ADAD9F
:10452000818181828283ADAD818181828283ADADC3
:10453000818181828283ADAD818181828283ADADB3
:10454000818181828283ADAD818181828283ADADA3
:10455000818181828283ADAD818181828283ADAD93
:10456000838282818181ADAD838282818181ADAD83
:10457000838282818181ADAD838282818181ADAD73
:10458000838282818181ADAD838282818181ADAD63
:10459000838282818181ADAD838282818181ADAD53
:1045A00081818182828383AD81818182828383AD97
:1045B00081818182828383AD818181828283ADAD5D
:1045C000818181828283ADAD818181828283ADAD23
:1045D000818181828283ADAD818181828283AD853B
:1045E000858687878685858585868787868585856F
:1045F00085868787868585ADADADADADADADAD00AA
:1046000000000000000000000000000000000000AA
:104610000000000000000000000000000000008317
:10462000838282818181AD83838282818181AD8316
:10463000838282818181ADAD838282818181ADADB2
:10464000838282818181ADAD838282818181ADADA2
:10465000838282818181ADAD838282818181ADAD92
:10466000818181828283ADAD81818182828383ADAC
:1046700081818182828383AD81818182828383ADC6
:1046800081818182828383AD81818182828383ADB6
:1046900081818182828383AD81818182828383ADA6
:1046A000ADADADADADADAD85858687878685AD8574
:1046B000858687878685AD85858687878685AD854E
:1046C000858687878685AD85858687878685AD853E
:1046D000858687878685AD85858687878685ADAD06
:1046E000818181828283ADAD818181828283ADAD02
:1046F000818181828283ADAD818181828283ADADF2
:10470000818181828283ADAD818181828283ADADE1
:1047100081818182828383AD8181818282838300D2
:104720000000000000000000000000000000000089
:104730000000000000000000000000000000000079
:1047400000000000000000ADADADADADADADAD857C
:10475000858687878685AD85858687878685ADAD85
:10476000818181828283ADAD81818182828383ADAB
:1047700081818182828383AD81818182828383ADC5
:1047800081818182828383AD81818182828383ADB5
:1047900081818182828383AD818181828283ADAD7B
:1047A000838282818181AD83838282818181AD8395
:1047B000838282818181AD83838282818181AD8385
:1047C000838282818181AD83838282818181AD8375
:1047D000838282818181ADAD838282818181ADAD11
:1047E00081818182828383AD81818182828383AD55
:1047F00081818182828383AD81818182828383AD45
:1048000081818182828383AD81818182828383AD34
:1048100081818182828383AD818181828283AD8522
:10482000858687878685AD85858687878685AD85DC
:10483000858687878685AD85858687878685AD85CC
:10484000858687878685AD85858687878685AD85BC
:10485000858687878685ADADADADADADADADADAD72
:1048600081818182828383AD81818182828383ADD4
:1048700081818182828383AD81818182828383ADC4
:10488000818181828283ADAD818181828283ADAD60
:10489000818181828283ADAD818181828283AD8578
:1048A000858687878685AD85858687878685AD855C
:1048B000858687878685AD85858687878685ADAD24
:1048C000ADADADADADADAD0000000000000000002D
:1048D000000000000000000000000000000000AD2B
:1048E000858687878685ADAD858687878685ADADCC
:1048F000858687878685ADAD858687878685ADADBC
:10490000858687878685ADAD858687878685ADADAB
:10491000858687878685ADADADADADADADADADADB1
:10492000818181828283ADAD818181828283ADADBF
:10493000818181828283ADAD818181828283ADADAF
:10494000818181828283ADAD818181828283ADAD9F
:10495000818181828283ADADADADADADADADADAD8B
:10496000838282818181ADAD838282818181ADAD7F
:10497000838282818181ADAD838282818181ADAD6F
:10498000838282818181ADAD838282818181ADAD5F
:10499000838282818181ADADADADADADADADADAD4B
:1049A000818181828283ADAD818181828283ADAD3F
:1049B00081818182828383AD81818182828383AD83
:1049C00081818182828383AD81818182828383AD73
:1049D00081818182828383ADADADADADADADAD00E2
:1049E00000000000000000ADADADADADADADAD85DA
:1049F000858687878685858585868787868585855B
:104A0000858687878685858585868787868585854A
:104A100085868787868585ADADADADADADADADADD8
:104A2000838282818181ADAD838282818181AD83E8
:104A3000838282818181AD83838282818181AD8302
:104A4000838282818181AD83838282818181AD83F2
:104A5000838282818181ADADADADADADADADAD0037
:104A60000000000000000000000000000000000046
:104A70000000000000000000000000000000000036
:104A80000000000000000000000000000000000026
:104A90000000000000000000000000000000000016
:104AA00000000000000000000000FFFF0000000008
:104AB0000000FFFF000000000000FFFF00000000FA
:104AC0000000FFFF000000000000000000000000E8
:104AD0000000FFFF000000000000000000000000D8
:104AE0000000000000000000FFFF0000FFFF0000CA
:104AF000FFFF0000FFFF0000FFFF0000FFFF0000BE
:104B000000000000000000000000000000000000A5
:104B10000000000000000000000000000000000095
:104B20000000000000000000FFFF0000FFFF00FF8A
:104B3000FFFFFFFFFFFFFF00FFFF0000FFFF000080
:104B4000FFFF0000FFFF00FFFFFFFFFFFFFFFF0071
:104B5000FFFF0000FFFF0000000000000000000059
:104B60000000FFFF0000000000FFFFFFFFFF00004C
:104B7000FFFF00000000000000FFFFFFFF0000003B
:104B800000000000FFFF0000FFFFFFFFFF0000002C
:104B90000000FFFF00000000000000000000000017
:104BA0000000000000000000FFFF0000FFFF000009
:104BB000FFFF00FFFF0000000000FFFF00000000FB
:104BC00000FFFF0000000000FFFF0000FFFF0000EB
:104BD000FF000000FFFF00000000000000000000D8
:104BE0000000FFFFFF00000000FFFF00FFFF0000CC
:104BF0000000FFFFFF00000000FFFFFF00000000BB
:104C0000FFFF00FFFFFFFF00FFFF0000FFFF0000AE
:104C100000FFFFFF00FFFF00000000000000000099
:104C200000000000000000000000FFFF0000000086
:104C30000000FFFF000000000000FFFF0000000078
:104C40000000000000000000000000000000000064
:104C50000000000000000000000000000000000054
:104C60000000000000000000000000FFFFFF000047
:104C70000000FFFFFF0000000000FFFF0000000039
:104C80000000FFFF000000000000FFFFFF00000029
:104C9000000000FFFFFF0000000000000000000017
:104CA0000000000000000000FFFFFF000000000007
:104CB00000FFFFFF000000000000FFFF00000000F9
:104CC0000000FFFF0000000000FFFFFF00000000E9
:104CD000FFFFFF00000000000000000000000000D7
:104CE0000000000000000000FFFF0000FFFF0000C8
:104CF00000FFFFFFFF0000FFFFFFFFFFFFFFFF00C0
:104D000000FFFFFFFF000000FFFF0000FFFF0000AB
:104D10000000000000000000000000000000000093
:104D200000000000000000000000FFFF0000000085
:104D30000000FFFF00000000FFFFFFFFFFFF00007B
:104D40000000FFFF000000000000FFFF0000000067
:104D50000000000000000000000000000000000053
:104D60000000000000000000000000000000000043
:104D70000000000000000000000000000000000033
:104D800000000000000000000000FFFF0000000025
:104D90000000FFFF0000000000FFFF000000000017
:104DA0000000000000000000000000000000000003
:104DB0000000000000000000FFFFFFFFFFFF0000F9
:104DC00000000000000000000000000000000000E3
:104DD00000000000000000000000000000000000D3
:104DE00000000000000000000000000000000000C3
:104DF00000000000000000000000000000000000B3
:104E000000000000000000000000FFFF00000000A4
:104E10000000FFFF00000000000000000000000094
:104E2000000000000000000000000000FFFF000084
:104E3000000000FFFF0000000000FFFF0000000076
:104E400000FFFF0000000000FFFF00000000000066
:104E5000FF00000000000000000000000000000053
:104E6000000000000000000000FFFFFFFF00000046
:104E7000FFFF0000FFFF0000FFFF00FFFFFF00003B
:104E8000FFFFFF00FFFF0000FFFF0000FFFF00002B
:104E900000FFFFFFFF000000000000000000000016
:104EA00000000000000000000000FFFF0000000004
:104EB00000FFFFFF000000000000FFFF00000000F7
:104EC0000000FFFF000000000000FFFF00000000E6
:104ED000FFFFFFFFFFFF00000000000000000000D8
:104EE000000000000000000000FFFFFFFF000000C6
:104EF000FFFF0000FFFF0000000000FFFF000000B8
:104F00000000FFFF0000000000FFFF0000000000A5
:104F1000FFFFFFFFFFFF0000000000000000000097
:104F20000000000000000000FFFFFFFFFFFF000087
:104F3000000000FFFF0000000000FFFF0000000075
:104F4000000000FFFF000000FFFF0000FFFF000067
:104F500000FFFFFFFF000000000000000000000055
:104F60000000000000000000000000FFFF00000043
:104F70000000FFFFFF00000000FFFFFFFF00000038
:104F8000FFFF00FFFF000000FFFFFFFFFFFF00002B
:104F9000000000FFFF000000000000000000000013
:104FA0000000000000000000FFFFFFFFFFFF000007
:104FB000FFFF000000000000FFFFFFFFFF000000F8
:104FC00000000000FFFF0000FFFF0000FFFF0000E7
:104FD00000FFFFFFFF0000000000000000000000D5
:104FE000000000000000000000FFFFFFFF000000C5
:104FF000FFFF000000000000FFFFFFFFFF000000B8
:10500000FFFF0000FFFF0000FFFF0000FFFF0000A8
:1050100000FFFFFFFF000000000000000000000094
:105020000000000000000000FFFFFFFFFFFF000086
:1050300000000000FFFF0000000000FFFF00000074
:105040000000FFFF0000000000FFFF000000000064
:1050500000FFFF0000000000000000000000000052
:10506000000000000000000000FFFFFFFF00000044
:10507000FFFF0000FFFF000000FFFFFFFF00000038
:10508000FFFF0000FFFF0000FFFF0000FFFF000028
:1050900000FFFFFFFF000000000000000000000014
:1050A000000000000000000000FFFFFFFF00000004
:1050B000FFFF0000FFFF000000FFFFFFFFFF0000F9
:1050C00000000000FFFF0000000000FFFF000000E4
:1050D00000FFFFFF000000000000000000000000D3
:1050E00000000000000000000000000000000000C0
:1050F0000000FFFF000000000000FFFF00000000B4
:1051000000000000000000000000FFFF00000000A1
:105110000000FFFF00000000000000000000000091
:10512000000000000000000000000000000000007F
:105130000000FFFF000000000000FFFF0000000073
:1051400000000000000000000000FFFF0000000061
:105150000000FFFF0000000000FFFF000000000053
:1051600000000000FFFF0000000000FFFF00000043
:105170000000FFFF0000000000FFFF000000000033
:105180000000FFFF00000000000000FFFF00000023
:1051900000000000FFFF0000000000000000000011
:1051A00000000000000000000000000000000000FF
:1051B000FFFFFFFFFFFF00000000000000000000F5
:1051C0000000000000000000FFFFFFFFFFFF0000E5
:1051D00000000000000000000000000000000000CF
:1051E000FFFF00000000000000FFFF0000000000C3
:1051F0000000FFFF00000000000000FFFF000000B3
:105200000000FFFF0000000000FFFF0000000000A2
:10521000FFFF000000000000000000000000000090
:10522000000000000000000000FFFFFFFF00000082
:10523000FFFF0000FFFF0000000000FFFF00000074
:105240000000FFFF00000000000000000000000060
:105250000000FFFF00000000000000000000000050
:10526000000000000000000000FFFFFFFF00000042
:10527000FFFF0000FFFF0000FFFF00FFFFFF000037
:10528000FFFF00FFFFFF0000FFFF00000000000025
:1052900000FFFFFFFFFF0000000000000000000013
:1052A00000000000000000000000FFFF0000000000
:1052B00000FFFFFFFF000000FFFF0000FFFF0000F6
:1052C000FFFF0000FFFF0000FFFFFFFFFFFF0000E8
:1052D000FFFF0000FFFF00000000000000000000D2
:1052E0000000000000000000FFFFFFFFFF000000C3
:1052F000FFFF0000FFFF0000FFFFFFFFFF000000B7
:10530000FFFF0000FFFF0000FFFF0000FFFF0000A5
:10531000FFFFFFFFFF000000000000000000000092
:10532000000000000000000000FFFFFFFF00000081
:10533000FFFF0000FFFF0000FFFF00000000000073
:10534000FFFF000000000000FFFF0000FFFF000063
:1053500000FFFFFFFF000000000000000000000051
:105360000000000000000000FFFFFFFF0000000041
:10537000FFFF00FFFF000000FFFF0000FFFF000035
:10538000FFFF0000FFFF0000FFFF00FFFF00000025
:10539000FFFFFFFF00000000000000000000000011
:1053A0000000000000000000FFFFFFFFFFFF000003
:1053B000FFFF000000000000FFFFFFFFFF000000F4
:1053C000FFFF000000000000FFFF000000000000E1
:1053D000FFFFFFFFFFFF00000000000000000000D3
:1053E0000000000000000000FFFFFFFFFFFF0000C3
:1053F000FFFF000000000000FFFFFFFFFF000000B4
:10540000FFFF000000000000FFFF000000000000A0
:10541000FFFF00000000000000000000000000008E
:10542000000000000000000000FFFFFFFFFF000081
:10543000FFFF000000000000FFFF00000000000070
:10544000FFFF00FFFFFF0000FFFF0000FFFF000065
:1054500000FFFFFFFFFF0000000000000000000051
:105460000000000000000000FFFF0000FFFF000040
:10547000FFFF0000FFFF0000FFFFFFFFFFFF000036
:10548000FFFF0000FFFF0000FFFF0000FFFF000024
:10549000FFFF0000FFFF0000000000000000000010
:1054A0000000000000000000FFFFFFFFFFFF000002
:1054B0000000FFFF000000000000FFFF00000000F0
:1054C0000000FFFF000000000000FFFF00000000E0
:1054D000FFFFFFFFFFFF00000000000000000000D2
:1054E0000000000000000000000000FFFFFF0000BF
:1054F00000000000FFFF000000000000FFFF0000B0
:1055000000000000FFFF0000FFFF0000FFFF0000A1
:1055100000FFFFFFFF00000000000000000000008F
:105520000000000000000000FFFF0000FFFF00007F
:10553000FFFF00FFFF000000FFFFFFFF0000000073
:10554000FFFFFFFF00000000FFFF00FFFF00000063
:10555000FFFF0000FFFF000000000000000000004F
:105560000000000000000000FFFF0000000000003D
:10557000FFFF000000000000FFFF0000000000002F
:10558000FFFF000000000000FFFF0000000000001F
:10559000FFFFFFFFFFFF0000000000000000000011
:1055A0000000000000000000FFFF000000FFFF00FF
:1055B000FFFFFF00FFFFFF00FFFFFFFFFFFFFF00F8
:1055C000FFFF00FF00FFFF00FFFF000000FFFF00E4
:1055D000FFFF000000FFFF000000000000000000CF
:1055E0000000000000000000FFFF0000FFFF0000BF
:1055F000FFFFFF00FFFF0000FFFFFFFFFFFF0000B6
:10560000FFFFFFFFFFFF0000FFFF00FFFFFF0000A5
:10561000FFFF0000FFFF000000000000000000008E
:10562000000000000000000000FFFFFFFF0000007E
:10563000FFFF0000FFFF0000FFFF0000FFFF000072
:10564000FFFF0000FFFF0000FFFF0000FFFF000062
:1056500000FFFFFFFF00000000000000000000004E
:105660000000000000000000FFFFFFFFFF0000003F
:10567000FFFF0000FFFF0000FFFF0000FFFF000032
:10568000FFFFFFFFFF000000FFFF00000000000021
:10569000FFFF00000000000000000000000000000C
:1056A000000000000000000000FFFFFFFF000000FE
:1056B000FFFF0000FFFF0000FFFF0000FFFF0000F2
:1056C000FFFF0000FFFF0000FFFF00FFFF000000E2
:1056D00000FFFF00FFFF00000000000000000000CE
:1056E0000000000000000000FFFFFFFFFF000000BF
:1056F000FFFF0000FFFF0000FFFF0000FFFF0000B2
:10570000FFFFFFFFFF000000FFFF00FFFF000000A2
:10571000FFFF0000FFFF000000000000000000008D
:10572000000000000000000000FFFFFFFF0000007D
:10573000FFFF00000000000000FFFFFFFF0000006F
:1057400000000000FFFF000000000000FFFF00005D
:1057500000FFFFFFFF00000000000000000000004D
:105760000000000000000000FFFFFFFFFFFF00003F
:105770000000FFFF000000000000FFFF000000002D
:105780000000FFFF000000000000FFFF000000001D
:105790000000FFFF0000000000000000000000000B
:1057A0000000000000000000FFFF0000FFFF0000FD
:1057B000FFFF0000FFFF0000FFFF0000FFFF0000F1
:1057C000FFFF0000FFFF0000FFFF0000FFFF0000E1
:1057D000FFFFFFFFFFFF00000000000000000000CF
:1057E0000000000000000000FFFF0000FFFF0000BD
:1057F000FFFF0000FFFF0000FFFF0000FFFF0000B1
:10580000FFFF0000FFFF000000FFFFFFFF000000A0
:105810000000FFFF0000000000000000000000008A
:105820000000000000000000FFFF000000FFFF007C
:10583000FFFF000000FFFF00FFFF00FF00FFFF0071
:10584000FFFFFFFFFFFFFF00FFFFFF00FFFFFF0065
:10585000FFFF000000FFFF0000000000000000004C
:105860000000000000000000FFFF0000FFFF00003C
:10587000FFFF0000FFFF000000FFFFFFFF00000030
:1058800000FFFFFFFF000000FFFF0000FFFF000020
:10589000FFFF0000FFFF000000000000000000000C
:1058A0000000000000000000FFFF0000FFFF0000FC
:1058B000FFFF0000FFFF000000FFFFFFFF000000F0
:1058C0000000FFFF000000000000FFFF00000000DC
:1058D0000000FFFF000000000000000000000000CA
:1058E0000000000000000000FFFFFFFFFFFF0000BE
:1058F000000000FFFF0000000000FFFF00000000AC
:1059000000FFFF0000000000FFFF0000000000009B
:10591000FFFFFFFFFFFF000000000000000000008D
:1059200000000000000000000000FFFFFFFF00007B
:105930000000FFFF000000000000FFFF000000006B
:105940000000FFFF000000000000FFFF000000005B
:105950000000FFFFFFFF000000000000000000004B
:105960000000000000000000FF0000000000000038
:10597000FFFF00000000000000FFFF00000000002B
:105980000000FFFF00000000000000FFFF0000001B
:1059900000000000FFFF0000000000000000000009
:1059A0000000000000000000FFFFFFFF00000000FB
:1059B0000000FFFF000000000000FFFF00000000EB
:1059C0000000FFFF000000000000FFFF00000000DB
:1059D000FFFFFFFF000000000000000000000000CB
:1059E0000000000000000000000000FF00000000B8
:1059F0000000FFFFFF00000000FFFF00FFFF0000AE
:105A0000FFFF000000FFFF0000000000000000009A
:105A10000000000000000000000000000000000086
:105A20000000000000000000000000000000000076
:105A30000000000000000000000000000000000066
:105A4000000000000000000000000000000000FF57
:105A5000FFFFFFFFFFFFFF0000000000000000004D
:105A600000000000000000000000FFFF0000000038
:105A700000FFFFFFFF000000FFFFFFFFFFFF000030
:105A8000FFFFFFFFFFFF000000FFFFFFFF00000020
:105A90000000FFFF00000000000000000000000008
:105AA00000000000000000000000000000000000F6
:105AB00000FFFFFFFF00000000000000FFFF0000EC
:105AC00000FFFFFFFFFF0000FFFF0000FFFF0000DF
:105AD00000FFFFFFFFFF00000000000000000000CB
:105AE0000000000000000000FFFF000000000000B8
:105AF000FFFF000000000000FFFFFFFFFF000000AD
:105B0000FFFF0000FFFF0000FFFF0000FFFF00009D
:105B1000FFFFFFFFFF00000000000000000000008A
:105B20000000000000000000000000000000000075
:105B300000FFFFFFFF000000FFFF0000000000006B
:105B4000FFFF000000000000FFFF00000000000059
:105B500000FFFFFFFF000000000000000000000049
:105B6000000000000000000000000000FFFF000037
:105B700000000000FFFF000000FFFFFFFFFF00002C
:105B8000FFFF0000FFFF0000FFFF0000FFFF00001D
:105B900000FFFFFFFFFF000000000000000000000A
:105BA00000000000000000000000000000000000F5
:105BB00000FFFFFFFF000000FFFF0000FFFF0000ED
:105BC000FFFFFFFFFFFF0000FFFF000000000000DD
:105BD00000FFFFFFFF0000000000000000000000C9
:105BE0000000000000000000000000FFFFFF0000B8
:105BF0000000FFFF0000000000FFFFFFFFFF0000AC
:105C00000000FFFF000000000000FFFF0000000098
:105C10000000FFFF00000000000000000000000086
:105C20000000000000000000000000000000000074
:105C300000FFFFFFFFFF0000FFFF0000FFFF00006D
:105C4000FFFF0000FFFF000000FFFFFFFFFF00005D
:105C500000000000FFFF0000FFFFFFFFFF0000004B
:105C60000000000000000000FFFF00000000000036
:105C7000FFFF000000000000FFFFFFFFFF0000002B
:105C8000FFFF0000FFFF0000FFFF0000FFFF00001C
:105C9000FFFF0000FFFF0000000000000000000008
:105CA00000000000000000000000FFFF00000000F6
:105CB000000000000000000000FFFFFF00000000E7
:105CC0000000FFFF000000000000FFFF00000000D8
:105CD00000FFFFFFFF0000000000000000000000C8
:105CE000000000000000000000000000FFFF0000B6
:105CF000000000000000000000000000FFFF0000A6
:105D000000000000FFFF000000000000FFFF000097
:105D100000000000FFFF000000FFFFFFFF00000089
:105D20000000000000000000FFFF00000000000075
:105D3000FFFF000000000000FFFF00FFFF00000069
:105D4000FFFFFFFF00000000FFFF00FFFF0000005B
:105D5000FFFF0000FFFF0000000000000000000047
:105D6000000000000000000000FFFFFF0000000036
:105D70000000FFFF000000000000FFFF0000000027
:105D80000000FFFF000000000000FFFF0000000017
:105D900000FFFFFFFF000000000000000000000007
:105DA00000000000000000000000000000000000F3
:105DB000FFFF0000FFFF0000FFFFFFFFFFFFFF00EE
:105DC000FFFFFFFFFFFFFF00FFFF00FF00FFFF00DF
:105DD000FFFF000000FFFF000000000000000000C7
:105DE00000000000000000000000000000000000B3
:105DF000FFFFFFFFFF000000FFFF0000FFFF0000AC
:105E0000FFFF0000FFFF0000FFFF0000FFFF00009A
:105E1000FFFF0000FFFF0000000000000000000086
:105E20000000000000000000000000000000000072
:105E300000FFFFFFFF000000FFFF0000FFFF00006A
:105E4000FFFF0000FFFF0000FFFF0000FFFF00005A
:105E500000FFFFFFFF000000000000000000000046
:105E60000000000000000000000000000000000032
:105E7000FFFFFFFFFF000000FFFF0000FFFF00002B
:105E8000FFFF0000FFFF0000FFFFFFFFFF0000001B
:105E9000FFFF000000000000FFFF00000000000006
:105EA00000000000000000000000000000000000F2
:105EB00000FFFFFFFFFF0000FFFF0000FFFF0000EB
:105EC000FFFF0000FFFF000000FFFFFFFFFF0000DB
:105ED00000000000FFFF000000000000FFFF0000C6
:105EE00000000000000000000000000000000000B2
:105EF000FFFFFFFFFF000000FFFF0000FFFF0000AB
:105F0000FFFF000000000000FFFF00000000000095
:105F1000FFFF000000000000000000000000000083
:105F20000000000000000000000000000000000071
:105F300000FFFFFFFFFF0000FFFF00000000000068
:105F400000FFFFFFFF00000000000000FFFF000057
:105F5000FFFFFFFFFF000000000000000000000046
:105F600000000000000000000000FFFF0000000033
:105F7000FFFFFFFFFFFF00000000FFFF0000000029
:105F80000000FFFF000000000000FFFF0000000015
:105F9000000000FFFFFF0000000000000000000004
:105FA00000000000000000000000000000000000F1
:105FB000FFFF0000FFFF0000FFFF0000FFFF0000E9
:105FC000FFFF0000FFFF0000FFFF0000FFFF0000D9
:105FD00000FFFFFFFFFF00000000000000000000C6
:105FE00000000000000000000000000000000000B1
:105FF000FFFF0000FFFF0000FFFF0000FFFF0000A9
:10600000FFFF0000FFFF000000FFFFFFFF00000098
:106010000000FFFF00000000000000000000000082
:106020000000000000000000000000000000000070
:10603000FFFF000000FFFF00FFFF00FF00FFFF0069
:10604000FFFFFFFFFFFFFF0000FFFFFFFFFF00005C
:1060500000FFFF00FFFF0000000000000000000044
:106060000000000000000000000000000000000030
:10607000FFFF0000FFFF000000FFFFFFFF00000028
:106080000000FFFF0000000000FFFFFFFF00000016
:10609000FFFF0000FFFF0000000000000000000004
:1060A00000000000000000000000000000000000F0
:1060B000FFFF0000FFFF0000FFFF0000FFFF0000E8
:1060C000FFFF0000FFFF000000FFFFFFFFFF0000D9
:1060D000000000FFFF000000FFFFFFFF00000000C6
:1060E00000000000000000000000000000000000B0
:1060F000FFFFFFFFFFFF0000000000FFFF000000A8
:106100000000FFFF0000000000FFFF000000000093
:10611000FFFFFFFFFFFF0000000000000000000085
:1061200000000000000000000000FFFF0000000071
:1061300000FFFFFFFF000000FFFFFFFFFFFF000069
:10614000FFFFFFFFFFFF00000000FFFF0000000057
:1061500000FFFFFFFF000000000000000000000043
:106160000000FFFF000000000000FFFF0000000033
:106170000000FFFF000000000000FFFF0000000023
:106180000000FFFF000000000000FFFF0000000013
:106190000000FFFF000000000000FFFF0000000003
:1061A0000000000000000000FFFFFFFFFFFF0000F5
:1061B000FFFFFFFF00000000FFFFFFFFFF000000E8
:1061C000FFFF00FFFFFF0000FFFF0000FFFF0000D8
:1061D00000000000FFFF00000000000000000000C1
:1061E000000000FF000000000000FFFF00000000B2
:1061F00000FFFFFF00000000FFFFFFFF00000000A6
:1062000000FFFFFF000000000000FFFF0000000093
:10621000000000FF0000000000000000000000007F
:106220000000FF00000000000000FFFF0000000071
:106230000000FFFFFF0000000000FFFFFFFF000065
:106240000000FFFFFF0000000000FFFF0000000053
:106250000000FF000000000000000000000000003F
:1062600011241FBECFEFD0E1DEBFCDBF11E0A0E013
:10627000B1E0EEEDFFEA02C005900D92A434B10743
:10628000D9F71EE0A4E4B1E001C01D92AB30B10724
:10629000E1F714BE88E10FB6F89480936000109285
:1062A00060000FBE0E94EE35811102C00E94CC3505
:1062B000F89481E08093560980935709809355099B
:1062C000109242091092480910924E0910925409F6
:1062D00010925A09109216091092180992E190939F
:1062E000170990EE9093200990931E0994E19093E2
:1062F0001F0990931D0910922409109223091092EE
:10630000280910922709809341090E94604282E87F
:1063100090E0FC0125913491F901FF27308302962A
:1063200020E0803B9207A9F778940E945F420E9488
:106330004B550C94ED570C9400000CE00A95F1F7C6
:10634000E8EDF8E0C0E6D1E02091F7090027A08150
:10635000B181AC0FBD1F1C911283021708F4102FDE
:106360001C9333960395003190F30DE216E01A95D5
:10637000F1F70A95D9F7209014093090150900918A
:10638000100910911109680138018CE1C0E6D1E0D3
:106390004E01002430911309303009F0C8EA09F0A9
:1063A000D4E009F0832F09F0610100EEA02E6627EA
:1063B00078E07DD23CE03A95F1F7000000000E94C1
:1063C00010323FE03A95F1F700000000AA94A9F0DE
:1063D0006395C895683031F033E03A95F1F70000E5
:1063E0000000E7CF662700243EE1C30FD01D8A9549
:1063F00009F4E40109F46301DCCF36E03A95F1F7E2
:1064000056D211240E940041E091180942E0E16057
:10641000E427E0931809E2E0E093360011240895A0
:10642000DE01679F860100501440000D111D180108
:1064300008ED14E0000D111D280130E41EE12D913E
:10644000239FA101203108F4A201040E151EF001C2
:106450002031F0F0059108B92D91059108B9239FDD
:10646000059108B920310000059108B908F4A2018E
:10647000059108B9040E151E059108B920311A9529
:10648000059108B9059131F1F00108B918F700C07C
:10649000019108B92D910191000008B9239F019144
:1064A000000008B9203100C0019108B908F0A1012D
:1064B0000191040E08B9151E00C0019108B92031E0
:1064C00000C0019108B901911A9521F0F00108B9B5
:1064D00008F6DECF08B90027C895000008B908956E
:1064E00020E4E0911009F09111098051829FE00DA4
:1064F000F11DA8EDB4E0629FA00DB11D0024059030
:106500000D9205900D9205900D9205900D920590BB
:106510000D9205900D9205900D9205900D920590AB
:106520000D9205900D9205900D9205900D9205909B
:106530000D9205900D9205900D9205900D9205908B
:106540000D9205900D9205900D9205900D9205907B
:106550000D9205900D9205900D9205900D9205906B
:106560000D9205900D9205900D9205900D9205905B
:106570000D9205900D9205900D9205900D9205904B
:106580000D9205900D9205900D9205900D9205903B
:106590000D9205900D9205900D9205900D9205902B
:1065A0000D9205900D9205900D9205900D9205901B
:1065B0000D9205900D9205900D9205900D9205900B
:1065C0000D9205900D9205900D9205900D920590FB
:1065D0000D9205900D9205900D9205900D920590EB
:1065E0000D9205900D9205900D9205900D920590DB
:1065F0000D9205900D9205900D9205900D9211242B
:1066000008950F931F93CF93DF9394E0899FE8EA57
:10661000F4E0E00DF11D03818281E0E48E9FD00162
:1066200098E0099FC8E0D9E00024C10DD01DE881A1
:10663000F981EA0FFB1FA8EDB4E090E4699FA00D7B
:10664000B11D1124DD27403051F4A20FB11D822F5E
:10665000C22F00FF11C03796C0E1C21B0DC088E0F9
:10666000821B00FD04C0C82FE80FF11D05C0C8E063
:10667000C20FE20FF11D3197503041F498E0939F23
:10668000A00DB11D932F01FDF8960AC098E0931B51
:10669000632F6A9501FF692F58E0569FE00DF11DA9
:1066A0006FEF7FEF00FF61E000FF772701FD60974C
:1066B00011243EEF58E0591B48E0481B2491231356
:1066C0002C931196E60FF71F4A95C1F7EC0FFD1FAB
:1066D000A80FB11D5A9581F7DF91CF911F910F91AE
:1066E00008950F921F92EF93FF93EFB7EF93E0910E
:1066F0008400E251F1E0EF1700F0F395FA30D8F39F
:106700000C948233E0911709EA95E0931709F09110
:106710001609F0FD57C0EC3098F0F3E0F0938900D3
:10672000FDE8F0938800E0FB289826F4E1E00E9461
:106730006834B6C0E5E1EA95F1F70000289AB0C0E8
:10674000E63038F100C000C02898E0FBE4E016F421
:106750000E946834E4E0E0933600E6E0E0936F00E6
:106760009FC0EF93EFB7EF93E0918400ED55E130D8
:1067700000F0E23000F0E33000F0E43000F0E5300B
:1067800000F0289AE2E0E0936F00EF91EFBFEF9105
:10679000189500C0E0FB289826F4E1E00E946834D8
:1067A00005C0E5E1EA95F1F70000289AE0911709A4
:1067B000E03009F075C0EDEFE0931709E1E0E093F8
:1067C00016096EC0E7E0E0938900EBE1E0938800F2
:1067D00000C02898E2E000C00E946834FDEF0090FD
:1067E0001D09F019E0911709EF17D0F4FDEF0090A3
:1067F0001D09F01900901E09F019EF1788F0EDE15E
:10680000FF2700800F92EA95E1F706E00A95F1F77D
:106810000E949D31E1E0FF270F900192EE31E0F3FD
:10682000E0911709E03009F03BC02F933F934F935D
:106830005F936F937F938F939F93AF93BF9378945E
:106840001124EE27E0931609E2E1E0931709F09195
:106850001F09F0931D09F0912009F0931E09E091A2
:106860001909F0911A09E115F10509F009950E943D
:10687000BC350E946A430E9462341124E0911B09D6
:10688000F0911C09E115F10509F00995BF91AF914F
:106890009F918F917F916F915F914F913F912F9138
:1068A000EF91EFBFFF91EF911F900F9018952898EF
:1068B000E2E000C00E946834E0911709EA95E09395
:1068C00017090895E0914109E0FD0E94723808958A
:1068D0000F931F932F93CF93DF932E2F0091430994
:1068E00010914509100F00914409E0914609F0917B
:1068F0004709E01F0491E093460910934509109160
:10690000420901030008C12DD02D00000091490962
:1069100010914B09100F00914A09E0914C09F09138
:106920004D09E01F0491E0934C0910934B0910911D
:10693000480920FD289A20FF00C001030024000818
:10694000C10DD01D00914F0910915109100F0091F8
:106950005009E0915209F0915309E01F0491E0932E
:1069600052091093510910914E0901030008C10DFD
:10697000D01D0091560910915709E0915809EA95E8
:1069800092F4F0915509EF2FE695002E069400261B
:1069900000FA1695079516F9F0FF06F900935609C7
:1069A0001093570903C016E01A95F1F7E0935809C0
:1069B00010E821FD289A21FF00C000FD1FE700918B
:1069C000540910030008C10DD01D00915D091091FC
:1069D0005B09010F00935D09E0915E0910915C096C
:1069E000E11FF0915F0900E0F01F8F010090600946
:1069F0001090610900191109009062091090630953
:106A0000E015F10508F0F801E0935E09F0935F09E5
:106A1000049110915A0901030008C10DD01D0024F2
:106A2000C038D0050CF0CFE70A94C038D0050CF47C
:106A3000C0E8C058C093B300DF91CF912F911F9150
:106A40000F91089580930809909309090895E8E447
:106A5000F3E0A0E6B1E060E16D933197E9F711242E
:106A6000089550911209450F00C0992777272EE10C
:106A7000629F080E191EA0E6B1E0A00DB11D405F97
:106A80004C9311240895809312090895809310095E
:106A900090931109089580911809817008952091AB
:106AA00018092E7F209318090895882329F48091CE
:106AB0002109909122090895809125099091260934
:106AC000089578E07A95F1F700000197D1F70895DD
:106AD000F999FECF92BD81BD60BDF894FA9AF99AFA
:106AE00078940895F999FECF92BD81BDF894F89AF3
:106AF00080B57894089598E088E10FB6F894A89549
:106B0000809360000FBE90936000FFCF129AC895EB
:106B1000C895C895C895129840E180E090E020E0C3
:106B200030E03695279596958795C895C895C89570
:106B3000C8951398009B3068019B9068139AC8957C
:106B4000C895C895C895415061F7309322092093A4
:106B5000210990932609809325098091210990911C
:106B600022090F9731F080912509909126090F97FE
:106B700011F40E947B35089510927609009903C0A4
:106B800081E080937609019905C080917609826041
:106B9000809376090C948635CF93DF93C0E0D0E0E4
:106BA000FE01E055FF4F6491CE010E9468352196A9
:106BB000C032D105A9F7C0E2D0E06FEFCE010E944C
:106BC00068356FEFCE0101960E946835A096C11519
:106BD00088E0D80791F7DF91CF910895CF9380E0B7
:106BE00090E00E947235C82F81E090E00E947235DB
:106BF000282F30E0322F22272C0F311D81E02A353B
:106C0000354509F080E0CF910895CF92DF92EF9261
:106C1000FF920F931F93CF93DF931F92CDB7DEB7F1
:106C20006C010E94EE35882309F44DC0F601808185
:106C300091818F3FFFEF9F0709F447C08A35954543
:106C400009F443C000E210E0F12C41E0C80149839F
:106C50000E947235E82EC80101960E947235282FD5
:106C600030E0322F2227C9018E0D911DF6012081BF
:106C7000318149818217930719F4FF2089F00CC0F4
:106C8000019619F4F11001C0F42E4F5F005E1F4F02
:106C90004034E1F6FF20D9F020E2F29E8001112479
:106CA000760180E2E80EF11C0C191D09C601800F67
:106CB000911FF60161916F010E946835CE14DF04C7
:106CC000A9F780E005C084E003C081E001C082E054
:106CD0000F90DF91CF911F910F91FF90EF90DF9078
:106CE000CF900895DF92EF92FF920F931F93CF936F
:106CF000DF937C01EB010E94EE35882389F18FEF51
:106D0000E816F80679F100E010E0C8010E9472353B
:106D1000D82EC80101960E947235282F30E0322FFC
:106D200022272D0D311D2E153F0539F47E0180E2FD
:106D3000E80EF11C0C1B1D0B08C0005E1F4F011557
:106D400084E0180711F783E00EC0CE01800F911F79
:106D50000E9472358993CE15DF05B9F780E003C034
:106D600084E001C081E0DF91CF911F910F91FF90EE
:106D7000EF90DF900895FC0145870895E2E4F9E083
:106D800081E091E0958B848B438B0895FC01908189
:106D90009F7590830895FC0190819064908308957D
:106DA000FC0144870895FC0147830895FC01408756
:106DB00008951F93CF93DF93EC01162F298130E0C4
:106DC000F901EE0FFF1FE85FF94865917491F90131
:106DD000E40FF11D47FDFA95EE0FFF1FE85FF9483C
:106DE00085919491861B970B60917E0970E00E94BB
:106DF000BD556115710511F461E070E086E0189FE2
:106E0000F0011124EE5BF64F81819281860F971F6E
:106E1000928381837B836A83888188608883898168
:106E2000480F4C83DF91CF911F91089540937E09C5
:106E30000895862F642F0C94B03AFC01862F91811F
:106E4000642F690F61830C94993AFC01862F91811C
:106E5000692F641B61830C94993A0F931F93CF930E
:106E6000DF931F92CDB7DEB78C01862F642F498345
:106E70000E94993A4981F80141838081877F80830C
:106E80000F90DF91CF911F910F9108959093EA0990
:106E90008093E9098FE68093EC0910924009E7E8B6
:106EA000F9E080E19FEF28E1DF011E978C931B96AC
:106EB0001C9212979C9311969C93108212972C937C
:106EC00013978C93769639E0E53FF30769F70895B9
:106ED000DC01ED91FC9111979F012F5F3F4F1196BF
:106EE0003C932E93E491E7FD03C08E2F90E008952C
:106EF000EF778E2F90E09695982F88279795879516
:106F00002F5F3F4FF9013197E4914E2F4F77840F58
:106F1000911DE7FDF0CF2D933C930895CF92DF9222
