:100000000C9419250C948C250C948C250C948C251F
:100010000C948C250C948C250C948C250C948C259C
:100020000C948C250C948C250C948C250C948C258C
:100030000C948C250C9461270C94A1270C948C258E
:100040000C948C250C948C250C948C250C948C256C
:100050000C948C250C948C250C948C250C948C255C
:100060000C948C250C948C250C948C250C948C254C
:100070008100450027FF24FF2A902B1C210C22FB26
:10008000850084008903888D81096F0244424700FE
:100090004501B083B300B10125118A4F8B035A5536
:1000A00001200101003808000000000000000000ED
:1000B0000000000000000000000000000000042B11
:1000C000072B5B2B5F2B672B082B0D2B122B6F2B1A
:1000D000152B182B1B2B582B00408891D2E4ADB563
:1000E000B6BEBFFF050300131415161718191A1B07
:1000F0001C1D1E1F0005040001020304050607085D
:10010000090A0B0C0D000E0F101112000000000068
:1001100000000000000000000000000000000000DF
:1001200000000000000000000000000000000000CF
:1001300000000000000000000000000000000000BF
:1001400000000000000000000000000000000000AF
:10015000000000000000000000000000000000009F
:100160000000000000000000000049000000000046
:100170004952520000004952531C25004952522452
:1001800025251B52525C2D2D1C1212000000000070
:100190000000000000000040494949004049495220
:1001A0005B5B5B4A52525B1C1C13125B1C241C12CF
:1001B000090909241B12090909090A0A0A0A0A0A73
:1001C0000A0A130A0A120A0A12130A00000000009F
:1001D0000000009252525252525249131213090017
:1001E0001C1B130A1212401B65641C090A00092417
:1001F0001B1C65120000251C1C1C1C010025241C56
:100200001C1C1C0024252424241C1C0000000000AD
:100210000000004940000000000000524949000071
:100220000000001C5B4A48000000001C25524900E9
:100230000000006524644900000000652564490051
:100240000000006D2E5C490000000000000000006E
:10025000004052000000000049525C0000000053C2
:10026000522425000000535225252500004A52251E
:10027000251B0000005B251300001B005B53000AD8
:100280001C3737095B1C657F372E2E522E2E1C1310
:100290001312002E251B13120000121C1C1200004A
:1002A00012251C120000122E371C1300132E373695
:1002B0001C131B37372E2E25131C1C2E2E2E2E1BE7
:1002C0001C1C1C6E6E6E1C1C1C1C1C0913131212B1
:1002D00013130013131313131C0009131313131C0C
:1002E0000100371313131C13002E2E1B1B1C1C00A4
:1002F0001C772E1B1B2500137F251C1C1C010A3795
:10030000241C1C1C130A2E25250900132E24252528
:100310002525252E2525252525252525252D2E2573
:100320001B1C1C2E2E251C13251B13251C1C1C1CE2
:100330000109521C1C1300011C5B5C0A000165775B
:100340005C1B00016E7F6E521B00006D1C52490049
:100350000000001C135300000000001C524A000063
:100360000000005B5B0000000000005C000000007B
:10037000000000000000000000000000000000007D
:100380000000000000000000000000135B7F776E9B
:100390006E6E6E136577766E6E6E6E1B6577767613
:1003A000766E771B5BBF76B676767609136DBFB730
:1003B000B6B765001B125C76BF766D0000121B128B
:1003C0005B5B5C00000000090A12136E77241C1CA2
:1003D0001C1C1C77251C1C1C1C24256E1C1C1C248E
:1003E00025251B1C1C242525130000646D6D1B0096
:1003F000096EBF6D5B09126EBF6D5B5B125B645B68
:10040000121312131B1212090100001C242E1C09C6
:1004100000096E2524010009767F7F000012777F96
:100420007F641264BFBF775B121B09BF6D5B121B39
:1004300009000012131B0900000000090000000061
:1004400000000000000000000000007F7F53131335
:1004500000000064121B01000000001B12000000DD
:10046000000000000000000000000000000000008C
:10047000000000000000000000000000000000007C
:10048000000000000000000000000000000000006C
:1004900000000026000000260026262F0000002F66
:1004A0000000003700000037000000FF000000FFE0
:1004B000000000BF000000BF0000BF370000370091
:1004C000003700002626000000262600000000005D
:1004D000000000262626002626262600002F002FB4
:1004E0000000000037000037000000FF000000FFA0
:1004F000FFFFFF00000000BF000000000000003709
:1005000000000026262600262626260000000000E1
:10051000000000260026262626000000002F0000EE
:10052000002F0000003700000037000000FFFFFF31
:10053000FF00000000BF000000BF00000037000007
:1005400000370026002626262600000000000000B6
:100550000000000000262626002600002F00002FA5
:10056000002F003700000037000037FF000000FFB9
:10057000000000BF000000BF0000BF3700003700D0
:10058000003700262626000000260000000000009C
:10059000000000000026000000000000002F000006
:1005A0000000000037000000000000FF0000000015
:1005B00000000000BF000000000000000037000045
:1005C0000000000000260000000000000000000005
:1005D000000000000000000000000000000000001B
:1005E00000000000000000000000E400000000091E
:1005F0009BEDF60000009BA4ADBFBF00529BA4760C
:100600007F7FB75B9B6D777F766EB7000000000041
:10061000000000000000005BB6F6F6005BF6FFFF8E
:10062000FFFFBFF6FFFFFFFFBFBFAEFFBFFFFFFF34
:10063000B7AD65BFBFFFFFB7B6AD65B7BFFFFFBFC3
:10064000B7AE6EB7BFFFFFBFB7B7650000000000D1
:10065000000000F6F6EDEDADA4A49BB66D6D5C5206
:100660006E65646565655265766D255C5C52536E9A
:1006700024656E6552526E252524255B52772D2503
:10068000252524526E6E2D2525252500000000000D
:100690000000009B49000000000000A49B920000A5
:1006A0000000002564934900000000652E9B520065
:1006B0000000006D256552000000006D2D655200A0
:1006C0000000006E2E6452000000000000000000D8
:1006D00000495B00000000004A5B65000000005B11
:1006E0009B6D2D0000005B5B2D2E250000525B2EC4
:1006F0002E1C0900015B2D1C01091C005C5B014ADA
:1007000065777F4A5B1C6E7F7777769B77776D6521
:100710006E6EA4776E6565655BA4B725255C525245
:100720006DBFBF130949647FBFBFBF095C7F7FBF37
:10073000BFB7BF7F7F777F7FB7BFBF77777F7F6E82
:10074000B7BFBF777F7F6E77BFBFBFB6FFFFFFBF6B
:10075000BFB75BBFFFFFFFBFBFA464BFFFFFFFBF0B
:10076000ADA47FBFFFFFFFBFA4BF7FFFFFFFBFADF3
:10077000BFBFBFFFFFFFB6BFBFBF77FFFFF7BFBF62
:10078000BF7777FFFFFFBFBFBF64526D7F6E2E2D17
:100790002D256E7F766E6E6E2E2565777777762E99
:1007A0001C25247F776E251C251C1B776525251CA1
:1007B000090A5B6E6E1C09492564645B494A6E7FB9
:1007C000645C005377BF775B5C00006E255B4A007A
:1007D0000000001C1B5B0000000000245B530000B5
:1007E0000000005B5C0000000000006400000000EE
:1007F00000000000000000000000000000000000F9
:1008000000000000000000000000005B5C7FBF777C
:100810007677775C6D7FB7777777775C6D7FBF771B
:100820007777BF5C64BFBFBFBFBF7F0A5C6EBFBFCF
:10083000BFBF760065646DBFBFBFBF00005B6D6466
:100840006DADB600000000125B646D777F6E6E7751
:10085000BFBFBF7F766D7677BFBFBF776D6E767F88
:10086000BFBFBF6D6E767FBFB7ADF676BFBF76A454
:10087000ADFFFFBFB664ADFFFFFFFFB6ADBFFFFF2B
:10088000FFFFF6ADB6AD645B520000FFFFBFBFAD2A
:100890005B64BFFFFFB6ADADBFFFBFFFF6FFFFFF5D
:1008A000FFBF64FFFFFFFFBFB6765BFFFFFFBFBF69
:1008B0005B0000FFFFFF5C00000000A400000000E0
:1008C0000000000000000000000000BFBF645C5C8E
:1008D0000000006E5C6549000000006D5B000000D8
:1008E0000000000000000000000000000000000008
:1008F00000000000000000000000000000000000F8
:1009000000000000000000000000000014090000CA
:10091000800F800F000000000000000000000000B9
:1009200000000000000000000000000000000000C7
:100930000000010101020304050607090A0C0E105C
:100940001112141516171718171614100A05F9F3B3
:10095000EDE7E5E2E1E0E0E1E1E3E4E6E8EAECEE40
:10096000F0F2F4F6F8FBFD010406090B0E10121567
:10097000181A1D1F222427292B2D2D2D2D2A241E28
:100980000F01F6E3DDD6D0D0CFD0D1D3D6D9DDE17B
:10099000E7ECF2F7FE03080E0D110C080B080B0D27
:1009A000101215171A1C1D1E19181105060000FF3C
:1009B000FFFDF6F6EEEEEEE9E9E6DADDDBDBE2E698
:1009C000EBF2F9010810181F282D3236302C2518AB
:1009D000100AFDF3F4EEF0F1F1ECEDE3DBDEDCDF29
:1009E000E7E9EDF3EAF2EFECF5F7FF0710181F2641
:1009F0002C3136383839302A231C09FBF3DAD3CCB2
:100A0000C4C9C9C8CDC6C7CDCFD8E1E9F4FD0C161D
:100A1000212C353D424A47474C3E3E352E210C01A4
:100A2000ECE5CFCCC4BFBCB5B9BBC0C8CED4DEDD0D
:100A3000E8EEF0FC030D1A242F373F464B4C51468D
:100A4000443D302F29170EFFE4D4C0B8ACAEAFB58B
:100A5000BAC4CBD3DCE4EDF7000D152028323337D0
:100A600037262C21161B1415100B03FFF9F0F3E9A0
:100A7000EBE3D9E0DEE4ECF1F5FCF9FF0205070455
:100A8000080B05070C040A0A0A0A060904070B0BDF
:100A90000B0C0602FBFBF7F0F4E9E5EBEBF1F8FDDC
:100AA00003050A0B060C0C070A0804FFFCF9F8F909
:100AB000FDFAF9FDFD02090C111115130E15110FA8
:100AC0001104FEFDF2EDECEDEAE1E3E2DBE0E3E050
:100AD000E7EBEFF6FC040A121A1F252A2A2F2B2E09
:100AE0002F2B2C22151506FDFAEAE4DAD7D1CED346
:100AF000D1D0D6D6D9DDDDE5EAF2FBFE060F131D17
:100B0000242B303539383B3B3032281F190CFDF48B
:100B1000E5D4D0CAC8C9CAC6CBCED3DBE3EAF4FC5D
:100B2000040D161D24282C2A2B27252825201A0FD2
:100B30000602F7F2EDEAE5E5E0D8DCDCDFE7EBEF13
:100B4000F4FAFAFF070C15181B1B151215171519C7
:100B500012090C07070500FCFAF0E9ECECECEEEFEB
:100B6000E4E3E6E6EDF3F90005080C110D121716A3
:100B700018180A0905FF02FE0103030500FF01FF23
:100B800003FEFF0204060808FDFCFAF1F5F2F0F698
:100B9000F6F7F5F1EAECECEEEFEDF2F6FC02070DFC
:100BA00012171B1F212520201E191E201D1B15FE9C
:100BB000F3EFEAE8E5E3DEDDDDDDD8D9D9D9DFE31F
:100BC000EBF3F902070B12171D21272C3030302EC2
:100BD0001E1A1B15180E08FEE4DCD9D2D0D7DADBBA
:100BE000E0E0DEE4E9EFF6FD030B12181F22201F00
:100BF000211D1A1F1C1E1A090701F6F6F4EAE7E088
:100C0000D7DAD9DDE1E7EDF4F7FDFFFF070D131C9F
:100C1000212426201A151713101214100705FDE9B8
:100C2000E2E2E0E3E8EBECE5E3E3E4E9EFF6FB0224
:100C3000080D1016130E111313151819190A0305B0
:100C400000FD0506050600F1F3F4F7FBFE0102F6D0
:100C5000F7F5F1F4F6F7F2F4F7F7F9FBFCFF03FB15
:100C6000F8FDF5F7FCFDFE04090F151B1D1C110B0B
:100C70000F11181E22211D06FCF6E7E1E4E7E9ED5D
:100C8000EFE4E4DCD0D4D7DBE5F0F801080B0E1676
:100C90001C24292F322E2829221716160A0901F69C
:100CA000F0E5E3D5D6D2CFD8DBE3E8EFEDEDF5FC08
:100CB000030D151D1F1F2528292D231E1B090406A2
:100CC00002040606FEEEDECAC6C3C3CAD2DAE4EDEB
:100CD000F5FE01020B121C273239403D3232291A2F
:100CE000181B16180D05F5E2DCD0D0CED0D2CBCC37
:100CF000D0D3D7DEE8F0FA040E171C1F21181A19FA
:100D0000151B1E2123202021180E07FDF6F4F7F7EE
:100D1000FAFCF6F6F6F0E8E8E3E5EAEFF3F7F4F1CB
:100D2000F4EEF3F8FB000A0F12130E04FFFDFE01B0
:100D3000060A0E0C0B0E0F0B1014181B1D19120BAC
:100D4000FFFAF0EEEBE5EAEDF1F2EEEEE6DEDCDEE8
:100D5000E1E8F1F901091013181C1D1B1F1F2121C7
:100D60002016100701F9F0F0F0ECEFF1F1F1EBE6ED
:100D7000E7E9EEF4FAFF040404090D0E1016191D3C
:100D80001D1C120801FCFAFBFEFE010302FBF3EE40
:100D9000E2D9D8D9DCE2EAF0F6FC0102080E141A16
:100DA00020262A2B26201C191611070404FFFEFDFD
:100DB000FBF5E9E2DFD8D7D9DDE1E6E9EDF4FAFFAA
:100DC000050C101315120B08080A0C0F121214163A
:100DD00015110D07FCFAFAFCFE000100FBF1EEEA2A
:100DE000EBEDF2F6FAFCFEF8F5F5F7FAFE01030971
:100DF0000D101112110A01FFFCF9FAFCFE010303A8
:100E000006080A0C0B08070600F8F7F7F7F8FBFAD4
:100E1000F8F9FBFDFEFEFEF8F4F6F8FBFE0205060F
:100E20000406070A0C0F11110F0B01FBF5F1EFF08F
:100E3000F1F1F5F9FD0003050400FF0001030609C7
:100E40000B0B090809090A08060402FBF7F7F6F775
:100E5000F8FAF9FAF8F8F8F9F9F8F6F3F3F5F7FA19
:100E6000FD000305070B0E1114161615110C0A06CA
:100E700004030201FFFEFDFDFDFCFAF7F1EDEBEBD3
:100E8000ECEEF2F5F8FBFF020508090A0A08040473
:100E90000404040505050404050607070706040203
:100EA000010000FEFDFBFAFAF9F9FAFBFCFCFBF984
:100EB000F9F9F9FAFCFEFF01030506070807060425
:100EC000020000000001010102020202020100FF13
:100ED000FEFDFCFDFDFDFEFEFFFF00000001010226
:100EE000010100FFFFFFFEFFFF00010203030404F6
:100EF0000301FFFDFBFBFBFBFBFBFCFDFF00010215
:100F000003040303030303030303040403020101B3
:100F10000100FFFEFCFCFCFDFDFDFDFCFBFCFDFEFD
:100F2000FF0001010100FFFEFF0000FF00010305BB
:100F30000608080602FFFEFF0000FFFE0002030392
:100F4000020100FEFDFCFBFBF9F7F8FBFDFDFDFED9
:100F5000010406070602FFFCFE010403FFF9F8FB8B
:100F6000000406080A0B0C0D0F0C01F4EEF0F6FE5F
:100F7000040705FEFDFBF8F4EEEEF1F3F7FC0104C7
:100F80000405080604070B0F0F0C0D0A04030502E5
:100F9000FFFFFCFAFDFF00FAF6EFEFF4F4EEE9EEE6
:100FA000F7020C16180C060F1A1D0F00FAF5EDF1DA
:100FB000FD0504FE07131B1E1506E8CCCCD8EAF687
:100FC000F9EDDFDFE9FA080F161D2424253031176B
:100FD000F9F4F3F8061B2C2507F0EEEDDBD3DDED7D
:100FE000F8F4E9DFDBD2E1F80A1012141913121F2A
:100FF0002B2106F1E2EF0925301FFBEAEFECE9F5C2
:10100000F5E0D6E1F60B1C344B4110D9E0FB06F4B9
:10101000F4FF01EEE1F2FCF2F1091911080D11FDE6
:10102000EAE0E1F0F5E8D3DDEBFE0E1C23334C6281
:101030005A2D07DFDDD2D6E9F5021B3628F4D6DDBE
:10104000CDB5BACAE0F610261CEFC6DD041F273462
:101050003D3A252148676118D3BDB7CDEBF9E6EAE3
:10106000F0F1D6CCBDB1C4D8EF020C102855775F93
:1010700017EEF2FDF60522312B0B03FFF40C2B23A8
:101080000FF1D6B8AFC6E2F7F0CEB0C5DAEBF90D86
:10109000161C345464470BFD010E0EF4ED061E3190
:1010A0002E3129EFCAB9D9F2E7C1B6D8FF03DBC99F
:1010B000E70210192D3433181F40544004E2E9EEC2
:1010C000E8D9D8F51115E6BBABC9DFF2FE1429301B
:1010D00015F508303A1DEDFBFEF5F910213020041E
:1010E000FBE4E3EB182B16CEACC5E40006FED5D826
:1010F000E9FA040F1D29485C3EF7C7DCF70A14190A
:1011000007F403F5E6062B37EFA4B8DDFDF7DBD4D3
:10111000F70B07E1E90B1C222B3D453E273D544BC5
:1011200000E7D9D4CCB8CFE90307DB9EA5C5DCE343
:10113000EFFD0E1C29190000294142130B120C1956
:1011400018203D4F32EED6E7F0F3F2EBC3CAD6EDEE
:10115000F1F4CDCFE0EDF6FB03132B3C2DFCF1EBCE
:10116000FA02061C343C14E5EAFF23374312D0CFC1
:10117000D3D2CFD6E80108F7DAEEFD0F151F2B38D2
:101180002F252B2AF9FB0408CEC2D7F30D14EEB39A
:10119000C4D9ECF0FB0D1D1101EEF1FD10242F3927
:1011A000210400F9060A1E364723D2D1E5EFF5FBEC
:1011B000E4DCEBF6FEF7DBE3F300050710212F1666
:1011C000E8E4F9FEEEF2000D1C251CF6E3EE091A28
:1011D000282005DDC6CDD9E4F0020E13FDF403117D
:1011E0002026313D483E230FEAE9FD02F5E2DAEA26
:1011F000F8E8CBBDC5D3DCE7F1FE00F7F1F8FE025D
:101200000D1C27333E38180509172632392E0FDFFB
:10121000CDE0F2F4E5E3EDF3F4F5E4E0EDF60108FA
:101220000D0B06F2E9F3FAFEFBF8031119140C0E8C
:10123000130B0A18201703F8E3D5DCE5F0F90006D4
:1012400004F6F4000D171E262923120800F8F9F3FE
:10125000F6FDFFF7F2EBE4DBDEE6EDF4FBFCF5F088
:10126000F0F7FE01050F191F2226291B090E1A1E71
:10127000140A02F6EFEBEDF4F0ECF2F8FCFFF4ECFC
:10128000F4FB01080B07FCEFEBEFF3F9FFFEFE05A3
:101290000905050B101618100A05F7F5FCF8EAE821
:1012A000F0F6FC030A0700040E151C2124211C0E75
:1012B000F8F5F7F2F6FAFE02F4E0E3E3DBE0E7E745
:1012C000E5E4E4EAF0F6FD040A0F161F272C313896
:1012D0002E171920160F0E01F4F9F7F0F3F0EEF2C5
:1012E000F8F9EFEAF0F5F7F7F7EDE0DEE3E7EDF315
:1012F000FC02FF030D0A0B14191D25281E1005F909
:10130000F90104F9EEF5FCFD060C03020C0F0F13B6
:101310000F0B1412F9F0F3EFF1F9FEF9F2F1EBE132
:10132000DDE0E3E7EAE8E5E7EFF700070E15181C54
:10133000273034383D331704FEFC0004FEF5FA0074
:10134000F5EEF3F7FB00F6F0F8F9FA0300EBE1E253
:10135000E2E7F0F6F8FB0000FF01060B0F110E08A4
:10136000080AFEF8FF01030705FF02090B10110A26
:101370000C13181D1D1611130AF8F4F7F4F5F4ED0B
:10138000ECEDECE7DDD7D3D1D5DBE3EAEFF6FD03F7
:101390000A10161C21262B2D2E2E2B1E120F09058E
:1013A0000701FD0001FAF6F6F7F9F7F2F0EEEAEAC6
:1013B000E9E5E7EAEAEDF2F5F9FD010201030709C3
:1013C0000C10141310100C0605060605060805027D
:1013D00003050401FEFEFEFF0102020503FBFAFC09
:1013E000FCFCFBF9FAF9F9F9F8F7F6F6F5F5F5F77B
:1013F000FAFCFE00020407080A0C0E0E0D0C08078A
:101400000704020303020000030301FFFE00FEFCC9
:10141000FEFFFFFEF9F7F7F8F8F9F9FAFCFDFEFE1A
:10142000FEFEFFFFFFFF00010204040203040204AA
:101430000406070703030505030406050402020565
:1014400002FDFDFDFEFCF9FAFCFCFBF9F6F3F8F6F3
:10145000F5F8F8F9FBFDFE000204050607080A0D81
:101460000E0E0C0A08060501020402FE0101FD0031
:101470000401FAF6F6F8FAF5F5F6F7F8F8F8FAFCDA
:10148000FF0101FE0002000406080806050305002E
:1014900002080801010406090A02FCFEFCFAFA002F
:1014A00000000406FFFB0100FCFAFBFBFCFDFE0054
:1014B000FBFBFFFFFDF3F7FAFAFCFDFE0003050757
:1014C00008050404070102090A05070A01010601CB
:1014D0000002FBFE040C0CFDFD05FCF6F8F4F6F72B
:1014E000F7F7F8FAFBFFFBFDFFFFF9F5FCFDFF0145
:1014F00004040600FF06090C08030607090D0C0387
:10150000090AFD0103FC030302FDFE04FBF6FDFCDA
:10151000F7F7F3F5F7F0F3F9FCFFFCF6FAFCFEFF42
:1015200000030507080A0B0D0B0B060B0B0506063F
:1015300009040104FE0001F8FD01FFFDF9F7F5F5CE
:10154000F9F7F7F9F9FAFBFBFDFEFBFF02040604CD
:101550000305010701020505FE020406070904FF51
:1015600005000003FFFEFFFC00FF01FF01FC00007F
:10157000FEFCFCFDFF00FFFE03FDF800F9FEFE008F
:10158000FBFDFFFEFF02000103FF01030100040455
:101590000506060106050602030002FE030305FF19
:1015A00005FFFAFCF9FAFAFBFBFCFCFCFEFDF8FE79
:1015B000FBFDFEFFFEFE0101010202040001040426
:1015C0000605080803060704070302FFFF0100FDE4
:1015D00001FDFFFDFFFCFAFAFAFBFAFBFCF9FAFD4C
:1015E000FCFDFEFF0001FD020101030404050606E7
:1015F00003030503040505040305030502FEFEFAC3
:10160000FEFEFEFFFCFCFEFCF9FCFBFBFCFDFDFF0F
:10161000FEFCFFFF0102020403FF030001020203BC
:10162000000103020104020105010002010104FF9F
:10163000FD00FCFF0000FEFFFF00FFFDFF00FF00BC
:1016400000FCFDFBFCFDFE00FF0002FFFD01FDFFB5
:10165000000001FF00010102040304060303050466
:10166000050601FF01020203FEFE00FCFFFCFAFD7D
:10167000FCFCFDFCFAFBFAFBFBFEFEFFFF00FF019A
:10168000010101030300020303050606060708041F
:101690000205030202FDFE0000FDFBFCFDFBFDFC5C
:1016A000FAFCFCFCFCFEFBFAFDFCFDFF0000010265
:1016B00004010203030405020104010105040304FB
:1016C00005020103020003FDFAFFFFFBFBFEFDFD27
:1016D000FEFEFEFCFDFEFEFFFDFEFFFFFF00020121
:1016E000010300000201010203FEFF02FF000202EB
:1016F000020303030301010202FFFD0001FCFE00DF
:10170000FFFF0001FFFF01FEFF00FBFDFEFDFEFFEE
:1017100000FF0000FF0200FE0001FFFE01000101CA
:10172000020203030404030304030401000100FE96
:10173000FEFEFDFFFFFFFE01FDFBFEFAFBFDFCFDD3
:10174000FEFEFEFF00000101000101020100020295
:1017500002030304040505030405010201FF000060
:10176000FCFEFCFCFDFDFDFEFEFCFDFDFDFEFCFCAB
:10177000FEFDFEFF00010202030304050201020058
:10178000020200030202030302030101010001013E
:10179000FCFFFDFCFDFDFDFEFEFEFFFFFF01FDFD6C
:1017A00000FEFF00000101FF03000003010002FF33
:1017B00002FFFD00FFFF0101010302020302030318
:1017C000FF0101FF01FFFE00FF0000000002FEFE1E
:1017D00000FDFEFDFDFEFDFDFFFDFE00FF00000023
:1017E0000200FE00000001010203030404040504DA
:1017F0000304030302000000FDFEFEFDFEFFFDFEEC
:10180000FEFDFEFCFBFDFCFDFEFEFEFF00000001F8
:1018100001010102020201020202030303030303A6
:10182000030203020101FFFFFEFEFDFDFEFDFEFEC1
:10183000FEFFFEFEFEFEFFFEFEFFFF0000000101B8
:101840000102020202010201000101000101010185
:101850000101010100000000FFFEFFFFFFFFFFFF8D
:10186000FFFF00000000FF0000FF0000000000007C
:1018700000000000000000000000FF000000000069
:101880000000010101010100010101000000000050
:10189000000000005265616420746865206D616E0F
:1018A00075616C004E6565642068656C703F00541E
:1018B00068617427732069743F0041207475726BEE
:1018C00065792073686F6F74002A5941574E2A005A
:1018D000546F6F2065617379004174206C6561738A
:1018E00074207472790042726F6B656E2062757439
:1018F000746F6E3F004C4F4C00596F7520737563C9
:101900006B2062726F004564697420202D20555051
:101910002F444F574E0043616E63656C20202D208D
:101920005800436F6E6669726D202D20410053652B
:101930006C65637420202D2041005032005031002E
:101940005F5F5F5F5F5F5F5F5F5F5F0053656C65F9
:10195000637420616E6420456469742048616E641C
:101960006C650054616E6B2052616E6B00506C614F
:1019700079657220767320506C6179657200506CC5
:1019800061796572207673204350550032303134CE
:10199000202D204C617772656E63652042726F6FF7
:1019A0006B730001012601012501012401012301BE
:1019B000012202020C0D0D0C02020A0B1819020280
:1019C00008091617020220212E2F02021E1F2C2D9D
:1019D00002021C1D2A2B02021A1B282902020607DA
:1019E000141502020405121302020203101102026E
:1019F00000010E0F01012701010901010B01010A7C
:101A000001010901010801010701010601010401A9
:101A1000010301010201010501010115040D0E0F71
:101A200010111213141516001700000010110F16D4
:101A300000180019001A001B1C1D1E1F20000000AA
:101A4000002122001A001B0019002311241A001B78
:101A50002526000000002728001A001B0029002A64
:101A6000002B2A002B2A00170000002A00002C2D32
:101A70002EFEFEFEFEFEFE2B2BFEFEFEFEFEFEFEFC
:101A80002BFEFEFEFEFEFEFE2B2B2B2BFEFEFEFE95
:101A90002B121212FEFE20202B2B2B2B202020207D
:101AA0002B121212202020202B2B2B2B2020202920
:101AB000292B2BFEFEFEFEFEFE2BFEFEFEFEFEFE94
:101AC000FE2BFEFEFEFEFEFEFE2BFEFEFEFE2B2B82
:101AD0002B2B2020FEFE1212122B202020202B2B3D
:101AE0002B2B2020202012121229292020202B2BE2
:101AF0002BFEFEFEFEFEFE2B2BFEFEFEFEFEFEFE7F
:101B00002BFEFEFEFEFEFEFE2B121212FEFEFEFE5F
:101B10002B2B2B2BFEFE20202B12121220202020FC
:101B20002B2B2B2B202020202B121212202020299F
:101B3000292B2BFEFEFEFEFEFE2BFEFEFEFEFEFE13
:101B4000FE2BFEFEFEFEFEFEFE2BFEFEFEFE121233
:101B5000122B2020FEFE2B2B2B2B202020201212BC
:101B6000122B202020202B2B2B2929202020121261
:101B7000122B122B122B122B122B122B122B122B7D
:101B8000122B122B122B122B12FEFE2020202020B3
:101B900020FEFE202020202020FEFEFE20202020EF
:101BA00020FEFEFEFE20202929FEFEFEFE2020292A
:101BB0002B2B122B122BFEFEFE2B122B122BFEFEBA
:101BC000FE2B122B122BFEFEFE202020FEFEFEFE20
:101BD000FE202020FEFEFEFEFE20202020FEFEFE37
:101BE000FE29202020FEFEFE2B292B2B2B2B2B2B1E
:101BF0002B122B122B122B122B122B122B122B12FD
:101C00002B122B122B122B122BFEFE202020202019
:101C100020FEFE202020202020FEFEFE202020206E
:101C200020FEFEFEFE20202929FEFEFEFE202029A9
:101C30002B122B122B12FEFEFE122B122B12FEFE6B
:101C4000FE122B122B12FEFEFE202020FEFEFEFEB8
:101C5000FE202020FEFEFEFEFE20202020FEFEFEB6
:101C6000FE29202020FEFEFE2B292B2B2B2B2B2B9D
:101C70002BFEFEFEFEFEFEFEFEFEFEFEFEFEFEFE57
:101C8000FEFEFEFFFFFEFE3F3FFEFEFFFFFEFE3FAD
:101C90003FFEFEFEFEFFFF3F3FFEFEFEFEFFFF3F5C
:101CA0003FFEFEFEFE3F3F3F3FFEFEFEFE3F3F3F4C
:101CB0003FFEFEFEFEFEFEFEFEFEFEFEFEFEFEFE03
:101CC000FEFEFEFEFEFFFFFEFEFEFEFEFEFFFFFE30
:101CD000FEFEFEFFFFFEFEFEFEFEFEFFFFFEFEFE20
:101CE000FE3F3F3F3F3F3FFEFE3F3F3F3F3F3FFE08
:101CF000FE3F3F3F3FFEFEFEFE3F3F3F3FFEFEFEFC
:101D0000FE3F3FFFFF1F1F3F3F3F3FFFFF1F1F3FA4
:101D10003FFEFE1F1FFFFF3F3FFEFE1F1FFFFF3F57
:101D20003FFEFEFEFE3F3F3F3FFEFEFEFE3F3F3FCB
:101D30003FFEFEFEFE3F3F3F3FFEFEFEFE3F3F3FBB
:101D40003FFEFE1F1FFFFF3F3FFEFE1F1FFFFF3F27
:101D50003FFEFEFFFF3F3FFEFEFEFEFFFF3F3FFE5A
:101D6000FE3F3F3F3F3F3FFEFE3F3F3F3F3F3FFE87
:101D7000FEFEFEFEFEFEFEFEFEFEFEFEFEFEFEFE83
:101D8000FEFEFEFFFFFEFEFEFEFEFEFFFFFEFEFE6F
:101D9000FEFEFEFEFEFFFFFEFEFEFEFEFEFFFFFE5F
:101DA000FEFEFEFEFEFEFEFEFEFEFEFEFEFEFEFE53
:101DB000FEFEFEFEFEFEFEFEFEFEFEFEFEFEFEFE43
:101DC000FEFEFEFEFEFFFFFEFEFEFEFEFEFFFFFE2F
:101DD000FEFEFEFFFFFEFEFEFEFEFEFFFFFEFEFE1F
:101DE000FEFEFEFEFEFEFEFEFEFEFEFEFEFEFEFE13
:101DF000FE121212202020292B2B2B2B20202029F1
:101E00002912121220202020202B2B2B20202020D2
:101E100020121212202020FEFE2B2B2B2020FEFE53
:101E2000FE121212FEFEFEFEFE2B2B2BFEFEFEFE0F
:101E3000FE2B2920202012121229292020202B2BB2
:101E40002B202020202012121220202020202B2B9B
:101E50002BFEFE202020121212FEFEFE20202B2B35
:101E60002BFEFEFEFEFE121212FEFEFEFEFE2B2BCF
:101E70002B2B2B2B202020292B1212122020202943
:101E8000292B2B2B20202020201212122020202052
:101E9000202B2B2B202020FEFE1212122020FEFED3
:101EA000FE2B2B2BFEFEFEFEFE121212FEFEFEFE8F
:101EB000FE2B292020202B2B2B2929202020121219
:101EC0001220202020202B2B2B202020202012121B
:101ED00012FEFE2020202B2B2BFEFEFE20201212B5
:101EE00012FEFEFEFEFE2B2B2BFEFEFEFEFE12124F
:101EF00012FEFEFEFE2020292BFEFEFEFE202029E3
:101F000029FEFEFE2020202020FEFE202020202072
:101F100020FEFE2020202020202B122B122B122B03
:101F2000122B122B122B122B122B122B122B122BC9
:101F300012292B2B2B2B2B2B2B29202020FEFEFEB6
:101F40002B20202020FEFEFEFE202020FEFEFEFE96
:101F5000FE202020FEFEFEFEFE2B122B122BFEFE8C
:101F6000FE2B122B122BFEFEFE2B122B122BFEFE33
:101F7000FEFEFEFEFE2020292BFEFEFEFE20202976
:101F800029FEFEFE2020202020FEFE2020202020F2
:101F900020FEFE202020202020122B122B122B129C
:101FA0002B122B122B122B122B122B122B122B1249
:101FB0002B292B2B2B2B2B2B2B29202020FEFEFE1D
:101FC0002B20202020FEFEFEFE202020FEFEFEFE16
:101FD000FE202020FEFEFEFEFE122B122B12FEFE25
:101FE000FE122B122B12FEFEFE122B122B12FEFEE5
:101FF000FEFEFE3F3F3F3F3F3FFEFE3F3F3F3F3F36
:102000003FFEFEFEFEFFFFFEFEFEFEFEFEFFFFFEAB
:10201000FEFEFEFFFFFEFEFEFEFEFEFFFFFEFEFEDC
:10202000FEFEFEFEFEFEFEFEFEFEFEFEFEFEFEFED0
:10203000FE3F3F3F3FFEFEFEFE3F3F3F3FFEFEFEB8
:10204000FE3F3FFFFFFEFEFEFE3F3FFFFFFEFEFEA8
:10205000FE3F3FFEFEFFFFFEFE3F3FFEFEFFFFFE98
:10206000FEFEFEFEFEFEFEFEFEFEFEFEFEFEFEFE90
:10207000FEFEFE3F3F3F3F3F3FFEFE3F3F3F3F3FB5
:102080003FFEFE1F1FFFFFFEFEFEFE1F1FFFFFFEA7
:10209000FE3F3FFFFF1F1FFEFE3F3FFFFF1F1FFED4
:1020A000FE3F3F3F3FFEFEFEFE3F3F3F3FFEFEFE48
:1020B000FE3F3F3F3FFEFEFEFE3F3F3F3FFEFEFE38
:1020C000FE3F3FFFFF1F1FFEFE3F3FFFFF1F1FFEA4
:1020D000FE3F3F1F1FFFFF3F3F3F3F1F1FFFFF3FD1
:1020E0003FFEFEFEFE3F3F3F3FFEFEFEFE3F3F3F08
:1020F0003FFEFEFEFEFEFEF5F5FEFEFEFEFEFEFED1
:10210000F5FEFEFEFEFEFEFEF5F5F5F5FEFEFEFE1C
:10211000F5909090FEFEE1E1F5F5F5F5E1E1E1E104
:10212000F5909090E1E1E1E1F5F5F5F5E1E1E1F01F
:10213000F0F5F5FEFEFEFEFEFEF5FEFEFEFEFEFEE8
:10214000FEF5FEFEFEFEFEFEFEF5FEFEFEFEF5F5D3
:10215000F5F5E1E1FEFE909090F5E1E1E1E1F5F5C4
:10216000F5F5E1E1E1E1909090F0F0E1E1E1F5F5E4
:10217000F5FEFEFEFEFEFEF5F5FEFEFEFEFEFEFE9A
:10218000F5FEFEFEFEFEFEFEF5909090FEFEFEFECB
:10219000F5F5F5F5FEFEE1E1F5909090E1E1E1E184
:1021A000F5F5F5F5E1E1E1E1F5909090E1E1E1F09F
:1021B000F0F5F5FEFEFEFEFEFEF5FEFEFEFEFEFE68
:1021C000FEF5FEFEFEFEFEFEFEF5FEFEFEFE90901D
:1021D00090F5E1E1FEFEF5F5F5F5E1E1E1E1909044
:1021E00090F5E1E1E1E1F5F5F5F0F0E1E1E1909064
:1021F00090F590F590F590F590F590F590F590F5B7
:1022000090F590F590F590F590FEFEE1E1E1E1E1C9
:10221000E1FEFEE1E1E1E1E1E1FEFEFEE1E1E1E11D
:10222000E1FEFEFEFEE1E1F0F0FEFEFEFEE1E1F089
:10223000F5F590F590F5FEFEFEF590F590F5FEFEB5
:10224000FEF590F590F5FEFEFEE1E1E1FEFEFEFEFC
:10225000FEE1E1E1FEFEFEFEFEE1E1E1E1FEFEFE69
:10226000FEF0E1E1E1FEFEFEF5F0F5F5F5F5F5F540
:10227000F590F590F590F590F590F590F590F59036
:10228000F590F590F590F590F5FEFEE1E1E1E1E1E4
:10229000E1FEFEE1E1E1E1E1E1FEFEFEE1E1E1E19D
:1022A000E1FEFEFEFEE1E1F0F0FEFEFEFEE1E1F009
:1022B000F590F590F590FEFEFE90F590F590FEFEFF
:1022C000FE90F590F590FEFEFEE1E1E1FEFEFEFEE1
:1022D000FEE1E1E1FEFEFEFEFEE1E1E1E1FEFEFEE9
:1022E000FEF0E1E1E1FEFEFEF5F0F5F5F5F5F5F5C0
:1022F000F5FEFEFEFEFEFEFEFEFEFEFEFEFEFEFE07
:10230000FEFEFEFEADADFEFEFEFEFEADADADADFED3
:10231000FEFEFEADADADADFEFEFEFEFEADADFEFEC3
:10232000FEFEFEFEFEFEFEFEFEFEFEFEFEFEFEFECD
:10233000FEFEFEFEADADFEFEFEFEFEFEADADFEFE01
:10234000FEFEFEADADADADFEFEFEFEADADADADFE35
:10235000FEFEADADADADADADFEFEFE3F3F3F3FFE7F
:10236000FEFEFEFE3F3FFEFEFEFEFEFEFEFEFEFE0B
:10237000FEFEFEFEADADFEFEFEFEFEFEADADFEFEC1
:10238000FEFEFEADADADADFEFEFEFEADADADADFEF5
:10239000FEFEADADADADADADFEFEFEFE3F3FFEFEC1
:1023A000FEFEFEFEFEFEFEFEFEFEFEFEFEFEFEFE4D
:1023B000FEFEFEFEFEFEFEFEFEFEFEFEADFEFEFE8E
:1023C000FEFEFE3FADADADFEFEFE3F3FADADADADA1
:1023D000ADFE3F3FADADADADADFEFE3FADADADFE33
:1023E000FEFEFEFEADFEFEFEFEFEFEFEFEFEFEFE5E
:1023F000FEFEFEFEFEFEFEFEFEFEFEFEADFEFEFE4E
:10240000FEFEFEFEADADADFEFEFEFE3FADADADADE2
:10241000ADFEFE3FADADADADADFEFEFEADADADFE74
:10242000FEFEFEFEADFEFEFEFEFEFEFEFEFEFEFE1D
:10243000FEFEFEFEFEFEFEFEFEFEFEFEFEFEFEFEBC
:10244000FEFEFEFEFEFEFEFEFEFEFEFEFEFEFEFEAC
:10245000FEFEFEFEFEFEFEFEFEFEFEFEFEFEFEFE9C
:10246000FEFEFEFEFEFEFEFEFEFEFEFEFEFEFEFE8C
:10247000FE909090E1E1E1F0F5F5F5F5E1E1E1F0B4
:10248000F0909090E1E1E1E1E1F5F5F5E1E1E1E1E4
:10249000E1909090E1E1E1FEFEF5F5F5E1E1FEFE6F
:1024A000FE909090FEFEFEFEFEF5F5F5FEFEFEFEB1
:1024B000FEF5F0E1E1E1909090F0F0E1E1E1F5F579
:1024C000F5E1E1E1E1E1909090E1E1E1E1E1F5F5B3
:1024D000F5FEFEE1E1E1909090FEFEFEE1E1F5F512
:1024E000F5FEFEFEFEFE909090FEFEFEFEFEF5F571
:1024F000F5F5F5F5E1E1E1F0F5909090E1E1E1F03D
:10250000F0F5F5F5E1E1E1E1E1909090E1E1E1E163
:10251000E1F5F5F5E1E1E1FEFE909090E1E1FEFEEE
:10252000FEF5F5F5FEFEFEFEFE909090FEFEFEFE30
:10253000FEF5F0E1E1E1F5F5F5F0F0E1E1E1909093
:1025400090E1E1E1E1E1F5F5F5E1E1E1E1E1909032
:1025500090FEFEE1E1E1F5F5F5FEFEFEE1E1909091
:1025600090FEFEFEFEFEF5F5F5FEFEFEFEFE9090F0
:1025700090FEFEFEFEE1E1F0F5FEFEFEFEE1E1F082
:10258000F0FEFEFEE1E1E1E1E1FEFEE1E1E1E1E19B
:10259000E1FEFEE1E1E1E1E1E1F590F590F590F594
:1025A00090F590F590F590F590F590F590F590F503
:1025B00090F0F5F5F5F5F5F5F5F0E1E1E1FEFEFE5B
:1025C000F5E1E1E1E1FEFEFEFEE1E1E1FEFEFEFEFF
:1025D000FEE1E1E1FEFEFEFEFEF590F590F5FEFE69
:1025E000FEF590F590F5FEFEFEF590F590F5FEFEF9
:1025F000FEFEFEFEFEE1E1F0F5FEFEFEFEE1E1F094
:10260000F0FEFEFEE1E1E1E1E1FEFEE1E1E1E1E11A
:10261000E1FEFEE1E1E1E1E1E190F590F590F59078
:10262000F590F590F590F590F590F590F590F59082
:10263000F5F0F5F5F5F5F5F5F5F0E1E1E1FEFEFE75
:10264000F5E1E1E1E1FEFEFEFEE1E1E1FEFEFEFE7E
:10265000FEE1E1E1FEFEFEFEFE90F590F590FEFE4D
:10266000FE90F590F590FEFEFE90F590F590FEFE42
:10267000FE0000000000000000000000000000005C
:10268000000000000000000000000000000000004A
:10269000000000000000000000000000000000003A
:1026A000000000000000000000000000000000002A
:1026B000006666662666666666777777267777773A
:1026C000777777772677777777777777267777773C
:1026D0007726262626262626267777777777777712
:1026E000267777777777777726777777777777771C
:1026F0002600ECECECECECEC00ECFFFFFFFFFFFF46
:10270000ECECEDFFFFFFFFEDECECEDEEFFFFEEED8F
:10271000ECECEDEEFFEFEEEDECECEDFFEEEEEEEDC2
:10272000ECECFFEDEDEDEDEDEC00ECECECECECECBD
:102730000000ECECECECECEC00ECFFEDEDEDEDFF73
:10274000ECECEDFFEEEEFFEDECECEDEEFFFFEEED71
:10275000ECECEDEEFFFFEEEDECECEDFFEEEEFFED61
:10276000ECECFFEDEDEDEDFFEC00ECECECECECEC6B
:102770000000ECECECECECEC00ECEDEDEDEDEDFF45
:10278000ECECEDEEEEFFFFEDECECEDEEFFFFFFED20
:10279000ECECFFEEFFFFEEEDECECEDFFEEEEEEED20
:1027A000ECECFFEDFFEDEDEDEC00ECECECECECEC2B
:1027B00000050505050505050505050505050505CE
:1027C00004050505050505040405050507070404BA
:1027D00004050505070704040405050504040404AD
:1027E00004050504040404040405040404040404A6
:1027F00004000000000000000000FF003F0000FF98
:10280000000000FF3F00FF000000003F3F3F3F3F50
:1028100000003F3F3F3F3F00000000FF003FFF0040
:102820000000FF00003F00FF00000000000000006B
:10283000003F3F000000003F3F3FFF1F3F001FFFE2
:102840003F001FFF3F00FF3F0000003F3F3F3F3F73
:1028500000003F3F3F3F3F0000001FFF003FFF1FC2
:10286000003FFF1F003F1FFF3F3F3F000000003FB2
:102870003F000000000000000000FF00000000FF1B
:10288000000000FF0000FF0000000000000000004A
:102890000000000000000000000000FF0000FF003A
:1028A0000000FF00000000FF00000000000000002A
:1028B00000050505050505050505050505050505CD
:1028C00000050505050505000005050507070000CD
:1028D00000050505070000000005050500000000D3
:1028E00000050500000000000005000000000000D9
:1028F00000000000000000000400000000000004D0
:1029000004000000000004040400000000070404A8
:102910000400000007070404040000040404040485
:10292000040004040404040404040404040404046B
:10293000040505050505050505000505050505054D
:10294000050000050505050505000000070705054C
:102950000500000000070505050000000000050552
:102960000500000000000005050000000000000058
:102970000504000000000000000404000000000046
:102980000004040400000000000404040700000028
:102990000004040407070000000404040404040005
:1029A00000040404040404040004040404040404EF
:1029B00004ADADADADADADADADAD818181828283F4
:1029C00083AD81818182828383AD81818182828393
:1029D00083AD81818182828383AD81818182828383
:1029E00083AD81818182828383ADADADADADADAD6F
:1029F000ADADADADADADADADAD8585868787868519
:102A0000858585868787868585858586878786856A
:102A1000858585868787868585858586878786855A
:102A2000858585868787868585AD85868787868522
:102A3000ADADADADADADADADAD83838282818181F4
:102A4000AD83838282818181AD8383828281818112
:102A5000AD83838282818181AD8383828281818102
:102A6000AD83838282818181ADADADADADADADADC4
:102A7000ADADADADADADADADADAD8181818282838A
:102A800083AD81818182828383AD818181828283D2
:102A900083AD81818182828383AD818181828283C2
:102AA00083AD81818182828383AD818181828283B2
:102AB000ADADADADADADADADAD8585868787868558
:102AC00085858586878786858585858687878685AA
:102AD000858585868787868585858586878786859A
:102AE000858585868787868585ADADADADADADAD78
:102AF000ADADADADADADADADAD8383828281818134
:102B0000AD83838282818181AD8383828281818151
:102B1000AD83838282818181AD8383828281818141
:102B2000AD83838282818181ADAD83828281818107
:102B3000ADADADADADADADADADAD818181828283C9
:102B4000ADAD818181828283ADAD818181828283BD
:102B5000ADAD818181828283ADAD818181828283AD
:102B600083AD81818182828383AD818181828283F1
:102B700083000000000000000000000000000000D2
:102B80000000000000000000000000000000000045
:102B900000ADADADADADADADAD8585868787868524
:102BA00085858586878786858585858687878685C9
:102BB0008500000000000000000000000000000090
:102BC0000000000000000000000000000000000005
:102BD00000ADADADADADADADAD8383828281818100
:102BE000AD83838282818181AD8383828281818171
:102BF000ADADADADADADADADADAD81818182828309
:102C0000ADAD818181828283ADAD818181828283FC
:102C1000ADAD818181828283ADAD818181828283EC
:102C2000ADAD818181828283ADAD818181828283DC
:102C3000ADADADADADADADADADAD838282818181C8
:102C4000ADAD838282818181ADAD838282818181BC
:102C5000ADAD838282818181ADAD838282818181AC
:102C6000ADAD838282818181ADADADADADADADAD98
:102C7000ADADADADADADADADADAD83828281818188
:102C8000ADAD838282818181ADAD8382828181817C
:102C9000ADAD838282818181ADAD8382828181816C
:102CA000ADAD838282818181ADAD8382828181815C
:102CB000ADAD858687878685ADAD85868787868518
:102CC000ADAD858687878685ADAD85868787868508
:102CD000ADAD858687878685ADAD858687878685F8
:102CE000ADAD858687878685ADAD858687878685E8
:102CF000ADAD818181828283ADAD8181818282830C
:102D0000ADAD818181828283ADAD818181828283FB
:102D1000ADAD818181828283ADAD818181828283EB
:102D2000ADAD818181828283ADAD818181828283DB
:102D3000ADAD838282818181ADAD838282818181CB
:102D4000ADAD838282818181ADAD838282818181BB
:102D5000ADAD838282818181ADAD838282818181AB
:102D6000ADAD838282818181ADAD8382828181819B
:102D7000ADAD81818182828383AD818181828283B5
:102D800083AD81818182828383AD818181828283CF
:102D9000ADAD818181828283ADAD8181818282836B
:102DA000ADAD818181828283ADAD8181818282835B
:102DB000AD8585868787868585858586878786858F
:102DC000858585868787868585ADADADADADADAD95
:102DD000AD00000000000000000000000000000046
:102DE00000000000000000000000000000000000E3
:102DF0000083838282818181AD838382828181810C
:102E0000AD83838282818181ADAD83828281818124
:102E1000ADAD838282818181ADAD838282818181EA
:102E2000ADAD838282818181ADAD838282818181DA
:102E3000ADAD818181828283ADAD818181828283CA
:102E400083AD81818182828383AD8181818282830E
:102E500083AD81818182828383AD818181828283FE
:102E600083AD81818182828383AD818181828283EE
:102E700083ADADADADADADADAD85858687878685BE
:102E8000AD85858687878685AD8585868787868596
:102E9000AD85858687878685AD8585868787868586
:102EA000AD85858687878685AD8585868787868576
:102EB000ADAD818181828283ADAD8181818282834A
:102EC000ADAD818181828283ADAD8181818282833A
:102ED000ADAD818181828283ADAD8181818282832A
:102EE000ADAD81818182828383AD81818182828344
:102EF000830000000000000000000000000000004F
:102F000000000000000000000000000000000000C1
:102F1000000000000000000000ADADADADADADADF6
:102F2000AD85858687878685AD85858687878685F5
:102F3000ADAD818181828283ADAD818181828283C9
:102F400083AD81818182828383AD8181818282830D
:102F500083AD81818182828383AD818181828283FD
:102F600083AD81818182828383AD818181828283ED
:102F7000ADAD838282818181AD83838282818181B3
:102F8000AD83838282818181AD83838282818181CD
:102F9000AD83838282818181AD83838282818181BD
:102FA000AD83838282818181ADAD83828281818183
:102FB000ADAD81818182828383AD81818182828373
:102FC00083AD81818182828383AD8181818282838D
:102FD00083AD81818182828383AD8181818282837D
:102FE00083AD81818182828383AD8181818282836D
:102FF000AD85858687878685AD8585868787868525
:10300000AD85858687878685AD8585868787868514
:10301000AD85858687878685AD8585868787868504
:10302000AD85858687878685ADADADADADADADADE2
:10303000ADAD81818182828383AD818181828283F2
:1030400083AD81818182828383AD8181818282830C
:1030500083AD818181828283ADAD818181828283D2
:10306000ADAD818181828283ADAD81818182828398
:10307000AD85858687878685AD85858687878685A4
:10308000AD85858687878685AD8585868787868594
:10309000ADADADADADADADADAD000000000000001B
:1030A0000000000000000000000000000000000020
:1030B00000AD858687878685ADAD858687878685C1
:1030C000ADAD858687878685ADAD85868787868504
:1030D000ADAD858687878685ADAD858687878685F4
:1030E000ADAD858687878685ADADADADADADADADFA
:1030F000ADAD818181828283ADAD81818182828308
:10310000ADAD818181828283ADAD818181828283F7
:10311000ADAD818181828283ADAD818181828283E7
:10312000ADAD818181828283ADADADADADADADADD3
:10313000ADAD838282818181ADAD838282818181C7
:10314000ADAD838282818181ADAD838282818181B7
:10315000ADAD838282818181ADAD838282818181A7
:10316000ADAD838282818181ADADADADADADADAD93
:10317000ADAD818181828283ADAD81818182828387
:10318000ADAD81818182828383AD818181828283A1
:1031900083AD81818182828383AD818181828283BB
:1031A00083AD81818182828383ADADADADADADADA7
:1031B000AD0000000000000000ADADADADADADADA7
:1031C000AD8585868787868585858586878786857B
:1031D0008585858687878685858585868787868593
:1031E000858585868787868585ADADADADADADAD71
:1031F000ADAD838282818181ADAD83828281818107
:10320000AD83838282818181AD838382828181814A
:10321000AD83838282818181AD838382828181813A
:10322000AD83838282818181ADADADADADADADADFC
:10323000AD000000000000000000000000000000E1
:10324000000000000000000000000000000000007E
:10325000000000000000000000000000000000006E
:10326000000000000000000000000000000000005E
:10327000000000000000000000000000FFFF000050
:1032800000000000FFFF000000000000FFFF000042
:1032900000000000FFFF0000000000000000000030
:1032A00000000000FFFF0000000000000000000020
:1032B00000000000000000000000FFFF0000FFFF12
:1032C0000000FFFF0000FFFF0000FFFF0000FFFF06
:1032D00000000000000000000000000000000000EE
:1032E00000000000000000000000000000000000DE
:1032F00000000000000000000000FFFF0000FFFFD2
:1033000000FFFFFFFFFFFFFFFF00FFFF0000FFFFC9
:103310000000FFFF0000FFFF00FFFFFFFFFFFFFFB8
:10332000FF00FFFF0000FFFF0000000000000000A2
:1033300000000000FFFF0000000000FFFFFFFFFF94
:103340000000FFFF00000000000000FFFFFFFF0083
:10335000000000000000FFFF0000FFFFFFFFFF0074
:1033600000000000FFFF000000000000000000005F
:1033700000000000000000000000FFFF0000FFFF51
:103380000000FFFF00FFFF0000000000FFFF000043
:10339000000000FFFF0000000000FFFF0000FFFF33
:1033A0000000FF000000FFFF000000000000000020
:1033B00000000000FFFFFF00000000FFFF00FFFF14
:1033C00000000000FFFFFF00000000FFFFFF000003
:1033D0000000FFFF00FFFFFFFF00FFFF0000FFFFF7
:1033E000000000FFFFFF00FFFF00000000000000E2
:1033F000000000000000000000000000FFFF0000CF
:1034000000000000FFFF000000000000FFFF0000C0
:1034100000000000000000000000000000000000AC
:10342000000000000000000000000000000000009C
:1034300000000000000000000000000000FFFFFF8F
:1034400000000000FFFFFF0000000000FFFF000081
:1034500000000000FFFF000000000000FFFFFF0071
:103460000000000000FFFFFF00000000000000005F
:1034700000000000000000000000FFFFFF0000004F
:10348000000000FFFFFF000000000000FFFF000041
:1034900000000000FFFF0000000000FFFFFF000031
:1034A0000000FFFFFF00000000000000000000001F
:1034B00000000000000000000000FFFF0000FFFF10
:1034C000000000FFFFFFFF0000FFFFFFFFFFFFFF07
:1034D000FF0000FFFFFFFF000000FFFF0000FFFFF5
:1034E00000000000000000000000000000000000DC
:1034F000000000000000000000000000FFFF0000CE
:1035000000000000FFFF00000000FFFFFFFFFFFFC3
:1035100000000000FFFF000000000000FFFF0000AF
:10352000000000000000000000000000000000009B
:10353000000000000000000000000000000000008B
:10354000000000000000000000000000000000007B
:10355000000000000000000000000000FFFF00006D
:1035600000000000FFFF0000000000FFFF0000005F
:10357000000000000000000000000000000000004B
:1035800000000000000000000000FFFFFFFFFFFF41
:10359000000000000000000000000000000000002B
:1035A000000000000000000000000000000000001B
:1035B000000000000000000000000000000000000B
:1035C00000000000000000000000000000000000FB
:1035D000000000000000000000000000FFFF0000ED
:1035E00000000000FFFF00000000000000000000DD
:1035F0000000000000000000000000000000FFFFCD
:103600000000000000FFFF0000000000FFFF0000BE
:10361000000000FFFF0000000000FFFF00000000AE
:103620000000FF000000000000000000000000009B
:103630000000000000000000000000FFFFFFFF008E
:103640000000FFFF0000FFFF0000FFFF00FFFFFF83
:103650000000FFFFFF00FFFF0000FFFF0000FFFF73
:10366000000000FFFFFFFF0000000000000000005E
:10367000000000000000000000000000FFFF00004C
:10368000000000FFFFFF000000000000FFFF00003F
:1036900000000000FFFF000000000000FFFF00002E
:1036A0000000FFFFFFFFFFFF000000000000000020
:1036B0000000000000000000000000FFFFFFFF000E
:1036C0000000FFFF0000FFFF0000000000FFFF0000
:1036D00000000000FFFF0000000000FFFF000000EE
:1036E0000000FFFFFFFFFFFF0000000000000000E0
:1036F00000000000000000000000FFFFFFFFFFFFD0
:103700000000000000FFFF0000000000FFFF0000BD
:103710000000000000FFFF000000FFFF0000FFFFAF
:10372000000000FFFFFFFF0000000000000000009D
:1037300000000000000000000000000000FFFF008B
:1037400000000000FFFFFF00000000FFFFFFFF0080
:103750000000FFFF00FFFF000000FFFFFFFFFFFF73
:103760000000000000FFFF0000000000000000005B
:1037700000000000000000000000FFFFFFFFFFFF4F
:103780000000FFFF000000000000FFFFFFFFFF0040
:10379000000000000000FFFF0000FFFF0000FFFF2F
:1037A000000000FFFFFFFF0000000000000000001D
:1037B0000000000000000000000000FFFFFFFF000D
:1037C0000000FFFF000000000000FFFFFFFFFF0000
:1037D0000000FFFF0000FFFF0000FFFF0000FFFFF1
:1037E000000000FFFFFFFF000000000000000000DD
:1037F00000000000000000000000FFFFFFFFFFFFCF
:10380000000000000000FFFF0000000000FFFF00BC
:1038100000000000FFFF0000000000FFFF000000AC
:10382000000000FFFF00000000000000000000009A
:103830000000000000000000000000FFFFFFFF008C
:103840000000FFFF0000FFFF000000FFFFFFFF0080
:103850000000FFFF0000FFFF0000FFFF0000FFFF70
:10386000000000FFFFFFFF0000000000000000005C
:103870000000000000000000000000FFFFFFFF004C
:103880000000FFFF0000FFFF000000FFFFFFFFFF41
:10389000000000000000FFFF0000000000FFFF002C
:1038A000000000FFFFFF000000000000000000001B
:1038B0000000000000000000000000000000000008
:1038C00000000000FFFF000000000000FFFF0000FC
:1038D000000000000000000000000000FFFF0000EA
:1038E00000000000FFFF00000000000000000000DA
:1038F00000000000000000000000000000000000C8
:1039000000000000FFFF000000000000FFFF0000BB
:10391000000000000000000000000000FFFF0000A9
:1039200000000000FFFF0000000000FFFF0000009B
:10393000000000000000FFFF0000000000FFFF008B
:1039400000000000FFFF0000000000FFFF0000007B
:1039500000000000FFFF00000000000000FFFF006B
:10396000000000000000FFFF000000000000000059
:103970000000000000000000000000000000000047
:103980000000FFFFFFFFFFFF00000000000000003D
:1039900000000000000000000000FFFFFFFFFFFF2D
:1039A0000000000000000000000000000000000017
:1039B0000000FFFF00000000000000FFFF0000000B
:1039C00000000000FFFF00000000000000FFFF00FB
:1039D00000000000FFFF0000000000FFFF000000EB
:1039E0000000FFFF000000000000000000000000D9
:1039F0000000000000000000000000FFFFFFFF00CB
:103A00000000FFFF0000FFFF0000000000FFFF00BC
:103A100000000000FFFF00000000000000000000A8
:103A200000000000FFFF0000000000000000000098
:103A30000000000000000000000000FFFFFFFF008A
:103A40000000FFFF0000FFFF0000FFFF00FFFFFF7F
:103A50000000FFFF00FFFFFF0000FFFF000000006D
:103A6000000000FFFFFFFFFF00000000000000005B
:103A7000000000000000000000000000FFFF000048
:103A8000000000FFFFFFFF000000FFFF0000FFFF3E
:103A90000000FFFF0000FFFF0000FFFFFFFFFFFF30
:103AA0000000FFFF0000FFFF00000000000000001A
:103AB00000000000000000000000FFFFFFFFFF000B
:103AC0000000FFFF0000FFFF0000FFFFFFFFFF00FF
:103AD0000000FFFF0000FFFF0000FFFF0000FFFFEE
:103AE0000000FFFFFFFFFF000000000000000000DB
:103AF0000000000000000000000000FFFFFFFF00CA
:103B00000000FFFF0000FFFF0000FFFF00000000BB
:103B10000000FFFF000000000000FFFF0000FFFFAB
:103B2000000000FFFFFFFF00000000000000000099
:103B300000000000000000000000FFFFFFFF000089
:103B40000000FFFF00FFFF000000FFFF0000FFFF7D
:103B50000000FFFF0000FFFF0000FFFF00FFFF006D
:103B60000000FFFFFFFF0000000000000000000059
:103B700000000000000000000000FFFFFFFFFFFF4B
:103B80000000FFFF000000000000FFFFFFFFFF003C
:103B90000000FFFF000000000000FFFF0000000029
:103BA0000000FFFFFFFFFFFF00000000000000001B
:103BB00000000000000000000000FFFFFFFFFFFF0B
:103BC0000000FFFF000000000000FFFFFFFFFF00FC
:103BD0000000FFFF000000000000FFFF00000000E9
:103BE0000000FFFF000000000000000000000000D7
:103BF0000000000000000000000000FFFFFFFFFFCA
:103C00000000FFFF000000000000FFFF00000000B8
:103C10000000FFFF00FFFFFF0000FFFF0000FFFFAD
:103C2000000000FFFFFFFFFF000000000000000099
:103C300000000000000000000000FFFF0000FFFF88
:103C40000000FFFF0000FFFF0000FFFFFFFFFFFF7E
:103C50000000FFFF0000FFFF0000FFFF0000FFFF6C
:103C60000000FFFF0000FFFF000000000000000058
:103C700000000000000000000000FFFFFFFFFFFF4A
:103C800000000000FFFF000000000000FFFF000038
:103C900000000000FFFF000000000000FFFF000028
:103CA0000000FFFFFFFFFFFF00000000000000001A
:103CB00000000000000000000000000000FFFFFF07
:103CC000000000000000FFFF000000000000FFFFF8
:103CD000000000000000FFFF0000FFFF0000FFFFEA
:103CE000000000FFFFFFFF000000000000000000D8
:103CF00000000000000000000000FFFF0000FFFFC8
:103D00000000FFFF00FFFF000000FFFFFFFF0000BB
:103D10000000FFFFFFFF00000000FFFF00FFFF00AB
:103D20000000FFFF0000FFFF000000000000000097
:103D300000000000000000000000FFFF0000000085
:103D40000000FFFF000000000000FFFF0000000077
:103D50000000FFFF000000000000FFFF0000000067
:103D60000000FFFFFFFFFFFF000000000000000059
:103D700000000000000000000000FFFF000000FF46
:103D8000FF00FFFFFF00FFFFFF00FFFFFFFFFFFF40
:103D9000FF00FFFF00FF00FFFF00FFFF000000FF2C
:103DA000FF00FFFF000000FFFF0000000000000018
:103DB00000000000000000000000FFFF0000FFFF07
:103DC0000000FFFFFF00FFFF0000FFFFFFFFFFFFFE
:103DD0000000FFFFFFFFFFFF0000FFFF00FFFFFFEE
:103DE0000000FFFF0000FFFF0000000000000000D7
:103DF0000000000000000000000000FFFFFFFF00C7
:103E00000000FFFF0000FFFF0000FFFF0000FFFFBA
:103E10000000FFFF0000FFFF0000FFFF0000FFFFAA
:103E2000000000FFFFFFFF00000000000000000096
:103E300000000000000000000000FFFFFFFFFF0087
:103E40000000FFFF0000FFFF0000FFFF0000FFFF7A
:103E50000000FFFFFFFFFF000000FFFF0000000069
:103E60000000FFFF00000000000000000000000054
:103E70000000000000000000000000FFFFFFFF0046
:103E80000000FFFF0000FFFF0000FFFF0000FFFF3A
:103E90000000FFFF0000FFFF0000FFFF00FFFF002A
:103EA000000000FFFF00FFFF000000000000000016
:103EB00000000000000000000000FFFFFFFFFF0007
:103EC0000000FFFF0000FFFF0000FFFF0000FFFFFA
:103ED0000000FFFFFFFFFF000000FFFF00FFFF00EB
:103EE0000000FFFF0000FFFF0000000000000000D6
:103EF0000000000000000000000000FFFFFFFF00C6
:103F00000000FFFF00000000000000FFFFFFFF00B7
:103F1000000000000000FFFF000000000000FFFFA5
:103F2000000000FFFFFFFF00000000000000000095
:103F300000000000000000000000FFFFFFFFFFFF87
:103F400000000000FFFF000000000000FFFF000075
:103F500000000000FFFF000000000000FFFF000065
:103F600000000000FFFF0000000000000000000053
:103F700000000000000000000000FFFF0000FFFF45
:103F80000000FFFF0000FFFF0000FFFF0000FFFF39
:103F90000000FFFF0000FFFF0000FFFF0000FFFF29
:103FA0000000FFFFFFFFFFFF000000000000000017
:103FB00000000000000000000000FFFF0000FFFF05
:103FC0000000FFFF0000FFFF0000FFFF0000FFFFF9
:103FD0000000FFFF0000FFFF000000FFFFFFFF00E9
:103FE00000000000FFFF00000000000000000000D3
:103FF00000000000000000000000FFFF000000FFC4
:10400000FF00FFFF000000FFFF00FFFF00FF00FFB9
:10401000FF00FFFFFFFFFFFFFF00FFFFFF00FFFFAD
:10402000FF00FFFF000000FFFF0000000000000095
:1040300000000000000000000000FFFF0000FFFF84
:104040000000FFFF0000FFFF000000FFFFFFFF0078
:10405000000000FFFFFFFF000000FFFF0000FFFF68
:104060000000FFFF0000FFFF000000000000000054
:1040700000000000000000000000FFFF0000FFFF44
:104080000000FFFF0000FFFF000000FFFFFFFF0038
:1040900000000000FFFF000000000000FFFF000024
:1040A00000000000FFFF0000000000000000000012
:1040B00000000000000000000000FFFFFFFFFFFF06
:1040C0000000000000FFFF0000000000FFFF0000F4
:1040D000000000FFFF0000000000FFFF00000000E4
:1040E0000000FFFFFFFFFFFF0000000000000000D6
:1040F000000000000000000000000000FFFFFFFFC4
:1041000000000000FFFF000000000000FFFF0000B3
:1041100000000000FFFF000000000000FFFF0000A3
:1041200000000000FFFFFFFF000000000000000093
:1041300000000000000000000000FF000000000080
:104140000000FFFF00000000000000FFFF00000073
:1041500000000000FFFF00000000000000FFFF0063
:10416000000000000000FFFF000000000000000051
:1041700000000000000000000000FFFFFFFF000043
:1041800000000000FFFF000000000000FFFF000033
:1041900000000000FFFF000000000000FFFF000023
:1041A0000000FFFFFFFF0000000000000000000013
:1041B00000000000000000000000000000FF000000
:1041C00000000000FFFFFF00000000FFFF00FFFFF6
:1041D0000000FFFF000000FFFF00000000000000E3
:1041E00000000000000000000000000000000000CF
:1041F00000000000000000000000000000000000BF
:1042000000000000000000000000000000000000AE
:10421000000000000000000000000000000000009E
:1042200000FFFFFFFFFFFFFFFF0000000000000096
:10423000000000000000000000000000FFFF000080
:10424000000000FFFFFFFF000000FFFFFFFFFFFF78
:104250000000FFFFFFFFFFFF000000FFFFFFFF0068
:1042600000000000FFFF0000000000000000000050
:10427000000000000000000000000000000000003E
:10428000000000FFFFFFFF00000000000000FFFF34
:10429000000000FFFFFFFFFF0000FFFF0000FFFF27
:1042A000000000FFFFFFFFFF000000000000000013
:1042B00000000000000000000000FFFF0000000000
:1042C0000000FFFF000000000000FFFFFFFFFF00F5
:1042D0000000FFFF0000FFFF0000FFFF0000FFFFE6
:1042E0000000FFFFFFFFFF000000000000000000D3
:1042F00000000000000000000000000000000000BE
:10430000000000FFFFFFFF000000FFFF00000000B3
:104310000000FFFF000000000000FFFF00000000A1
:10432000000000FFFFFFFF00000000000000000091
:104330000000000000000000000000000000FFFF7F
:10434000000000000000FFFF000000FFFFFFFFFF74
:104350000000FFFF0000FFFF0000FFFF0000FFFF65
:10436000000000FFFFFFFFFF000000000000000052
:10437000000000000000000000000000000000003D
:10438000000000FFFFFFFF000000FFFF0000FFFF35
:104390000000FFFFFFFFFFFF0000FFFF0000000025
:1043A000000000FFFFFFFF00000000000000000011
:1043B00000000000000000000000000000FFFFFF00
:1043C00000000000FFFF0000000000FFFFFFFFFFF4
:1043D00000000000FFFF000000000000FFFF0000E1
:1043E00000000000FFFF00000000000000000000CF
:1043F00000000000000000000000000000000000BD
:10440000000000FFFFFFFFFF0000FFFF0000FFFFB5
:104410000000FFFF0000FFFF000000FFFFFFFFFFA5
:10442000000000000000FFFF0000FFFFFFFFFF0093
:1044300000000000000000000000FFFF000000007E
:104440000000FFFF000000000000FFFFFFFFFF0073
:104450000000FFFF0000FFFF0000FFFF0000FFFF64
:104460000000FFFF0000FFFF000000000000000050
:10447000000000000000000000000000FFFF00003E
:104480000000000000000000000000FFFFFF00002F
:1044900000000000FFFF000000000000FFFF000020
:1044A000000000FFFFFFFF00000000000000000010
:1044B0000000000000000000000000000000FFFFFE
:1044C0000000000000000000000000000000FFFFEE
:1044D000000000000000FFFF000000000000FFFFE0
:1044E000000000000000FFFF000000FFFFFFFF00D2
:1044F00000000000000000000000FFFF00000000BE
:104500000000FFFF000000000000FFFF00FFFF00B1
:104510000000FFFFFFFF00000000FFFF00FFFF00A3
:104520000000FFFF0000FFFF00000000000000008F
:104530000000000000000000000000FFFFFF00007E
:1045400000000000FFFF000000000000FFFF00006F
:1045500000000000FFFF000000000000FFFF00005F
:10456000000000FFFFFFFF0000000000000000004F
:10457000000000000000000000000000000000003B
:104580000000FFFF0000FFFF0000FFFFFFFFFFFF35
:10459000FF00FFFFFFFFFFFFFF00FFFF00FF00FF27
:1045A000FF00FFFF000000FFFF0000000000000010
:1045B00000000000000000000000000000000000FB
:1045C0000000FFFFFFFFFF000000FFFF0000FFFFF4
:1045D0000000FFFF0000FFFF0000FFFF0000FFFFE3
:1045E0000000FFFF0000FFFF0000000000000000CF
:1045F00000000000000000000000000000000000BB
:10460000000000FFFFFFFF000000FFFF0000FFFFB2
:104610000000FFFF0000FFFF0000FFFF0000FFFFA2
:10462000000000FFFFFFFF0000000000000000008E
:10463000000000000000000000000000000000007A
:104640000000FFFFFFFFFF000000FFFF0000FFFF73
:104650000000FFFF0000FFFF0000FFFFFFFFFF0063
:104660000000FFFF000000000000FFFF000000004E
:10467000000000000000000000000000000000003A
:10468000000000FFFFFFFFFF0000FFFF0000FFFF33
:104690000000FFFF0000FFFF000000FFFFFFFFFF23
:1046A000000000000000FFFF000000000000FFFF0E
:1046B00000000000000000000000000000000000FA
:1046C0000000FFFFFFFFFF000000FFFF0000FFFFF3
:1046D0000000FFFF000000000000FFFF00000000DE
:1046E0000000FFFF000000000000000000000000CC
:1046F00000000000000000000000000000000000BA
:10470000000000FFFFFFFFFF0000FFFF00000000B0
:10471000000000FFFFFFFF00000000000000FFFF9F
:104720000000FFFFFFFFFF0000000000000000008E
:10473000000000000000000000000000FFFF00007B
:104740000000FFFFFFFFFFFF00000000FFFF000071
:1047500000000000FFFF000000000000FFFF00005D
:104760000000000000FFFFFF00000000000000004C
:104770000000000000000000000000000000000039
:104780000000FFFF0000FFFF0000FFFF0000FFFF31
:104790000000FFFF0000FFFF0000FFFF0000FFFF21
:1047A000000000FFFFFFFFFF00000000000000000E
:1047B00000000000000000000000000000000000F9
:1047C0000000FFFF0000FFFF0000FFFF0000FFFFF1
:1047D0000000FFFF0000FFFF000000FFFFFFFF00E1
:1047E00000000000FFFF00000000000000000000CB
:1047F00000000000000000000000000000000000B9
:104800000000FFFF000000FFFF00FFFF00FF00FFB0
:10481000FF00FFFFFFFFFFFFFF0000FFFFFFFFFFA5
:10482000000000FFFF00FFFF00000000000000008C
:104830000000000000000000000000000000000078
:104840000000FFFF0000FFFF000000FFFFFFFF0070
:1048500000000000FFFF0000000000FFFFFFFF005E
:104860000000FFFF0000FFFF00000000000000004C
:104870000000000000000000000000000000000038
:104880000000FFFF0000FFFF0000FFFF0000FFFF30
:104890000000FFFF0000FFFF000000FFFFFFFFFF21
:1048A0000000000000FFFF000000FFFFFFFF00000E
:1048B00000000000000000000000000000000000F8
:1048C0000000FFFFFFFFFFFF0000000000FFFF00F0
:1048D00000000000FFFF0000000000FFFF000000DC
:1048E0000000FFFFFFFFFFFF0000000000000000CE
:1048F000000000000000000000000000FFFF0000BA
:10490000000000FFFFFFFF000000FFFFFFFFFFFFB1
:104910000000FFFFFFFFFFFF00000000FFFF00009F
:10492000000000FFFFFFFF0000000000000000008B
:1049300000000000FFFF000000000000FFFF00007B
:1049400000000000FFFF000000000000FFFF00006B
:1049500000000000FFFF000000000000FFFF00005B
:1049600000000000FFFF000000000000FFFF00004B
:1049700000000000000000000000FFFFFFFFFFFF3D
:104980000000FFFFFFFF00000000FFFFFFFFFF0030
:104990000000FFFF00FFFFFF0000FFFF0000FFFF20
:1049A000000000000000FFFF000000000000000009
:1049B0000000000000FF000000000000FFFF0000FA
:1049C000000000FFFFFF00000000FFFFFFFF0000EE
:1049D000000000FFFFFF000000000000FFFF0000DC
:1049E0000000000000FF00000000000000000000C8
:1049F00000000000FF00000000000000FFFF0000BA
:104A000000000000FFFFFF0000000000FFFFFFFFAD
:104A100000000000FFFFFF0000000000FFFF00009B
:104A200000000000FF000000000000000000000087
:104A3000000011241FBECFEFD0E1DEBFCDBF11E0DB
:104A4000A0E0B1E0E6E0F6E702C005900D92A635E1
:104A5000B107D9F71EE0A0E6B1E001C01D92A2396E
:104A6000B107E1F714BE88E10FB6F89480936000B7
:104A7000109260000FBE0E94372A811102C00E946E
:104A8000152AF894E1E8F8E080E881932AE0ED380F
:104A9000F207D9F781E898E090938E0A80938D0A07
:104AA00010928F0A1092920A1092980A10929E0AFF
:104AB0001092A40A109252081092540882E1809336
:104AC000530880EE80935C0880935A0884E18093B9
:104AD0005B08809359081092600810925F0810924A
:104AE00064081092630881E08093910A0E944A361C
:104AF00080E790E0FC0125913491F901FF27308394
:104B0000029620E08E399207A9F778940E94D63653
:104B10000E94A33A0C94013B0C9400000CE00A950F
:104B2000F1F7ECE1F8E0C0E6D1E02091290B002795
:104B3000A081B181AC0FBD1F1C911283021708F434
:104B4000102F1C93339603950D3090F300E316E07D
:104B50001A95F1F70A95D9F720904F083090500830
:104B600000914B0810914C08680138018CE1C0E6B7
:104B7000D1E04E01002430914E08303009F0C8EAEF
:104B800009F0D4E009F0832F09F0610100EEA02EB6
:104B9000662778E07ED236E23A95F1F700000E946F
:104BA00000263FE03A95F1F700000000AA94A9F032
:104BB0006395C895683031F033E03A95F1F700001D
:104BC0000000E8CF662700243EE1C30FD01D8A9580
:104BD00009F4E40109F46301DDCF36E03A95F1F719
:104BE00058D211240E940035E091540842E0E1605F
:104BF000E427E0935408E2E0E0933600112408959E
:104C0000DE01679F860100541340000D111D18013D
:104C10000CED14E0000D111D280130E41EE12D9172
:104C2000239FA1012D3008F4A201040E151EF001EE
:104C30002D30F0F0059108B92D91059108B9239F09
:104C4000059108B92D300000059108B908F4A201BA
:104C5000059108B9040E151E059108B92D301A9555
:104C6000059108B9059131F1F00108B918F700C0B4
:104C7000019108B92D910191000008B9239F01917C
:104C8000000008B92D3000C0019108B908F0A10159
:104C90000191040E08B9151E00C0019108B92D300C
:104CA00000C0019108B901911A9521F0F00108B9ED
:104CB00008F6DECF08B90027C895000008B90895A6
:104CC00020E4E0914B08F0914C088D50829FE00D5C
:104CD000F11DACEDB4E0629FA00DB11D0024059064
:104CE0000D9205900D9205900D9205900D920590F4
:104CF0000D9205900D9205900D9205900D920590E4
:104D00000D9205900D9205900D9205900D920590D3
:104D10000D9205900D9205900D9205900D920590C3
:104D20000D9205900D9205900D9205900D920590B3
:104D30000D9205900D9205900D9205900D920590A3
:104D40000D9205900D9205900D9205900D92059093
:104D50000D9205900D9205900D9205900D92059083
:104D60000D9205900D9205900D9205900D92059073
:104D70000D9205900D9205900D9205900D92059063
:104D80000D9205900D9205900D9205900D92059053
:104D90000D9205900D9205900D9205900D92059043
:104DA0000D9205900D9205900D9205900D92059033
:104DB0000D9205900D9205900D9205900D92059023
:104DC0000D9205900D9205900D9205900D92059013
:104DD0000D9205900D9205900D9205900D92112463
:104DE00008950F931F93CF93DF9394E0899FE8EA90
:104DF000F4E0E00DF11D03818281E0E48E9FD0019B
:104E000098E0099FC3E4D8E00024C10DD01DE881DB
:104E1000F981EA0FFB1FACEDB4E090E4699FA00DAF
:104E2000B11D1124DD27403051F4A20FB11D822F96
:104E3000C22F00FF11C03796C0E1C21B0DC088E031
:104E4000821B00FD04C0C82FE80FF11D05C0C8E09B
:104E5000C20FE20FF11D3197503041F498E0939F5B
:104E6000A00DB11D932F01FDF8960AC098E0931B89
:104E7000632F6A9501FF692F58E0569FE00DF11DE1
:104E80006FEF7FEF00FF61E000FF772701FD609784
:104E900011243EEF58E0591B48E0481B249123138E
:104EA0002C931196E60FF71F4A95C1F7EC0FFD1FE3
:104EB000A80FB11D5A9581F7DF91CF911F910F91E6
:104EC00008950F921F92EF93FF93EFB7EF93E09146
:104ED0008400E251F1E0EF1700F0F395FA30D8F3D7
:104EE0000C947227E0915308EA95E0935308F091EF
:104EF0005208F0FD57C0EC3098F0F3E0F0938900D1
:104F0000FDE8F0938800E0FB289826F4E1E00E9499
:104F10004729B8C0E5E1EA95F1F70000289AB2C048
:104F2000E63038F100C000C02898E0FBE4E016F459
:104F30000E944729E4E0E0933600E6E0E0936F004A
:104F4000A1C0EF93EFB7EF93E0918400ED55E1300E
:104F500000F0E23000F0E33000F0E43000F0E53043
:104F600000F0289AE2E0E0936F00EF91EFBFEF913D
:104F7000189500C0E0FB289826F4E1E00E9447293C
:104F800005C0E5E1EA95F1F70000289AE0915308A1
:104F9000E03009F077C0EDEFE0935308E1E0E093F3
:104FA000520870C0E7E0E0938900EBE1E0938800ED
:104FB00000C02898E2E000C00E944729FDEF009061
:104FC0005908F019E0915308EF17E0F4FDEF009055
:104FD0005908F01900905A08F019EF1798F0EDE110
:104FE000FF2700800F92EA95E1F70FE10A95F1F7AC
:104FF000000000000E948E25E1E0FF270F90019243
:10500000EE31E0F3E0915308E03009F03BC02F931C
:105010003F934F935F936F937F938F939F93AF9340
:10502000BF9378941124EE27E0935208E2E1E093D5
:105030005308F0915B08F0935908F0915C08F093E5
:105040005A08E0915508F0915608E115F10509F06C
:1050500009950E94052A0E945C370E945428112459
:10506000E0915708F0915808E115F10509F009950C
:10507000BF91AF919F918F917F916F915F914F9170
:105080003F912F91EF91EFBFFF91EF911F900F9004
:1050900018952898E2E000C00E944729E091530843
:1050A000EA95E09353080895E091910AE0FD0E948B
:1050B000A82C00908F0A002019F4A1E8B8E002C0E3
:1050C000A7E8B9E021E0022600928F0A22E02093AF
:1050D000900AE091910AE0FF08952F923F924F923B
:1050E0005F926F927F928F929F92AF92BF92CF9278
:1050F000DF92EF92FF920F931F93CF93DF93509124
:10510000A40A6091A80A7091A90A8091A70A409008
:10511000A50A5090A60A66248090AC0A9090AD0A29
:10512000E091AA0AF091AB0A5401AE1ABF0A1D0120
:10513000C3E8840D651D761D6815790510F06A19A0
:105140007B09FB01449145031D92840D651D761D6D
:105150006815790510F06A197B09FB014491450334
:105160001D92CA9531F7D1012090930A3090940A8C
:105170004090960A5090970A6090950A1091920A72
:105180007090990A80909A0A90909B0AA0909C0A2D
:10519000B0909D0A2091980AC0909F0AD090A00AD2
:1051A000E090A20AF090A30A0091A10A30919E0A11
:1051B0009FEFCC91DD27C7FDDFEF620C431CF201AE
:1051C000449141030008C10DD01D970CA81CF501A6
:1051D000449142030008C10DD01D0C0DED1CF701D8
:1051E000449143030008C10DD01D0024C038D005F0
:1051F0000CF0CFE70A94C038D0050CF4C0E8C058D2
:10520000CD939A9509F0D5CF4091900A4A95409355
:10521000900A97E009F0CDCF6092950A4092960AE5
:1052200090929B0AA0929C0A0093A10AE092A20A83
:105230005093A40A6093A80A7093A90A8093A70ABE
:10524000DF91CF911F910F91FF90EF90DF90CF9062
:10525000BF90AF909F908F907F906F905F904F9096
:105260003F902F900895E0918D0AF0918E0A019160
:1052700000000093B3000AE0ED38F00701E818E001
:1052800008F0F801E0938D0AF0938E0A08950F93C9
:105290001F932F93EF93E0918D0AF0918E0A019165
:1052A0000093B3000AE0ED38F00701E818E008F0D9
:1052B000F801E0938D0AF0938E0AE8E0EA95F1F7A1
:1052C000EF912F911F910F91E0FD289AE0FF01C00F
:1052D0000895F4E1FA95F1F700C0E1FD289AE1FFA5
:1052E00000C0089580934308909344080895E8E42B
:1052F000F3E0A0E6B1E06DE06D933197E9F711249A
:10530000089550914D08450F00C0992777272EE149
:10531000629F080E191EA0E6B1E0A00DB11D435F0B
:105320004C931124089580934D08089580934B0861
:1053300090934C08089580915408817008952091AD
:1053400054082E7F209354080895882329F48091CF
:105350005D0890915E0808958091610890916208BF
:105360000895F999FECF92BD81BD60BDF894FA9A77
:10537000F99A78940895F999FECF92BD81BDF89479
:10538000F89A80B57894089598E088E10FB6F8947B
:10539000A895809360000FBE90936000FFCF129A93
:1053A000C895C895C895C895129840E180E090E0EE
:1053B00020E030E03695279596958795C895C89555
:1053C000C895C8951398009B3068019B9068139A04
:1053D000C895C895C895C895415061F730935E0847
:1053E00020935D08909362088093610880915D0826
:1053F00090915E080F9731F080916108909162085A
:105400000F9711F40E94C42908951092BE0A0099C2
:1054100003C081E08093BE0A019905C08091BE0A55
:1054200082608093BE0A0C94CF29CF93DF93C0E0B3
:10543000D0E0FE01E256FF4F6491CE010E94B129F7
:105440002196C032D105A9F7C0E2D0E06FEFCE01BE
:105450000E94B1296FEFCE0101960E94B129A0965A
:10546000C11588E0D80791F7DF91CF910895CF93C8
:1054700080E090E00E94BB29C82F81E090E00E946C
:10548000BB29282F30E0322F22272C0F311D81E03D
:105490002A35354509F080E0CF910895CF92DF920B
:1054A000EF92FF920F931F93CF93DF931F92CDB78D
:1054B000DEB76C010E94372A882309F44DC0F6013B
:1054C000808191818F3FFFEF9F0709F447C08A35A4
:1054D000954509F443C000E210E0F12C41E0C80119
:1054E00049830E94BB29E82EC80101960E94BB296E
:1054F000282F30E0322F2227C9018E0D911DF60191
:105500002081318149818217930719F4FF2089F0A6
:105510000CC0019619F4F11001C0F42E4F5F005E2B
:105520001F4F4034E1F6FF20D9F020E2F29E8001C7
:105530001124760180E2E80EF11C0C191D09C60148
:10554000800F911FF60161916F010E94B129CE1465
:10555000DF04A9F780E005C084E003C081E001C05A
:1055600082E00F90DF91CF911F910F91FF90EF900C
:10557000DF90CF900895DF92EF92FF920F931F93E9
:10558000CF93DF937C01EB010E94372A882389F1B6
:105590008FEFE816F80679F100E010E0C8010E94EC
:1055A000BB29D82EC80101960E94BB29282F30E0C4
:1055B000322F22272D0D311D2E153F0539F47E0186
:1055C00080E2E80EF11C0C1B1D0B08C0005E1F4F93
:1055D000011584E0180711F783E00EC0CE01800F9B
:1055E000911F0E94BB298993CE15DF05B9F780E092
:1055F00003C084E001C081E0DF91CF911F910F9142
:10560000FF90EF90DF900895FC014587089508957D
:10561000FC0190819F7590830895FC0190819064B6
:1056200090830895FC0144870895FC014783089501
:10563000FC01408708951F93CF93DF93EC01162F51
:10564000298130E0F901EE0FFF1FE85FF14A659113
:105650007491F901E40FF11D47FDFA95EE0FFF1F5C
:10566000E85FF14A85919491861B970B6091C60A79
:1056700070E00E94ED3A6115710511F461E070E08F
:1056800086E0189FF0011124EE56F54F818192813A
:10569000860F971F928381837B836A8388818860CA
:1056A00088838981480F4C83DF91CF911F910895A2
:1056B0004093C60A0895862F642F0C94E62EFC01B1
:1056C000862F9181642F690F61830C94D22EFC0187
:1056D000862F9181692F641B61830C94D22E0F93C6
:1056E0001F93CF93DF931F92CDB7DEB78C01862F28
:1056F000642F49830E94D22E4981F8014183808121
:10570000877F80830F90DF91CF911F910F91089534
:1057100090931C0B80931B0B8FE680931E0B1092B3
:105720008008EFECFAE080E19FEF28E1DF011E97AF
:105730008C931B961C9212979C9311969C931082AB
:1057400012972C9313978C9376963BE0E732F307EE
:1057500069F70895DC01ED91FC9111979F012F5F8E
:105760003F4F11963C932E93E491E7FD03C08E2F9B
:1057700090E00895EF778E2F90E09695982F8827E8
:10578000979587952F5F3F4FF9013197E4914E2F01
:105790004F77840F911DE7FDF0CF2D933C93089533
:1057A0008F929F92AF92BF92DF92EF92FF920F93F0
:1057B0001F93CF93DF931F92CDB7DEB7F82EE62E5F
:1057C000882E912C86E1F89EF0011124EF53F54FBD
:1057D0008081982F9078D92E128A15869FEF948712
:1057E0004387138A877B8062808317829187218316
:1057F000E9E06E9F80011124F3E0FF122AC01092AD
:10580000A70A40911B0B50911C0B400F511FFA012E
:105810003196A590B490B092A90AA092A80ADA0194
:105820001796FD01859194914B5F5F4FFA01659149
:105830007491861B970B9093AB0A8093AA0AFD0183
:1058400085919491A80EB91EB092AD0AA092AC0AAF
:1058500006C060E08F2D29830E94E62E2981622FE9
:105860008F2D0E94D22E86E1889DF001899DF00D3A
:105870001124EF53F54FDD2011F0E78601C0E686D5
:10588000E0911B0BF0911C0BE00FF11F33968591FB
:105890009491009759F486E1889DF001899DF00D5F
:1058A0001124EF53F54F158A148A0EC0FC01249180
:1058B00036E1389DF001399DF00D1124EF53F54F7D
:1058C000218B0196958B848B0F90DF91CF911F9147
:1058D0000F91FF90EF90DF90BF90AF909F908F90CF
:1058E0000895322FA82FB0E096E1899FF00111248E
:1058F000EF53F54F908195FF02C097FD28C03111FD
:1059000018C086E18A9FF0018B9FF00D1124EF53A0
:10591000F54F8585811102C096FF138686E18A9F27
:10592000F0018B9FF00D1124EF53F54F9F7B908377
:10593000089526E12A9FF0012B9FF00D1124EF53CB
:10594000F54F9F779083242F432F0C94D02B0895ED
:105950005F926F927F928F929F92AF92BF92CF92FF
:10596000DF92EF92FF920F931F93CF93DF93C1ECDF
:10597000DAE082E9E82E8AE0F82ED7019E0140E0C5
:1059800050E0CA018F53954F6C01FC018585882337
:1059900091F06485992787FD9095860F911D8F3F23
:1059A000910519F014F08FEF90E097FF02C080E0AE
:1059B00090E0F6018487F901108113FF29C062810C
:1059C000738111968D919C911297860F971F129655
:1059D0009C938E931197F6010481E02FF0E0EE0F77
:1059E000FF1FE85FF14AC590D4901616170624F4FD
:1059F0008C159D0530F40CC0672B51F0C816D906E4
:105A000038F01296DC92CE921197177FF90110832D
:105A10004A5E5F4F2A5E3F4F16964835510509F0A2
:105A2000B0CF80918008882309F4CBC016E1809123
:105A3000190B90911A0B20911F0B3091200B82179C
:105A4000930709F0B9C02091220B3091230BB901C3
:105A50006F5F7F4F7093230B6093220BF90144918A
:105A60004F3F79F5A9014E5F5F4F5093230B409351
:105A7000220BFB0164916F3219F4109280089CC0D4
:105A8000663009F08CC0FA014491C90104969093E4
:105A9000230B8093220BF9013396E491E33529F42B
:105AA0009093250B8093240B7AC0E53409F077C0DE
:105AB0008091240B9091250B9093230B8093220BC4
:105AC0006EC047FD40931D0B90911D0B892F8F7069
:105AD00047FF08C02E5F3F4F3093230B2093220BCC
