:100000000C94B0350C941B360C941B360C941B3698
:100010000C941B360C941B360C941B360C941B361C
:100020000C94AC3A0C941B360C941B360C941B3677
:100030000C941B360C946B380C94AA380C941B3619
:100040000C941B360C941B360C941B360C941B36EC
:100050000C941B360C941B360C941B360C941B36DC
:100060000C941B360C941B360C941B360C941B36CC
:100070008100450027FF24FF2A902B1C210C22FB26
:10008000850084008903888D81096F0244424700FE
:100090004501B083B300B10125118A1D8B035A5568
:1000A00001200101003808000000000000000000ED
:1000B0000000000000000000000000000000903C74
:1000C000933CEF3CF33CFA3C9B3CA03CA53C023DFE
:1000D000A83CAB3CAE3CE93CEC3C123D0040889176
:1000E000D2E4ADB5B6BEBFFF41542B434950534592
:1000F0004E440D0A0041542B4349504D4F44453D59
:10010000310D0A004F4B0D0A0041542B4349505307
:10011000544152543D22554450222C223139322E22
:100120003136382E342E31222C323233332C3130CA
:1001300030310D0A004F4B0D0A0041542B434950FA
:100140005354415F4355523D223139322E313638B6
:100150002E342E32220D0A004F4B0D0A004F4B0D4C
:100160000A0041542B43574D4F44455F4355523D80
:10017000310D0A004F4B0D0A0041542B4349505397
:10018000454E440D0A0041542B4349504D4F4445C0
:100190003D310D0A004F4B0D0A0041542B4349508D
:1001A00053544152543D22554450222C223139326D
:1001B0002E3136382E342E32222C313030312C3242
:1001C0003233332C300D0A004F4B0D0A004F4B0DCC
:1001D0000A004F4B0D0A0041542B43495041504DEA
:1001E00041435F4355523F0D0A0041542B43495050
:1001F00041505F4355523D223139322E3136382E2F
:10020000342E31220D0A004F4B0D0A0041542B436E
:10021000574D4F44455F4355523D320D0A004F4BF9
:100220000D0A0041542B43575141500D0A004F4BCA
:100230000D0A0041542B434950434C4F53450D0A7E
:10024000004F4B0D0A0041542B4349504D4F44453C
:100250003D300D0A004F4B0D0A002B2B2B00415453
:100260002B554152545F4355523D31343430302C7C
:10027000382C312C302C300D0A004F4B0D0A004128
:10028000540D0A004F4B0D0A007201F600B8005CD5
:10029000003C002C001E0054414E4B204655205679
:1002A000332E3020464F5220555A45424F580000B9
:1002B00000000050524F4752414D4D494E4720419A
:1002C0004E442044455349474E00004C4157524547
:1002D0004E43452042524F4F4B5300000000004C0C
:1002E0004F4F4B494E4720464F52205749464920D1
:1002F0004445564943452E2E2E0023000001140D7F
:10030000000102140E000203140F00030414100075
:1003100004051411000506141200555A454C4A42B2
:10032000414141424242434343444444454545469A
:100330004646474747435055202020424F4F5420C0
:1003400043414D502020200020544845204252492E
:10035000434B59415244200020202056454C4F43E6
:100360004954592020202000202020544845204D69
:10037000415A452020202000202020524943484F48
:1003800043484554202020002054484520484F4EE3
:10039000455920504F5420002020464F43414C20C7
:1003A000504F494E5420200049542753204E4F545B
:1003B000204641495221200020204D5543482042EB
:1003C00045545445522020002020205448452043C5
:1003D000414E414C202020002020544845204841D7
:1003E00052424F555220200050415553454400423F
:1003F00041494C202D205800544F54414C3A005351
:10040000434F52453A0046494E414C2053434F52C8
:1004100045004259004F574E530045444954202D42
:100420002055502F444F574E005032005031003B62
:10043000005F5F5F5F5F5F5F5F5F5F5F00454449D5
:10044000542048414E444C450054414E4B205241AB
:100450004E4B0032303135204C415752454E4345CA
:100460002042524F4F4B530053454C454354202D8F
:100470002053544152540043414E43454C202D20BB
:10048000580052455345542044454641554C545319
:10049000202D20534C202835532900434F4E4649E8
:1004A000524D202D20412F5354415254004E45545B
:1004B000574F524B204552524F5200454E544552D1
:1004C00020484F53542047414D4520494400434F55
:1004D0004E4E454354494E472E2E2E005741495407
:1004E000494E47204F4E204C414E204F50504F4ECA
:1004F000454E542E2E2E00534841524520594F55FB
:10050000522047414D45204944004A4F494E204C16
:10051000414E2047414D4500484F5354204C414ED9
:100520002047414D4500504C4159455220565320DB
:10053000504C4159455200504C4159455220565358
:1005400020435055000000004D0600000000000050
:100550000036060000000000000025060000000034
:100560000000002506000000000000002506000035
:100570000000000000360600000000000000BE067B
:10058000000000000000008D0500000000000202D5
:100590000004320103010103010103010103010110
:1005A000030101030101030101030101030101032F
:1005B0000101030101030101030101030101030121
:1005C000010301010401010401010401010401010D
:1005D00004010104010104010104010104010104F9
:1005E00001010401010401010401010401010401EC
:1005F00001030101030101030101030101030101E1
:1006000003010103010103010103010103010103CE
:1006100001010301010301010301010301010301C0
:1006200001050000FF0002040007700000D8000868
:100630003C01050000FF00077F00083200020300B4
:1006400000F0000C0C000BE80800E000FF00077F42
:100650000002030000FF00076400083201040401E7
:100660000404010404010404010404010404010459
:100670000401040401040403075000082D010404CC
:10068000010404010404010404010404010404013C
:10069000040401040401040403073C0008280104C5
:1006A0000401040401040401040401040401040419
:1006B00001040401040401040401050000FF000713
:1006C0007F0002030000FF0008410104040104044C
:1006D00001040401040401040401040401040401EC
:1006E000040401040403076400083C010404010439
:1006F00004010404010404010404010404010404C9
:100700000104040104040307500008370104040134
:1007100004040104040104040104040104040104A8
:100720000401040401040403073200083201040434
:10073000010404010404010404010404010404018B
:10074000040401040401040403072800082D010423
:100750000401040401040401040401040401040468
:10076000010404010404010404030714000828011F
:100770000404010404010404010404010404010448
:100780000401040401040401040401050000FF0243
:100790000202020202020202020202020202020239
:1007A000020202020202020202020202020200002D
:1007B0000000000000000000000000000000000039
:1007C000000000000000000000000202000000061F
:1007D0000500000000000000000000000000000014
:1007E000004242424242420002020000060202056A
:1007F00000000000000000000000000000000042B7
:100800004D4D4D4D4200020200060202020205005B
:1008100000000000000000000000000000424D4DFC
:100820004D4D4200020200040202020203000000D9
:100830000000000000000000000000424D4D4D4D42
:100840004200020200000402020300000000000057
:10085000000000000000000000424D4D4D4D4200E0
:10086000020200000004030000000000000000007D
:1008700000000000000000424242424242000202E8
:100880000000000000000000000000000002020064
:100890000000000000000000000000000202000054
:1008A0000000000000000000000000020200000044
:1008B0000000000000000000000002020000000034
:1008C000000000010101010100020200010101011B
:1008D0000100000000000000020200000000000013
:1008E00000010101010100020200010101010100FA
:1008F000000000000000020200005800000000019B
:1009000001010101000202000101010101000000DA
:10091000630000000202000000000000000101016D
:1009200001010002020001010101010000000000BC
:1009300000000202000000000000000101010101AE
:10094000000202000101010101000000000000009E
:100950000202000000000000000000000000000291
:100960000200000000000000000000000000020281
:100970000000000000000000000000000002020073
:100980000000000000000000000000000202004221
:10099000424242424200000000000000000000000D
:1009A00000000000000605000000020200424D4D5C
:1009B0004D4D42000000000000000000000000005B
:1009C0000000060202050000020200424D4D4D4D9E
:1009D00042000000000000000000000000000006CF
:1009E000020202020500020200424D2C4D4D42005F
:1009F00000000000000000000000000000040202EF
:100A000002020300020200424D4D4D4D4200000023
:100A100000000000000000000000000004020203CB
:100A20000000020200424242424242000000000036
:100A300000000000000000000000000403000000AF
:100A400002020000000000000000000000000000A2
:100A50000000000000000000000000000000020292
:100A60000202020202020202020202020202020266
:100A70000202020202020202020202020202020256
:100A80000202020202020202020202020202020246
:100A9000020202020202020202020202010101003B
:100AA0000000000000000000000000000000000046
:100AB000000000000000000002020101010000002F
:100AC0000000000000000000000000000000000026
:100AD000000000000000020201010101010101010A
:100AE00000000101010101010101000001010101FA
:100AF00001010101020201010101010101010000E6
:100B000001010101010101010000010101010101D7
:100B100001010202010101010101010100000101C5
:100B200042424242010100000101010101010101B3
:100B30000202010000000001010100000101424D1C
:100B40004D4201010000010101000000000102020C
:100B5000010000000001010100000101422C4D4292
:100B6000010100000101010000000001020201007A
:100B700000000001010100000101424D4D42010150
:100B8000000001010100000000010202010000005C
:100B90000001010100000101424242420101000046
:100BA000010101000000000102020100000000003C
:100BB000000100000101010101010101000001002B
:100BC00000000000000102020100580000090001BD
:100BD0000000010101010101010100000100090003
:100BE00000000001020201000000000000010000FE
:100BF0000000000000000000000001000000630091
:100C000000010202010000000001010100000101D9
:100C100001010101010100000101010000000001CA
:100C200002020100000000010101000001010101B8
:100C300001010101000001010100000000010202A8
:100C40000100000000010101000001014242424296
:100C50000101000001010100000000010202010089
:100C600000000001010100000101424D4D4201015F
:100C70000000010101000000000102020101010168
:100C80000101010100000101424D4D42010100003E
:100C90000101010101010101020201010101010142
:100CA000010100000101424D4D420101000001011E
:100CB0000101010101010202010101010101010122
:100CC0000000010142424242010100000101010114
:100CD0000101010102020101010101010101000004
:100CE00001010101010101010000010101010101F6
:100CF00001010202010101010101010100000101E4
:100D000001010101010100000101010101010101D5
:100D100002020101010000000000000000000000CC
:100D200000000000000000000000000101010202BC
:100D300001010100000000000000000000000000B0
:100D40000000000000000000000101010202020298
:100D50000202020202020202020202020202020273
:100D60000202020202020202020202020202020263
:100D70000202020202020202020202020202020253
:100D8000020202020202020202020000000000004F
:100D90000000000000000000000000000000000053
:100DA000000000000000020200000000000000003F
:100DB0000000000000000000000000000000000033
:100DC000000000000202000000000000000000001F
:100DD0000000000000000000000000000000000013
:100DE00000000202000000000000000000000000FF
:100DF00000000000000000000000000000000000F3
:100E000002020000000000000000000000000000DE
:100E100000000000000000000000000000000202CE
:100E200000000000000000000000000000000000C2
:100E300000000000000000000000000002020101AC
:100E4000010101010000000000000000000000009E
:100E5000000000000100000000010202010000008B
:100E60000001000000000000000000000000000081
:100E7000000001000000000102020100000000016A
:100E8000000000000200000000000002000000005E
:100E900001000700000102020100580000010000EB
:100EA000000002000000000000020000000001003D
:100EB000000000010202010000000001000000002B
:100EC000020000000000000200000000010000001D
:100ED0000001020201000000000100000000020207
:100EE00002020202020200000000010000000001F4
:100EF00002020100000000010000000002000000EA
:100F000000000002000000000100000000010202D9
:100F100001000000000100000000020000000000CD
:100F200000020000000001000000000102020100B8
:100F300000000001000000000200000000000002AC
:100F40000000000001006300000102020100000730
:100F50000001000000000000000000000000000090
:100F60000000010000000001020201000000000179
:100F70000000000000000000000000000000000071
:100F80000100000000010202010000000001000059
:100F9000000000000000000000000000000001014F
:100FA0000101010102020000000000000000000039
:100FB0000000000000000000000000000000000031
:100FC000000002020000000000000000000000001D
:100FD0000000000000000000000000000000000011
:100FE00002020000000000000000000000000000FD
:100FF00000000000000000000000000000000202ED
:1010000000000000000000000000000000000000E0
:1010100000000000000000000000000002020000CC
:1010200000000000000000000000000000000000C0
:1010300000000000000000000000020202020202A4
:101040000202020202020202020202020202020280
:101050000202020202020202020202020202020270
:101060000202020202020202020202020202020260
:101070000202020202020202000000424D4D4D42F5
:10108000000000000000000000000000424D4D4D37
:10109000420000000202000800424D4D4D42000097
:1010A00000000000000000000000424D4D4D4200D5
:1010B00008000202000000424D4D4D4200010101B6
:1010C0000000000001010100424D4D4D42000000B2
:1010D0000202020202024242420200010101000237
:1010E0000200010101000242424202020202020227
:1010F00000000000000000020001010100020200E7
:1011000001010100020000000000000002020001D5
:1011100001010101000200000000000202000000C5
:1011200000000200010101010100020200010101B1
:10113000010100020000000202020202020000009F
:10114000020001010101010002020001010101018F
:10115000000200000000000000000000000002008B
:101160000101010101000202000000000000000076
:10117000000000000000000000000000000000006F
:101180000000000002020202020200000000000053
:10119000000000000000000000000000000002024B
:1011A00002020200000000020000000000580002DD
:1011B000000000000200000000000000020000002B
:1011C0000000000000020000000200000002000019
:1011D00000000263000002000000020000000000A6
:1011E00000000002000000020000000202020202F1
:1011F00002000000020000000200000000020202E3
:1012000002020000000200000000000000000000D8
:101210000000020000000202020202024D4D4D4297
:1012200000000002000000000000000000000000BC
:1012300002000000424D4D4D02024D4D4D42000056
:10124000000200000000000000000000000002009A
:101250000000424D4D4D02024D2C4D420000000257
:101260000000000202020202020000000200000070
:10127000424D4D4D02024D4D4D0200000000000058
:101280000000000202000000000000000000024D0B
:101290004D4D02024D4D4D020000010101000000C4
:1012A000000202000000000101010000024D4D4D4E
:1012B000020242424202000001010100000000025D
:1012C000020000000001010100000242424202024D
:1012D0000000000200000101010000000000000009
:1012E00000000001010100000200000002020008ED
:1012F00000020000000000000000000900000000E3
:1013000000000000000002000800020200000002CD
:1013100000000000000000000000000000000000CD
:1013200000000000020000000202020202020202AB
:10133000020202020202020202020202020202028D
:10134000020202020202020202020202020202027D
:10135000020202020202020202020202020202026D
:10136000020202020202020203000000000000006A
:101370000000000000000000000000000000000469
:101380000202020202030000000000000000000050
:101390000000000000000000000000000000040247
:1013A0000202030000000000000000000000000036
:1013B0000000000000000000000000000004020225
:1013C000000000000000060500000000000008000A
:1013D0000000000000000000000000000202000009
:1013E00000000006020205000000000000000000EE
:1013F00000000000000000000000020200000000E9
:1014000006024D4D02050000000000000000000033
:1014100000000000000000000202000000000402C2
:101420004D4D02030000000000000000000000001D
:1014300000000000000002020000000000040202A0
:101440000300000000000000000000000000000099
:101450000000000002020000000000000403000081
:101460000000000605000000000000000000000071
:101470000000020200000000000000000000000068
:10148000060202050000000000000000000000004D
:10149000020200000000000000000000000602013F
:1014A0000102050000000000000000000000020230
:1014B00000005800000000000000000402010102CA
:1014C00003000000000000006300000002020000B2
:1014D0000000000000000000000004020203000001
:1014E00000000000000000000000020200000000F8
:1014F00000000000000000000004030000000000E5
:1015000000000000000000000202000000000000D7
:1015100000000000000000000000000000000605C0
:1015200000000000000002020000000000000000B7
:10153000000000000000000000000006020205009C
:101540000000000002020000000000000000000097
:10155000000000000000000006024D4D02050000E2
:101560000000020200000000000000000000000077
:1015700000000000000004024D4D020300000000C6
:101580000202000000000000000000000000000057
:10159000000000000004020203000000000002023C
:1015A0000000000000000000000000000007000034
:1015B000000000000403000000000000020205001B
:1015C000000000000000000000000000000000001B
:1015D00000000000000000000006020202050000FA
:1015E00000000000000000000000000000000000FB
:1015F00000000000000006020202020205000000D6
:1016000000000000000000000000000000000000DA
:1016100000000006020202020202020202020202AC
:10162000020202020202020202020202020202029A
:10163000020202020202020202020202020202028A
:10164000020202020202020202020202020202027A
:10165000020202020000000000000000000004027C
:10166000020202020203000000000000000000006D
:10167000020200000000000000000000000402025E
:10168000020203000000000000000000000002024F
:10169000000001010101000000000000040202033B
:1016A0000000000000000101010100000202000032
:1016B000010101010000000000000004030000001F
:1016C0000000000001010101000002020000010110
:1016D0000101000000000000000000000000000008
:1016E00000000101010100000202000001010101EE
:1016F00000000000000000000000000000000000EA
:1017000001010101000002020000000000000000D1
:1017100000000000000000000000000000000000C9
:1017200000000000020200000000000000000000B5
:1017300002000000000000020000000000000000A5
:101740000000020200000000000000000000024251
:10175000424242424202000000000000000000003D
:10176000020200000000000000000000024D4D4D8C
:101770004D4D4D020000000000000000000002027C
:1017800000580000000000000000024D4D4D4D4D7E
:101790004D02000000000000006300000202000093
:1017A0000000000000000000024D4D2C4D4D4D0288
:1017B0000000000000000000000002020000000025
:1017C000000000000000024D4D4D4D4D4D02000047
:1017D0000000000000000000020200000000000005
:1017E0000000000002424242424242020000000069
:1017F00000000000000002020000000000000000E5
:1018000000000200000000000002000000000000D4
:1018100000000000020200000000000000000000C4
:1018200002000700000900020000000000000000A4
:10183000000002020000000000000000000002059D
:101840000000000006020000000000000000000090
:101850000202000000000101010101000202050076
:101860000006020200010101010100000000020265
:101870000000000001010101010002020202020257
:10188000020200010101010100000000020200004B
:101890000000010100000000000000000000000046
:1018A0000000000001010000000002020000000032
:1018B000010100080000000000000000000000001E
:1018C0000800010100000000020200000000010108
:1018D0000000000000000000000000000000000008
:1018E00001010000000002020000000000000000F2
:1018F00000000000000000000000000000000000E8
:1019000000000000020202020202020202020202BF
:1019100002020202020202020202020202020202A7
:101920000202020202020202020202020202020297
:101930000202020202020202020202020202020287
:101940000202020300000000000000000402020284
:101950000202020300000000000000000402020274
:101960000300000000000000000000040202020268
:10197000030000000000000000000004020200005C
:101980000001010101010000000004020203000047
:10199000000001010101010000000202000000013D
:1019A000000000010000000000040300000000002F
:1019B0000100000001000000020200000001000917
:1019C0000001000000000000000000000000010015
:1019D00007000100000002020000000100000001F9
:1019E00000000000000000000000000001000000F6
:1019F00001000000020200000001010101010000DD
:101A000000000000000000000000010101010100D1
:101A100000000202000000000000000000000000C2
:101A200000000000000000000000000000000000B6
:101A3000020205000000000000000000000000009D
:101A4000000000000000000000000000000602028C
:101A5000020500000000000000000001010101017A
:101A60000101000000000000000006020202020264
:101A70000500580000000000000100000000000107
:101A800000000000630000060202020202020300DE
:101A9000000000000000000100000800000100003C
:101AA0000000000000040202020202030000000025
:101AB0000000000000010000000000010000000024
:101AC0000000000004020202030000000000000009
:101AD00000000001010101010101000000000000FF
:101AE00000000004020200000000000000000000EE
:101AF00000000000000000000000000000000000E6
:101B000000000202000000000000000000000000D1
:101B100000000000000000000000000000000000C5
:101B200002020000000101010101000000000000AC
:101B3000000000000000010101010100000002029C
:101B40000000000100000001000000000000000093
:101B5000000000000100000001000000020200007F
:101B6000000100070001000000000000000000006C
:101B70000000010009000100000002020000000155
:101B80000000000100000000000605000000000049
:101B9000010000000100000002020000000101013C
:101BA0000101000000000602020500000000010122
:101BB0000101010000000202050000000000000019
:101BC0000000000602020202050000000000000002
:101BD00000000006020202050000000000000000F4
:101BE00006020202020202050000000000000000DE
:101BF00006020202020202020202020202020202C1
:101C000002020202020202020202020202020202B4
:101C100002020202020202020202020202020202A4
:101C20000202020202020202020202020202020294
:101C300000000000000000000000000000000000A4
:101C40000000000000000000000000000202000090
:101C50000000000000000000000000000000000084
:101C60000000000000000000000002020000000070
:101C70000000000000000000000000000000000064
:101C80000000000000000000020200000000000050
:101C90000000000000000000000000000000000044
:101CA000000000000000020200000000000000022E
:101CB000020202020202020202020202020000000A
:101CC0000000000002020000000000000000000010
:101CD0000000000000000000000000000000000004
:101CE00000000202000000000000000000000000F0
:101CF00000000000000000010101010101010101DB
:101D000002020000070000090000000000000000BF
:101D100000000000000101010101010101010202B6
:101D200000000000000000000000000042424242AB
:101D30000000000101010101010101010202000096
:101D400000000000000000000000424D4D42000075
:101D50000001010100000000010102020000005822
:101D60000000000000000000424D4D420000000154
:101D700001010063000001010202000000000000F8
:101D8000000000000000424D4D4200000001010132
:101D9000000000000101020200000000000000003D
:101DA00000000000422C4D42000000010101000033
:101DB000000001010202000000000000000000001D
:101DC0000000424D4D4200000001010101010101EE
:101DD00001010202000000000000000000000000FD
:101DE00042424242000000010101010101010101E2
:101DF00002020000000000000000000000000000DF
:101E000000000000000101010101010101010202C5
:101E100000000000000000000000000000000000C2
:101E200000000000000000000000000002020000AE
:101E300000000000000000000000000000000000A2
:101E4000000000000000000000000202000000008E
:101E50000000000202020202020202020202020268
:101E6000020000000000000002020000000000006C
:101E70000000000000000000000000000000000062
:101E8000000000000000020200000000000000004E
:101E90000000000000000000000000000000000042
:101EA000000000000202000000000000000000002E
:101EB0000000000000000000000000000000000022
:101EC000000002020000000000000000000000000E
:101ED0000000000000000000000000000000000002
:101EE00002020202020202020202020202020202D2
:101EF00002020202020202020202020202020202C2
:101F000002020202020202020202020202020202B1
:101F100002020202020202020202020202020000A5
:101F200000000000000000000000000000000000B1
:101F3000000000000000000000000202000000009D
:101F40000000000000000000000000000000000091
:101F5000000000000000000002020000000000007D
:101F60000000000000000000000000000000000071
:101F7000000000000000020200000000000000005D
:101F80000000000000000000000000000000000051
:101F90000000000002020000000000000002020237
:101FA000020202020202020202020200000000001B
:101FB000000002020000000000000000000000001D
:101FC0000000000000000000000000000000000011
:101FD00002020101010101010101010000000000F4
:101FE00000000000000000000000000000000202ED
:101FF00001010101010101010100000000000000D8
:1020000000000000000007000009000002020101BA
:1020100001010101010101000000424242420000B1
:1020200000000000000000000000020201010000AA
:102030000000010101000000424D4D42000000007F
:102040000000000000000000020201010058000032
:10205000010101000000424D4D420000000000005F
:102060000063000000000202010100000000010105
:1020700001000000424D2C42000000000000000062
:102080000000000002020101000000000101010047
:102090000000424D4D420000000000000000000022
:1020A0000000020201010101010101010100000023
:1020B000424D4D4200000000000000000000000002
:1020C000020201010101010101010100000042427F
:1020D0004242000000000000000000000000020278
:1020E00001010101010101010100000000000000E7
:1020F00000000000000000000000000002020000DC
:1021000000000000000000000000000000000000CF
:1021100000000000000000000000020200000000BB
:1021200000000000000000000000000000000000AF
:10213000000000000000000002020000000000009B
:102140000002020202020202020202020202020073
:10215000000000000000020200000000000000007B
:10216000000000000000000000000000000000006F
:10217000000000000202000000000000000000005B
:10218000000000000000000000000000000000004F
:10219000000002020000000000000000000000003B
:1021A000000000000000000000000000000000002F
:1021B000020200000000000000000000000000001B
:1021C000000000000000000000000000000002020B
:1021D00002020202020202020202020202020202DF
:1021E00002020202020202020202020202020202CF
:1021F00002020202020202020202020202020202BF
:1022000002020202020202020202020200000000B6
:1022100000000000000101000000000000010100BA
:1022200000000000000000000202000000000000AA
:10223000000000010100000000000001010000009A
:10224000000000000000020200000000000000008A
:10225000000101000000000000010100000000007A
:102260000000000002020058000000000000000111
:10227000010000000000000101000000000000005B
:102280000000020200000000000000000001010048
:10229000070000090001010000000000000000002C
:1022A0000202000000000000000000010100000028
:1022B0000000000101000000000000000000020218
:1022C0000000000000000000000101010101010107
:1022D00001010100000000000000000002020000F7
:1022E00000000000000000010101010101010101E5
:1022F00001000000000000000000020200000000D9
:1023000000000000000000000000000000000000CD
:10231000000000000000000002023737373737376F
:10232000373737373737373737373737373737373D
:1023300037373737373702024D4D4D4D4D4D4D4DE7
:102340004D4D4D4D4D4D4D4D4D4D4D4D4D4D4D4DBD
:102350004D4D4D4D02024D4D4D4D4D4D4D4D4D4D43
:102360004D4D2C4D4D4D4D4D4D4D4D4D4D4D4D4DBE
:102370004D4D02024D4D4D4D4D4D4D4D4D4D4D4D23
:102380004D4D4D4D4D4D4D4D4D4D4D4D4D4D4D4D7D
:102390000202373737373737373737373737373737
:1023A0003737373737373737373737373737020227
:1023B000000000000000000000000000000000001D
:1023C0000000000000000000000000000202000009
:1023D00000000000000000010101010101010101F4
:1023E00001000000000000000000020200000000E8
:1023F00000000000000101010101010101010100D3
:1024000000000000000000000202000000000000C8
:1024100000000001010000000000000101000000B8
:1024200000000000000002020000000000000000A8
:102430000001010009000007000101000000000088
:102440000000000002020000000000000000000187
:102450000100000000000001010000000000006316
:102460000000020200000000000000000001010066
:10247000000000000001010000000000000000005A
:102480000202000000000000000000010100000046
:102490000000000101000000000000000000020236
:1024A000000000000000000000010100000000002A
:1024B0000001010000000000000000000202020212
:1024C00002020202020202020202020202020202EC
:1024D00002020202020202020202020202020202DC
:1024E00002020202020202020202020202020202CC
:1024F000020202020202020202024D4D4D4D4D4DFA
:102500004D4D4D4D4D4D4D4D4D4D4D4D4D4D4D4DFB
:102510004D4D4D4D4D4D02024D4D4D4D4D4D4D4D81
:102520004D4D4D4D4D4D4D4D4D4D4D4D4D4D4D4DDB
:102530004D4D4D4D02024D4D4D4D4D4D4D4D4D4D61
:102540004D4D4D4D4D4D4D4D4D4D4D4D4D4D4D4DBB
:102550004D4D02024D4D4D4D4D4D4D4D4D4D4D4D41
:102560004D4D4D4D4D4D4D4D4D4D4D4D4D4D4D4D9B
:1025700002024D4D4D4D4D4D4D4D4D4D4D4D4D4D21
:102580004D4D4D4D4D4D4D4D4D4D4D4D4D4D020211
:102590004D4D4D4D4D4D4D4D4D4D4D4D4D4D4D4D6B
:1025A0004D4D4D4D4D4D4D4D4D4D4D4D02024D4DF1
:1025B0004D4D4D4D4D4D4D4D4D4D4D4D4D4D4D4D4B
:1025C0004D4D4D4D4D4D4D4D4D4D02024D4D4D4DD1
:1025D0004D4D4D4D4D4D4D4D4D4D4D4D4D4D4D4D2B
:1025E0004D4D4D4D4D4D4D4D02024D4D4D4D4D4DB1
:1025F0004D4D4D4D4D4D4D4D4D4D4D4D4D4D4D4D0B
:102600004D4D4D4D4D4D02024D4D4D4D4D4D4D4D90
:102610004D4D4D4D4D4D4D4D4D4D4D4D4D4D4D4DEA
:102620004D4D4D4D02024D4D4D4D4D4D4D4D4D4D70
:102630004D4D4D4D4D4D4D4D4D4D4D4D4D4D4D4DCA
:102640004D4D020237373737373737373737373758
:10265000373737373737373737373737373737370A
:102660000202000000000000000000000000000066
:102670000000000000000000000000000000020256
:10268000000000000000000000000000000000004A
:102690000000000000000000000000000202000036
:1026A000000000000000000000000000000000002A
:1026B0000000000000000000000002020000000016
:1026C000000000000000000000000000000000000A
:1026D000000000000000000002020000005800009E
:1026E00000000000000000000000000000000000EA
:1026F0000000630000000202000000000000000073
:1027000000000000000000000000000000000000C9
:1027100000000000020200000000000000000000B5
:1027200000000000000000000000000000000000A9
:102730000000020200000000000000000000000095
:102740000000000000000000000000000000000089
:102750000202000000000000000000000000000075
:102760000000000000000000000000000000020265
:102770000000000000000000000000000000070052
:102780000000000000000000000000000202000045
:102790000000000000000000000000000000000039
:1027A000000000000000000000000202020202021D
:1027B00002020202020202020202020202020202F9
:1027C000020202020202020202FEFEFEFEFEFE2BD8
:1027D0002BFEFEFEFEFEFEFE2BFEFEFEFEFEFEFEBF
:1027E0002B2B2B2BFEFEFEFE2B121212FEFE2020A8
:1027F0002B2B2B2B202020202B12121220202020CC
:102800002B2B2B2B20202029292B2BFEFEFEFEFE1E
:10281000FE2BFEFEFEFEFEFEFE2BFEFEFEFEFEFE7E
:10282000FE2BFEFEFEFE2B2B2B2B2020FEFE12127B
:10283000122B202020202B2B2B2B2020202012128B
:102840001229292020202B2B2B2B122B122B122B61
:10285000122B122B122B122B122B122B122B122B90
:1028600012FEFE202020202020FEFE2020202020FE
:1028700020FEFEFE2020202020FEFEFEFE2020293D
:1028800029FEFEFEFE2020292B2B122B122BFEFEF2
:10289000FE2B122B122BFEFEFE2B122B122BFEFEFA
:1028A000FE202020FEFEFEFEFE202020FEFEFEFE7C
:1028B000FE20202020FEFEFEFE29202020FEFEFE1F
:1028C0002B292B2B2B2B2B2B2BFEFEFEFEFEFEFE95
:1028D000FEFEFEFEFEFEFEFEFEFEFEFFFFFEFE3FD5
:1028E0003FFEFEFFFFFEFE3F3FFEFEFEFEFFFF3F00
:1028F0003FFEFEFEFEFFFF3F3FFEFEFEFE3F3F3F70
:102900003FFEFEFEFE3F3F3F3FFEFEFEFEFEFEFEA2
:10291000FEFEFEFEFEFEFEFEFEFEFEFEFEFFFFFED5
:10292000FEFEFEFEFEFFFFFEFEFEFEFFFFFEFEFEC3
:10293000FEFEFEFFFFFEFEFEFE3F3F3F3F3F3FFE2F
:10294000FE3F3F3F3F3F3FFEFE3F3F3F3FFEFEFE1D
:10295000FE3F3F3F3FFEFEFEFE3F3FFFFF1F1F3F8C
:102960003F3F3FFFFF1F1F3F3FFEFE1F1FFFFF3F79
:102970003FFEFE1F1FFFFF3F3FFEFEFEFE3F3F3FAD
:102980003FFEFEFEFE3F3F3F3FFEFEFEFE3F3F3F5F
:102990003FFEFEFEFE3F3F3F3FFEFE1F1FFFFF3F8D
:1029A0003FFEFE1F1FFFFF3F3FFEFEFFFF3F3FFEBC
:1029B000FEFEFEFFFF3F3FFEFE3F3F3F3F3F3FFE2D
:1029C000FE3F3F3F3F3F3FFEFEFEFEFEFEFEFEFEA1
:1029D000FEFEFEFEFEFEFEFEFEFEFEFFFFFEFEFE15
:1029E000FEFEFEFFFFFEFEFEFEFEFEFEFEFFFFFE03
:1029F000FEFEFEFEFEFFFFFEFEFEFEFEFEFEFEFEF5
:102A0000FEFEFEFEFEFEFEFEFEFEFEFEFEFEFEFEE6
:102A1000FEFEFEFEFEFEFEFEFEFEFEFEFEFFFFFED4
:102A2000FEFEFEFEFEFFFFFEFEFEFEFFFFFEFEFEC2
:102A3000FEFEFEFFFFFEFEFEFEFEFEFEFEFEFEFEB4
:102A4000FEFEFEFEFEFEFEFEFE12121220202029D9
:102A50002B2B2B2B20202029291212122020202062
:102A6000202B2B2B2020202020121212202020FE91
:102A7000FE2B2B2B2020FEFEFE121212FEFEFEFE6F
:102A8000FE2B2B2BFEFEFEFEFE2B292020201212F9
:102A90001229292020202B2B2B202020202012122D
:102AA0001220202020202B2B2BFEFE202020121273
:102AB00012FEFEFE20202B2B2BFEFEFEFEFE12122F
:102AC00012FEFEFEFEFE2B2B2BFEFEFEFE2020291C
:102AD0002BFEFEFEFE20202929FEFEFE20202020C7
:102AE00020FEFE202020202020FEFE20202020206E
:102AF000202B122B122B122B122B122B122B122BE0
:102B0000122B122B122B122B12292B2B2B2B2B2B94
:102B10002B29202020FEFEFE2B20202020FEFEFE62
:102B2000FE202020FEFEFEFEFE202020FEFEFEFEF9
:102B3000FE2B122B122BFEFEFE2B122B122BFEFE57
:102B4000FE2B122B122BFEFEFEFEFE3F3F3F3F3FB1
:102B50003FFEFE3F3F3F3F3F3FFEFEFEFEFFFFFECC
:102B6000FEFEFEFEFEFFFFFEFEFEFEFFFFFEFEFE81
:102B7000FEFEFEFFFFFEFEFEFEFEFEFEFEFEFEFE73
:102B8000FEFEFEFEFEFEFEFEFE3F3F3F3FFEFEFE61
:102B9000FE3F3F3F3FFEFEFEFE3F3FFFFFFEFEFECD
:102BA000FE3F3FFFFFFEFEFEFE3F3FFEFEFFFFFE3D
:102BB000FE3F3FFEFEFFFFFEFEFEFEFEFEFEFEFEB1
:102BC000FEFEFEFEFEFEFEFEFEFEFE3F3F3F3F3FE0
:102BD0003FFEFE3F3F3F3F3F3FFEFE1F1FFFFFFE0A
:102BE000FEFEFE1F1FFFFFFEFE3F3FFFFF1F1FFEFB
:102BF000FE3F3FFFFF1F1FFEFE3F3F3F3FFEFEFE2B
:102C0000FE3F3F3F3FFEFEFEFE3F3F3F3FFEFEFEDC
:102C1000FE3F3F3F3FFEFEFEFE3F3FFFFF1F1FFE0A
:102C2000FE3F3FFFFF1F1FFEFE3F3F1F1FFFFF3FF7
:102C30003F3F3F1F1FFFFF3F3FFEFEFEFE3F3F3F68
:102C40003FFEFEFEFE3F3F3F3FFEFEFEFEFEFEF568
:102C5000F5FEFEFEFEFEFEFEF5FEFEFEFEFEFEFEA6
:102C6000F5F5F5F5FEFEFEFEF5909090FEFEE1E135
:102C7000F5F5F5F5E1E1E1E1F5909090E1E1E1E1D3
:102C8000F5F5F5F5E1E1E1F0F0F5F5FEFEFEFEFE0D
:102C9000FEF5FEFEFEFEFEFEFEF5FEFEFEFEFEFE66
:102CA000FEF5FEFEFEFEF5F5F5F5E1E1FEFE909087
:102CB00090F5E1E1E1E1F5F5F5F5E1E1E1E1909093
:102CC00090F0F0E1E1E1F5F5F5F590F590F590F58E
:102CD00090F590F590F590F590F590F590F590F5CC
:102CE00090FEFEE1E1E1E1E1E1FEFEE1E1E1E1E1B1
:102CF000E1FEFEFEE1E1E1E1E1FEFEFEFEE1E1F0EA
:102D0000F0FEFEFEFEE1E1F0F5F590F590F5FEFE39
:102D1000FEF590F590F5FEFEFEF590F590F5FEFEC1
:102D2000FEE1E1E1FEFEFEFEFEE1E1E1FEFEFEFE71
:102D3000FEE1E1E1E1FEFEFEFEF0E1E1E1FEFEFE8C
:102D4000F5F0F5F5F5F5F5F5F5FEFEFEFEFEFEFEF9
:102D5000FEFEFEFEFEFEFEFEFEFEFEFEADADFEFE35
:102D6000FEFEFEADADADADFEFEFEFEADADADADFE0B
:102D7000FEFEFEFEADADFEFEFEFEFEFEFEFEFEFE15
:102D8000FEFEFEFEFEFEFEFEFEFEFEFEADADFEFE05
:102D9000FEFEFEFEADADFEFEFEFEFEADADADADFE39
:102DA000FEFEFEADADADADFEFEFEADADADADADAD6D
:102DB000FEFEFE3F3F3F3FFEFEFEFEFE3F3FFEFEAD
:102DC000FEFEFEFEFEFEFEFEFEFEFEFEADADFEFEC5
:102DD000FEFEFEFEADADFEFEFEFEFEADADADADFEF9
:102DE000FEFEFEADADADADFEFEFEADADADADADAD2D
:102DF000FEFEFEFE3F3FFEFEFEFEFEFEFEFEFEFE71
:102E0000FEFEFEFEFEFEFEFEFEFEFEFEFEFEFEFEE2
:102E1000FEFEFEFEADFEFEFEFEFEFE3FADADADFED5
:102E2000FEFE3F3FADADADADADFE3F3FADADADAD97
:102E3000ADFEFE3FADADADFEFEFEFEFEADFEFEFE06
:102E4000FEFEFEFEFEFEFEFEFEFEFEFEFEFEFEFEA2
:102E5000FEFEFEFEADFEFEFEFEFEFEFEADADADFED6
:102E6000FEFEFE3FADADADADADFEFE3FADADADADD9
:102E7000ADFEFEFEADADADFEFEFEFEFEADFEFEFE07
:102E8000FEFEFEFEFEFEFEFEFEFEFEFEFEFEFEFE62
:102E9000FEFEFEFEFEFEFEFEFEFEFEFE9F9FFEFE10
:102EA000FEFEFE9F9F9F9FFEFEFEFE9F9F9F9FFE3A
:102EB000FEFEFEFE9F9FFEFEFEFEFEFEFEFEFEFEF0
:102EC000FEFEFEFEFEFEFEFEFE909090E1E1E1F0D1
:102ED000F5F5F5F5E1E1E1F0F0909090E1E1E1E167
:102EE000E1F5F5F5E1E1E1E1E1909090E1E1E1FE6C
:102EF000FEF5F5F5E1E1FEFEFE909090FEFEFEFE91
:102F0000FEF5F5F5FEFEFEFEFEF5F0E1E1E1909046
:102F100090F0F0E1E1E1F5F5F5E1E1E1E1E190903A
:102F200090E1E1E1E1E1F5F5F5FEFEE1E1E190900E
:102F300090FEFEFEE1E1F5F5F5FEFEFEFEFE909050
:102F400090FEFEFEFEFEF5F5F5FEFEFEFEE1E1F072
:102F5000F5FEFEFEFEE1E1F0F0FEFEFEE1E1E1E164
:102F6000E1FEFEE1E1E1E1E1E1FEFEE1E1E1E1E1DD
:102F7000E1F590F590F590F590F590F590F590F5D8
:102F800090F590F590F590F590F0F5F5F5F5F5F5EF
:102F9000F5F0E1E1E1FEFEFEF5E1E1E1E1FEFEFE3C
:102FA000FEE1E1E1FEFEFEFEFEE1E1E1FEFEFEFEEF
:102FB000FEF590F590F5FEFEFEF590F590F5FEFE1F
:102FC000FEF590F590F5FEFEFEFEFEFEFEFEFEFE18
:102FD000FEFEFEFEFEFFFEFEFEFEFEFEFE7FFFFE8E
:102FE000FEFEFEFEFE7F7FFFFEFEFEFEFE7F7F7F7B
:102FF000FFFEFEFEFE7F7F7FFEFEFEFEFE7F7FFE6B
:10300000FEFEFEFEFE7FFEFEFEFEFEFEFEFEFEFE5F
:10301000FEFEFEFEFEFEFEFEFEFEFEFEFEFEFEFED0
:10302000FEFEFEFEFEFEFEFEFE7F7F7F7F7F7FFFB9
:10303000FEFE7F7F7F7FFFFEFEFEFE7F7FFFFEFEA8
:10304000FEFEFEFEFEFEFEFEFEFEFEFEFFFEFEFE9F
:10305000FEFEFEFF7F7FFEFEFEFEFF7F7F7F7FFE88
:10306000FEFF7F7F7F7F7F7FFEFEFEFEFEFEFEFE79
:10307000FEFEFEFEFEFEFEFEFEFEFEFEFEFEFEFE70
:10308000FEFEFEFEFEFEFEFEFE4A4A4A4A4A4A4A4C
:103090004A4A4A4A4A4A4A4A4A4A4A4AA6A64A4AD8
:1030A0004A4A4A4AA6A64A4A4AFE4A4AA6A64A4A5C
:1030B000FEFEFE4AA6A64AFEFEFEFEFEA6A6FEFEF8
:1030C000FEFEFEFEA6A6FEFEFEFEFEFEFEFEFEFED0
:1030D000FEFEFEFEFEFEFEFEFEFEFEFEFEFEFEFE10
:1030E000FEFEFEFEFEFEFEFEFEFEFEFEFEFEFEFE00
:1030F000FEFEFEFEFEFEFEFEFEFEFEFEFEFEFEFEF0
:10310000FEFEFEFEFEFEFEFEFE01012301011B018E
:10311000012201012101012001011A01011901010E
:103120001801011701011602020809090802020626
:10313000071011020204050E0F020214151E1F02D1
:103140000212131C1D020202030C0D020200010AEE
:103150000B020224242424010124000000000000AA
:10316000000000000000000000000000000000005F
:10317000000000000000000000000000000000004F
:10318000000000000000000000000000000000003F
:10319000000000000000000000006666662666660B
:1031A0006666777777267777777777777726777773
:1031B00077777777772677777777262626262626D6
:1031C0002626777777777777772677777777777782
:1031D0007726777777777777772600D2D2D2D2D2D1
:1031E000D200D2FFFFFFFFFFFFD2D2D2FFFFFFFFCF
:1031F000F6D2D2D2D2FFFFF6D2D2D2D2D2FFF6D2BC
:10320000D2D2D2D2FFF6D2D2D2D2D2D2D2D2D2D24D
:10321000D2D200D2D2D2D2D2D20000D2D2D2D2D204
:10322000D200D2FFD2D2D2D2FFD2D2D2FFD2D2FF9C
:10323000D2D2D2D2D23F3FD2D2D2D2D2D23F3FD2BA
:10324000D2D2D2D2FFD2D2FFD2D2D2FFD2D2D2D2D7
:10325000FFD200D2D2D2D2D2D20000D2D2D2D2D297
:10326000D200D2D2D2D2D2D2FFD2D2D2D2D2FFFF89
:10327000D2D2D2D2D2FFFFFFD2D2D2FFF6FFFFD2FC
:10328000D2D2D2D2FFF6D2D2D2D2D23FD2FFD2D233
:10329000D2D200D2D2D2D2D2D20005050505050580
:1032A00005050505050505050504050505050505CF
:1032B00004040505050707040404050505070704BC
:1032C00004040505050404040404050504040404B9
:1032D00004040504040404040404000000000000C5
:1032E000000000FF003F0000FF000000FF3F00FF64
:1032F000000000003F3F3F3F3F00003F3F3F3F3F58
:1033000000000000FF003FFF000000FF00003F0042
:10331000FF0000000000000000003F3F0000000030
:103320003F3F3FFF1F3F001FFF3F001FFF3F00FFCA
:103330003F0000003F3F3F3F3F00003F3F3F3F3FD8
:103340000000001FFF003FFF1F003FFF1F003F1F47
:10335000FF3F3F3F000000003F3F00000000000033
:10336000000000FF00000000FF000000FF0000FF61
:10337000000000000000000000000000000000004D
:1033800000000000FF0000FF000000FF0000000040
:10339000FF00000000000000000005050505050510
:1033A00005050505050505050500050505050505D2
:1033B00000000505050707000000050505070000DA
:1033C00000000505050000000000050500000000E4
:1033D00000000500000000000000000000000000E8
:1033E00000040000000000000404000000000004CD
:1033F00004040000000007040404000000070704A0
:103400000404000004040404040400040404040488
:103410000404040404040404040405050505050566
:10342000050500050505050505050000050505055B
:103430000505000000070705050500000000070559
:103440000505000000000005050500000000000063
:103450000505000000000000000504000000000059
:103460000000040400000000000004040400000048
:10347000000004040407000000000404040707001F
:10348000000004040404040400000404040404040C
:1034900004000404040404040404F0F3F0F0F3F062
:1034A000F3F0F5F0F0F5F5F0F0F5F4F5F5F4F4F5EA
:1034B000F5F4F0F0F3F0F0F3F0F0F3F0F2F3F0F0F5
:1034C000F3F0F0F5F5F0F3F5F5F0F5F4F4F5F5F4C7
:1034D000F4F5F0F0F3F0F3F0F3F018641818641852
:1034E0001864186264181864621818641862641802
:1034F00064186418621818621862186418646218F4
:10350000641864186418186218181864186264182B
:103510006418181818641818186465656565656579
:10352000656565656565656565651665656565659A
:1035300065161616656565651616161616161616A0
:10354000161616141414141414161465656565659E
:1035500065146565656565656565F0F3F0F0F3F024
:10356000F3F0F5F0F0F5F5F0F0F5F4F5F5F4F4F529
:10357000F5F4F0F0F3F0F0F3F0F0F3F0F2F3F0F034
:10358000F3F0F0F5FFFFFFFFF5F0F5FFFFFFFFFFA2
:10359000FFF5F0F0FFFFFFFFF3F0F0F3F0F0F3F0D2
:1035A000F3F0F5F0F0F5F5F0F0F5F4F5F54A4A4AE8
:1035B000F5F4F0F04A4ABFBF4AF0F3F04A4ABFBF01
:1035C0004AF0F0F5FF4A4A4AF5F0F5FFFFFFFFFF2A
:1035D000FFF5F0F0FFFFFFFFF3F0F0F3F04A4A4A87
:1035E000F3F0F5F04A4ABFBF4AF5F4F54A4ABFBFC7
:1035F0004AF4F0F0F34A4A4AF0F0F3F0F24A4AF0A3
:10360000F3F0F0F5FF4A4AFFF5F0F5FFFFFFFFFF8B
:10361000FFF5F0F0FFFFFFFFF3F07F7F7F7F7F7FFD
:103620007F7F7F282828282828287F2828282828BE
:1036300028287F282828282828287F28282828285C
:1036400028287F282828282828287F28282828284C
:1036500028287F282828282828287F7F7F7F7F7F89
:103660007F7F28282828282828282828282828282C
:1036700028282828282828282828282828282828CA
:1036800028282828282828282828282828282828BA
:10369000282828282828282828280000000000009A
:1036A000000000000000000000000000000000001A
:1036B000000000000000000000007F7F7F7F7F7F10
:1036C0007F7F2828282828282828282828282828CC
:1036D000282828282828282828280000000000005A
:1036E0007F7F0000000000007F2800000000000035
:1036F0007F280000000000007F280000000000007C
:103700007F280000000000007F280000000000006B
:103710007F280000000000007F287F7F7F7F7F7F61
:1037200000002828282828280000282828282828B9
:1037300000002828282828280000282828282828A9
:103740000000282828282828000028282828282899
:103750000000282828282828000000000000000079
:103760002B2B000000000000002B000000000000D8
:10377000002B2B2B2B000000002B1212120000201C
:10378000202B2B2B2B202020202B1212122020202C
:10379000202B2B2B2B20202029292B2B0000000055
:1037A00000002B000000000000002B0000000000C3
:1037B00000002B000000002B2B2B2B2020000012E0
:1037C00012122B202020202B2B2B2B2020202012EC
:1037D000121229292020202B2B2B7F28282828284B
:1037E00028287F282828282828287F2828282828AB
:1037F00028287F282828282828287F28282828289B
:1038000028287F282828282828287F28282828288A
:1038100028287F28282828282828282828282828D1
:103820002828282828282828282828282828282818
:1038300028282828282828282828000000000000F8
:103840000000000000000000000000000000000078
:103850000000000000000000000028282828282878
:1038600028282828282828282828282828282828D8
:10387000282828282828282828287F282828282871
:1038800028287F282828282828287F28282828280A
:1038900028287F282828282828287F7F7F7F7F7F47
:1038A0007F28282828282828282828282828282841
:1038B0002828282828282828282828282828282888
:1038C0002828282828282828282828282828282878
:1038D0002828282828282828282828282828282868
:1038E00000000000000000000000000000000000D8
:1038F00000000000000000000000000000000000C8
:1039000000000000000000000000000000000000B7
:10391000000000000000000000000000F590F5909D
:10392000F5900000F590F590F5900000F590F59079
:10393000F59000000000E1E1E1E100000000E1E1BC
:10394000E1E10000000000E1E1E100000000000012
:10395000E1E1000000000000E1E1F590F590F59054
:10396000F500F590F590F590F500F590F590F5904F
:10397000F500E1E1E1E1E1000000E1E1E1E1E10088
:103980000000E1E1E1E1E1E10000F0F0F0E1E1E17E
:103990000000F0F5F0F5F5F5F5F500000000000089
:1039A0000000000000000000000000000000000017
:1039B0000000000000000000000000000000000007
:1039C0000000000000000000000000F50000000002
:1039D0000000F5F5000000000000000000000000FD
:1039E00000000000000000000000000000000000D7
:1039F00000000000000000000000000000000000C7
:103A000000007F7F7F7F7F7F7F7F282828282828CE
:103A10002828282828282828282812121220202080
:103A2000292B2B2B2B202020292912121220202079
:103A300020202B2B2B20202020201212122020208F
:103A400000002B2B2B20200000001212120000007F
:103A500000002B2B2B00000000002B29202020121F
:103A6000121229292020202B2B2B2020202020124D
:103A7000121220202020202B2B2B0000202020128F
:103A8000121200000020202B2B2B0000000000123F
:103A9000121200000000002B2B2B7F28282828283A
:103AA0002828282828282828282828282828282896
:103AB0002828282828282828282828282828282886
:103AC0002828282828282828282828282828282876
:103AD0002828282828282828282828282828282866
:103AE0002828282828282828282828282828282856
:103AF0002828282828282828282828282828282846
:103B00002828282828282828282828282828282835
:103B10002828282828282828282800000000000015
:103B2000E1E1000000000000E1E10000000000E130
:103B3000E1E100000000E1E1E1E100000000E1E17D
:103B4000E1E10000F590F590F5900000F590F5901A
:103B5000F5900000F590F590F590F0F5F0F5F5F59D
:103B6000F5F5F0F0F0E1E1E10000E1E1E1E1E1E1B2
:103B70000000E1E1E1E1E1000000E1E1E1E1E1007B
:103B80000000F590F590F590F500F590F590F59022
:103B9000F500F590F590F590F500F5F500000000C2
:103BA000000000F500000000000000000000000020
:103BB0000000000000000000000000000000000005
:103BC00000000000000000000000000000000000F5
:103BD00000000000000000000000282828282828F5
:103BE0002828282828282828282828282828282855
:103BF0002828282828282828282828282828282845
:103C00002828000000000000000000000000000064
:103C100000000000000000000000000000000000A4
:103C2000F5F500000000000000F5000000000000B5
:103C300000F5F5F5F500000000F59090900000E12A
:103C4000E1F5F5F5F5E1E1E1E1F5909090E1E1E1F3
:103C5000E1F5F5F5F5E1E1E1F0F0F5F50000000042
:103C60000000F500000000000000F500000000006A
:103C70000000F500000000F5F5F5F5E1E100009029
:103C80009090F5E1E1E1E1F5F5F5F5E1E1E1E190B3
:103C90009090F0F0E1E1E1F5F5F5000000000000A2
:103CA0007F280000000000007F28000000000000C6
:103CB0007F280000000000007F28000000000000B6
:103CC0007F280000000000007F28000000000000A6
:103CD0007F280000000000007F28282828282828A6
:103CE00000002828282828280000282828282828F4
:103CF00000002828282828280000282828282828E4
:103D000000002828282828280000282828282828D3
:103D100000002828282828280000000000000000B3
:103D200000007F7F7F7F7F7F7F7F282828282828AB
:103D30002828282828282828282828282828282803
:103D400028282828282828282828282828282828F3
:103D5000282828282828282828287F28282828288C
:103D600028287F282828282828282828282828287C
:103D700028282828282828282828282828282828C3
:103D800028282828282828282828282828282828B3
:103D900028282828282828282828909090E1E1E140
:103DA000F0F5F5F5F5E1E1E1F0F0909090E1E1E179
:103DB000E1E1F5F5F5E1E1E1E1E1909090E1E1E1AA
:103DC0000000F5F5F5E1E1000000909090000000A2
:103DD0000000F5F5F50000000000F5F0E1E1E190EC
:103DE0009090F0F0E1E1E1F5F5F5E1E1E1E1E1905C
:103DF0009090E1E1E1E1E1F5F5F50000E1E1E1902C
:103E00009090000000E1E1F5F5F500000000009061
:103E100090900000000000F5F5F5F0F3F0F0F3F0FD
:103E2000F3F0F5F0F0F5F5F0F0F5F4F5F5F4F4F560
:103E3000F5F4F0F0F3F0F0F3F0F0F3F0F2F3F3F068
:103E4000F2F3F0F5F5F0F0F5F5F0F5F4F4F5F5F43E
:103E5000F4F5F0F0F3F0F0F0F3F0F0F3F0F0F3F04D
:103E6000F3F0F5F0F0F5F5F0F0F5F4F5F5F4F4F520
:103E7000F5F4F0F0F3F0F0F3F0F0F3F0F2F3F0F02B
:103E8000F3F0F0F5F5E8E8E8E8E8F5F4F4E8E8E858
:103E9000F4F5F0F0F3E8E8E8F3F0F0F3F0F0F3F025
:103EA000F3F0F5F0F0F5F5F0F0F5F4F5F5F4F4F5E0
:103EB000F5F4F0F0F3F0F0F3F0F0F3F0F2F3F0F0EB
:103EC000F3F0F0F5F5F0F3F5F5F0E8F4F4F5F5F4CA
:103ED000F4F5F0E8F3F0F3F0F3F0F0F3F0F0F3F0D2
:103EE000F3F0F5F0F0F5F5F0F0F5F4F5F5F4F4F5A0
:103EF000F5F4F0F0F3F0F0F3F0F0A3A3A3A3A3A381
:103F0000A3A3A3A3A3A3A3A3A3A3A3A3A3A3A3A381
:103F1000A3A3A3A3A3A3A3A3A3A3F0F3F0F0F3F09D
:103F2000F3F0F5F0F0F5F0F3F0F0F4F5F5F4F5F06A
:103F3000F0F5F0F0F3F0F0F3F0F0A3A3A3A3A3A344
:103F4000A3A3A3A3A3A3A3A3A3A3A3A3A3A3A3A341
:103F5000A3A3A3A3A4A4A4A4A4A4F0F3F0F0F3F057
:103F6000F3F0F3F0F3F0F5F0F0F5F5F0F0A3A3A320
:103F7000A3A3F0F0F3A3A3A3A3A3A3A3A3A3A3A327
:103F8000A3A3A3A3A3A3A3A3A3A3A3A3A3A3A3A301
:103F9000A3A3A4A4A4A4A4A4A4A4F0F3F0F0F3F015
:103FA000F3F0F5F0F0F5F5F0F0F5A3A3A3A3A3A3C8
:103FB000A3A3A3A3A3A3A3A3A3A3A3A3A3A3A3A3D1
:103FC000A3A3A3A3A3A3A3A3A3A3A3A3A3A3A3A3C1
:103FD000A3A4A4A4A4A4A49AA4A4F0F3F0F0F3F0DE
:103FE000F3A3F5F0F0F5F5F0F0A3A3A3A3A3A3A327
:103FF000A3A3A3A3A3A3A3A3A3A3A3A3A3A3A3A391
:10400000A3A3A3A3A3A3A3A3A3A3A4A4A4A4A4A47A
:10401000A4A4A4A4A4A4A4A4A4A4A3A3A3A3A3A366
:10402000A3A3A3A3A3A3A3A3A3A3A3A3A3A3A3A360
:10403000A3A3A3A3A3A3A3A3A3A3A3A3A3A3A3A350
:10404000A3A3A3A3A3A3A3A3A3A3A4A4A4A4A4A43A
:10405000A4A4A4A4A4A4A4A4A4A4A3F3F0F0F3F09F
:10406000F3F0A3F0F0F5F5F0F0F5A3A3A3A3A3A359
:10407000A3A3A3A3A3A3A3A3A3A3A3A3A3A3A3A310
:10408000A3A3A3A3A3A3A3A3A3A3A4A4A4A4A4A4FA
:10409000A4A4A4A4A4A4A4A4A4A4F0F3F0F0F3F012
:1040A000F3F0F5F0F0F5F5F0F0F5A3A3A3A3A3A3C7
:1040B000A3A3A3A3A3A3A3A3A3A3A3A3A3A3A3A3D0
:1040C000A3A3A3A3A3A3A3A3A3A3A4A4A3A3A3A3BE
:1040D000A3A3A4A4A49AA4A4A4A4F0F3F0F0F3F0DE
:1040E000F3F0F5F0F0F5F5F0F0F5A3A3A3A3A3F535
:1040F000F5F4A3A3A3A3A3F3F0F0A3A3A3A3A3A303
:10410000A3A3A3A3A3A3A3A3A3A3A3A3A3A3A3A37F
:10411000A3A3A4A4A4A4A4A4A4A4F0F3F0F0F3F093
:10412000F3F0F5F0F0F5F5F0F0F5F4F5F5F4F4F55D
:10413000F5F4F0F0F3F0F0F3F0F0A3A3A3A3A3A33E
:10414000A3A3A3A3A3A3A3A3A3A3A3A3A3A3A3A33F
:10415000A3A3A4A4A4A4A4A4A3A3F0F3F0F0F3F055
:10416000F3F0F5F0F0F5F5F0F0F5F4F5F5F4F4F51D
:10417000F5F4F0F0F3F0F0F3F0F0F3F0F2E8E8E843
:10418000E8E8F0F5F5E8E8E8E8F0F5F4F4E8E8E860
:10419000E8F5F0F0F3E8E8E8E8F0F0F3F0F0F3F039
:1041A000F3F0F5F0F0F5F5F0F0F5F4F5F5F4F4F5DD
:1041B000F5F4F0F0F3F0F0F3F0F0E8F0F2F3F0F0F3
:1041C000F3F0F0E8F5F0F3F5F5F0F5F4E8F5F5F4D3
:1041D000F4F5F0F0F3E8F3F0F3F0F0F3F0F0F3F0CF
:1041E000F3F0F5F0F0F5F5F0F0F5F4F5F5F4F4F59D
:1041F000F5F4F0F0F3F0F0F3F0FFF3F0F2F3FFFF7B
:10420000FFA3F0FFFFFFFFFFFFA3FFF4F4A3A3A3AF
:10421000A3A3F0F0A3A3A3A3A3A3F0F3F0F0F3FFF1
:10422000FFF0F5F0F0F5FFFFFFF5F4F5FFFFFFFFFE
:10423000F5F4FFFFFFFFFFF3F0F0A3A3A3A3A3A3F5
:10424000A3A3A3A3A3A3A3A3A3A3A3A3A39AA3A347
:10425000A3A3A3A39A9A9AA3A3A3F0F3F0E8E8E890
:10426000F3F0A3A3A3A3A3A3A3A3A3A3A3A3A3A381
:10427000A3A3A3A3A3A3A3A3A3A3A3A3A3A3A3A30E
:10428000A3A3A3A3A3A3A3A3A3A3A3A3A3A3A3A3FE
:10429000A3A3A3A3A3A3A3A3A3A3F0F3E8F0F3F022
:1042A000F3F0A3A3A3A3A3A3A3A3A3A3A3A3A3A341
:1042B000A3A3A3A3A3A3A3A3A3A3A3A3A3A3A3A3CE
:1042C000A3A3A3A4A4A4A4A4A4A4A3A4A4A4A4A4B2
:1042D000A49AA3A4A4A4A4A4A49AF0F3F0F0F3F0E5
:1042E000F3F0A3A3A3A3A3A3A3A3A3A3A3A3A3A301
:1042F000A3A3A3A3A3A3A3A3A3A3A3A3A3A3A3A38E
:10430000A3A3A4A4A4A4A4A4A49A9A9A9AA4A4A497
:10431000A4A49A9A9AA4A4A4A4A4F0F3F0F0F3F0AD
:10432000F3F0A3A3A3A3A3A3A3A3A3A3A3A3A3A3C0
:10433000A3A3A3A3A3A3A3A3A3A3A3A3A3A3A3A34D
:10434000A3A39A9A9A9A9A9A9A9A9A9A9A9A9A9ABB
:104350009A9AA4A4A4A4A4A4A4A4A3A3A3A3A3A337
:10436000A3A3A3A3A3A3A3A3A3A3A3A3A3A3A3A31D
:10437000A3A3A3A3A3A3A3A3A3A3A3A3A3A3A3A30D
:10438000A3A39A9A9A9A9A9A9A9A9A9A9A9A9A9A7B
:104390009A9AA4A4A4A4A4A4A4A4A3A39AA4A49A07
:1043A0009AA4A3A3A4A4A4A4A4A4A3A39AA4A49AEF
:1043B0009AA4A3A3A4A4A4A4A4A4A3A39A9A9A9AF3
:1043C0009A9A9AA4A4A4A4A4A4A4A4A4A4A4A4A4CB
:1043D000A4A4A4A4A4A4A4A4A4A4A49A9AA4A49ABB
:1043E0009AA4A4A4A4A4A4A4A4A4A49A9AA4A49AB5
:1043F0009AA4A4A4A4A4A4A4A4A49A9A9A9A9A9AC3
:104400009A9AA4A4A4A4A4A4A4A4A4A4A4A4A4A480
:10441000A4A4A4A4A4A4A4A4A4A4A49A9AA4A49A7A
:104420009AA4A4A4A4A4A49AA4A4A49A9AA4A49A7E
:104430009AA4A4A4A4A4A49AA4A49A9A9A9A9A9A8C
:104440009A9AA4A4A4A4A4A4A4A4A4A4A4A4A4A440
:10445000A4A4A4A4A4A4A4A4A4A4A49A9AA4A49A3A
:104460009AA4A4A4A4A4A4A4A4A4A49A9AA4A49A34
:104470009AA4A4A4A4A4A4A4A4A39A9A9A9A9A9A43
:104480009AA3A4A4A4A4A4A4A3A3A4A4A4A4A4A3FA
:10449000A3A3A4A4A4A4A4A3A3A3A49A9AA4A3A3F7
:1044A000A3A3A49AA3A3A3A3A3A3A3A3A3A3A3A3E4
:1044B000A3A3A3A3A3A3A3A3A3A3A3A3A3A3A3A3CC
:1044C000A3A3A3A3A3A3A3A3A3A3A3A3A3A34AA315
:1044D000A3A3A3A3A34A4A4AA3A3A3A3A3A4A49ABE
:1044E0009AA4A3A3A3A3A4A4A4A4A3A3A3A0A0A0A9
:1044F000A0A0A3A3A0A0A0A0A0A0A3A0A0A0A0A0B3
:10450000A0A0A3A0A0A0A0A0A0A0A3A0A0A04A4A51
:104510004AA0A3A0A04A4A4A4A4AA49A9AA4A49AA2
:104520009AA4A4A4A4A4A4A4A4A4A0A0A0A4A49A6B
:104530009AA4A0A0A0A4A4A4A4A4A0A0A0A0A0A069
:10454000A09AA0A0A0A0A0A0A0A4A0A0A0A0A0A06D
:10455000A09AA0A0A0A0A0A0A0ADA49A9AA4A49A5A
:104560009AA4A4A4A4A4A4A4A4A4A49A9AA4A49A33
:104570009AA4A4A4A4A4A4A4A4A49A9A9A9A9A9A41
:104580009A9AA4A4A4A4A4A4A4A4A4A4A4A4A4A4FF
:10459000A4A4ADADADADADADADADA49A9A9AA49ABB
:1045A0009AA4A4A4A49AA4A4A4A4A49A9A9AA49A07
:1045B0009AA4A4A4A49AA4A4A4A49A9A9A9A9A9A0B
:1045C0009A9AA4A4A4A4A4A4A4A4A4A4A4A4A4A4BF
:1045D000A4A4ADADADADADADADADA49A9AA4A49A71
:1045E0009AA4A4A4A4A4A4A4A4A4A49A9AA4A49AB3
:1045F0009AA4A4A4A4A4A4A4A4A49A9A9A9A9A9AC1
:104600009A9AA4A4A4A4A4A4A4A4A4A4A4A4A4A47E
:104610009A9AADADADADADADADADA49A9AA4A49A44
:10462000A3A3A4A4A4A4A4A49AA3A49A9AA4A49A75
:104630009AA3A4A4A4A4A4A49AA39A9A9A9A9A9A8C
:104640009AA3A4A4A4A4A4A4A4A49A9A9A9A9A9A71
:104650009AA4ADADADADADADADADA3A3A3A3A3A3E2
:10466000A3A3A3A3A3A3A3A3A3A3A3A3A3A3A3A31A
:10467000A3A3A3A3A3A3A3A3A3A3A3A3A3A3A3A30A
:10468000A3A3A4A4A4A4A4A4A4A4A4A4A4A4A4A4EC
:10469000A4A4ADADADADADADADADF0F3F0F0F3F0C4
:1046A000F3F0A3A3A3A3A3A3A3A3A3A3A3A3A3A33D
:1046B000A3A3A3A3A3A3A3A3A3A3A3A3A3A3A3A3CA
:1046C000A3A3A4A4A4A4A4A4A4A4A4A4A4A4A4A4AC
:1046D000A4A4ADADADADADADADADF0F3F0E8E8E89F
:1046E000E8F0A3A3A3A3A3A3A3A3A3A3A3A3A3A308
:1046F000A3A3A3A3A3A3A3A3A3A3A3A3A3A3A3A38A
:10470000A3A3A4A4A4A4A4A4A4A3A4A4A4A4A4A46C
:10471000A4A3ADADADADADADADADF0F3F0F0E8F04F
:10472000F3F0A3A3A3A3A3A3A3A3A3A3A3A3A3A3BC
:10473000A3A3A3A3A3A3A3A3A3A3A3A3A3A3A3A349
:10474000A3A3A3A3A3A3A3A3A3A3A3A3A3A3A3A339
:10475000A3A3ADADADADADADADADF0FFFFF0F3F0EA
:10476000F3F0F5FFFFFFF5F0F0F5F4F5FFFFFFFFC5
:10477000F5F4F0F0F3F0F0FFFFFFA3A3A3A3A3A3CE
:10478000A3A3A3A3A3A3A3A3A3A3A3A3A3A3A3A3F9
:10479000A3A3ADADADADADADADADF0F3F0F0F3F0C5
:1047A000F3F0F5F0F0F5F5F0F0F5F4F5F5F4F4F5D7
:1047B000F5F4FFF0F3F0F0F3F0F0A3FFFFFFF0F0FB
:1047C000F3F0A3FFFFFFFFFFFFF0A3A3A3A3A3F456
:1047D000F4FFADADADADAD9A9AF0F0F3A3A3A3A3F2
:1047E000A3A3FFF0F0A3A3A3A3A3F4FFFFFFFFFF86
:1047F000FFA3F0FFFFFFFFFFFF9AF3F0F2F3F0F0EB
:10480000F3FFF0F5F5F0F3F5F5F0F5F4F4F5F5F464
:10481000F4F5F0F0F3F0F3F0F3F0A3A39A9A9AA36F
:10482000A3A3A3A3A39AA3A3A3A3A3A3A3A3A3A361
:10483000A3A39A9A9A9A9A9A9A9AFF9A9A9A9A9A61
:104840009A9AF0F5FFFFFFFFF59AF5F4F4F5F5FFFE
:10485000FF9AF0F0F3F0F3FFFF9AA3A3A3A3A3A39F
:10486000A3A3A3A3A3A3A3A3A3A3A3A3A3A3A3A318
:10487000A3A39AA3A3A3A3A3A3A39AA3A3A3A3A31A
:10488000A3A39AA3A3A3A3A3A3A39A9A9A9A9A9A37
:104890009A9A9A9A9A9A9A9A9A9AA3A4A4A4A4A43D
:1048A000A49AA3A4A4A4A4A4A49AA3A4A4A4A4A4DE
:1048B000A4A4A3A39A9A9A9A9A9AA3A3A3A3A3A3FC
:1048C000A3A3A3A3A3A3A3A3A3A39A9A9A9A9A9AEE
:1048D0009A9A9A9A9A9A9A9A9A9A9A9A9AA4A4A41A
:1048E000A4A49A9A9AA4A4A4A4A4A4A4A4A4A4A4A6
:1048F000A49A9A9A9A9A9A9A9A9AA3A3A3A3A3A3D8
:10490000A3A3A3A3A3A3A3A3A3A39A9A9A9A9A9AAD
:104910009A9A9A9A9A9A9A9A9A9AA4A4A4A4A4A4BB
:10492000A4A49A9A9A9A9A9A9A9A9A9A9A9A9A9AD3
:104930009A9A9A9A9A9A9A9A9A9AA3A3A3A3A3A3A1
:10494000A3A3A3A3A3A3A3A3A3A39A9A9A9A9A9A6D
:104950009A9A9A9A9A9A9A9A9A9AA4A4A4A4A4A47B
:10496000A4A49A9A9A9A9A9A9A9A9A9A9A9A9A9A93
:104970009A9A9A9A9A9A9A9A9A9AA3A3A3A3A3A361
:10498000A3A3A3A3A3A3A3A3A3A39AA3A3A3A3A300
:10499000A3A39AA3A3A3A3A3A3A3A4A4A4A4A4A4EA
:1049A000A4A4A4A4A4A4A4A4A4A49AA4A4A4A4A4D1
:1049B000A4A49A9A9A9A9A9A9A9AA3A3A4A4A4A409
:1049C000A4A4A3A39AA4A49A9AA4A3A3A4A4A4A4C9
:1049D000A4A4A3A39AA4A49A9AA4A4A4A4A4A4A4B7
:1049E000A4A4A4A4A4A4A4A4A4A4A4A4A4A4A4A487
:1049F000A4A49A9A9A9A9A9A9A9AA4A4A4A4A4A4C7
:104A0000A4A4A49A9AA4A49A9AA4A4A4A4A4A4A48E
:104A1000A4A4A49A9AA4A49A9AA4A4A4A4A4A4A47E
:104A2000A4A4A4A4A4A4A4A4A4A4A4A4A4A4A4A446
:104A3000A4A49A9A9A9A9A9A9A9AA4A4A4A4A49A90
:104A4000A4A4A49A9AA4A49A9AA4A4A4A4A4A49A58
:104A5000A4A4A49A9AA4A49A9AA4A4A4A4A4A4A33F
:104A6000A3A3A4A4A4A4A4A3A3A3A4A4A4A4A4A40B
:104A70009AA39A9A9A9A9A9A9AA3A4A4A4A4A4A448
:104A80009A9AA4A49A9AA4A49A9AA4A4A4A4A4A422
:104A9000A4A4A4A49A9AA4A49A9AA3A3A34A4A4A0F
:104AA000A3A3A3A3A3A34AA3A3A3A3A3A3A3A3A32F
:104AB000A3A3A3A3A3A3A3A3A3A3A3A3A3A3A3A3C6
:104AC000A3A39AA3A3A3A3A3A3A39A9A9A9AA3A3E3
:104AD000A3A3A49A9A9A9A9A9A9AA3A0A04A4A4AF5
:104AE0004A4AA3A0A0A04A4A4AA0A3A0A0A0A0A06E
:104AF000A0A0A3A0A0A0A0A0A0A0A3A39AA0A0A0B3
:104B0000A0A0A3A3A39A9A9A9A9AA3A3A39A9A9AC3
:104B10009A9A9A9A9A9A9A9A9AA4A0A0A0A0A0A0C7
:104B2000A09AA0A0A0A0A0A09AA4A0A0A0A0A0A08D
:104B30009A9AA0A09A9A9A9A9A9AA0A09A9A9A9ABD
:104B40009A9A9A9A9A9AA49A9AA49A9A9AA4A4A493
:104B5000A4A4A49A9AA4A49A9AA4A4A4A4A4A4A43D
:104B6000A4A4A4A4A4A4A4A4A4A4A4A4A4A4A4A405
:104B7000A4A49A9A9A9A9A9A9A9AA4A4A49AA4A44F
:104B8000A4A4A49A9A9AA49A9AA4A4A4A49AA4A421
:104B9000A4A4A49A9A9AA49A9AA4A4A4A4A4A4A407
:104BA0009A9AA4A4A4A4A4A4A4A4A4A4A4A4A4A4D9
:104BB000A4A49A9A9A9A9A9A9A9AA4A4A4A4A4A405
:104BC000A4A4A49A9AA4A49A9AA4A4A4A4A4A4A4CD
:104BD000A4A4A49A9AA4A49A9AA49A9A9A9A9A9AF9
:104BE0009AA4A4A4A4A4A4A4A4A4A4A4A4A4A4A48F
:104BF000A4A49A9A9A9A9A9A9A9AA4A4A4A4A4A4C5
:104C0000A3A3A49A9AA4A49AA3A3A4A4A4A4A4A486
:104C10009AA3A49A9AA4A49A9AA3A4A4A4A4A4A488
:104C2000A4A4A4A4A4A4A4A4A4A4A4A4A4A4A4A444
:104C3000A4A49A9A9A9A9A9A9A9AA3A3A3A3A3A38A
:104C4000A3A3A3A3A3A3A3A3A3A3A3A3A3A3A3A334
:104C5000A39AA3A3A3A3A3A3A39AA4A4A4A4A4A430
:104C6000A4A4A4A4A4A4A4A4A4A4A4A4A4A4A4A404
:104C7000A4A49A9A9A9A9A9A9A9AA3A3A3A3A3A34A
:104C8000A3A3A3A3A3A3A3A3A3A39A9A9A9A9A9A2A
:104C90009A9A9A9A9A9A9A9A9A9AA4A4A4A4A4A438
:104CA000A49AA4A4A4A4A4A4A49AA4A4A4A4A4A4D8
:104CB000A49A9A9A9A9A9A9A9A9AA3A3A3A3A3A314
:104CC000A3A3A3A3A3A3A3A3A3A39A9A9A9A9A9AEA
:104CD0009A9A9A9A9A9A9A9A9A9AA3A3A3A3A3A3FE
:104CE000A3A3A3A3A3A3A3A3A3A3A3A3A3A3A3A394
:104CF000A3A3A3A3A3A3A3A3A39AA3A3A3A3A3A38D
:104D0000A39AA3A3A3A3A3A3A39A9A9A9A9A9A9ABB
:104D10009A9A9A9A9A9A9A9A9A9AA3A3A3A3A3A3BD
:104D2000A3A3A3A3A3A3A3A3A3A3A3A3A3A3A3A353
:104D3000A3A39A9A9A9A9A9A9A9A9A9A9A9A9A9AC1
:104D40009A9A9AF5FFFFFFFFF5F09AFFFFFFFFF435
:104D5000F4F59AFFFFF0F3F0F3F0A3A3A3A3A39A53
:104D60009AF09A9A9A9A9A9A9AFF9A9A9A9A9AFF83
:104D7000FFF49A9AFFFFFFF3F0F09A9AF2F3F0F043
:104D8000F3F0F0F5F5F0F3F5F5F0F5F4F4F5F5F4EE
:104D9000F4F5F0F0F3F0F3F0F3F0F0F3F0E8E8E816
:104DA000F3F0F5F0F0E8E8E8F0F5F4F5F5E8E8E818
:104DB000E8E8F0F0F3F0F0F3F0F0F3F0F2F3F0F0F5
:104DC000F3F0F0F5F5F0F3F5F5F0F5F4F4F5F5F4AE
:104DD000F4F5F0F0F3F0F3F0F3F0F0E8F0F0F3F0C6
:104DE000F3F0E8F0F0F5F5F0F0F5F4F5F5F4F4F59E
:104DF000F5F4F0F0F3F0F0F3F0F0F3F0F2F3F0F09C
:104E0000F3F0F0F5F5F0F3F5F5F0F5F4F4F5F5F46D
:104E1000F4F5F0F0F3F0F3F0F3F0F0F3F0F0F3F07A
:104E2000F39AF5F0F0F5F5F0F09AF4F5F5F4F4F501
:104E3000F59AF0F0F3F0F0F3F09AF3F0F2F3F3F008
:104E4000F29AF0F5F5F0F0F5F5F0F5F4F4F5F5F487
:104E5000F4F5F0F0F3F0F0F0F3F09AA3A3A3A3A31A
:104E6000A3A39AA3A3A3A3A3A3A39AA3A3A3A3A324
:104E7000A3A39A9A9A9A9A9A9A9A9A9A9A9A9A9A80
:104E80009A9AF0F5F5F0F3F5F5F0F5F4F4F5F5F49C
:104E9000F4F5F0F0F3F0F3F0F3F0A3A3A4A4A4A4CA
:104EA000A4A4A3A3A3A39A9A9A9AA3A3A3A3A3A3F4
:104EB000A3A39A9A9A9A9A9A9A9A9A9A9A9A9A9A40
:104EC0009A9AF0F5F5F0F3F5F5F0F5F4F4F5F5F45C
:104ED000F4F5F0F0F3F0F3F0F3F0A4A4A4A4A4A488
:104EE000A4A49A9A9A9A9A9A9A9AA3A3A3A3A3A3D8
:104EF000A3A39A9A9A9AA3A3A3A39A9A9A9AA3A3CA
:104F0000A3A3F0F59A9A9A9A9A9AF5F49A9A9A9A89
:104F10009A9AF0F0F3F0F3F0F3F0A4A4A4A4A49A06
:104F2000A4A49A9A9A9A9A9A9AA4A3A3A3A3A3A38D
:104F30009A9AA3A3A3A3A3A3A3A3A3A3A3A3A3A353
:104F4000A3A39A9A9A9A9A9A9A9A9A9A9A9A9A9AAF
:104F50009A9AF0F0F3F0F3F0F3F0A4A4A4A4A4A4BC
:104F6000A4A4A4A4A4A4A4A4A4A49A9A9A9A9A9A3D
:104F70009A9AA3A3A3A3A3A3A3A3A3A3A3A3A3A313
:104F8000A3A39A9A9A9A9A9A9A9A9A9A9A9A9A9A6F
:104F90009A9AF0F0F3F0F3F09A9AA4A4A4A4A4A42B
:104FA000A4A4A4A4A4A4A4A4A4A49A9A9A9A9A9AFD
:104FB0009A9AA3A3A3A3A3A3A3A3A3A3A3A3A3A3D3
:104FC000A3A3A3A3A3A3A3A3A3A3A3A3A3A3A3A3B1
:104FD000A3A39A9A9A9A9A9A9A9AA4A4A4A49A9AF7
:104FE0009A9AA4A4A4A4A4A4A4A49A9A9A9A9A9AD1
:104FF0009A9AA3A3A3A3A3A3A3A3A3A3A3A3A3A393
:10500000A3A3A3A3A3A3A3A3A3A3A3A3A3A3A3A370
:10501000A3A39A9A9A9A9A9A9A9A9A9A9A9AA4A4CA
:10502000A4A4A4A4A4A4A4A4A4A49A9A9A9A9A9A7C
:105030009A9AA3A3A3A3A3A3A3A3A3A3A3A3A3A352
:10504000A3A3A3A3A3A3A3A3A3A3A3A3A3A3A3A330
:10505000A3A39A9A9A9A9A9A9A9AA4A4A4A4A4A462
:10506000A4A4A4A4A4A4A4A4A4A49A9A9A9A9A9A3C
:105070009A9AA3A3A3A3A3A3A3A3A3A3A3A3A3A312
:10508000A3A39A9A9A9A9A9A9A9A9A9A9A9A9A9A6E
:105090009A9A9A9AF3F0F3F0F3F0A4A4A49AA4A431
:1050A000A4A4A4A49A9A9A9A9A9A9A9A9AA3A3A31D
:1050B000A3A3A3A3A3A3A3A3A3A3A3A3A3A3A3A3C0
:1050C000A3A39A9A9A9A9A9A9A9A9A9A9A9A9A9A2E
:1050D0009A9AF0F0F3F0F3F0F3F0A4A4A4A4A4A43B
:1050E000A4A49A9A9A9A9A9A9A9AA3A3A3A3A3A3D6
:1050F000A3A3A3A3A3A39A9A9A9AA3A3A3A39A9AB6
:105100009A9A9A9A9A9A9A9AF5F09A9A9A9A9A9A4E
:10511000F4F5F0F0F3F0F3F0F3F0A4A4A4A4A4A445
:105120009AA39A9A9A9A9A9A9AA3A3A3A3A3A3A397
:10513000A3A39A9A9A9A9A9A9A9A9A9A9A9A9A9ABD
:105140009A9AF0F5F5F0F3F5F5F0F5F4F4F5F5F4D9
:10515000F4F5F0F0F3F0F3F0F3F0A3A3A3A3A3A30B
:10516000A39AA3A3A3A3A3A3A39AA3A3A3A3A3A321
:10517000A39A9A9A9A9A9A9A9A9A9A9A9A9A9A9A86
:105180009A9AF0F5F5F0F3F5F5F0F5F4F4F5F5F499
:10519000F4F5F0F0F3F0F3F0F3F09AF3F0F0F3F04D
:1051A000F3F09AF0F0F5F5F0F0F59AF5F5F4F4F582
:1051B000F5F49AF0F3F0F0F3F0F09AF0F2F3F0F087
:1051C000F3F0F0F5F5F0F3F5F5F0F5F4F4F5F5F4AA
:1051D000F4F5F0F0F3F0F3F0F3F0F0F3F0E8E8E8D2
:1051E000E8F0F5F0F0E8E8E8E8F5F4F5F5E8E8E8E7
:1051F000E8F4F0F0F3E8E8E8E8E8F3F0F2F3F0F0D0
:10520000F3F0F0F5F5F0F3F5F5F0F5F4F4F5F5F469
:10521000F4F5F0F0F3F0F3F0F3F0F0F3F0E8F3F07E
:10522000F3F0F5F0E8F5F5F0F0F5F4E8F5F4F4F561
:10523000F5F4E8F0F3F0F0F3F0F0F3F0F2F3F0F05F
:10524000F3F0F0F5F5F0F3F5F5F0F5F4F4F5F5F429
:10525000F4F5F0F0F3F0F3F0F3F0F0F3F0F0F3F036
:105260009A9AF5F0F0F5F5F0F0F5F4F5F5F4F4F5BB
:10527000F5F4F0F0F3F0F0F3F0F0F3F0F2F3F0F017
:10528000F3F0F0F5F5F0F3F5F5F0F5F4F4F5F5F4E9
:10529000F4F5F0F0F3F0F3F0F3F09A9A9A9A9A9A00
:1052A0009A9AF5F0F0F5F5F0F0F5F4F5F5F4F4F57B
:1052B000F5F4F0F0F3F0F0F3F0F0F3F0F2F3F0F0D7
:1052C000F3F0F0F5F5F0F3F5F5F0F5F4F4F5F5F4A9
:1052D000F4F5F0F0F3F0F3F0F3F09A9AF0F0F3F065
:1052E000F3F0F5F0F0F5F5F0F0F5F4F5F5F4F4F58C
:1052F000F5F4F0F0F3F0F0F3F0F0F3F0F2F3F0F097
:10530000F3F0F0F5F5F0F3F5F5F0F5F4F4F5F5F468
:10531000F4F5F0F0F3F0F3F0F3F0F0F3F0F0F3F075
:10532000F3F0F5F0F0F5F5F0F0F5F4F5F5F4F4F54B
:10533000F5F4F0F0F3F0F0F3F0F0E8E8E8E8E8E88E
:10534000E8E8E8E8E8E8E8E8E8E8E8E8E8E8E8E8DD
:10535000E8E8E8E8E8E8E8E8E8E8F0F3F0F0F3F097
:10536000F3F0F5F0F0F5F0F3F0F0F4F5F5F4F5F016
:10537000F0F5F0F0F3F0F0F3F0F0E8E8E8E8E8E852
:10538000E8E8E8E8E8E8E8E8E8E8E8E8E8E8E8E89D
:10539000E8E8E8E8E8E8E8E8E8E8F0F3F0F0F3F057
:1053A000F3F0F3F0F3F0F5F0F0F5F5F0F0E8E8E8FD
:1053B000E8E8F0F0F3E8E8E8E8E8E8E8E8E8E8E852
:1053C000E8E8E8E8E8E8E8E8E8E8E8E8E8E8E8E85D
:1053D000E8E8E8E8E8E8E8E8E8E8F0F3F0F0F3F017
:1053E000F3F0F5F0F0F5F5F0F0F5E8E8E8E8E8E8D6
:1053F000E8E8E8E8E8E8E8E8E8E8E8E8E8E8E8E82D
:10540000E8E8E8E8E8E8E8E8E8E8E8E8E8E8E8E81C
:10541000E8E8E8E8E8E8E8E8E8E8F0F3F0F0F3F0D6
:10542000F3E8F5F0F0F5F5F0F0E8E8E8E8E8E8E8AA
:10543000E8E8E8E8E8E8E8E8E8E8E8E8E8E8E8E8EC
:10544000E8E8E8E8E8E8E8E8E8E8E8E8E8E8E8E8DC
:10545000E8E8E8E8E8E8E8E8E8E8E8E8E8E8E8E8CC
:10546000E8E8E8E8E8E8E8E8E8E8E8E8E8E8E8E8BC
:10547000E8E8E8E8E8E8E8E8E8E8E8E8E8E8E8E8AC
:10548000E8E8E8E8E8E8E8E8E8E8E8E8E8E8E8E89C
:10549000E8E8E8E8E8E8E8E8E8E8E8F3F0F0F3F05E
:1054A000F3F0E8F0F0F5F5F0F0F5E8E8E8E8E8E822
:1054B000E8E8E8E8E8E8E8E8E8E8E8E8E8E8E8E86C
:1054C000E8E8E8E8E8E8E8E8E8E8E8E8E8E8E8E85C
:1054D000E8E8E8E8E8E8E8E8E8E8F0F3F0F0F3F016
:1054E000F3F0F5F0F0F5F5F0F0F5E8E8E8E8E8F5C8
:1054F000F5F4E8E8E8E8E8F3F0F0E8E8E8E8E8E8F8
:10550000E8E8E8E8E8E8E8E8E8E8E8E8E8E8E8E81B
:10551000E8E8E8E8E8E8E8E8E8E8F0F3F0F0F3F0D5
:10552000F3F0F5F0F0F5F5F0F0F5F4F5F5F4F4F549
:10553000F5F4F0F0F3F0F0F3F0F0F3F0F2F3F0F054
:10554000F3E8F0F5F5F0F3F5F5E8F5F4F4E8E8E85C
:10555000E8E8F0F0E8E8E8E8E8E8F0F3F0F0F3F085
:10556000F3F0E8E8E8E8E8E8E8E8E8E8E8E8E8E8A8
:10557000E8E8E8E8E8E8E8E8E8E8E8E8E8E8E8E8AB
:10558000E8E8E8E8E8E8E8E8E8E8E8E8E8E8E8E89B
:10559000E8E8E8E8E8E8E8E8E8E8F0F3F0F0F3F055
:1055A000F3F0F5F0F0F5F5F0F0F5F4F5F5F4F4F5C9
:1055B000F5F4F0F0F3F0F0F3F0F0E8F0F2F3F0F0DF
:1055C000F3F0E8F5F5F0F3F5F5F0E8E8E8E8E8F4ED
:1055D000F4F5E8E8E8E8E8E8F3F0F0F3E8E8E8E80C
:1055E000E8E8F5F0F0E8E8E8E8E8F4F5F5F4F4F5D3
:1055F000F5E8F0F0F3F0F0F3F0E8F3F0F2F3F0F0A8
:10560000F3F0F0F5F5F0F3F5F5F0F5F4F4F5F5F465
:10561000F4F5F0F0F3F0F3F0F3F0E8E8E8E8E8E8A8
:10562000E8E8E8E8E8E8E8E8E8E8E8E8E8E8E8E8FA
:10563000E8E8E8E8E8E8E8E8E8E8F3F0F2F3F0F0B2
:10564000F3F0F0F5F5F0F3F5F5F0F5F4F4F5F5F425
:10565000F4F5F0F0F3F0F3F0F3F0E8E8E8E8E8E868
:10566000E8E8E8E8E8E8E8E8E8E8E8E8E8E8E8E8BA
:10567000E8E8E8E8E8E8E8E8E8E8E8E8E8E8E8E8AA
:10568000E8E8E8E8E8E8E8E8E8E8E8E8E8E8E8E89A
:10569000E8E8F0F0F3F0F3F0F3F0E8E8E8E8E8E841
:1056A000F3F0E8E8E8E8E8F0F0F5E8F5F5F4F4F50B
:1056B000F5F4E8F0F3F0F0F3F0F0F3F0F2F3F0F0DB
:1056C000F3F0F0F5F5F0F3F5F5F0F5F4F4F5F5F4A5
:1056D000F4F5F0F0F3F0F3F0F3F0E8E8E8E8E8E8E8
:1056E000E8E8E8E8E8E8E8E8E8E8E8E8E8E8E8E83A
:1056F000E8E8E8E8E8E8E8E8E8E8F3F0F2E8E8E80D
:10570000E8E8F0F5F5E8E8E8E8E8F5F4F4F5F5F4AC
:10571000F4F5F0F0F3F0F3F0F3F0E8E8E8E8E8E8A7
:10572000E8E8E8E8E8E8E8E8E8E8E8E8E8E8E8E8F9
:10573000E8E8E8E8E8E8E8E8E8E8E8E8E8E8E8E8E9
:10574000E8E8E8E8E8E8E8E8E8E8F5F4F4F5F5F48E
:10575000F4F5F0F0F3F0F3F0F3F0E8E8E8E8E8E867
:10576000E8E8E8E8E8E8E8E8E8E8E8E8E8E8E8E8B9
:10577000E8E8E8E8E8E8E8E8E8E8E8E8E8E8E8E8A9
:10578000E8E8E8E8E8E8E8E8E8E8F5F4F4F5F5F44E
:10579000F4E8F0F0F3F0F3F0F3E8E8E8E8E8E8E83C
:1057A000E8E8E8E8E8E8E8E8E8E8E8E8E8E8E8E879
:1057B000E8E8E8E8E8E8E8E8E8E8E8E8E8E8E8E869
:1057C000E8E8E8E8E8E8E8E8E8E8E8F4F4F5F5F41B
:1057D000F4F5E8F0F3F0F3F0F3F0E8E8E8E8E8E8EF
:1057E000E8E8E8E8E8E8E8E8E8E8E8E8E8E8E8E839
:1057F000E8E8E8E8E8E8E8E8E8E8E8E8E8E8E8F021
:10580000F3F0E8E8E8E8E8F5F5F0F5F4F4F5F5F498
:10581000F4F5F0F0F3F0F3F0F3F000000000000016
:105820000000000000000000000000000000000078
:105830000000000000000000000000000000000068
:105840000000000000000000000000000000000058
:105850000000000000000000000000000000000048
:105860000000000000FFFF000000000000FFFF003C
:105870000000000000FFFF000000000000FFFF002C
:1058800000000000000000000000000000FFFF001A
:105890000000000000000000000000000000000008
:1058A000000000FFFF0000FFFF0000FFFF0000FFFF
:1058B000FF0000FFFF0000FFFF00000000000000ED
:1058C00000000000000000000000000000000000D8
:1058D00000000000000000000000000000000000C8
:1058E000000000FFFF0000FFFF00FFFFFFFFFFFFC2
:1058F000FFFF00FFFF0000FFFF0000FFFF0000FFB1
:10590000FF00FFFFFFFFFFFFFFFF00FFFF0000FFA3
:10591000FF000000000000000000000000FFFF008A
:1059200000000000FFFFFFFFFF0000FFFF0000007E
:1059300000000000FFFFFFFF00000000000000FF6C
:10594000FF0000FFFFFFFFFF0000000000FFFF005F
:105950000000000000000000000000000000000047
:10596000000000FFFF0000FFFF0000FFFF00FFFF3F
:105970000000000000FFFF0000000000FFFF00002B
:10598000000000FFFF0000FFFF0000FF000000FF1D
:10599000FF000000000000000000000000FFFFFF0B
:1059A00000000000FFFF00FFFF00000000FFFFFFFE
:1059B00000000000FFFFFF00000000FFFF00FFFFEE
:1059C000FFFF00FFFF0000FFFF000000FFFFFF00E0
:1059D000FFFF0000000000000000000000000000C9
:1059E0000000000000FFFF000000000000FFFF00BB
:1059F0000000000000FFFF000000000000000000A9
:105A00000000000000000000000000000000000096
:105A10000000000000000000000000000000000086
:105A2000000000000000FFFFFF00000000FFFFFF7C
:105A30000000000000FFFF000000000000FFFF006A
:105A40000000000000FFFFFF000000000000FFFF5B
:105A5000FF00000000000000000000000000000047
:105A6000000000FFFFFF000000000000FFFFFF003C
:105A70000000000000FFFF000000000000FFFF002A
:105A800000000000FFFFFF00000000FFFFFF00001C
:105A90000000000000000000000000000000000006
:105AA000000000DFDF0000DFDF000000DFDFDFDFFE
:105AB0000000DFDFDFDFDFDFDFDF0000DFDFDFDF72
:105AC000000000DFDF0000DFDF000000000000005A
:105AD00000000000000000000000000000000000C6
