:100000000C94DC330C9447340C9447340C944734F0
:100010000C9447340C9447340C9447340C94473474
:100020000C9447340C9447340C9447340C94473464
:100030000C9447340C941D360C945D360C94473464
:100040000C9447340C9447340C9447340C94473444
:100050000C9447340C9447340C9447340C94473434
:100060000C9447340C9447340C9447340C94473424
:10007000425247524A524D5250525352565259527E
:100080005C528100450027FF24FF2A902B1C210C85
:1000900022FB850084008903888D81096F02444218
:1000A00047004501B083B300B10125118A4F8B038E
:1000B0005A5501200101003808000000000000002E
:1000C0000000000000000000000000000000000030
:1000D00067396A39C539C939D139723977397C39C3
:1000E000D9397F3982398539C23900408891D2E4C3
:1000F000ADB5B6BEBFFF0001140D0102140E020320
:10010000140F03041410040514110506141206003C
:1001100014130000555A454C4A4241414142424263
:100120004343434444444545454646464747474381
:100130005055202020426F6F742043616D70202045
:10014000200020202056656C6F6369747920202080
:10015000200020202020446967676572202020202D
:10016000200041637420312054686579204D656515
:100170007400202020526963686F636865742020D2
:1001800020002054686520486F6E657920506F7498
:1001900020002020466F63616C20506F696E7420D0
:1001A000200049742773204E6F74204661697221C4
:1001B000200020204D7563682042657474657220AC
:1001C000200020202046616365204F6666202020A5
:1001D0002000506175736564004261696C202D20B8
:1001E0005800546F74616C3A0053636F72653A0043
:1001F00020202020202020202020202020200059E6
:100200006F75207375636B2062726F2020004C4FF6
:100210004C20202020202020202020200042726F0F
:100220006B656E20627574746F6E3F005472792036
:100230006174206C65617374202000546F6F2065B9
:10024000617379202020202020002A5941574E2A0E
:1002500020202020202020200041207475726B6512
:10026000792073686F6F7400546861742773206914
:10027000743F20202020004E6565642068656C7006
:100280003F20202020005254464D212020202020B5
:10029000202020200046696E616C2053636F7265D8
:1002A0000042790050776E730045646974202D20F8
:1002B00055502F444F574E00526573657420446566
:1002C0006661756C7473202D20534C20283573297A
:1002D0000043616E63656C202D205800436F6E668D
:1002E00069726D202D20410053656C656374202D6B
:1002F0002041005032005031007C005F5F5F5F5F43
:100300005F5F5F5F5F5F00456469742048616E6492
:100310006C650054616E6B2052616E6B00506C61B5
:1003200079657220767320506C6179657200506C2B
:100330006179657220767320435055003230313533
:10034000202D204C617772656E63652042726F6F5D
:100350006B730002A63000004F07500702C129004E
:1003600000E306E406027A2700004502460202C9BD
:10037000250000AF01B00102C72500000000010008
:1003800002C52500000000010002A52300001E0296
:100390001F02023322000070017101027A2700005F
:1003A00045024602022F2200000000010002C1297E
:1003B0000000E306E406022B220000000001000218
:1003C00029220000000000000202020202020202D2
:1003D00002020202020202020202020202020202FD
:1003E00002020202020202000000000000000000FF
:1003F00000000000000000000000000000000000FD
:1004000000000002020000000000000000000000E8
:1004100000000000000000000000000000000000DC
:1004200000020200000000000000000000000000C8
:1004300000000000000000000000000000000002BA
:1004400002000000000000000000000000000000AA
:100450000000000000000000000000000002020098
:100460000000000000000000010101010101010184
:100470000101000000000000000000020200000076
:100480000000000000000101010101010101010162
:100490000000000000000000000202000000000058
:1004A000000000000000000001010000000000004A
:1004B0000000000000000002020000000000000038
:1004C000000000000000010100000000000000002A
:1004D0000000000000020200000000000000000018
:1004E000000000000101000000000000000000000A
:1004F00000000002020000000000000000000000F8
:1005000000000101000000000000000000000000E9
:1005100000020200000000000000000000000000D7
:1005200001010000000000000000000000000002C7
:10053000020000580000000000000000000001015F
:100540000000000000000000006300000002020044
:100550000000000000000000000000000101000099
:100560000000000000000000000000020200000087
:100570000000000000000000000001010000000079
:100580000000000000000000000202000000000067
:100590000000000000000000010100000000000059
:1005A0000000000000000002020000000000000047
:1005B0000000000000000101000000000000000039
:1005C0000000000000020200000000000000000027
:1005D0000000000001010000000000000000000019
:1005E0000000000202000000000000000000010105
:1005F00001010101010101010000000000000000F3
:1006000000020200000000000000000001010101E2
:1006100001010101010100000000000000000002D2
:1006200002000000000000000000000000000000C8
:1006300000000000000000000000000000020200B6
:1006400000000000000000000000000000000000AA
:100650000000000000000000000000020200000096
:10066000000000000000000000000000000000008A
:100670000000000000000000000202000000000076
:10068000000000000000000000000000000000006A
:100690000000000000000002020202020202020248
:1006A000020202020202020202020202020202022A
:1006B000020202020202020202020202020202021A
:1006C000020202020202020202020202020202020A
:1006D0000202020202000000000000000000000010
:1006E000000000000000000000000000000000000A
:1006F00000020200000000000000000000000000F6
:1007000000000000000000000000000000000002E7
:1007100002000000000000000000000000000000D7
:1007200000000000000000000000000000020200C5
:1007300000000000000000000000000000000000B9
:1007400000000000000000000000000202000000A5
:100750000000000000000000000000000000000099
:100760000000000000000000000202000000000085
:100770000000000000000000000000000000000079
:100780000000000000000002020100000000010063
:100790000000000000000000000000000000000158
:1007A0000000000001020201000000000100000042
:1007B0000000000000000000000000000001000038
:1007C0000000010202010007000001000000020019
:1007D000000000000000000200000001000007000F
:1007E0000102020100000000010000000200000000
:1007F00000000000000200000001000000000102F3
:1008000002010000000001000000020000000000E2
:1008100000000002000000010000000001020201CF
:1008200000000000010000000202020202020202B7
:1008300002020000000100000000010202010000AD
:1008400000000100000002000000000000000002A3
:100850000000000100000000010202010000000091
:100860000100000002000000000000000002000083
:100870000001000000000102020100580000010018
:100880000000020000000000000000020000000163
:1008900000630000010202010000000001000000EE
:1008A0000000000000000000000000000001000047
:1008B0000000010202010000000001000000000031
:1008C0000000000000000000000000010000000027
:1008D000010202010101010101000000000000000D
:1008E0000000000000000000000101010101010200
:1008F00002000000000000000000000000000000F6
:1009000000000000000000000000000000020200E3
:1009100000000000000000000000000000000000D7
:1009200000000000000000000000000202000000C3
:1009300000000000000000000000000000000000B7
:1009400000000000000000000002020000000000A3
:100950000000000000000000000000000000000097
:100960000000000000000002020000000000000083
:100970000000000000000000000000000000000077
:100980000000000000020202020202020202020251
:100990000202020202020202020202020202020237
:1009A0000202020202020202020202020202020227
:1009B0000202020202020202020202020202020217
:1009C0000202020101010101010101010101010114
:1009D0000101010101010101010101010101010206
:1009E00002010101010101010101010101010101F6
:1009F00001010101010101010101010101020201E5
:100A000001010101010101010101010101010101D6
:100A100001010101010101010101010202010101C4
:100A200001010101010101010101010101010101B6
:100A300001010101010101010102020101010101A4
:100A40000101010101010101010101010101010196
:100A50000101010101010102020100000000010188
:100A60000101010101010101010101010101010176
:100A7000000000000102020100000000010101016C
:100A80000101010101010101010101010101000058
:100A9000000001020201000000000101010101014A
:100AA000010101010101010101010101000000003A
:100AB0000102020100000000010101010101010128
:100AC0000101010101010101010100000000010219
:100AD000020100000000000001010101010101010B
:100AE00001010101010100000000000001020201FA
:100AF0000058000009000000000000000000000095
:100B000000000000000900000000010202010000D6
:100B100000000000010101010101010101010101C9
:100B2000010100000063000001020201000000005A
:100B300001010101010101010101010101010101A5
:100B4000010100000000010202010000000001019B
:100B50000101010101010101010101010101010185
:100B6000000000000102020100000000010101017B
:100B70000101010101010101010101010101000067
:100B80000000010202010000000001010101010159
:100B90000101010101010101010101010000000049
:100BA0000102020101010101010101010101010133
:100BB0000101010101010101010101010101010224
:100BC0000201010101010101010101010101010114
:100BD0000101010101010101010101010102020103
:100BE00001010101010101010101010101010101F5
:100BF00001010101010101010101010202010101E3
:100C000001010101010101010101010101010101D4
:100C100001010101010101010102020101010101C2
:100C200001010101010101010101010101010101B4
:100C300001010101010101020201010101010101A2
:100C40000101010101010101010101010101010194
:100C50000101010101020201010101010101010182
:100C60000101010101010101010101010101010174
:100C70000101010202020202020202020202020257
:100C80000202020202020202020202020202020244
:100C90000202020202020202020202020202020234
:100CA0000202020202020202020202020202020224
:100CB0000200000000000000000000000000000032
:100CC0000000000000000000000000000002020020
:100CD0000800000100010001000100010000010006
:100CE00001000100010001000008000202000000F4
:100CF00000000000000000000000000000000000F4
:100D000000000000000000000002020202020200D7
:100D100001000200000000000202000000000002CA
:100D200000010002020202020200000000000000B6
:100D300002000000000002020000000000020000AB
:100D4000000000000002020000000000010002009C
:100D5000000000000202000000000002000100008C
:100D6000000000020200010001000000020000007B
:100D70000202020202020000000200000001000163
:100D8000000202000000000001000200000000005C
:100D9000000000000000000200010000000000024E
:100DA0000200000000000000000000000000000041
:100DB000000000000000000000000000000202022D
:100DC000020202000100010000000000000000001B
:100DD0000000000100010002020202020000000007
:100DE00002000000000000000200000000020000FD
:100DF00000000000000200000000000000000200EF
:100E000001000200000002000000000200000002D9
:100E100000010002000000000000000002000000CD
:100E200002000000020202020202000000020000B2
:100E300000020000000002020202020001000200A3
:100E4000000000000000000000000002000100029D
:100E50000202020202000000000000000200000086
:100E60000000000000000000000200000000000080
:100E70000002020001000100010002000000000069
:100E8000000000000000000200010001000100025B
:100E90000200000000000000020000000202020246
:100EA0000202000000020000000000000002020038
:100EB000010002000100000000000000020200002A
:100EC000000000000001000200010002020000001A
:100ED00002000000580000000000020200000000B4
:100EE0006300000000020000000202000100020096
:100EF00001000000000000000202000000000000ED
:100F000000010002000100020200000002000000D7
:100F100000000000000000000000000000000000D1
:100F200000020000000202000800020000000100B0
:100F300001000100010001000100010001000002A8
:100F40000008000202000000020000000000000093
:100F5000000000000000000000000000000200008F
:100F60000002020202020202020202020202020263
:100F70000202020202020202020202020202020251
:100F80000202020202020202020202020202020241
:100F90000202020202020202020202020202020231
:100FA0000203000000000000000000000000040236
:100FB0000202020202030000040202020202030013
:100FC0000000000000000000000000000004020219
:100FD00002020300000000040202020300000000FD
:100FE00000000000000000000000000004020203F6
:100FF00000000000000004020200000000000000E9
:1010000000000000000000000000000403000000D9
:1010100000000000000202000000010101000000C9
:1010200000000000070000000000000000000000B9
:1010300000000002020000000101010000000000A9
:1010400000000000000000000000000000000000A0
:101050000002020000000101010000000000000089
:10106000000000000000000000000000000000027E
:101070000200000000000000000000000000060563
:10108000000000000000000000000000000202005C
:101090000000000000000000000000060202050041
:1010A000000000000000000000000002020000003C
:1010B000000000000000000006020202020500001D
:1010C000000000000000000000020200000000001C
:1010D00000000000000602020202020205000000F9
:1010E00000000000000000020200580000000000A4
:1010F00000000602020202020202020500000000D5
:101100000000630000020200000000000000000078
:1011100004020202020202020203000000000000B8
:1011200000000002020000000000000000000004B7
:1011300002020202020203000000000000000000A0
:101140000002020000000000000000000000040295
:101150000202020300000000000000000000000284
:101160000200000000000000000000000004020275
:101170000300000000000000000000000002020068
:101180000000000000000000000000000403000058
:101190000000000000010101000000020200000048
:1011A000000000000000000000000000000000003F
:1011B0000000000101010000000202000000000028
:1011C0000000000000000000000800000000000017
:1011D0000001010100000002020000000000000008
:1011E00000060500000000000000000000000000F4
:1011F00000000000000202050000000000000602DE
:1012000002050000000000000000000000000000D7
:1012100000000602020205000000000602020202AF
:1012200005000000000000000000000000000006B3
:101230000202020202050000060202020202020588
:101240000000000000000000000000000602020292
:10125000020202020202020202020202020202026E
:10126000020202020202020202020202020202025E
:10127000020202020202020202020202020202024E
:101280000202020202020202020202020200000044
:10129000000000000000000402020202020203003B
:1012A000000000000000000000020200000000003A
:1012B000000101000000040202020203000000011C
:1012C0000100000000000002020000000000000118
:1012D0000100000000040202030000000001010000
:1012E00000000000000202000000000000010100F8
:1012F00000000000040300000000000101000000E5
:1013000000000002020000000000000101000000D7
:1013100000000000000000000001010000000000CB
:1013200000020200000000000001010000000000B7
:1013300000000000000000010100000000000002A9
:101340000200000000000001010000000000000099
:101350000000000000010100000000000002020087
:10136000000000000000000000020000000000007B
:101370000200000000000000000000020200000067
:101380000000000000000002000000000000020059
:101390000000000000000000000202000000000049
:1013A0000000000000020000000000000200000039
:1013B00000000000000000020200580000000000D1
:1013C0000000000200000000000002000000000019
:1013D00000006300000202000000000000000000A6
:1013E00000020000000000000200000000000000F9
:1013F00000000002020000000000000000000002E7
:1014000000000000000002000000000000000000DA
:1014100000020200000000000000000000020000C6
:1014200000000000020000000000000000000002B8
:1014300002000000000000000000000200000000A8
:101440000000020000000000000000000002020096
:10145000000000000000000000020007000009007A
:101460000200000000000000000000020200000076
:10147000000000000000000205000000000602005D
:101480000000000000000000000202000000000157
:101490000101010100020205000006020200010133
:1014A0000101010000000002020000000001010132
:1014B0000101000202020202020202000101010116
:1014C0000100000000020200000000010100000015
:1014D000000000000000000000000000000101000A
:1014E00000000002020000000001010008000000EE
:1014F00000000000000000000008000101000000E2
:1015000000020200000000010100000000000000D5
:1015100000000000000000000001010000000002C7
:1015200002000000000000000000000000000000B9
:1015300000000000000000000000000000020202A5
:10154000020202020202020202020202020202027B
:10155000020202020202020202020202020202026B
:10156000020202020202020202020202020202025B
:101570000202020202020202020202020300000050
:101580000000000000040202020202020300000048
:10159000000000000004020202030000000000003E
:1015A000000000000402020202030000000000002C
:1015B000000000000402020000000101010101001E
:1015C000000000040202030000000001010101010B
:1015D0000000000202000000010000000100000005
:1015E00000000403000000000001000000010000F2
:1015F00000020200000001000900010000000000DC
:1016000000000000000000010007000100000002CF
:1016100002000000010000000100000000000000C6
:1016200000000000000100000001000000020200B4
:1016300000000101010101000000000000000000A5
:101640000000000101010101000000020200000091
:10165000000000000000000000000000000000008A
:101660000000000000000000000202050000000071
:10167000000000000000000000000000000000006A
:101680000000000000000602020205000000000049
:101690000000000001010101010101000000000043
:1016A00000000006020202020205005800000000CD
:1016B00000000100000000000100000000630000C5
:1016C0000602020202020203000000000000000005
:1016D00001000008000001000000000000000402FA
:1016E00002020202030000000000000000000100EE
:1016F00000000000010000000000000000040202E1
:1017000002030000000000000000000001010101D0
:1017100001010100000000000000000004020200BE
:1017200000000000000000000000000000000000B9
:1017300000000000000000000000000202000000A5
:101740000000000000000000000000000000000099
:101750000000000000000000000202000000010183
:101760000101010000000000000000000000000175
:101770000101010100000002020000000100000060
:101780000100000000000000000000000001000057
:10179000000100000002020000000100070001003B
:1017A000000000000000000000000001000900012E
:1017B0000000000202000000010000000100000023
:1017C000000006050000000000010000000100000C
:1017D00000020200000001010101010000000006FA
:1017E00002020500000000010101010100000002E9
:1017F00002050000000000000000000006020202D6
:1018000002050000000000000000000006020202C5
:1018100005000000000000000006020202020202B1
:1018200005000000000000000006020202020202A1
:101830000202020202020202020202020202020288
:101840000202020202020202020202020202020278
:101850000202020202020202020202020202020268
:101860000202020202020202020000000000000066
:101870000000000000000000000000000000000068
:101880000000000000020200000000000000000054
:101890000000000000000000000000000000000048
:1018A0000000000202000000000000000000000034
:1018B0000000000000000000000000000000000028
:1018C0000002020000000000000000000000000014
:1018D0000000000000000000000000000000000206
:1018E00002000000000000000202020202020202E6
:1018F00002020202020200000000000000020200D8
:1019000000000000000000000000000000000000D7
:1019100000000000000000000000000202000000C3
:1019200000000000000000000000000000000000B7
:101930000101010101010101010202000007000093
:10194000090000000000000000000000000001018C
:10195000010101010101010202000000000000007C
:101960000000000000000000000000000101010173
:10197000010101010102020000000000000000005E
:101980000000000000000000000001010100000054
:1019900000010102020000005800000000000000E9
:1019A00000000000000000000101010063000001D0
:1019B0000102020000000000000000000000000022
:1019C0000000000000000101010000000001010210
:1019D0000200000000000000000000000000000005
:1019E00000000000010101000000000101020200EE
:1019F00000000000000000000000000000000000E7
:101A000000000101010101010101010202000000C9
:101A100000000000000000000000000000000000C6
:101A200001010101010101010102020000000000A9
:101A300000000000000000000000000000000101A4
:101A4000010101010101010202000000000000008B
:101A50000000000000000000000000000000000086
:101A60000000000000020200000000000000000072
:101A70000000000000000000000000000000000066
:101A8000000000020200000000000000020202024A
:101A90000202020202020202020200000000000032
:101AA0000002020000000000000000000000000032
:101AB0000000000000000000000000000000000224
:101AC0000200000000000000000000000000000014
:101AD0000000000000000000000000000002020002
:101AE00000000000000000000000000000000000F6
:101AF00000000000000000000000000202000000E2
:101B000000000000000000000000000000000000D5
:101B100000000000000000000002020202020202B7
:101B20000202020202020202020202020202020295
:101B30000202020202020202020202020202020285
:101B40000202020202020202020202020202020275
:101B50000202020202020200000000000000000077
:101B60000000000000000000000000000000000075
:101B70000000000202000000000000000000000061
:101B80000000000000000000000000000000000055
:101B90000002020000000000000000000000000041
:101BA0000000000000000000000000000000000233
:101BB0000200000000000000000000000000000023
:101BC0000000000000000000000000000002020011
:101BD00000000000000002020202020202020202F1
:101BE00002020202000000000000000202000000E9
:101BF00000000000000000000000000000000000E5
:101C000000000000000000000002020101010101CB
:101C100001010101000000000000000000000000C0
:101C200000000000000000020201010101010101A9
:101C3000010100000000000000000000000000079B
:101C4000000009000002020101010101010101017E
:101C50000000000000000000000000000000000084
:101C6000000000020201010000000001010100006B
:101C70000000000000000000000000000000000064
:101C800000020201010058000001010100000000F3
:101C900000000000000000000000630000000002DF
:101CA000020101000000000101010000000000002D
:101CB000000000000000000000000000000202011F
:101CC0000100000000010101000000000000000010
:101CD00000000000000000000000000202010101FD
:101CE00001010101010100000000000000000000EE
:101CF00000000000000000000002020101010101DB
:101D000001010101000000000000000000000000CF
:101D100000000000000000020201010101010101B8
:101D200001010000000000000000000000000000B1
:101D3000000000000002020000000000000000009F
:101D40000000000000000000000000000000000093
:101D5000000000020200000000000000000000007F
:101D60000000000000000000000000000000000073
:101D70000002020000000000000002020202020253
:101D80000202020202020202000000000000000241
:101D90000200000000000000000000000000000041
:101DA000000000000000000000000000000202002F
:101DB0000000000000000000000000000000000023
:101DC000000000000000000000000002020000000F
:101DD0000000000000000000000000000000000003
:101DE00000000000000000000002020000000000EF
:101DF00000000000000000000000000000000000E3
:101E000000000000000000020202020202020202C0
:101E100002020202020202020202020202020202A2
:101E20000202020202020202020202020202020292
:101E30000202020202020202020202020202020282
:101E40000202020202000000000000000000000088
:101E50000000000000000000000000000000000082
:101E6000000202000000000000000000000000006E
:101E70000000000000000000000000000000000260
:101E80000200000000000000000000000000000050
:101E9000000000000000000000000000000202003E
:101EA0000000000000000000000000000000000032
:101EB000000000000000000000000002020000001E
:101EC0000000000000000000000000000000000012
:101ED00000000000000000000002020000000000FE
:101EE00000000000000000000000000000000000F2
:101EF00000000000000000020200000000000000DE
:101F000000000000000000000000000000000000D1
:101F100000000000000202000000000000000000BD
:101F200000000000000000000000000000000000B1
:101F3000000000020200070000090000000000008D
:101F40000000000000000000000000000700000981
:101F5000000202000000000000000000000000007D
:101F6000000000000000000000000000000000026F
:101F7000020000000000000000000000000000005F
:101F8000000000000000000000000000000202004D
:101F900000580000000000000000000000000000E9
:101FA00000000000000000630000000202000000CA
:101FB0000000000000000000000000000000000021
:101FC000000000000000000000020200000000000D
:101FD0000000000000000000000000000000000001
:101FE00000000000000000020200000000000000ED
:101FF00000000000000000000000000000000000E1
:1020000000000000000202000000000000000000CC
:1020100000000000000000000000000000000000C0
:1020200000000002020000000000000000000000AC
:1020300000000000000000000000000000000000A0
:10204000000202000000000000000000000000008C
:10205000000000000000000000000000000000027E
:10206000020000000000000000000000000000006E
:10207000000000000000000000000000000202005C
:102080000000000000000000000000000000000050
:10209000000000000000000000000002020000003C
:1020A0000000000000000000000000000000000030
:1020B000000000000000000000020200000000001C
:1020C0000000000000000000000000000000000010
:1020D00000000000000000020200000000000000FC
:1020E00000000000000000000000000000000000F0
:1020F00000000000000202020202020202020202CA
:1021000002020202020202020202020202020202AF
:10211000020202020101260101250101240101231D
:1021200001012202020C0D0D0C02020A0B18190209
:102130000208091617020220212E2F02021E1F2C50
:102140002D02021C1D2A2B02021A1B28290202063C
:1021500007141502020405121302020203101102F1
:102160000200010E0F010127020227272727010184
:102170000C01010B01010A0101090101080101071C
:102180000101060101040101030101020101050130
:1021900001010101000F040101010101010101011F
:1021A0000101010101010100000000000000000028
:1021B000000000000101000000000000000000001D
:1021C0000000000101010101010101010101010102
:1021D00001010115040D0E0F101112131415160034
:1021E0001700000010110F1600180019001A001B2C
:1021F0001C1D1E1F20000000002122001A001B00D1
:1022000019002311241A001B25260000000027288E
:10221000001A001B0029002A002B2A002B2A001775
:102220000000002A00002C2D2E00000000000000FD
:1022300000000000FCFEFEF3EDF0031724180F0968
:1022400001F7F2F4F900FBF4F0F5FC0201FBF8FBF6
:1022500002090A0700FFFF01000002030300FF005C
:102260000302FFFEFFFFFEFCFBFC0103030100FF76
:10227000FEFEFF0001000000000102020200FEFD60
:10228000FCFCFBFAFD0000FEFDFE0003050504005A
:10229000FEFCFDFE02080903FAF7F8FDFF0001014C
:1022A000FDFCFE00020301FDFBFCFF010504020131
:1022B000010000FFFF010100FEFEFFFFFF0101FF23
:1022C000FEFDFCFCFE0001020200FFFFFEFEFF001F
:1022D000000001FFFDFCFE00010201FFFEFEFD000B
:1022E0000205040200FEFEFCFEFF020302FEFBFAF2
:1022F000FBFDFE000101FFFFFFFFFDFD00010A0ADB
:102300000700F8F3EFF6FE0B10110B00F6EEEFF4FA
:10231000FF080D0E0A03F9F4F0F4FC040C0D0D0691
:10232000FEF4EFF1F7020A0E0D06FDF4F0F2FA03E7
:102330000B0D0A04FDF8F5F6FB03090A0802FCF789
:10234000F5F6FA000507070502FEFBF8F9FD03089C
:102350000A0700F9F4F5F901090C0A03FCF7F5F88E
:10236000FB000509080400FCFAF8FAFD050A0B0653
:10237000FFF9F6F5F7FD040A0A05FFF9F7F7FAFE8B
:102380000408080500FCFAFAFCFF0205060400FB3D
:10239000F8F8FBFF03060704FFFBF8FAFD0103044E
:1023A00003010000000000FF00FF00FE03FCEDED54
:1023B000EDED110F111111111110100A11110D0174
:1023C00008FA0BFBFCF601F900F2F5FA0201FFFF37
:1023D000FBFEF903F7FFFF07FBF6FBFA04FF01F72B
:1023E00007F801F2FDF80AFDFAF7F405FF03F40619
:1023F000FA0AF503FA0C0308FD01040206FD02FEC9
:1024000007F9FEF7010304FFF9F40302FAFA0002E8
:1024100005FD0202080806030101FD01F701FC03A6
:10242000F9FEF3FFFD02FEFF00FF06FA04FC07FCC5
:1024300002F402FF080504030405FA03F3FFF800A1
:10244000F7FEFA0300FEFFFE070105FC00FE0BFF8E
:1024500001FD0204FFFEFCFEFB01F8FEFD06010289
:10246000F902030400FDFEFFFEFCFEFC030402FF74
:102470000000040100FE00FF02FFFDFEFEFFFAFD6A
:10248000FAFFFC00FE02FF0301010303040302FD47
:1024900000FE00FDFFFDFFFDFCFBFD00FF00FD0059
:1024A00000030102000000FEFDFD0001030000002A
:1024B00001010000FF01FFFFFC00FF00FEFDFDFE2B
:1024C000FFFD00FE030002FF01020201FEFFFE010C
:1024D000FE00FC00FE00FEFFFFFF02FE00FD02FF0B
:1024E00002FF01010200FE00FE02FE00FD00FD00F1
:1024F000FDFFFF0000FEFFFD01FF01FE00FF00FFEA
:10250000FE0000020001FE010001FFFEFFFEFEFDD5
:10251000FEFD01FF01FF010102000001FE00FDFFC1
:10252000FE010000FFFF00FF00FE00FE00FEFEFEB9
:1025300000000000FE01FF01FF00FF01FFFFFF00A0
:10254000010000FF00FE00FEFFFEFFFFFFFFFF0196
:10255000FF00FF00FF00FFFFFF00000000FF010081
:1025600001FF00FFFFFFFEFDFEFEFEFFFF0000017A
:1025700001010101010000FF00FFFFFEFFFFFF005E
:10258000FF000000FFFFFEFEFEFEFEFEFFFF00005C
:1025900001000101010000000000FFFFFFFFFEFF3E
:1025A000FEFFFFFFFFFFFFFFFFFFFF00000000FF38
:1025B00000000000000001010000FF0000FFFFFE1E
:1025C000FFFFFF000000000000FFFFFFFF00000012
:1025D00000FFFEFF00010100FFFEFEFF010100FF02
:1025E000FEFEFF000101FFFEFEFF00020100FEFDF6
:1025F000FE00020200FEFDFD00020201FEFCFD00E5
:10260000020301FEFCFD00030301FEFBFC000304CA
:1026100001FDFBFC00030401FDFBFC01040400FCC4
:10262000FAFD01050400FBFAFD020604FFFAF9FEBB
:10263000040704FEF9F9FF050703FCF8FA00060792
:1026400001FAF8FC030705FEF8F8FE060803FBF79D
:10265000FA02080700F8F7FD050905FCF6F801087D
:102660000801F8F6FC060A05FBF5F802090800F770
:10267000F6FD070A04FAF5F9030A08FEF5F6FF0964
:102680000B03F8F3FA060C07FBF3F6020B0A00F54E
:10269000F3FD090D04F7F2F9060D08FBF2F5020C43
:1026A0000B00F4F3FE0A0C03F7F2FA070C06FAF338
:1026B000F8040C08FDF4F6010A09FFF7F6FE070816
:1026C00002F9F7FD050803FBF8FC030603FDFAFD1C
:1026D000010302FEFCFE010200FEFE000201FEFC00
:1026E000FE020402FDFAFC030603FCF8FB030805E6
:1026F000FDF7FA020706FEF8F9000605FFFAFAFFF1
:10270000040501FCFBFE030401FDFCFE010201FFC8
:10271000FEFE00010100FEFDFF010100FFFEFF00C3
:10272000000000FFFFFFFF000100FFFEFE000101AF
:10273000FFFEFE000201FFFDFF010200FEFDFF01A2
:102740000200FEFDFF010200FEFE000101FFFEFF90
:10275000000100FEFEFF0101FFFEFEFF010100FE81
:10276000FEFF000101FFFDFEFF010200FEFDFF0173
:102770000100FFFEFF0000000000FFFFFEFEFEFE66
:10278000FEFFFFFFFF000000000000FFFFFF000052
:102790000000000000010101010101000000FFFF35
:1027A000FFFFFF0000FFFFFFFFFFFFFFFFFFFFFF37
:1027B0000000010203030303030100FEFDFCFAFA1B
:1027C000F9F9F9FAFAFBFDFEFF0102030303030224
:1027D0000100FFFEFEFEFEFEFEFFFF000001020301
:1027E00004040404030202010000FFFFFFFFFFFED8
:1027F000FEFEFEFEFEFEFFFF0001020303040303D4
:10280000020100FEFDFBF9F8F7F6F6F7F8FAFCFE18
:10281000000204050607070706050301FFFCFAF995
:10282000F8F8F9FBFCFE00020304050506050504A3
:102830000201FFFEFEFDFDFDFEFFFF0000000000A7
:10284000FFFFFFFEFEFEFDFDFDFEFF00020406078A
:10285000070706050300FDFBF8F7F5F4F4F4F5F7B8
:10286000F9FBFE010407090A0B0A08060401FFFC34
:10287000FAF9F8F7F7F8F9FBFDFF02040607070776
:102880000604020100FFFEFDFDFDFDFEFEFF00004F
:10289000010101010000FFFEFEFEFEFEFF0001023D
:1028A00003040506070706050300FDFAF8F5F4F32F
:1028B000F2F3F4F6F8FAFD000306080A0B0B0A0916
:1028C000070402FFFCFAF9F8F7F7F8F9FBFD00023C
:1028D0000305060606050403020100FFFEFDFDFDDB
:1028E000FDFEFF0000010101010000FFFFFEFEFFF1
:1028F000FFFF0000000000010102020303030201C8
:1029000000FEFCFBFAF9F9F9F9FAFBFCFDFEFF0108
:102910000203040405040403020100FEFDFDFCFCA7
:10292000FCFDFDFEFF00010102020303030202029F
:10293000010000FFFEFEFDFEFEFEFF0000010101A2
:1029400001010101010100000000FFFFFEFEFEFF8A
:10295000FFFFFFFFFFFEFEFEFEFEFF000101020182
:102960000100FFFEFEFDFDFDFDFDFDFDFDFDFEFE8A
:10297000FF00010203030303020100FFFFFFFFFF4B
:10298000FFFEFEFEFEFEFEFFFF000102020202014C
:102990000100000000000000000000FFFFFFFFFF3B
:1029A000FF00000000FFFFFFFFFEFFFFFFFFFFFF34
:1029B000FFFFFFFFFFFFFFFFFFFFFFFFFFFFFF0026
:1029C0000000FF00FF00000000000000FF00FFFF0C
:1029D000FFFFFFFFFFFFFF000000000000000000FE
:1029E00000FFFF000000000000FFFF000000FFFFED
:1029F000FFFFFFFFFFFF00000000000000000000DD
:102A000000FF00FF000504030602FCFEFBFAFBF7D3
:102A1000F6F8F8FBFF000507060608090803FFFEA5
:102A2000FDFEFCF8FBFBFC0100FDFDFF01030402C1
:102A3000FF0000FF0102FEFE0303FFFFFFFEFE009A
:102A400000FEFFFEFC0104FFFCFD0100FDFFFDFF99
:102A500003FFFE01FFFE0203FFFD00FFFF01FFFE7B
:102A6000FCFCFCFB010506090B080401FFFDFAF85C
:102A7000F8F7F8F8FAFE01FFFF0304040506060460
:102A8000030100FFFEFDFDFFFEFCFDFDFCFCFDFF64
:102A90000208060403FEFDFBFAFBF8F8FAF8FC0155
:102AA0000305060808070503040401FAF9FCFBFA0C
:102AB000FCFAFDFEFC000101050601050300020011
:102AC0000002FDFDFEF7FAFFFEFFFFFD0201FFFF22
:102AD0000103000004010002FEFDFDFCFAFC0503F9
:102AE000FE0100FD0001FFFFFF010101FFFBFAFDF8
:102AF000FCFBFCFF00060C0A0B0C070401FDF9F3BC
:102B0000F2F6F6F6F9FBFCFFFF00050707070807DA
:102B100004020301FFFFFCFAFCFBFAFCFEFEFDFED3
:102B2000FDFDFF010103050301020301000201FF96
:102B3000FFFFFFFF00010A1209FEF5F0EDEEF1F1D3
:102B4000F0F2F7FE0811120F0F0E0C0B080502FC35
:102B5000FAF2EFF2F40100F5FB04FF0005060201B2
:102B600002FEFD0200040F0A02FFFF0301F9F5FA5D
:102B7000FCF7F6FE0201FF0301FEFF0000FEFCFD74
:102B80000102FF00070603FFFDFEFEFAFAFEFDFA52
:102B9000FC0000FEFEFF0001FEF8FE0F110D100EFE
:102BA0000905FFFBF8F3F0F2F3F4F5F9FDFCFE0282
:102BB00003030506090B0804030403FEFBFEFFFBE9
:102BC000FAFCFCFBFBFCFAF8FAFD01050504040421
:102BD0000202050603030301FEFEFF0100FEFBFBEC
:102BE000FBFBF9FBFEFDFDFB0213180D00F8F5F2EF
:102BF000F2F9F9EFEEF901070A0B0C0903FF0107DF
:102C00000801FB00FFF4F90101F9F3020BFFFD05D8
:102C10000C10FFFB02FBF7FBFF0203FDFB010202AE
:102C2000FEFD04FDFA0000FFFF0102FEFAF8FEFFC0
:102C300000FCFC0300FDFE0505FEFE0505FFFAFD98
:102C4000050301010001F8F7FCFE0000FFFFFF0192
:102C500001000303FBF8F4F00417170F090D0B062E
:102C600002FAF3EEEBEEF2F2F5F8FAFFFE000406DC
:102C70000B0C0A090807050302FEFBFCFEFCFBFD2A
:102C8000FCFBFAF9FBFDFEFE010706010205060347
:102C9000030300FDFCFBFFFFFF01FEFDFEFEFF0046
:102CA000FEFEFCFAFCFDFD0719180AFFF9F5F2F12A
:102CB000F1F1EFF1F8FE050B08060C0D05030C0809
:102CC00000FFFCF8F6FA020000020401FE0207020F
:102CD000FBFAFE00F9FB0200FE03FEF70203020707
:102CE00004FFFEFE02FC0008FDF8F9FBF6F9FFFE0A
:102CF000FC0005F8FF0A00070402FEFF03030106BB
:102D0000FEFB0602FCFFFBF6F6FCFFFC0001FF02E7
:102D10000701FC0405FC0005FDFEFFFEFDF9F8EED1
:102D2000FC1414110F0A070400F8F3F5F2EFF0F3A6
:102D3000F4F7FCFE010408090A090B0A070504015F
:102D4000FEFBFAFFFFFBFCFDFDFAFBFCFEFDFEFEB9
:102D5000000503010000000001FFFF0300FE010267
:102D600002FF0001FDFEFFFEFAFBFF00FEFBFE017D
:102D700000FF0B20170BFFEFEBF1F0F3F2F0EDF09B
:102D8000FB00060F0F0F0F0D100C0B0800F6F2ECF6
:102D9000F1FEFDFCFCFC0602FE06020704F901023E
:102DA000FCFE00080AFAFCFAFB07FBFBFEFD01FC37
:102DB000FD0203050400FFFDF80300F5F9FCF7FA36
:102DC00001070E0303060003FFFDFEFCFD00FBFEF2
:102DD000FCF6FD020504FF020200030303FCFAFEF9
:102DE00001FC000603FFFBFCFD0000FE0002FDFEEF
:102DF000FEFBFEF3F60C10100E080A0601FEF8F5B5
:102E0000F3F2F2F1F2F7FB000401020508070B11DF
:102E10000F05FF0300FAFAFF03FFFBFAF7F6F8F7D6
:102E2000FAFF01FDFA010605020507050001050686
:102E3000030100FEFDFE00FEFAF9F8FAFCFF0202B3
:102E4000FEFCFD0002020404020004030717170B36
:102E500000F5ECE9EAEAECF0F3F6F7FB06101113E3
:102E60001413110B080603FCF9F6EFF1FAFDFBFC55
:102E7000FEFAFA0204030808030101010405FDFA41
:102E8000FCF9FBFF0102FD0102FB0007010404F94C
:102E9000FBF9F5FBFA04FDFE02FE05060C0D060625
:102EA00000FEFBF8F8F8F9FAF7F4F6F8FE00070967
:102EB0000809070407040404FF0100FCFBFBFDFEF6
:102EC000FCF9FBF8F9FCFE020200FEFF020201031E
:102ED00003FCF6FC0B0F0D0D090A0902FEF6EEEEDF
:102EE000EFF2F6F9FCF9FBFCFF06080C100E0B08DC
:102EF0000201020300FEFBF6F7F7F8FCFCFCF7F812
:102F0000F8FBFF03090B06040606020000FEFEFEA6
:102F1000FF0100FFFEFDFEFDFDFEFEFF00FFFDFFC9
:102F2000FEFBFD000202030605040301FF0101FF91
:102F3000FF01FCF9F9F7F7FAFF0D180E02FCF1EFAB
:102F4000F5F4F5F9FCFDFF0506060C0B0809090868
:102F50000702FEFBF4F0F1F5FCFEFC0201FE0105A8
:102F60000503050501010201000505FDFAF9F4F765
:102F70000000FFFE00FEFC04060105050001FFFD48
:102F8000FFFCF9FBFBFDFDFD04030405FEFEFF0154
:102F900001FBFF0400FDFEFAFCFDFF03020603FF38
:102FA0000401FEFFFFFDFDFFFFFDFE01FCFE000032
:102FB000030100030301FEFD00FEFBFDFDFFFBF727
:102FC000FF0506090A0D0E0A03FEF5F0F1F6F9F900
:102FD000FBFBFBFCFDFF04050608070604050503D3
:102FE00003FFFDFAFDFBF9FDFEFEFBF9FAFAFAFE1E
:102FF000040705010102FF010201000001020201B4
:1030000000000201FEFF0001FCFAFCFAFAFCFCFEE3
:103010000103060706050400FDFE00000102FFFC97
:10302000FBFBF9FAFDFDFE000202000100000303B4
:1030300002020100FFFF01FFFEFF050C01FAF9F596
:10304000F3F6F8FAFFFFFF02020203040406070882
:1030500008060503FDFCFCF6F6FAFAF8FBFDFCFE9B
:10306000010203030305060508060204FEF9FBFA44
:10307000FCFDFDFEFFFBFAFDFCFCFF01010302016C
:103080000502FE0403FF0403000201FEFCFDFCFA3E
:10309000FDFDFCFEFBFCFBFAFEFF00050505060539
:1030A000060404020100FFFFFFFFFFFEFFFEFFFE1C
:1030B000FEFEFEFEFEFEFEFEFFFF0000010203021A
:1030C000030203020301020000FFFFFEFEFDFDFDFF
:1030D000FCFDFBFCFCFBFBF9FBFAFBFAFDFDFF0032
:1030E0000203060608080908070805040401FFFF93
:1030F000FCFBFAF8F9F7F7F8F7F5F7F6F7F8F8FA4E
:10310000FBFDFF00030506090A0C0D0E0D0E0D0C4C
:1031100009080401FEFAF7F4F1F0F1EFF0F2F1F32F
:10312000F6F6F8FAFCFEFF02030508080C1410126C
:1031300016140F0D0704FCF5F6F1EBEFF2EEF4F8C0
:10314000F8FAFDFF00FEFD00FBF9F8F8F6F7F9FECE
:10315000FE061113151C1B19150E0A02F5F3F2E6F3
:10316000E8EBEBEEF3F7FB01020708050503FCF9BA
:10317000F7F4F3F1F6F9FC090E111B1C1A1B120DE2
:1031800009FBF3F5E9E5EAE9EBF2F5F90303080DCC
:1031900009080500FAF5F2EFEFF0F3F8050E0F1B42
:1031A000211B1F190E0CFFF4F3EAE0E6E5E6EDF44F
:1031B000F800070911110C0C06FEF8F3ECEDEAEC2F
:1031C000F1F7070C121E201D1F16100BFDF5F4E77A
:1031D000E4E7E6E7F0F5FA03070D110F0B0B03FA2E
:1031E000F7EFEBEBE8EBF1F8090D141F221E1F18A7
:1031F000100CFAF7F2E5E4E8E5E8F2F3FC03070C5B
:10320000100C0C0800F9F6EDE9EAE6EBF0F5080F12
:10321000131E2820221E150F01F9F6E8E3E7E4E467
:10322000EEF1F6FD040B0E0D0D0B03FEF9F3ECEAC7
:10323000E8EAECF0FC0C0F17242720241F150D00E2
:10324000FBF1E6E4E5E0E7EBEEF5FE04080B0C0C21
:103250000604FFFAF3F0ECEAEAEDF3F6070F141FA9
:10326000272327211A1306FCF6E7E5E3DEE2E7E869
:10327000F1F7FF04080C0E080804FEF7F4F0EDE97E
:10328000ECEFF4F70611161D282824241C1506FD62
:10329000F8EAE2E4E1DFE6EAEFF5FB0306090B0AF0
:1032A0000605FEF9F5F2EDEDEEF0F4F8FF050F1668
:1032B0001C2025231E19130A00FBF3EDEAE9E8EAB6
:1032C000ECF0F2F8FBFEFF0201FEFEFCF9F6F6F66A
:1032D000F4F8F9FBFF0206080B0D0F131412141576
:1032E000100D0C070001FBF7F4F3EFEFEEEEEAEE42
:1032F000EFEFF2F5F7F8FD000101060404050605FD
:1033000003040401020403040807090B0B0C0A0C54
:1033100009060602FEFAF9F5F2EFF1EEEEF0F1F22F
:10332000F7F9FBFF0103040504050405020302028B
:1033300002010201FF010000020203020404030370
:10334000020301FEFEFCFBF9F9F7F8F8F7F9FAFBC6
:10335000FCFE00000302030503040202FFFFFEFC63
:10336000FCFBFCFBFDFDFF0001020303040404035E
:103370000300FFFEFCFBF9FAF9FAFAFDFD00010378
:10338000040504060505030300FFFCFCFCF9FAFA3A
:10339000FBFBFCFDFDFFFF00000100000000FFFE45
:1033A000FDFEFDFEFDFEFE00000101020103010124
:1033B0000000FEFE00FEFF0000FF01000100010012
:1033C000FFFDFDFBFBFAFBFBFCFCFE00FF02020322
:1033D0000302020000FEFEFDFCFCFFFFFEFEFFFEFE
:1033E000000000FF00FF00FF00000000000000FFE1
:1033F000FFFFFFFEFFFEFFFEFFFEFFFEFF000000DF
:103400000000FF00FF00FF000000FF00FF00FF00C2
:10341000FE00FEFFFEFFFEFFFEFFFEFFFEFFFFFEC3
:10342000FFFFFEFFFEFFFEFFFFFEFF00FF00FF00AD
:10343000FF00FF000000FF00FF0000FF00FF00FF93
:10344000FFFFFFFFFEFFFEFFFEFFFEFEFDFEFEFD97
:10345000FEFEFDFEFDFEFEFDFFFE00000000010180
:103460000202030202030203030302030202010138
:10347000FFFFFDFDFCFAFAF8F9F8F9F9F8FAFBFAA2
:10348000FCFDFDFFFEFF000001FF01000100020244
:103490000405070809090C0B0A0909060100FEFAD0
:1034A000F6F4F3F0F1F1F2F2F6F8FAFCFEFFFF01A8
:1034B0000100FFFFFEFBFDFCFBFAFDFE02020A100D
:1034C00010151B171514110A02FEF8F0ECEBE8E8D2
:1034D000E9EEEFF2FAFD00050909080906FFFDFB18
:1034E000F7F3F3F3F1F1F5F5FAFE0409131A1C21D1
:1034F00026211D1B110800F6EDE5E1DEDDDEE4E925
:10350000EFF4FF0309101112120E0A02FEF8F2ED99
:10351000EDEAEBECF0F2F8FD020B191E202B2E2544
:1035200023201408FDF5E6DDDAD5D5D7DEE4ECF48A
:1035300002060E161A191A150F06FFF9EFEBE8E648
:10354000E5E6E8EEF3F8010B1F1F263332292C23A2
:103550001608FFF2E0D8D3CDCCD3D7DFE6F50108CB
:10356000131E1E22201C130A02F8EDE9E3E0DFE03F
:10357000E2E9EEF6FF152020323C32313224150804
:10358000FEEBDBD6CFC8CACFD4DCE6F8000C1A219C
:103590002227221D140B02F5EFE8E1DEDDDDE2E774
:1035A000EFF50C1B1B2B3C3432362C1B1006F5E2BE
:1035B000DAD3C7C8CBCCD4DDEEF604151C202926FF
:1035C000211A1309FDF6EFE5E1E0DCDEE4EAF20B97
:1035D00013172A382E35352A1D1408F8E7E1D5CB04
:1035E000CCCBCBD0DCE9EE0012131F2623211B1815
:1035F0000C02FEF5E9E7E4DFE0E4E9F8070D182C3A
:103600002B2C332E241C1405F7EDE3D5D2CFCCCDD3
:10361000D3DEE3F0030A111D201D1E1B160C05014D
:10362000F4EFEBE7E2E6E6EF00040C2124222E2A79
:10363000221D170CFFF6EFE3DAD9D4D1D2DDE0E694
:10364000F802051218171918170F0B0700F8F6F1F2
:10365000ECEAEEEAF706030D221B1D2621171610D1
:1036600006FBF6EFE3E1DEDBD6DBE4E4EDFCFF0690
:103670001013131316130B0A07FFFCFAF6F0F0F3FE
:10368000EEFA07030D1C1B18201C140F0E03FBF58C
:10369000EFE6E0E0DCD9DEE5E5EFFBFF030F11101C
:1036A0001116100B0A09FEFDFDF6F3F6F5F2F7020E
:1036B0000505111916171D170E100BFFFAF5EDE58C
:1036C000E3E1DDDDE4E6EAF5FB00090E1011151378
:1036D0000E0E0A04FFFFF9F6F5F6F4F5FAFDFF0306
:1036E0000B0E0E16171515150D0602F9F3EEE7E48D
:1036F000E1E2E1E5E9F0F4FC03090D121212111008
:103700000B0604FEFAF7F4F3F2F3F6F6FBFF0407F8
:103710000C0F101211100D090400FCF6F1EFEDEC86
:10372000EEEFF3F7FA000406090B0C0A0B08070387
:1037300001FCFAF6F5F3F4F4F4F7F9FD0002060AD9
:103740000A0C0C0C0A070601FCFBF6F4F4F2F4F583
:10375000F8FAFE0105060A0B0C0B0A09050301FC29
:10376000F9F7F4F2F1F3F3F3F7FAFBFF01040607BC
:10377000090808060501FFFCFBF8F8F7F8F9FBFC5F
:10378000FF02040607080A090907050302FDFCFAFF
:10379000F8F6F8F5F6F9F8FBFDFE02030405060459
:1037A00005040100FDFCFBF9F9F8FAFAFCFD000242
:1037B00003050606060705050300FFFDFCF9FAF8F8
:1037C000F8F9F9FBFCFCFFFF020204040404030304
:1037D0000100FEFDFCFAFBFAFAFBFCFCFEFF000117
:1037E0000204040505030102FFFFFDFDFAFBFAFADE
:1037F000FAFCFDD0000000FEFEFEFEFEFE2B2BFEBE
:10380000FEFEFEFEFEFE2BFEFEFEFEFEFEFE2B2B51
:103810002B2BFEFEFEFE2B121212FEFE20202B2B67
:103820002B2B202020202B121212202020202B2B8B
:103830002B2B20202029292B2BFEFEFEFEFEFE2B0B
:10384000FEFEFEFEFEFEFE2BFEFEFEFEFEFEFE2B3E
:10385000FEFEFEFE2B2B2B2B2020FEFE1212122B27
:10386000202020202B2B2B2B20202020121212294D
:10387000292020202B2B2BFEFEFEFEFEFE2B2BFEF6
:10388000FEFEFEFEFEFE2BFEFEFEFEFEFEFE2B12EA
:103890001212FEFEFEFE2B2B2B2BFEFE20202B12E7
:1038A0001212202020202B2B2B2B202020202B120B
:1038B000121220202029292B2BFEFEFEFEFEFE2BBD
:1038C000FEFEFEFEFEFEFE2BFEFEFEFEFEFEFE2BBE
:1038D000FEFEFEFE1212122B2020FEFE2B2B2B2BA7
:1038E000202020201212122B202020202B2B2B29CD
:1038F000292020201212122B122B122B122B122BEA
:10390000122B122B122B122B122B122B122B12FEFC
:10391000FE202020202020FEFE202020202020FE2F
:10392000FEFE2020202020FEFEFEFE20202929FE73
:10393000FEFEFE2020292B2B122B122BFEFEFE2B2F
:10394000122B122BFEFEFE2B122B122BFEFEFE2044
:103950002020FEFEFEFEFE202020FEFEFEFEFE20BB
:10396000202020FEFEFEFE29202020FEFEFE2B2928
:103970002B2B2B2B2B2B2B122B122B122B122B1214
:103980002B122B122B122B122B122B122B122BFE63
:10399000FE202020202020FEFE202020202020FEAF
:1039A000FEFE2020202020FEFEFEFE20202929FEF3
:1039B000FEFEFE2020292B122B122B12FEFEFE12E1
:1039C0002B122B12FEFEFE122B122B12FEFEFE20DD
:1039D0002020FEFEFEFEFE202020FEFEFEFEFE203B
:1039E000202020FEFEFEFE29202020FEFEFE2B29A8
:1039F0002B2B2B2B2B2B2BFEFEFEFEFEFEFEFEFEAC
:103A0000FEFEFEFEFEFEFEFEFEFFFFFEFE3F3FFE52
:103A1000FEFFFFFEFE3F3FFEFEFEFEFFFF3F3FFEBE
:103A2000FEFEFEFFFF3F3FFEFEFEFE3F3F3F3FFE2E
:103A3000FEFEFE3F3F3F3FFEFEFEFEFEFEFEFEFEA2
:103A4000FEFEFEFEFEFEFEFEFEFEFEFFFFFEFEFE94
:103A5000FEFEFEFFFFFEFEFEFEFFFFFEFEFEFEFE82
:103A6000FEFFFFFEFEFEFE3F3F3F3F3F3FFEFE3FAD
:103A70003F3F3F3F3FFEFE3F3F3F3FFEFEFEFE3FDC
:103A80003F3F3FFEFEFEFE3F3FFFFF1F1F3F3F3F0A
:103A90003FFFFF1F1F3F3FFEFE1F1FFFFF3F3FFE79
:103AA000FE1F1FFFFF3F3FFEFEFEFE3F3F3F3FFE6C
:103AB000FEFEFE3F3F3F3FFEFEFEFE3F3F3F3FFE1E
:103AC000FEFEFE3F3F3F3FFEFE1F1FFFFF3F3FFE4C
:103AD000FE1F1FFFFF3F3FFEFEFFFF3F3FFEFEFEBC
:103AE000FEFFFF3F3FFEFE3F3F3F3F3F3FFEFE3FAB
:103AF0003F3F3F3F3FFEFEFEFEFEFEFEFEFEFEFEA1
:103B0000FEFEFEFEFEFEFEFEFEFFFFFEFEFEFEFED3
:103B1000FEFFFFFEFEFEFEFEFEFEFEFFFFFEFEFEC1
:103B2000FEFEFEFFFFFEFEFEFEFEFEFEFEFEFEFEB3
:103B3000FEFEFEFEFEFEFEFEFEFEFEFEFEFEFEFEA5
:103B4000FEFEFEFEFEFEFEFEFEFEFEFFFFFEFEFE93
:103B5000FEFEFEFFFFFEFEFEFEFFFFFEFEFEFEFE81
:103B6000FEFFFFFEFEFEFEFEFEFEFEFEFEFEFEFE73
:103B7000FEFEFEFEFEFEFE121212202020292B2B3E
:103B80002B2B202020292912121220202020202B2C
:103B90002B2B2020202020121212202020FEFE2B72
:103BA0002B2B2020FEFEFE121212FEFEFEFEFE2B2E
:103BB0002B2BFEFEFEFEFE2B2920202012121229A6
:103BC000292020202B2B2B202020202012121220F5
:103BD000202020202B2B2BFEFE202020121212FE54
:103BE000FEFE20202B2B2BFEFEFEFEFE121212FEEE
:103BF000FEFEFEFE2B2B2B2B2B2B202020292B1205
:103C0000121220202029292B2B2B202020202012AB
:103C1000121220202020202B2B2B202020FEFE12F1
:103C200012122020FEFEFE2B2B2BFEFEFEFEFE12AD
:103C30001212FEFEFEFEFE2B292020202B2B2B290C
:103C40002920202012121220202020202B2B2B2074
:103C500020202020121212FEFE2020202B2B2BFED3
:103C6000FEFE2020121212FEFEFEFEFE2B2B2BFE6D
:103C7000FEFEFEFE121212FEFEFEFE2020292BFE8C
:103C8000FEFEFE20202929FEFEFE2020202020FE10
:103C9000FE202020202020FEFE2020202020202B7F
:103CA000122B122B122B122B122B122B122B122B2C
:103CB000122B122B122B12292B2B2B2B2B2B2B29BC
:103CC000202020FEFEFE2B20202020FEFEFEFE20D7
:103CD0002020FEFEFEFEFE202020FEFEFEFEFE2B2D
:103CE000122B122BFEFEFE2B122B122BFEFEFE2B96
:103CF000122B122BFEFEFEFEFEFEFE2020292BFEC6
:103D0000FEFEFE20202929FEFEFE2020202020FE8F
:103D1000FE202020202020FEFE2020202020201217
:103D20002B122B122B122B122B122B122B122B12AB
:103D30002B122B122B122B292B2B2B2B2B2B2B2922
:103D4000202020FEFEFE2B20202020FEFEFEFE2056
:103D50002020FEFEFEFEFE202020FEFEFEFEFE12C5
:103D60002B122B12FEFEFE122B122B12FEFEFE1247
:103D70002B122B12FEFEFEFEFE3F3F3F3F3F3FFE5B
:103D8000FE3F3F3F3F3F3FFEFEFEFEFFFFFEFEFECB
:103D9000FEFEFEFFFFFEFEFEFEFFFFFEFEFEFEFE3F
:103DA000FEFFFFFEFEFEFEFEFEFEFEFEFEFEFEFE31
:103DB000FEFEFEFEFEFEFE3F3F3F3FFEFEFEFE3FDE
:103DC0003F3F3FFEFEFEFE3F3FFFFFFEFEFEFE3F8B
:103DD0003FFFFFFEFEFEFE3F3FFEFEFFFFFEFE3FFB
:103DE0003FFEFEFFFFFEFEFEFEFEFEFEFEFEFEFEB0
:103DF000FEFEFEFEFEFEFEFEFE3F3F3F3F3F3FFE5D
:103E0000FE3F3F3F3F3F3FFEFE1F1FFFFFFEFEFE08
:103E1000FE1F1FFFFFFEFE3F3FFFFF1F1FFEFE3F77
:103E20003FFFFF1F1FFEFE3F3F3F3FFEFEFEFE3FE8
:103E30003F3F3FFEFEFEFE3F3F3F3FFEFEFEFE3F9A
:103E40003F3F3FFEFEFEFE3F3FFFFF1F1FFEFE3FC8
:103E50003FFFFF1F1FFEFE3F3F1F1FFFFF3F3F3F74
:103E60003F1F1FFFFF3F3FFEFEFEFE3F3F3F3FFE67
:103E7000FEFEFE3F3F3F3FFEFEFEFEFEFEF5F5FE70
:103E8000FEFEFEFEFEFEF5FEFEFEFEFEFEFEF5F56D
:103E9000F5F5FEFEFEFEF5909090FEFEE1E1F5F5F3
:103EA000F5F5E1E1E1E1F5909090E1E1E1E1F5F591
:103EB000F5F5E1E1E1F0F0F5F5FEFEFEFEFEFEF5C2
:103EC000FEFEFEFEFEFEFEF5FEFEFEFEFEFEFEF524
:103ED000FEFEFEFEF5F5F5F5E1E1FEFE909090F5B3
:103EE000E1E1E1E1F5F5F5F5E1E1E1E1909090F056
:103EF000F0E1E1E1F5F5F5FEFEFEFEFEFEF5F5FE74
:103F0000FEFEFEFEFEFEF5FEFEFEFEFEFEFEF59051
:103F10009090FEFEFEFEF5F5F5F5FEFEE1E1F59072
:103F20009090E1E1E1E1F5F5F5F5E1E1E1E1F59010
:103F30009090E1E1E1F0F0F5F5FEFEFEFEFEFEF50B
:103F4000FEFEFEFEFEFEFEF5FEFEFEFEFEFEFEF5A3
:103F5000FEFEFEFE909090F5E1E1FEFEF5F5F5F532
:103F6000E1E1E1E1909090F5E1E1E1E1F5F5F5F0D5
:103F7000F0E1E1E1909090F590F590F590F590F5F5
:103F800090F590F590F590F590F590F590F590FE00
:103F9000FEE1E1E1E1E1E1FEFEE1E1E1E1E1E1FE9D
:103FA000FEFEE1E1E1E1E1FEFEFEFEE1E1F0F0FE18
:103FB000FEFEFEE1E1F0F5F590F590F5FEFEFEF572
:103FC00090F590F5FEFEFEF590F590F5FEFEFEE113
:103FD000E1E1FEFEFEFEFEE1E1E1FEFEFEFEFEE1AF
:103FE000E1E1E1FEFEFEFEF0E1E1E1FEFEFEF5F0C4
:103FF000F5F5F5F5F5F5F590F590F590F590F5906A
:10400000F590F590F590F590F590F590F590F5FE1A
:10401000FEE1E1E1E1E1E1FEFEE1E1E1E1E1E1FE1C
:10402000FEFEE1E1E1E1E1FEFEFEFEE1E1F0F0FE97
:10403000FEFEFEE1E1F0F590F590F590FEFEFE90BB
:10404000F590F590FEFEFE90F590F590FEFEFEE1F7
:10405000E1E1FEFEFEFEFEE1E1E1FEFEFEFEFEE12E
:10406000E1E1E1FEFEFEFEF0E1E1E1FEFEFEF5F043
:10407000F5F5F5F5F5F5F5FEFEFEFEFEFEFEFEFE9F
:10408000FEFEFEFEFEFEFEFEFEFEADADFEFEFEFEF2
:10409000FEADADADADFEFEFEFEADADADADFEFEFEC8
:1040A000FEFEADADFEFEFEFEFEFEFEFEFEFEFEFED2
:1040B000FEFEFEFEFEFEFEFEFEFEADADFEFEFEFEC2
:1040C000FEFEADADFEFEFEFEFEADADADADFEFEFEF6
:1040D000FEADADADADFEFEFEADADADADADADFEFE2A
:1040E000FE3F3F3F3FFEFEFEFEFE3F3FFEFEFEFE6A
:1040F000FEFEFEFEFEFEFEFEFEFEADADFEFEFEFE82
:10410000FEFEADADFEFEFEFEFEADADADADFEFEFEB5
:10411000FEADADADADFEFEFEADADADADADADFEFEE9
:10412000FEFE3F3FFEFEFEFEFEFEFEFEFEFEFEFE2D
:10413000FEFEFEFEFEFEFEFEFEFEFEFEFEFEFEFE9F
:10414000FEFEADFEFEFEFEFEFE3FADADADFEFEFE92
:104150003F3FADADADADADFE3F3FADADADADADFEA5
:10416000FE3FADADADFEFEFEFEFEADFEFEFEFEFE72
:10417000FEFEFEFEFEFEFEFEFEFEFEFEFEFEFEFE5F
:10418000FEFEADFEFEFEFEFEFEFEADADADFEFEFE93
:10419000FE3FADADADADADFEFE3FADADADADADFEE7
:1041A000FEFEADADADFEFEFEFEFEADFEFEFEFEFE73
:1041B000FEFEFEFEFEFEFEFEFEFEFEFEFEFEFEFE1F
:1041C000FEFEFEFEFEFEFEFEFEFEFEFEFEFEFEFE0F
:1041D000FEFEFEFEFEFEFEFEFEFEFEFEFEFEFEFEFF
:1041E000FEFEFEFEFEFEFEFEFEFEFEFEFEFEFEFEEF
:1041F000FEFEFEFEFEFEFE909090E1E1E1F0F5F5A0
:10420000F5F5E1E1E1F0F0909090E1E1E1E1E1F537
:10421000F5F5E1E1E1E1E1909090E1E1E1FEFEF50B
:10422000F5F5E1E1FEFEFE909090FEFEFEFEFEF54D
:10423000F5F5FEFEFEFEFEF5F0E1E1E1909090F076
:10424000F0E1E1E1F5F5F5E1E1E1E1E1909090E106
:10425000E1E1E1E1F5F5F5FEFEE1E1E1909090FEAE
:10426000FEFEE1E1F5F5F5FEFEFEFEFE909090FE0D
:10427000FEFEFEFEF5F5F5F5F5F5E1E1E1F0F59070
:104280009090E1E1E1F0F0F5F5F5E1E1E1E1E190B7
:104290009090E1E1E1E1E1F5F5F5E1E1E1FEFE908B
:1042A0009090E1E1FEFEFEF5F5F5FEFEFEFEFE90CD
:1042B0009090FEFEFEFEFEF5F0E1E1E1F5F5F5F091
:1042C000F0E1E1E1909090E1E1E1E1E1F5F5F5E186
:1042D000E1E1E1E1909090FEFEE1E1E1F5F5F5FE2E
:1042E000FEFEE1E1909090FEFEFEFEFEF5F5F5FE8D
:1042F000FEFEFEFE909090FEFEFEFEE1E1F0F5FE79
:10430000FEFEFEE1E1F0F0FEFEFEE1E1E1E1E1FEB4
:10431000FEE1E1E1E1E1E1FEFEE1E1E1E1E1E1F522
:1043200090F590F590F590F590F590F590F590F565
:1043300090F590F590F590F0F5F5F5F5F5F5F5F0CB
:10434000E1E1E1FEFEFEF5E1E1E1E1FEFEFEFEE17E
:10435000E1E1FEFEFEFEFEE1E1E1FEFEFEFEFEF517
:1043600090F590F5FEFEFEF590F590F5FEFEFEF55B
:1043700090F590F5FEFEFEFEFEFEFEE1E1F0F5FE9C
:10438000FEFEFEE1E1F0F0FEFEFEE1E1E1E1E1FE34
:10439000FEE1E1E1E1E1E1FEFEE1E1E1E1E1E19007
:1043A000F590F590F590F590F590F590F590F590E5
:1043B000F590F590F590F5F0F5F5F5F5F5F5F5F0E6
:1043C000E1E1E1FEFEFEF5E1E1E1E1FEFEFEFEE1FE
:1043D000E1E1FEFEFEFEFEE1E1E1FEFEFEFEFE90FC
:1043E000F590F590FEFEFE90F590F590FEFEFE90A5
:1043F000F590F590FEFEFE000000000000000000B9
:1044000000000000000000000000000000000000AC
:10441000000000000000000000000000000000009C
:10442000000000000000000000000000000000008C
:104430000000000000000066666626666666667715
:10444000777726777777777777772677777777779E
:1044500077772677777777262626262626262677C5
:10446000777777777777267777777777777726777E
:104470007777777777772600ECECECECECEC00ECD8
:10448000FFFFFFFFFFFFECECEDFFFFFFFFEDECECAC
:10449000EDEEFFFFEEEDECECEDEEFFEFEEEDECEC14
:1044A000EDFFEEEEEEEDECECFFEDEDEDEDEDEC0005
:1044B000ECECECECECEC0000ECECECECECEC00EC00
:1044C000FFEDEDEDEDFFECECEDFFEEEEFFEDECECD6
:1044D000EDEEFFFFEEEDECECEDEEFFFFEEEDECECC4
:1044E000EDFFEEEEFFEDECECFFEDEDEDEDFFEC00A2
:1044F000ECECECECECEC0000ECECECECECEC00ECC0
:10450000EDEDEDEDEDFFECECEDEEEEFFFFEDECECA7
:10451000EDEEFFFFFFEDECECFFEEFFFFEEEDECEC60
:10452000EDFFEEEEEEEDECECFFEDFFEDEDEDEC0072
:10453000ECECECECECEC00050505050505050505C6
:10454000050505050505040505050505050404051E
:104550000505070704040405050507070404040509
:104560000505040404040405050404040404040506
:10457000040404040404040000000000000000001F
:10458000FF003F0000FF000000FF3F00FF000000B1
:10459000003F3F3F3F3F00003F3F3F3F3F000000A5
:1045A00000FF003FFF000000FF00003F00FF000091
:1045B000000000000000003F3F000000003F3F3FC0
:1045C000FF1F3F001FFF3F001FFF3F00FF3F000096
:1045D000003F3F3F3F3F00003F3F3F3F3F00000065
:1045E0001FFF003FFF1F003FFF1F003F1FFF3F3F18
:1045F0003F000000003F3F000000000000000000FE
:10460000FF00000000FF000000FF0000FF000000AE
:10461000000000000000000000000000000000009A
:1046200000FF0000FF000000FF00000000FF00008E
:10463000000000000000000505050505050505054D
:104640000505050505050005050505050500000529
:104650000505070700000005050507000000000527
:104660000505000000000005050000000000000531
:104670000000000000000000000000000000040036
:104680000000000000040400000000000404040016
:1046900000000007040404000000070704040400ED
:1046A00000040404040404000404040404040404D2
:1046B00004040404040404050505050505050500B6
:1046C00005050505050505000005050505050500A9
:1046D00000000707050505000000000705050500A7
:1046E00000000000050505000000000000050500B1
:1046F00000000000000005040000000000000004AD
:104700000400000000000004040400000000000495
:10471000040407000000000404040707000000046C
:104720000404040404000004040404040404000455
:1047300004040404040404ADADADADADADADADAD48
:1047400081818182828383AD81818182828383ADF5
:1047500081818182828383AD81818182828383ADE5
:1047600081818182828383AD81818182828383ADD5
:10477000ADADADADADADADADADADADADADADAD8591
:1047800085868787868585858586878786858585CD
:1047900085868787868585858586878786858585BD
:1047A000858687878685858585868787868585AD85
:1047B000858687878685ADADADADADADADADAD833D
:1047C000838282818181AD83838282818181AD8375
:1047D000838282818181AD83838282818181AD8365
:1047E000838282818181AD83838282818181ADAD2B
:1047F000ADADADADADADADADADADADADADADADADE9
:1048000081818182828383AD81818182828383AD34
:1048100081818182828383AD81818182828383AD24
:1048200081818182828383AD81818182828383AD14
:10483000818181828283ADADADADADADADADAD85D4
:10484000858687878685858585868787868585850C
:1048500085868787868585858586878786858585FC
:10486000858687878685858585868787868585ADC4
:10487000ADADADADADADADADADADADADADADAD8392
:10488000838282818181AD83838282818181AD83B4
:10489000838282818181AD83838282818181AD83A4
:1048A000838282818181AD83838282818181ADAD6A
:1048B000838282818181ADADADADADADADADADAD2C
:1048C000818181828283ADAD818181828283ADAD20
:1048D000818181828283ADAD818181828283ADAD10
:1048E00081818182828383AD81818182828383AD54
:1048F000818181828283830000000000000000002B
:1049000000000000000000000000000000000000A7
:1049100000000000000000ADADADADADADADAD85AA
:10492000858687878685858585868787868585852B
:1049300085868787868585000000000000000000CE
:104940000000000000000000000000000000000067
:1049500000000000000000ADADADADADADADAD836C
:10496000838282818181AD83838282818181AD83D3
:10497000838282818181ADADADADADADADADADAD6B
:10498000818181828283ADAD818181828283ADAD5F
:10499000818181828283ADAD818181828283ADAD4F
:1049A000818181828283ADAD818181828283ADAD3F
:1049B000818181828283ADADADADADADADADADAD2B
:1049C000838282818181ADAD838282818181ADAD1F
:1049D000838282818181ADAD838282818181ADAD0F
:1049E000838282818181ADAD838282818181ADADFF
:1049F000ADADADADADADADADADADADADADADADADE7
:104A0000838282818181ADAD838282818181ADADDE
:104A1000838282818181ADAD838282818181ADADCE
:104A2000838282818181ADAD838282818181ADADBE
:104A3000838282818181ADAD858687878685ADAD94
:104A4000858687878685ADAD858687878685ADAD6A
:104A5000858687878685ADAD858687878685ADAD5A
:104A6000858687878685ADAD858687878685ADAD4A
:104A7000858687878685ADAD818181828283ADAD54
:104A8000818181828283ADAD818181828283ADAD5E
:104A9000818181828283ADAD818181828283ADAD4E
:104AA000818181828283ADAD818181828283ADAD3E
:104AB000818181828283ADAD838282818181ADAD2E
:104AC000838282818181ADAD838282818181ADAD1E
:104AD000838282818181ADAD838282818181ADAD0E
:104AE000838282818181ADAD838282818181ADADFE
:104AF000838282818181ADAD81818182828383AD18
:104B000081818182828383AD81818182828383AD31
:104B1000818181828283ADAD818181828283ADADCD
:104B2000818181828283ADAD818181828283ADADBD
:104B3000818181828283AD8585868787868585850B
:104B4000858687878685858585868787868585ADE1
:104B5000ADADADADADADAD0000000000000000009A
:104B60000000000000000000000000000000000045
:104B70000000000000000083838282818181AD8378
:104B8000838282818181AD83838282818181ADAD87
:104B9000838282818181ADAD838282818181ADAD4D
:104BA000838282818181ADAD838282818181ADAD3D
:104BB000838282818181ADAD818181828283ADAD2D
:104BC00081818182828383AD81818182828383AD71
:104BD00081818182828383AD81818182828383AD61
:104BE00081818182828383AD81818182828383AD51
:104BF00081818182828383ADADADADADADADAD853B
:104C0000858687878685AD85858687878685AD85F8
:104C1000858687878685AD85858687878685AD85E8
:104C2000858687878685AD85858687878685AD85D8
:104C3000858687878685ADAD818181828283ADAD92
:104C4000818181828283ADAD818181828283ADAD9C
:104C5000818181828283ADAD818181828283ADAD8C
:104C6000818181828283ADAD81818182828383ADA6
:104C700081818182828383000000000000000000A7
:104C80000000000000000000000000000000000024
:104C9000000000000000000000000000000000AD67
:104CA000ADADADADADADAD85858687878685AD856E
:104CB000858687878685ADAD818181828283ADAD12
:104CC00081818182828383AD81818182828383AD70
:104CD00081818182828383AD81818182828383AD60
:104CE00081818182828383AD81818182828383AD50
:104CF000818181828283ADAD838282818181AD8316
:104D0000838282818181AD83838282818181AD832F
:104D1000838282818181AD83838282818181AD831F
:104D2000838282818181AD83838282818181ADADE5
:104D3000838282818181ADAD81818182828383ADD5
:104D400081818182828383AD81818182828383ADEF
:104D500081818182828383AD81818182828383ADDF
:104D600081818182828383AD81818182828383ADCF
:104D7000818181828283AD85858687878685AD85A1
:104D8000858687878685AD85858687878685AD8577
:104D9000858687878685AD85858687878685AD8567
:104DA000858687878685AD85858687878685ADAD2F
:104DB000ADADADADADADADAD81818182828383AD51
:104DC00081818182828383AD81818182828383AD6F
:104DD00081818182828383AD818181828283ADAD35
:104DE000818181828283ADAD818181828283ADADFB
:104DF000818181828283AD85858687878685AD8521
:104E0000858687878685AD85858687878685AD85F6
:104E1000858687878685ADADADADADADADADAD0059
:104E20000000000000000000000000000000000082
:104E300000000000000000AD858687878685ADAD47
:104E4000858687878685ADAD858687878685ADAD66
:104E5000858687878685ADAD858687878685ADAD56
:104E6000858687878685ADAD858687878685ADAD46
:104E7000ADADADADADADADAD818181828283ADAD66
:104E8000818181828283ADAD818181828283ADAD5A
:104E9000818181828283ADAD818181828283ADAD4A
:104EA000818181828283ADAD818181828283ADAD3A
:104EB000ADADADADADADADAD838282818181ADAD26
:104EC000838282818181ADAD838282818181ADAD1A
:104ED000838282818181ADAD838282818181ADAD0A
:104EE000838282818181ADAD838282818181ADADFA
:104EF000ADADADADADADADAD818181828283ADADE6
:104F0000818181828283ADAD81818182828383AD03
:104F100081818182828383AD81818182828383AD1D
:104F200081818182828383AD81818182828383AD0D
:104F3000ADADADADADADAD0000000000000000AD09
:104F4000ADADADADADADAD858586878786858585F3
:104F500085868787868585858586878786858585F5
:104F6000858687878685858585868787868585ADBD
:104F7000ADADADADADADADAD838282818181ADAD65
:104F8000838282818181AD83838282818181AD83AD
:104F9000838282818181AD83838282818181AD839D
:104FA000838282818181AD83838282818181ADAD63
:104FB000ADADADADADADAD00000000000000000036
:104FC00000000000000000000000000000000000E1
:104FD00000000000000000000000000000000000D1
:104FE00000000000000000000000000000000000C1
:104FF00000000000000000000000000000000000B1
:105000000000FFFF000000000000FFFF00000000A4
:105010000000FFFF000000000000FFFF0000000094
:1050200000000000000000000000FFFF0000000082
:105030000000000000000000000000000000000070
:10504000FFFF0000FFFF0000FFFF0000FFFF000068
:10505000FFFF0000FFFF0000000000000000000054
:105060000000000000000000000000000000000040
:105070000000000000000000000000000000000030
:10508000FFFF0000FFFF00FFFFFFFFFFFFFFFF002C
:10509000FFFF0000FFFF0000FFFF0000FFFF00FF19
:1050A000FFFFFFFFFFFFFF00FFFF0000FFFF00000B
:1050B00000000000000000000000FFFF00000000F2
:1050C00000FFFFFFFFFF0000FFFF000000000000E7
:1050D00000FFFFFFFF00000000000000FFFF0000D6
:1050E000FFFFFFFFFF0000000000FFFF00000000C7
:1050F00000000000000000000000000000000000B0
:10510000FFFF0000FFFF0000FFFF00FFFF000000A7
:105110000000FFFF0000000000FFFF000000000093
:10512000FFFF0000FFFF0000FF000000FFFF000086
:1051300000000000000000000000FFFFFF00000072
:1051400000FFFF00FFFF00000000FFFFFF00000066
:1051500000FFFFFF00000000FFFF00FFFFFFFF0058
:10516000FFFF0000FFFF000000FFFFFF00FFFF0048
:10517000000000000000000000000000000000002F
:105180000000FFFF000000000000FFFF0000000023
:105190000000FFFF00000000000000000000000011
:1051A00000000000000000000000000000000000FF
:1051B00000000000000000000000000000000000EF
:1051C000000000FFFFFF00000000FFFFFF000000E5
:1051D0000000FFFF000000000000FFFF00000000D3
:1051E0000000FFFFFF000000000000FFFFFF0000C5
:1051F00000000000000000000000000000000000AF
:10520000FFFFFF000000000000FFFFFF00000000A4
:105210000000FFFF000000000000FFFF0000000092
:1052200000FFFFFF00000000FFFFFF000000000084
:10523000000000000000000000000000000000006E
:10524000FFFF0000FFFF000000FFFFFFFF0000FF67
:10525000FFFFFFFFFFFFFF0000FFFFFFFF00000059
:10526000FFFF0000FFFF0000000000000000000042
:10527000000000000000000000000000000000002E
:105280000000FFFF000000000000FFFF0000000022
:10529000FFFFFFFFFFFF00000000FFFF0000000016
:1052A0000000FFFF00000000000000000000000000
:1052B00000000000000000000000000000000000EE
:1052C00000000000000000000000000000000000DE
:1052D00000000000000000000000000000000000CE
:1052E0000000FFFF000000000000FFFF00000000C2
:1052F00000FFFF00000000000000000000000000B0
:10530000000000000000000000000000000000009D
:10531000FFFFFFFFFFFF0000000000000000000093
:10532000000000000000000000000000000000007D
:10533000000000000000000000000000000000006D
:10534000000000000000000000000000000000005D
:10535000000000000000000000000000000000004D
:105360000000FFFF000000000000FFFF0000000041
:10537000000000000000000000000000000000002D
:1053800000000000FFFF0000000000FFFF00000021
:105390000000FFFF0000000000FFFF000000000011
:1053A000FFFF000000000000FF0000000000000000
:1053B00000000000000000000000000000000000ED
:1053C00000FFFFFFFF000000FFFF0000FFFF0000E5
:1053D000FFFF00FFFFFF0000FFFFFF00FFFF0000D7
:1053E000FFFF0000FFFF000000FFFFFFFF000000C5
:1053F00000000000000000000000000000000000AD
:105400000000FFFF0000000000FFFFFF00000000A1
:105410000000FFFF000000000000FFFF0000000090
:105420000000FFFF00000000FFFFFFFFFFFF000084
:10543000000000000000000000000000000000006C
:1054400000FFFFFFFF000000FFFF0000FFFF000064
:10545000000000FFFF0000000000FFFF0000000050
:1054600000FFFF0000000000FFFFFFFFFFFF000044
:10547000000000000000000000000000000000002C
:10548000FFFFFFFFFFFF0000000000FFFF00000024
:105490000000FFFF00000000000000FFFF00000010
:1054A000FFFF0000FFFF000000FFFFFFFF00000004
:1054B00000000000000000000000000000000000EC
:1054C000000000FFFF0000000000FFFFFF000000E1
:1054D00000FFFFFFFF000000FFFF00FFFF000000D4
:1054E000FFFFFFFFFFFF0000000000FFFF000000C4
:1054F00000000000000000000000000000000000AC
:10550000FFFFFFFFFFFF0000FFFF000000000000A3
:10551000FFFFFFFFFF00000000000000FFFF000092
:10552000FFFF0000FFFF000000FFFFFFFF00000083
:10553000000000000000000000000000000000006B
:1055400000FFFFFFFF000000FFFF00000000000061
:10555000FFFFFFFFFF000000FFFF0000FFFF000054
:10556000FFFF0000FFFF000000FFFFFFFF00000043
:10557000000000000000000000000000000000002B
:10558000FFFFFFFFFFFF000000000000FFFF000023
:10559000000000FFFF0000000000FFFF000000000F
:1055A00000FFFF000000000000FFFF0000000000FF
:1055B00000000000000000000000000000000000EB
:1055C00000FFFFFFFF000000FFFF0000FFFF0000E3
:1055D00000FFFFFFFF000000FFFF0000FFFF0000D3
:1055E000FFFF0000FFFF000000FFFFFFFF000000C3
:1055F00000000000000000000000000000000000AB
:1056000000FFFFFFFF000000FFFF0000FFFF0000A2
:1056100000FFFFFFFFFF000000000000FFFF000091
:10562000000000FFFF00000000FFFFFF000000007F
:10563000000000000000000000000000000000006A
:1056400000000000000000000000FFFF000000005C
:105650000000FFFF0000000000000000000000004C
:105660000000FFFF000000000000FFFF000000003E
:10567000000000000000000000000000000000002A
:1056800000000000000000000000FFFF000000001C
:105690000000FFFF0000000000000000000000000C
:1056A0000000FFFF000000000000FFFF00000000FE
:1056B00000FFFF000000000000000000FFFF0000EE
:1056C000000000FFFF0000000000FFFF00000000DE
:1056D00000FFFF00000000000000FFFF00000000CE
:1056E000000000FFFF00000000000000FFFF0000BE
:1056F00000000000000000000000000000000000AA
:105700000000000000000000FFFFFFFFFFFF00009F
:105710000000000000000000000000000000000089
:10572000FFFFFFFFFFFF000000000000000000007F
:105730000000000000000000FFFF0000000000006B
:1057400000FFFF00000000000000FFFF000000005D
:10575000000000FFFF0000000000FFFF000000004D
:1057600000FFFF0000000000FFFF0000000000003D
:105770000000000000000000000000000000000029
:1057800000FFFFFFFF000000FFFF0000FFFF000021
:10579000000000FFFF0000000000FFFF000000000D
:1057A00000000000000000000000FFFF00000000FB
:1057B00000000000000000000000000000000000E9
:1057C00000FFFFFFFF000000FFFF0000FFFF0000E1
:1057D000FFFF00FFFFFF0000FFFF00FFFFFF0000D3
:1057E000FFFF00000000000000FFFFFFFFFF0000C0
:1057F00000000000000000000000000000000000A9
:105800000000FFFF0000000000FFFFFFFF0000009E
:10581000FFFF0000FFFF0000FFFF0000FFFF000090
:10582000FFFFFFFFFFFF0000FFFF0000FFFF000082
:105830000000000000000000000000000000000068
:10584000FFFFFFFFFF000000FFFF0000FFFF000061
:10585000FFFFFFFFFF000000FFFF0000FFFF000051
:10586000FFFF0000FFFF0000FFFFFFFFFF00000041
:105870000000000000000000000000000000000028
:1058800000FFFFFFFF000000FFFF0000FFFF000020
:10589000FFFF000000000000FFFF0000000000000C
:1058A000FFFF0000FFFF000000FFFFFFFF00000000
:1058B00000000000000000000000000000000000E8
:1058C000FFFFFFFF00000000FFFF00FFFF000000E0
:1058D000FFFF0000FFFF0000FFFF0000FFFF0000D0
:1058E000FFFF00FFFF000000FFFFFFFF00000000C0
:1058F00000000000000000000000000000000000A8
:10590000FFFFFFFFFFFF0000FFFF0000000000009F
:10591000FFFFFFFFFF000000FFFF0000000000008E
:10592000FFFF000000000000FFFFFFFFFFFF00007F
:105930000000000000000000000000000000000067
:10594000FFFFFFFFFFFF0000FFFF0000000000005F
:10595000FFFFFFFFFF000000FFFF0000000000004E
:10596000FFFF000000000000FFFF0000000000003B
:105970000000000000000000000000000000000027
:1059800000FFFFFFFFFF0000FFFF0000000000001E
:10599000FFFF000000000000FFFF00FFFFFF00000E
:1059A000FFFF0000FFFF000000FFFFFFFFFF000000
:1059B00000000000000000000000000000000000E7
:1059C000FFFF0000FFFF0000FFFF0000FFFF0000DF
:1059D000FFFFFFFFFFFF0000FFFF0000FFFF0000D1
:1059E000FFFF0000FFFF0000FFFF0000FFFF0000BF
:1059F00000000000000000000000000000000000A7
:105A0000FFFFFFFFFFFF00000000FFFF000000009E
:105A10000000FFFF000000000000FFFF000000008A
:105A20000000FFFF00000000FFFFFFFFFFFF00007E
:105A30000000000000000000000000000000000066
:105A4000000000FFFFFF000000000000FFFF00005B
:105A500000000000FFFF000000000000FFFF00004A
:105A6000FFFF0000FFFF000000FFFFFFFF0000003E
:105A70000000000000000000000000000000000026
:105A8000FFFF0000FFFF0000FFFF00FFFF0000001E
:105A9000FFFFFFFF00000000FFFFFFFF000000000E
:105AA000FFFF00FFFF000000FFFF0000FFFF0000FE
:105AB00000000000000000000000000000000000E6
:105AC000FFFF000000000000FFFF000000000000DA
:105AD000FFFF000000000000FFFF000000000000CA
