:100000000C94F9330C946C340C946C340C946C3464
:100010000C946C340C946C340C946C340C946C34E0
:100020000C946C340C946C340C946C340C946C34D0
:100030000C946C340C9441360C9481360C946C34D2
:100040000C946C340C946C340C946C340C946C34B0
:100050000C946C340C946C340C946C340C946C34A0
:100060000C946C340C946C340C946C340C946C3490
:10007000D94DDC4DE14DE44DE74DEA4DED4DF04DF0
:10008000F34D8100450027FF24FF2A902B1C210CF3
:1000900022FB850084008903888D81096F02444218
:1000A00047004501B083B300B10125118A4F8B038E
:1000B0005A5501200101003808000000000000002E
:1000C0000000000000000000000000000000000030
:1000D000E439E7393B3A3F3A473AE839ED39F23902
:1000E0004F3AF539F839FB39383A00408891D2E473
:1000F000ADB5B6BEBFFF05030013141516171819CA
:100100001A1B1C1D1E1F0005040001020304050626
:100110000708090A0B0C0D000E0F10111200000049
:1001200000000000000000000000000000000000CF
:1001300000000000000000000000000000000000BF
:1001400000000000000000000000000000000000AF
:10015000000000000000000000000000000000009F
:10016000000000000000000000000000000000008F
:100170000000000000000000000000004900000036
:1001800000004952520000004952531C25004952B8
:10019000522425251B52525C2D2D1C1212000000EA
:1001A00000000000000000000040494949004049AB
:1001B00049525B5B5B4A52525B1C1C13125B1C2452
:1001C0001C12090909241B12090909090A0A0A0A49
:1001D0000A0A0A0A130A0A120A0A12130A0000007B
:1001E0000000000000925252525252524913121310
:1001F00009001C1B130A1212401B65641C090A002B
:1002000009241B1C65120000251C1C1C1C01002558
:10021000241C1C1C1C0024252424241C1C0000005D
:100220000000000000494000000000000052494961
:1002300000000000001C5B4A48000000001C255222
:100240004900000000652464490000000065256441
:1002500049000000006D2E5C490000000000000015
:100260000000004052000000000049525C00000005
:100270000053522425000000535225252500004A32
:100280005225251B0000005B251300001B005B535B
:10029000000A1C3737095B1C657F372E2E522E2E25
:1002A0001C131312002E251B13120000121C1C120B
:1002B000000012251C120000122E371C1300132EF2
:1002C00037361C131B37372E2E25131C1C2E2E2EB3
:1002D0002E1B1C1C1C6E6E6E1C1C1C1C1C0913137C
:1002E000121213130013131313131C000913131307
:1002F000131C0100371313131C13002E2E1B1B1C81
:100300001C001C772E1B1B2500137F251C1C1C01A9
:100310000A37241C1C1C130A2E25250900132E2421
:1003200025252525252E2525252525252525252D6C
:100330002E251B1C1C2E2E251C13251B13251C1CB7
:100340001C1C0109521C1C1300011C5B5C0A0001EF
:1003500065775C1B00016E7F6E521B00006D1C52A6
:1003600049000000001C135300000000001C524A0A
:1003700000000000005B5B0000000000005C00006B
:10038000000000000000000000000000000000006D
:1003900000000000000000000000000000135B7F70
:1003A000776E6E6E6E136577766E6E6E6E1B65770A
:1003B0007676766E771B5BBF76B676767609136DAA
:1003C000BFB7B6B765001B125C76BF766D00001232
:1003D0001B125B5B5C00000000090A12136E77249D
:1003E0001C1C1C1C1C77251C1C1C1C24256E1C1C86
:1003F0001C2425251B1C1C242525130000646D6D61
:100400001B00096EBF6D5B09126EBF6D5B5B125BFB
:10041000645B121312131B1212090100001C242E1C
:100420001C0900096E2524010009767F7F00001257
:10043000777F7F641264BFBF775B121B09BF6D5B60
:10044000121B09000012131B090000000009000024
:10045000000000000000000000000000007F7F534B
:10046000131300000064121B01000000001B1200A7
:10047000000000000000000000000000000000007C
:10048000000000000000000000000000000000006C
:10049000000000000000000000000000000000005C
:1004A000000000000026000000260026262F000085
:1004B000002F0000003700000037000000FF0000A0
:1004C00000FF000000BF000000BF0000BF370000B9
:1004D0003700003700002626000000262600000016
:1004E0000000000000262626002626262600002FD3
:1004F000002F0000000037000037000000FF000060
:1005000000FFFFFFFF00000000BF00000000000030
:10051000003700000026262600262626260000009A
:100520000000000000260026262626000000002FDE
:100530000000002F0000003700000037000000FF1F
:10054000FFFFFF00000000BF000000BF00000037F9
:1005500000000037002600262626260000000000A6
:1005600000000000000000262626002600002F00C4
:10057000002F002F003700000037000037FF000079
:1005800000FF000000BF000000BF0000BF370000F8
:100590003700003700262626000000260000000055
:1005A0000000000000000026000000000000002FF6
:1005B00000000000000037000000000000FF000005
:1005C000000000000000BF00000000000000003735
:1005D00000000000000000260000000000000000F5
:1005E000000000000000000000000000000000000B
:1005F000000000000000000000000000E400000017
:1006000000099BEDF60000009BA4ADBFBF00529B0C
:10061000A4767F7FB75B9B6D777F766EB700000017
:100620000000000000000000005BB6F6F6005BF67C
:10063000FFFFFFFFBFF6FFFFFFFFBFBFAEFFBFFF24
:10064000FFFFB7AD65BFBFFFFFB7B6AD65B7BFFF73
:10065000FFBFB7AE6EB7BFFFFFBFB7B76500000003
:100660000000000000F6F6EDEDADA4A49BB66D6DA4
:100670005C526E65646565655265766D255C5C529D
:10068000536E24656E6552526E252524255B527784
:100690002D25252524526E6E2D25252525000000AB
:1006A00000000000009B49000000000000A49B9295
:1006B00000000000002564934900000000652E9BA7
:1006C00052000000006D256552000000006D2D6590
:1006D00052000000006E2E64520000000000000076
:1006E000000000495B00000000004A5B650000005C
:1006F000005B9B6D2D0000005B5B2D2E25000052E2
:100700005B2E2E1C0900015B2D1C01091C005C5B8B
:10071000014A65777F4A5B1C6E7F7777769B777798
:100720006D656E6EA4776E6565655BA4B725255C07
:1007300052526DBFBF130949647FBFBFBF095C7FC1
:100740007FBFBFB7BF7F7F777F7FB7BFBF77777F21
:100750007F6EB7BFBF777F7F6E77BFBFBFB6FFFF2C
:10076000FFBFBFB75BBFFFFFFFBFBFA464BFFFFFFB
:10077000FFBFADA47FBFFFFFFFBFA4BF7FFFFFFF91
:10078000BFADBFBFBFFFFFFFB6BFBFBF77FFFFF764
:10079000BFBFBF7777FFFFFFBFBFBF64526D7F6EE4
:1007A0002E2D2D256E7F766E6E6E2E2565777777D2
:1007B000762E1C25247F776E251C251C1B7765252E
:1007C000251C090A5B6E6E1C09492564645B494A55
:1007D0006E7F645C005377BF775B5C00006E255BC7
:1007E0004A000000001C1B5B0000000000245B535B
:1007F00000000000005B5C000000000000640000DE
:1008000000000000000000000000000000000000E8
:10081000000000000000000000000000005B5C7FA2
:10082000BF777677775C6D7FB7777777775C6D7F0B
:10083000BF777777BF5C64BFBFBFBFBF7F0A5C6E07
:10084000BFBFBFBF760065646DBFBFBFBF00005BA9
:100850006D646DADB600000000125B646D777F6E55
:100860006E77BFBFBF7F766D7677BFBFBF776D6E88
:10087000767FBFBFBF6D6E767FBFB7ADF676BFBF69
:1008800076A4ADFFFFBFB664ADFFFFFFFFB6ADBFFF
:10089000FFFFFFFFF6ADB6AD645B520000FFFFBF88
:1008A000BFAD5B64BFFFFFB6ADADBFFFBFFFF6FFDF
:1008B000FFFFFFBF64FFFFFFFFBFB6765BFFFFFFD9
:1008C000BFBF5B0000FFFFFF5C00000000A4000052
:1008D00000000000000000000000000000BFBF6436
:1008E0005C5C0000006E5C6549000000006D5B0010
:1008F00000000000000000000000000000000000F8
:1009000000000000000000000000000000000000E7
:1009100000000000000000000000000000002609A8
:100920000000800F800F00000000000000000000A9
:1009300000000000000000000000000000000000B7
:1009400000000000010101020304050607090A0C6A
:100950000E101112141516171718171614100A0571
:10096000F9F3EDE7E5E2E1E0E0E1E1E3E4E6E8EA1E
:10097000ECEEF0F2F4F6F8FBFD010406090B0E10A4
:100980001215181A1D1F222427292B2D2D2D2D2A33
:10099000241E0F01F6E3DDD6D0D0CFD0D1D3D6D9E7
:1009A000DDE1E7ECF2F7FE03080E0D110C080B0871
:1009B0000B0D101215171A1C1D1E19181105060013
:1009C00000FFFFFDF6F6EEEEEEE9E9E6DADDDBDB51
:1009D000E2E6EBF2F9010810181F282D3236302C10
:1009E0002518100AFDF3F4EEF0F1F1ECEDE3DBDE97
:1009F000DCDFE7E9EDF3EAF2EFECF5F7FF071018BB
:100A00001F262C3136383839302A231C09FBF3DAFB
:100A1000D3CCC4C9C9C8CDC6C7CDCFD8E1E9F4FD90
:100A20000C16212C353D424A47474C3E3E352E217F
:100A30000C01ECE5CFCCC4BFBCB5B9BBC0C8CED4AB
:100A4000DEDDE8EEF0FC030D1A242F373F464B4C59
:100A50005146443D302F29170EFFE4D4C0B8ACAE48
:100A6000AFB5BAC4CBD3DCE4EDF7000D15202832C6
:100A7000333737262C21161B1415100B03FFF9F002
:100A8000F3E9EBE3D9E0DEE4ECF1F5FCF9FF020574
:100A90000704080B05070C040A0A0A0A06090407DA
:100AA0000B0B0B0C0602FBFBF7F0F4E9E5EBEBF1AB
:100AB000F8FD03050A0B060C0C070A0804FFFCF9F5
:100AC000F8F9FDFAF9FDFD02090C111115130E15C7
:100AD000110F1104FEFDF2EDECEDEAE1E3E2DBE0E3
:100AE000E3E0E7EBEFF6FC040A121A1F252A2A2F8F
:100AF0002B2E2F2B2C22151506FDFAEAE4DAD7D17E
:100B0000CED3D1D0D6D6D9DDDDE5EAF2FBFE060F95
:100B1000131D242B303539383B3B3032281F190C3C
:100B2000FDF4E5D4D0CAC8C9CAC6CBCED3DBE3EA4C
:100B3000F4FC040D161D24282C2A2B2725282520FB
:100B40001A0F0602F7F2EDEAE5E5E0D8DCDCDFE7B4
:100B5000EBEFF4FAFAFF070C15181B1B151215170B
:100B6000151912090C07070500FCFAF0E9ECECEC8A
:100B7000EEEFE4E3E6E6EDF3F90005080C110D12E3
:100B8000171618180A0905FF02FE0103030500FFE6
:100B900001FF03FEFF0204060808FDFCFAF1F5F26E
:100BA000F0F6F6F7F5F1EAECECEEEFEDF2F6FC021A
:100BB000070D12171B1F212520201E191E201D1B8B
:100BC00015FEF3EFEAE8E5E3DEDDDDDDD8D9D9D9BE
:100BD000DFE3EBF3F902070B12171D21272C30304E
:100BE000302E1E1A1B15180E08FEE4DCD9D2D0D701
:100BF000DADBE0E0DEE4E9EFF6FD030B12181F227A
:100C0000201F211D1A1F1C1E1A090701F6F6F4EAFF
:100C1000E7E0D7DAD9DDE1E7EDF4F7FDFFFF070DF7
:100C2000131C212426201A1517131012141007055F
:100C3000FDE9E2E2E0E3E8EBECE5E3E3E4E9EFF62B
:100C4000FB02080D1016130E111313151819190AAB
:100C5000030500FD0506050600F1F3F4F7FBFE01B0
:100C600002F6F7F5F1F4F6F7F2F4F7F7F9FBFCFF0B
:100C700003FBF8FDF5F7FCFDFE04090F151B1D1C19
:100C8000110B0F11181E22211D06FCF6E7E1E4E707
:100C9000E9EDEFE4E4DCD0D4D7DBE5F0F801080BB4
:100CA0000E161C24292F322E2829221716160A095F
:100CB00001F6F0E5E3D5D6D2CFD8DBE3E8EFEDEDF2
:100CC000F5FC030D151D1F1F2528292D231E1B09AB
:100CD000040602040606FEEEDECAC6C3C3CAD2DAA2
:100CE000E4EDF5FE01020B121C273239403D323291
:100CF000291A181B16180D05F5E2DCD0D0CED0D27B
:100D0000CBCCD0D3D7DEE8F0FA040E171C1F211885
:100D10001A19151B1E2123202021180E07FDF6F499
:100D2000F7F7FAFCF6F6F6F0E8E8E3E5EAEFF3F7B2
:100D3000F4F1F4EEF3F8FB000A0F12130E04FFFDBA
:100D4000FE01060A0E0C0B0E0F0B1014181B1D19BA
:100D5000120BFFFAF0EEEBE5EAEDF1F2EEEEE6DE75
:100D6000DCDEE1E8F1F901091013181C1D1B1F1F3F
:100D700021212016100701F9F0F0F0ECEFF1F1F16C
:100D8000EBE6E7E9EEF4FAFF040404090D0E101691
:100D9000191D1D1C120801FCFAFBFEFE010302FBDB
:100DA000F3EEE2D9D8D9DCE2EAF0F6FC0102080E53
:100DB000141A20262A2B26201C191611070404FFBA
:100DC000FEFDFBF5E9E2DFD8D7D9DDE1E6E9EDF498
:100DD000FAFF050C101315120B08080A0C0F12125B
:100DE000141615110D07FCFAFAFCFE000100FBF1C8
:100DF000EEEAEBEDF2F6FAFCFEF8F5F5F7FAFE0195
:100E000003090D101112110A01FFFCF9FAFCFE0191
:100E1000030306080A0C0B08070600F8F7F7F7F8B3
:100E2000FBFAF8F9FBFDFEFEFEF8F4F6F8FBFE0215
:100E300005060406070A0C0F11110F0B01FBF5F153
:100E4000EFF0F1F1F5F9FD0003050400FF000103E7
:100E500006090B0B090809090A08060402FBF7F743
:100E6000F6F7F8FAF9FAF8F8F8F9F9F8F6F3F3F50D
:100E7000F7FAFD000305070B0E1114161615110CD9
:100E80000A0604030201FFFEFDFDFDFCFAF7F1ED89
:100E9000EBEBECEEF2F5F8FBFF020508090A0A0895
:100EA00004040404040505050404050607070706F1
:100EB0000402010000FEFDFBFAFAF9F9FAFBFCFC62
:100EC000FBF9F9F9F9FAFCFEFF010305060708072B
:100ED00006040200000000010101020202020201F8
:100EE00000FFFEFDFCFDFDFDFEFEFFFF000000011A
:100EF0000102010100FFFFFFFEFFFF0001020303EB
:100F000004040301FFFDFBFBFBFBFBFBFCFDFF00FF
:100F100001020304030303030303030304040302A2
:100F200001010100FFFEFCFCFCFDFDFDFDFCFBFCE6
:100F3000FDFEFF0001010100FFFEFF0000FF0001B8
:100F400003050608080602FFFEFF0000FFFE000280
:100F50000303020100FEFDFCFBFBF9F7F8FBFDFDBE
:100F6000FDFE010406070602FFFCFE010403FFF973
:100F7000F8FB000406080A0B0C0D0F0C01F4EEF050
:100F8000F6FE040705FEFDFBF8F4EEEEF1F3F7FCC8
:100F900001040405080604070B0F0F0C0D0A0403D7
:100FA0000502FFFFFCFAFDFF00FAF6EFEFF4F4EEA6
:100FB000E9EEF7020C16180C060F1A1D0F00FAF5D1
:100FC000EDF1FD0504FE07131B1E1506E8CCCCD879
:100FD000EAF6F9EDDFDFE9FA080F161D24242530C3
:100FE0003117F9F4F3F8061B2C2507F0EEEDDBD3EF
:100FF000DDEDF8F4E9DFDBD2E1F80A101214191381
:10100000121F2B2106F1E2EF0925301FFBEAEFEC5E
:10101000E9F5F5E0D6E1F60B1C344B4110D9E0FBC5
:1010200006F4F4FF01EEE1F2FCF2F1091911080DEA
:1010300011FDEAE0E1F0F5E8D3DDEBFE0E1C233311
:101040004C625A2D07DFDDD2D6E9F5021B3628F4B3
:10105000D6DDCDB5BACAE0F610261CEFC6DD041FFA
:1010600027343D3A252148676118D3BDB7CDEBF948
:10107000E6EAF0F1D6CCBDB1C4D8EF020C10285589
:10108000775F17EEF2FDF60522312B0B03FFF40C10
:101090002B230FF1D6B8AFC6E2F7F0CEB0C5DAEB2E
:1010A000F90D161C345464470BFD010E0EF4ED06C9
:1010B0001E312E3129EFCAB9D9F2E7C1B6D8FF03E4
:1010C000DBC9E70210192D3433181F40544004E2E5
:1010D000E9EEE8D9D8F51115E6BBABC9DFF2FE148D
:1010E000293015F508303A1DEDFBFEF5F9102130D9
:1010F0002004FBE4E3EB182B16CEACC5E40006FE9F
:10110000D5D8E9FA040F1D29485C3EF7C7DCF70A79
:10111000141907F403F5E6062B37EFA4B8DDFDF745
:10112000DBD4F70B07E1E90B1C222B3D453E273DA5
:10113000544B00E7D9D4CCB8CFE90307DB9EA5C553
:10114000DCE3EFFD0E1C29190000294142130B12AC
:101150000C1918203D4F32EED6E7F0F3F2EBC3CA7C
:10116000D6EDF1F4CDCFE0EDF6FB03132B3C2DFCD7
:10117000F1EBFA02061C343C14E5EAFF2337431274
:10118000D0CFD3D2CFD6E80108F7DAEEFD0F151F86
:101190002B382F252B2AF9FB0408CEC2D7F30D14C8
:1011A000EEB3C4D9ECF0FB0D1D1101EEF1FD1024DE
:1011B0002F39210400F9060A1E364723D2D1E5EF64
:1011C000F5FBE4DCEBF6FEF7DBE3F30005071021AB
:1011D0002F16E8E4F9FEEEF2000D1C251CF6E3EEF6
:1011E000091A282005DDC6CDD9E4F0020E13FDF45E
:1011F00003112026313D483E230FEAE9FD02F5E2C6
:10120000DAEAF8E8CBBDC5D3DCE7F1FE00F7F1F888
:10121000FE020D1C27333E38180509172632392ED9
:101220000FDFCDE0F2F4E5E3EDF3F4F5E4E0EDF605
:1012300001080D0B06F2E9F3FAFEFBF8031119148D
:101240000C0E130B0A18201703F8E3D5DCE5F0F9B0
:10125000000604F6F4000D171E262923120800F8D4
:10126000F9F3F6FDFFF7F2EBE4DBDEE6EDF4FBFC71
:10127000F5F0F0F7FE01050F191F2226291B090EB4
:101280001A1E140A02F6EFEBEDF4F0ECF2F8FCFF94
:10129000F4ECF4FB01080B07FCEFEBEFF3F9FFFEB6
:1012A000FE050905050B101618100A05F7F5FCF8E0
:1012B000EAE8F0F6FC030A0700040E151C212421BD
:1012C0001C0EF8F5F7F2F6FAFE02F4E0E3E3DBE0D9
:1012D000E7E7E5E4E4EAF0F6FD040A0F161F272C21
:1012E00031382E171920160F0E01F4F9F7F0F3F02C
:1012F000EEF2F8F9EFEAF0F5F7F7F7EDE0DEE3E705
:10130000EDF3FC02FF030D0A0B14191D25281E1016
:1013100005F9F90104F9EEF5FCFD060C03020C0FCA
:101320000F130F0B1412F9F0F3EFF1F9FEF9F2F1CC
:10133000EBE1DDE0E3E7EAE8E5E7EFF700070E15AC
:10134000181C273034383D331704FEFC0004FEF52A
:10135000FA00F5EEF3F7FB00F6F0F8F9FA0300EB0C
:10136000E1E2E2E7F0F6F8FB0000FF01060B0F11E7
:101370000E08080AFEF8FF01030705FF02090B101B
:10138000110A0C13181D1D1611130AF8F4F7F4F5C1
:10139000F4EDECEDECE7DDD7D3D1D5DBE3EAEFF606
:1013A000FD030A10161C21262B2D2E2E2B1E120F8C
:1013B00009050701FD0001FAF6F6F7F9F7F2F0EE7C
:1013C000EAEAE9E5E7EAEAEDF2F5F9FD01020103EF
:1013D00007090C10141310100C0605060605060864
:1013E000050203050401FEFEFEFF0102020503FBE8
:1013F000FAFCFCFCFBF9FAF9F9F9F8F7F6F6F5F561
:10140000F5F7FAFCFE00020407080A0C0E0E0D0C9C
:1014100008070704020303020000030301FFFE00A4
:10142000FEFCFEFFFFFEF9F7F7F8F8F9F9FAFCFD0C
:10143000FEFEFEFEFFFFFFFF0001020404020304A4
:101440000204040607070303050503040605040256
:10145000020502FDFDFDFEFCF9FAFCFCFBF9F6F3CA
:10146000F8F6F5F8F8F9FBFDFE000204050607089A
:101470000A0D0E0E0C0A08060501020402FE010107
:10148000FD000401FAF6F6F8FAF5F5F6F7F8F8F8C3
:10149000FAFCFF0101FE000200040608080605032D
:1014A000050002080801010406090A02FCFEFCFA14
:1014B000FA0000000406FFFB0100FCFAFBFBFCFD48
:1014C000FE00FBFBFFFFFDF3F7FAFAFCFDFE000355
:1014D000050708050404070102090A05070A0101B6
:1014E00006010002FBFE040C0CFDFD05FCF6F8F401
:1014F000F6F7F7F7F8FAFBFFFBFDFFFFF9F5FCFD48
:10150000FF0104040600FF06090C08030607090D85
:101510000C03090AFD0103FC030302FDFE04FBF6B4
:10152000FDFCF7F7F3F5F7F0F3F9FCFFFCF6FAFC36
:10153000FEFF00030507080A0B0D0B0B060B0B053E
:10154000060609040104FE0001F8FD01FFFDF9F79C
:10155000F5F5F9F7F7F9F9FAFBFBFDFEFBFF0204DD
:1015600006040305010701020505FE02040607093A
:1015700004FF05000003FFFEFFFC00FF01FF01FC6C
:101580000000FEFCFCFDFF00FFFE03FDF800F9FE7D
:10159000FE00FBFDFFFEFF02000103FF010301004F
:1015A00004040506060106050602030002FE030305
:1015B00005FF05FFFAFCF9FAFAFBFBFCFCFCFEFD5B
:1015C000F8FEFBFDFEFFFEFE010101020204000128
:1015D00004040605080803060704070302FFFF01C9
:1015E00000FD01FDFFFDFFFCFAFAFAFBFAFBFCF936
:1015F000FAFDFCFDFEFF0001FD02010103040405EC
:10160000060603030503040505040305030502FE9E
:10161000FEFAFEFEFEFFFCFCFEFCF9FCFBFBFCFD03
:10162000FDFFFEFCFFFF0102020403FF03000102B5
:10163000020300010302010402010501000201018D
:1016400004FFFD00FCFF0000FEFFFF00FFFDFF00A8
:10165000FF0000FCFDFBFCFDFE00FF0002FFFD01A2
:10166000FDFF000001FF0001010204030406030363
:101670000504050601FF01020203FEFE00FCFFFC5B
:10168000FAFDFCFCFDFCFAFBFAFBFBFEFEFFFF0093
:10169000FF0101010103030002030305060606071B
:1016A00008040205030202FDFE0000FDFBFCFDFB39
:1016B000FDFCFAFCFCFCFCFEFBFAFDFCFDFF00005F
:1016C00001020401020303040502010401010504EF
:1016D000030405020103020003FDFAFFFFFBFBFE0A
:1016E000FDFDFEFEFEFCFDFEFEFFFDFEFFFFFF001A
:1016F0000201010300000201010203FEFF02FF00DC
:101700000202020303030301010202FFFD0001FCC8
:10171000FE00FFFF0001FFFF01FEFF00FBFDFEFDDD
:10172000FEFF00FF0000FF0200FE0001FFFE0100BF
:101730000101020203030404030304030401000182
:1017400000FEFEFEFDFFFFFFFE01FDFBFEFAFBFDBE
:10175000FCFDFEFEFEFF0000010100010102010090
:10176000020202030304040505030405010201FF4C
:101770000000FCFEFCFCFDFDFDFEFEFCFDFDFDFE93
:10178000FCFCFEFDFEFF0001020203030405020152
:10179000020002020003020203030203010101002E
:1017A0000101FCFFFDFCFDFDFDFEFEFEFFFFFF0154
:1017B000FDFD00FEFF00000101FF0300000301002A
:1017C00002FF02FFFD00FFFF01010103020203020D
:1017D0000303FF0101FF01FFFE00FF000000000204
:1017E000FEFE00FDFEFDFDFEFDFDFFFDFE00FF0017
:1017F00000000200FE0000000101020303040404D3
:1018000005040304030302000000FDFEFEFDFEFFCD
:10181000FDFEFEFDFEFCFBFDFCFDFEFEFEFF0000EE
:10182000000101010102020201020202030303039B
:101830000303030203020101FFFFFEFEFDFDFEFDA7
:10184000FEFEFEFFFEFEFEFEFFFEFEFFFF000000AE
:101850000101010202020201020100010100010175
:1018600001010101010100000000FFFEFFFFFFFF79
:10187000FFFFFFFF00000000FF0000FF000000006E
:10188000000000000000000000000000FF00000059
:101890000000000001010101010001010100000040
:1018A00000000000000050617573656400426169CA
:1018B0006C202D205800546F74616C3A0053636F94
:1018C00072653A0020202020202020202020202087
:1018D0002020005254464D21004E65656420686505
:1018E0006C703F005468617427732069743F004135
:1018F000207475726B65792073686F6F74002A5954
:1019000041574E2A00546F6F20656173790041740E
:10191000206C65617374207472790042726F6B651C
:101920006E20627574746F6E3F004C4F4C00596F9F
:1019300075207375636B2062726F00427900507777
:101940006E730045646974202D2055502F444F5705
:101950004E0043616E63656C202D205800436F6E0E
:101960006669726D202D20410053656C656374209B
:101970002D2041005032005031007C005F5F5F5FDE
:101980005F5F5F5F5F5F5F00456469742048616E01
:10199000646C650054616E6B2052616E6B00506C1C
:1019A0006179657220767320506C617965720050A0
:1019B0006C61796572207673204350550032303166
:1019C00034202D204C617772656E63652042726F02
:1019D0006F6B7300010101010101010101010101AE
:1019E00001010101010101010101010101010101E7
:1019F00001010101010101010101010101010101D7
:101A000001010101010101010101010101010101C6
:101A100001010202030000000000000000000000BD
:101A200000000000000000000004020201010101AA
:101A300002030000000000000000000000000000A1
:101A40000000000000000000040201010101030089
:101A50000000000000000000000000000000000086
:101A6000000000000000000401010101000000006E
:101A70000000000000000000000000000000000066
:101A80000000000000000101010100000000020050
:101A90000000000000000000000000000000000244
:101AA0000000000001010101000000000200000030
:101AB0000000000000000000000000000002000024
:101AC0000000010101010000000002000000000010
:101AD0000000000000000000000000020000000004
:101AE00001010101000000000200000000000000F0
:101AF00008000000000000000002000000000101DA
:101B000001010000000002000000000000000000D1
:101B100000000000000000020000000001010101BF
:101B200000000000020000000000000000000000B3
:101B30000000000000020000000001010101005847
:101B40000000020000000000000000000000000093
:101B5000000000020063000001010101000000001C
:101B60000200000000000000000000000000000073
:101B7000000200000000010101010000000002005D
:101B80000000000000000000000000000000000253
:101B9000000000000101010100000000020000003F
:101BA000000000000007000000000000000200002C
:101BB000000001010101000000000200000000001F
:101BC0000000000000000000000000020000000013
:101BD00001010101000000000200000000000000FF
:101BE00000000000000000000002000000000101F1
:101BF00001010000000002000000000000000000E1
:101C000000000000000000020000000001010101CE
:101C100000000000000000000000000000000000C4
:101C200000000000000000000000010101010500AB
:101C300000000000000000000000000000000000A4
:101C40000000000000000006010101010205000083
:101C50000000000000000000000000000000000084
:101C6000000000000602010101010202050000005F
:101C70000000000000000000000000000000000064
:101C8000000602020101010101010101010101013E
:101C90000101010101010101010101010101010134
:101CA0000101010101010101010101010101010124
:101CB0000101010101010101010101010101010114
:101CC0000101000000000000000000000000000012
:101CD0000000000000000000000000000000000004
:101CE00000000000000000000000000000000000F4
:101CF00000000000000000000000000000000000E4
:101D000000000000000000000000000000000000D3
:1037200001012601012501012401012301012202D9
:10373000020C0D0D0C02020A0B18190202080916E0
:1037400017020220212E2F02021E1F2C2D02021C06
:103750001D2A2B02021A1B28290202060714150231
:103760000204051213020202031011020200010EEC
:103770000F01012702022727272701010C01010B56
:1037800001010A0101090101080101070101060106
:1037900001040101030101020101050101010F04FE
:1037A0000101010101010101010101010101010109
:1037B0000000000000000000000000000001010007
:1037C00000000000000000000000000001010101F5
:1037D00001010101010101010101010115040D0EA9
:1037E0000F10111213141516001700000010110FFE
:1037F0001600180019001A001B1C1D1E1F200000B7
:1038000000002122001A001B0019002311241A00B5
:103810001B2526000000002728001A001B00290095
:103820002A002B2A002B2A00170000002A00002C57
:103830002D2EFEFEFEFEFEFE2B2BFEFEFEFEFEFEEF
:10384000FE2BFEFEFEFEFEFEFE2B2B2B2BFEFEFEB7
:10385000FE2B121212FEFE20202B2B2B2B202020C1
:10386000202B121212202020202B2B2B2B2020204B
:1038700029292B2BFEFEFEFEFEFE2BFEFEFEFEFE8B
:10388000FEFE2BFEFEFEFEFEFEFE2BFEFEFEFE2BD1
:103890002B2B2B2020FEFE1212122B202020202B5F
:1038A0002B2B2B2020202012121229292020202B04
:1038B0002B2BFEFEFEFEFEFE2B2BFEFEFEFEFEFE74
:1038C000FE2BFEFEFEFEFEFEFE2B121212FEFEFE82
:1038D000FE2B2B2B2BFEFE20202B12121220202041
:1038E000202B2B2B2B202020202B121212202020CB
:1038F00029292B2BFEFEFEFEFEFE2BFEFEFEFEFE0B
:10390000FEFE2BFEFEFEFEFEFEFE2BFEFEFEFE1269
:1039100012122B2020FEFE2B2B2B2B2020202012DE
:1039200012122B202020202B2B2B29292020201283
:1039300012122B122B122B122B122B122B122B12B8
:103940002B122B122B122B122B12FEFE20202020CA
:103950002020FEFE202020202020FEFEFE20202011
:103960002020FEFEFEFE20202929FEFEFEFE202055
:10397000292B2B122B122BFEFEFE2B122B122BFEB1
:10398000FEFE2B122B122BFEFEFE202020FEFEFE42
:10399000FEFE202020FEFEFEFEFE20202020FEFE59
:1039A000FEFE29202020FEFEFE2B292B2B2B2B2B6D
:1039B0002B2B122B122B122B122B122B122B122B06
:1039C000122B122B122B122B122BFEFE202020204A
:1039D0002020FEFE202020202020FEFEFE20202091
:1039E0002020FEFEFEFE20202929FEFEFEFE2020D5
:1039F000292B122B122B12FEFEFE122B122B12FE63
:103A0000FEFE122B122B12FEFEFE202020FEFEFEDA
:103A1000FEFE202020FEFEFEFEFE20202020FEFED8
:103A2000FEFE29202020FEFEFE2B292B2B2B2B2BEC
:103A30002B2BFEFEFEFEFEFEFEFEFEFEFEFEFEFE4C
:103A4000FEFEFEFEFFFFFEFE3F3FFEFEFFFFFEFE10
:103A50003F3FFEFEFEFEFFFF3F3FFEFEFEFEFFFF7E
:103A60003F3FFEFEFEFE3F3F3F3FFEFEFEFE3F3F6E
:103A70003F3FFEFEFEFEFEFEFEFEFEFEFEFEFEFEE4
:103A8000FEFEFEFEFEFEFFFFFEFEFEFEFEFEFFFF52
:103A9000FEFEFEFEFFFFFEFEFEFEFEFEFFFFFEFE42
:103AA000FEFE3F3F3F3F3F3FFEFE3F3F3F3F3F3F2A
:103AB000FEFE3F3F3F3FFEFEFEFE3F3F3F3FFEFE1E
:103AC000FEFE3F3FFFFF1F1F3F3F3F3FFFFF1F1F08
:103AD0003F3FFEFE1F1FFFFF3F3FFEFE1F1FFFFF7A
:103AE0003F3FFEFEFEFE3F3F3F3FFEFEFEFE3F3FEE
:103AF0003F3FFEFEFEFE3F3F3F3FFEFEFEFE3F3FDE
:103B00003F3FFEFE1F1FFFFF3F3FFEFE1F1FFFFF49
:103B10003F3FFEFEFFFF3F3FFEFEFEFEFFFF3F3F3B
:103B2000FEFE3F3F3F3F3F3FFEFE3F3F3F3F3F3FA9
:103B3000FEFEFEFEFEFEFEFEFEFEFEFEFEFEFEFEA5
:103B4000FEFEFEFEFFFFFEFEFEFEFEFEFFFFFEFE91
:103B5000FEFEFEFEFEFEFFFFFEFEFEFEFEFEFFFF81
:103B6000FEFEFEFEFEFEFEFEFEFEFEFEFEFEFEFE75
:103B7000FEFEFEFEFEFEFEFEFEFEFEFEFEFEFEFE65
:103B8000FEFEFEFEFEFEFFFFFEFEFEFEFEFEFFFF51
:103B9000FEFEFEFEFFFFFEFEFEFEFEFEFFFFFEFE41
:103BA000FEFEFEFEFEFEFEFEFEFEFEFEFEFEFEFE35
:103BB000FEFE121212202020292B2B2B2B2020203E
:103BC000292912121220202020202B2B2B202020EC
:103BD0002020121212202020FEFE2B2B2B2020FE54
:103BE000FEFE121212FEFEFEFEFE2B2B2BFEFEFE32
:103BF000FEFE2B2920202012121229292020202B02
:103C00002B2B202020202012121220202020202BBD
:103C10002B2BFEFE202020121212FEFEFE20202B57
:103C20002B2BFEFEFEFEFE121212FEFEFEFEFE2BF1
:103C30002B2B2B2B2B202020292B12121220202063
:103C400029292B2B2B20202020201212122020206B
:103C500020202B2B2B202020FEFE1212122020FED3
:103C6000FEFE2B2B2BFEFEFEFEFE121212FEFEFEB1
:103C7000FEFE2B292020202B2B2B2929202020124F
:103C8000121220202020202B2B2B2020202020123D
:103C90001212FEFE2020202B2B2BFEFEFE202012D7
:103CA0001212FEFEFEFEFE2B2B2BFEFEFEFEFE1271
:103CB0001212FEFEFEFE2020292BFEFEFEFE20201C
:103CC0002929FEFEFE2020202020FEFE202020208C
:103CD0002020FEFE2020202020202B122B122B1231
:103CE0002B122B122B122B122B122B122B122B12EC
:103CF0002B12292B2B2B2B2B2B2B29202020FEFEAC
:103D0000FE2B20202020FEFEFEFE202020FEFEFEB8
:103D1000FEFE202020FEFEFEFEFE2B122B122BFEAE
:103D2000FEFE2B122B122BFEFEFE2B122B122BFE55
:103D3000FEFEFEFEFEFE2020292BFEFEFEFE2020C3
:103D40002929FEFEFE2020202020FEFE202020200B
:103D50002020FEFE202020202020122B122B122BB0
:103D6000122B122B122B122B122B122B122B122B6B
:103D7000122B292B2B2B2B2B2B2B29202020FEFE2B
:103D8000FE2B20202020FEFEFEFE202020FEFEFE38
:103D9000FEFE202020FEFEFEFEFE122B122B12FE47
:103DA000FEFE122B122B12FEFEFE122B122B12FE07
:103DB000FEFEFEFE3F3F3F3F3F3FFEFE3F3F3F3F99
:103DC0003F3FFEFEFEFEFFFFFEFEFEFEFEFEFFFF8D
:103DD000FEFEFEFEFFFFFEFEFEFEFEFEFFFFFEFEFF
:103DE000FEFEFEFEFEFEFEFEFEFEFEFEFEFEFEFEF3
:103DF000FEFE3F3F3F3FFEFEFEFE3F3F3F3FFEFEDB
:103E0000FEFE3F3FFFFFFEFEFEFE3F3FFFFFFEFECA
:103E1000FEFE3F3FFEFEFFFFFEFE3F3FFEFEFFFFBA
:103E2000FEFEFEFEFEFEFEFEFEFEFEFEFEFEFEFEB2
:103E3000FEFEFEFE3F3F3F3F3F3FFEFE3F3F3F3F18
:103E40003F3FFEFE1F1FFFFFFEFEFEFE1F1FFFFF88
:103E5000FEFE3F3FFFFF1F1FFEFE3F3FFFFF1F1FF6
:103E6000FEFE3F3F3F3FFEFEFEFE3F3F3F3FFEFE6A
:103E7000FEFE3F3F3F3FFEFEFEFE3F3F3F3FFEFE5A
:103E8000FEFE3F3FFFFF1F1FFEFE3F3FFFFF1F1FC6
:103E9000FEFE3F3F1F1FFFFF3F3F3F3F1F1FFFFF34
:103EA0003F3FFEFEFEFE3F3F3F3FFEFEFEFE3F3F2A
:103EB0003F3FFEFEFEFEFEFEF5F5FEFEFEFEFEFEB2
:103EC000FEF5FEFEFEFEFEFEFEF5F5F5F5FEFEFE3F
:103ED000FEF5909090FEFEE1E1F5F5F5F5E1E1E10A
:103EE000E1F5909090E1E1E1E1F5F5F5F5E1E1E151
:103EF000F0F0F5F5FEFEFEFEFEFEF5FEFEFEFEFE19
:103F0000FEFEF5FEFEFEFEFEFEFEF5FEFEFEFEF5EC
:103F1000F5F5F5E1E1FEFE909090F5E1E1E1E1F5E6
:103F2000F5F5F5E1E1E1E1909090F0F0E1E1E1F506
:103F3000F5F5FEFEFEFEFEFEF5F5FEFEFEFEFEFEC5
:103F4000FEF5FEFEFEFEFEFEFEF5909090FEFEFEED
:103F5000FEF5F5F5F5FEFEE1E1F5909090E1E1E189
:103F6000E1F5F5F5F5E1E1E1E1F5909090E1E1E1D0
:103F7000F0F0F5F5FEFEFEFEFEFEF5FEFEFEFEFE98
:103F8000FEFEF5FEFEFEFEFEFEFEF5FEFEFEFE90D1
:103F90009090F5E1E1FEFEF5F5F5F5E1E1E1E19066
:103FA0009090F5E1E1E1E1F5F5F5F0F0E1E1E19086
:103FB0009090F590F590F590F590F590F590F5903E
:103FC000F590F590F590F590F590FEFEE1E1E1E1D8
:103FD000E1E1FEFEE1E1E1E1E1E1FEFEFEE1E1E140
:103FE000E1E1FEFEFEFEE1E1F0F0FEFEFEFEE1E1BB
:103FF000F0F5F590F590F5FEFEFEF590F590F5FEE6
:10400000FEFEF590F590F5FEFEFEE1E1E1FEFEFE1E
:10401000FEFEE1E1E1FEFEFEFEFEE1E1E1E1FEFE8B
:10402000FEFEF0E1E1E1FEFEFEF5F0F5F5F5F5F559
:10403000F5F590F590F590F590F590F590F590F5F3
:1040400090F590F590F590F590F5FEFEE1E1E1E157
:10405000E1E1FEFEE1E1E1E1E1E1FEFEFEE1E1E1BF
:10406000E1E1FEFEFEFEE1E1F0F0FEFEFEFEE1E13A
:10407000F0F590F590F590FEFEFE90F590F590FE2F
:10408000FEFE90F590F590FEFEFEE1E1E1FEFEFE03
:10409000FEFEE1E1E1FEFEFEFEFEE1E1E1E1FEFE0B
:1040A000FEFEF0E1E1E1FEFEFEF5F0F5F5F5F5F5D9
:1040B000F5F5FEFEFEFEFEFEFEFEFEFEFEFEFEFE32
:1040C000FEFEFEFEFEADADFEFEFEFEFEADADADADF6
:1040D000FEFEFEFEADADADADFEFEFEFEFEADADFEE6
:1040E000FEFEFEFEFEFEFEFEFEFEFEFEFEFEFEFEF0
:1040F000FEFEFEFEFEADADFEFEFEFEFEFEADADFE24
:10410000FEFEFEFEADADADADFEFEFEFEADADADAD57
:10411000FEFEFEADADADADADADFEFEFE3F3F3F3FA1
:10412000FEFEFEFEFE3F3FFEFEFEFEFEFEFEFEFE2D
:10413000FEFEFEFEFEADADFEFEFEFEFEFEADADFEE3
:10414000FEFEFEFEADADADADFEFEFEFEADADADAD17
:10415000FEFEFEADADADADADADFEFEFEFE3F3FFEE3
:10416000FEFEFEFEFEFEFEFEFEFEFEFEFEFEFEFE6F
:10417000FEFEFEFEFEFEFEFEFEFEFEFEFEADFEFEB0
:10418000FEFEFEFE3FADADADFEFEFE3F3FADADAD72
:10419000ADADFE3F3FADADADADADFEFE3FADADADA6
:1041A000FEFEFEFEFEADFEFEFEFEFEFEFEFEFEFE80
:1041B000FEFEFEFEFEFEFEFEFEFEFEFEFEADFEFE70
:1041C000FEFEFEFEFEADADADFEFEFEFE3FADADADB4
:1041D000ADADFEFE3FADADADADADFEFEFEADADADE8
:1041E000FEFEFEFEFEADFEFEFEFEFEFEFEFEFEFE40
:1041F000FEFEFEFEFEFEFEFEFEFEFEFEFEFEFEFEDF
:10420000FEFEFEFEFEFEFEFEFEFEFEFEFEFEFEFECE
:10421000FEFEFEFEFEFEFEFEFEFEFEFEFEFEFEFEBE
:10422000FEFEFEFEFEFEFEFEFEFEFEFEFEFEFEFEAE
:10423000FEFE909090E1E1E1F0F5F5F5F5E1E1E1C8
:10424000F0F0909090E1E1E1E1E1F5F5F5E1E1E1F7
:10425000E1E1909090E1E1E1FEFEF5F5F5E1E1FEAE
:10426000FEFE909090FEFEFEFEFEF5F5F5FEFEFED3
:10427000FEFEF5F0E1E1E1909090F0F0E1E1E1F592
:10428000F5F5E1E1E1E1E1909090E1E1E1E1E1F5D5
:10429000F5F5FEFEE1E1E1909090FEFEFEE1E1F534
:1042A000F5F5FEFEFEFEFE909090FEFEFEFEFEF593
:1042B000F5F5F5F5F5E1E1E1F0F5909090E1E1E15A
:1042C000F0F0F5F5F5E1E1E1E1E1909090E1E1E177
:1042D000E1E1F5F5F5E1E1E1FEFE909090E1E1FE2E
:1042E000FEFEF5F5F5FEFEFEFEFE909090FEFEFE53
:1042F000FEFEF5F0E1E1E1F5F5F5F0F0E1E1E19048
:104300009090E1E1E1E1E1F5F5F5E1E1E1E1E19054
:104310009090FEFEE1E1E1F5F5F5FEFEFEE1E190B3
:104320009090FEFEFEFEFEF5F5F5FEFEFEFEFE9012
:104330009090FEFEFEFEE1E1F0F5FEFEFEFEE1E104
:10434000F0F0FEFEFEE1E1E1E1E1FEFEE1E1E1E1AE
:10435000E1E1FEFEE1E1E1E1E1E1F590F590F590CA
:10436000F590F590F590F590F590F590F590F59025
:10437000F590F0F5F5F5F5F5F5F5F0E1E1E1FEFE86
:10438000FEF5E1E1E1E1FEFEFEFEE1E1E1FEFEFE21
:10439000FEFEE1E1E1FEFEFEFEFEF590F590F5FE8B
:1043A000FEFEF590F590F5FEFEFEF590F590F5FE1B
:1043B000FEFEFEFEFEFEE1E1F0F5FEFEFEFEE1E1A8
:1043C000F0F0FEFEFEE1E1E1E1E1FEFEE1E1E1E12E
:1043D000E1E1FEFEE1E1E1E1E1E190F590F590F54A
:1043E00090F590F590F590F590F590F590F590F5A5
:1043F00090F5F0F5F5F5F5F5F5F5F0E1E1E1FEFE06
:10440000FEF5E1E1E1E1FEFEFEFEE1E1E1FEFEFEA0
:10441000FEFEE1E1E1FEFEFEFEFE90F590F590FE6F
:10442000FEFE90F590F590FEFEFE90F590F590FE64
:10443000FEFE000000000000000000000000000080
:10444000000000000000000000000000000000006C
:10445000000000000000000000000000000000005C
:10446000000000000000000000000000000000004C
:1044700000006666662666666666777777267777D3
:10448000777777777726777777777777772677775E
:104490007777262626262626262677777777777734
:1044A000772677777777777777267777777777773E
:1044B000772600ECECECECECEC00ECFFFFFFFFFFF0
:1044C000FFECECEDFFFFFFFFEDECECEDEEFFFFEEA0
:1044D000EDECECEDEEFFEFEEEDECECEDFFEEEEEEE5
:1044E000EDECECFFEDEDEDEDEDEC00ECECECECECDF
:1044F000EC0000ECECECECECEC00ECFFEDEDEDEDA9
:10450000FFECECEDFFEEEEFFEDECECEDEEFFFFEE81
:10451000EDECECEDEEFFFFEEEDECECEDFFEEEEFF83
:10452000EDECECFFEDEDEDEDFFEC00ECECECECEC8C
:10453000EC0000ECECECECECEC00ECEDEDEDEDED7A
:10454000FFECECEDEEEEFFFFEDECECEDEEFFFFFF30
:10455000EDECECFFEEFFFFEEEDECECEDFFEEEEEE42
:10456000EDECECFFEDFFEDEDEDEC00ECECECECEC4C
:10457000EC00050505050505050505050505050509
:1045800005040505050505050404050505070704DB
:1045900004040505050707040404050505040404CF
:1045A00004040505040404040404050404040404C8
:1045B0000404000000000000000000FF003F0000B5
:1045C000FF000000FF3F00FF000000003F3F3F3FB3
:1045D0003F00003F3F3F3F3F00000000FF003FFF24
:1045E000000000FF00003F00FF000000000000008E
:1045F00000003F3F000000003F3F3FFF1F3F001F04
:10460000FF3F001FFF3F00FF3F0000003F3F3F3FD5
:104610003F00003F3F3F3F3F0000001FFF003FFFC4
:104620001F003FFF1F003F1FFF3F3F3F00000000F4
:104630003F3F000000000000000000FF00000000FD
:10464000FF000000FF0000FF00000000000000006D
:10465000000000000000000000000000FF0000FF5C
:10466000000000FF00000000FF000000000000004C
:1046700000000505050505050505050505050505F4
:1046800005000505050505050000050505070700EA
:1046900000000505050700000000050505000000F5
:1046A00000000505000000000000050000000000FB
:1046B00000000000000000000004000000000000F6
:1046C00004040000000000040404000000000704CB
:1046D00004040000000707040404000004040404A8
:1046E000040400040404040404040404040404048E
:1046F0000404050505050505050500050505050571
:10470000050500000505050505050000000707056E
:104710000505000000000705050500000000000574
:104720000505000000000000050500000000000075
:104730000005040000000000000004040000000068
:10474000000004040400000000000404040700004A
:104750000000040404070700000004040404040427
:104760000000040404040404040004040404040415
:104770000404ADADADADADADADADAD818181828295
:104780008383AD81818182828383AD8181818282B5
:104790008383AD81818182828383AD8181818282A5
:1047A0008383AD81818182828383ADADADADADADBB
:1047B000ADADADADADADADADADAD85858687878613
:1047C000858585858687878685858585868787868D
:1047D000858585858687878685858585868787867D
:1047E00085858585868787868585AD858687878645
:1047F00085ADADADADADADADADAD83838282818113
:1048000081AD83838282818181AD83838282818134
:1048100081AD83838282818181AD83838282818124
:1048200081AD83838282818181ADADADADADADAD12
:10483000ADADADADADADADADADADAD818181828282
:104840008383AD81818182828383AD8181818282F4
:104850008383AD81818182828383AD8181818282E4
:104860008383AD81818182828383AD8181818282D4
:1048700083ADADADADADADADADAD8585868787867C
:1048800085858585868787868585858586878786CC
:1048900085858585868787868585858586878786BC
:1048A00085858585868787868585ADADADADADADC2
:1048B000ADADADADADADADADADAD8383828281812A
:1048C00081AD83838282818181AD83838282818174
:1048D00081AD83838282818181AD83838282818164
:1048E00081AD83838282818181ADAD83828281812A
:1048F00081ADADADADADADADADADAD8181818282EE
:1049000083ADAD818181828283ADAD8181818282DF
:1049100083ADAD818181828283ADAD8181818282CF
:104920008383AD81818182828383AD818181828213
:104930008383000000000000000000000000000071
:104940000000000000000000000000000000000067
:104950000000ADADADADADADADAD858586878786CB
:1049600085858585868787868585858586878786EB
:10497000858500000000000000000000000000002D
:104980000000000000000000000000000000000027
:104990000000ADADADADADADADAD838382828181A3
:1049A00081AD83838282818181AD83838282818193
:1049B00081ADADADADADADADADADAD81818182822D
:1049C00083ADAD818181828283ADAD81818182821F
:1049D00083ADAD818181828283ADAD81818182820F
:1049E00083ADAD818181828283ADAD8181818282FF
:1049F00083ADADADADADADADADADAD8382828181E9
:104A000081ADAD838282818181ADAD8382828181DE
:104A100081ADAD838282818181ADAD8382828181CE
:104A200081ADAD838282818181ADADADADADADADE6
:104A3000ADADADADADADADADADADAD83828281817E
:104A400081ADAD838282818181ADAD83828281819E
:104A500081ADAD838282818181ADAD83828281818E
:104A600081ADAD838282818181ADAD83828281817E
:104A700081ADAD858687878685ADAD85868787863E
:104A800085ADAD858687878685ADAD85868787862A
:104A900085ADAD858687878685ADAD85868787861A
:104AA00085ADAD858687878685ADAD85868787860A
:104AB00085ADAD818181828283ADAD81818182822C
:104AC00083ADAD818181828283ADAD81818182821E
:104AD00083ADAD818181828283ADAD81818182820E
:104AE00083ADAD818181828283ADAD8181818282FE
:104AF00083ADAD838282818181ADAD8382828181EC
:104B000081ADAD838282818181ADAD8382828181DD
:104B100081ADAD838282818181ADAD8382828181CD
:104B200081ADAD838282818181ADAD8382828181BD
:104B300081ADAD81818182828383AD8181818282D9
:104B40008383AD81818182828383AD8181818282F1
:104B500083ADAD818181828283ADAD81818182828D
:104B600083ADAD818181828283ADAD81818182827D
:104B700083AD8585868787868585858586878786B3
:104B800085858585868787868585ADADADADADADDF
:104B9000ADAD0000000000000000000000000000BB
:104BA0000000000000000000000000000000000005
:104BB000000083838282818181AD838382828181AF
:104BC00081AD83838282818181ADAD838282818147
:104BD00081ADAD838282818181ADAD83828281810D
:104BE00081ADAD838282818181ADAD8382828181FD
:104BF00081ADAD818181828283ADAD8181818282EF
:104C00008383AD81818182828383AD818181828230
:104C10008383AD81818182828383AD818181828220
:104C20008383AD81818182828383AD818181828210
:104C30008383ADADADADADADADAD858586878786E2
:104C400085AD85858687878685AD858586878786B8
:104C500085AD85858687878685AD858586878786A8
:104C600085AD85858687878685AD85858687878698
:104C700085ADAD818181828283ADAD81818182826A
:104C800083ADAD818181828283ADAD81818182825C
:104C900083ADAD818181828283ADAD81818182824C
:104CA00083ADAD81818182828383AD818181828266
:104CB00083830000000000000000000000000000EE
:104CC00000000000000000000000000000000000E4
:104CD00000000000000000000000ADADADADADADC6
:104CE000ADAD85858687878685AD858586878786F0
:104CF00085ADAD818181828283ADAD8181818282EA
:104D00008383AD81818182828383AD81818182822F
:104D10008383AD81818182828383AD81818182821F
:104D20008383AD81818182828383AD81818182820F
:104D300083ADAD838282818181AD838382828181D3
:104D400081AD83838282818181AD838382828181EF
:104D500081AD83838282818181AD838382828181DF
:104D600081AD83838282818181ADAD8382828181A5
:104D700081ADAD81818182828383AD818181828297
:104D80008383AD81818182828383AD8181818282AF
:104D90008383AD81818182828383AD81818182829F
:104DA0008383AD81818182828383AD81818182828F
:104DB00083AD85858687878685AD85858687878649
:104DC00085AD85858687878685AD85858687878637
:104DD00085AD85858687878685AD85858687878627
:104DE00085AD85858687878685ADADADADADADAD2D
:104DF000ADADAD81818182828383AD8181818282EB
:104E00008383AD81818182828383AD81818182822E
:104E10008383AD818181828283ADAD8181818282F4
:104E200083ADAD818181828283ADAD8181818282BA
:104E300083AD85858687878685AD858586878786C8
:104E400085AD85858687878685AD858586878786B6
:104E500085ADADADADADADADADAD000000000000B8
:104E60000000000000000000000000000000000042
:104E70000000AD858687878685ADAD858687878668
:104E800085ADAD858687878685ADAD858687878626
:104E900085ADAD858687878685ADAD858687878616
:104EA00085ADAD858687878685ADADADADADADAD44
:104EB000ADADAD818181828283ADAD818181828200
:104EC00083ADAD818181828283ADAD81818182821A
:104ED00083ADAD818181828283ADAD81818182820A
:104EE00083ADAD818181828283ADADADADADADAD20
:104EF000ADADAD838282818181ADAD8382828181BE
:104F000081ADAD838282818181ADAD8382828181D9
:104F100081ADAD838282818181ADAD8382828181C9
:104F200081ADAD838282818181ADADADADADADADE1
:104F3000ADADAD818181828283ADAD81818182827F
:104F400083ADAD81818182828383AD8181818282C3
:104F50008383AD81818182828383AD8181818282DD
:104F60008383AD81818182828383ADADADADADADF3
:104F7000ADAD0000000000000000ADADADADADADC9
:104F8000ADAD858586878786858585858687878675
:104F900085858585868787868585858586878786B5
:104FA00085858585868787868585ADADADADADADBB
:104FB000ADADAD838282818181ADAD8382828181FD
:104FC00081AD83838282818181AD8383828281816D
:104FD00081AD83838282818181AD8383828281815D
:104FE00081AD83838282818181ADADADADADADAD4B
:104FF000ADAD000000000000000000000000000057
:1050000000000000000000000000000000000000A0
:105010000000000000000000000000000000000090
:105020000000000000000000000000000000000080
:1050300000000000000000000000000000FFFF0072
:105040000000000000FFFF000000000000FFFF0064
:105050000000000000FFFF00000000000000000052
:105060000000000000FFFF00000000000000000042
:105070000000000000000000000000FFFF0000FF33
:10508000FF0000FFFF0000FFFF0000FFFF0000FF28
:10509000FF00000000000000000000000000000011
:1050A0000000000000000000000000000000000000
:1050B0000000000000000000000000FFFF0000FFF3
:1050C000FF00FFFFFFFFFFFFFFFF00FFFF0000FFEC
:1050D000FF0000FFFF0000FFFF00FFFFFFFFFFFFDB
:1050E000FFFF00FFFF0000FFFF00000000000000C6
:1050F0000000000000FFFF0000000000FFFFFFFFB6
:10510000FF0000FFFF00000000000000FFFFFFFFA6
:1051100000000000000000FFFF0000FFFFFFFFFF96
:105120000000000000FFFF00000000000000000081
:105130000000000000000000000000FFFF0000FF72
:10514000FF0000FFFF00FFFF0000000000FFFF0066
:1051500000000000FFFF0000000000FFFF0000FF54
:10516000FF0000FF000000FFFF0000000000000043
:105170000000000000FFFFFF00000000FFFF00FF35
:10518000FF00000000FFFFFF00000000FFFFFF0026
:10519000000000FFFF00FFFFFFFF00FFFF0000FF18
:1051A000FF000000FFFFFF00FFFF00000000000005
:1051B00000000000000000000000000000FFFF00F1
:1051C0000000000000FFFF000000000000FFFF00E3
:1051D00000000000000000000000000000000000CF
:1051E00000000000000000000000000000000000BF
:1051F0000000000000000000000000000000FFFFB1
:10520000FF00000000FFFFFF0000000000FFFF00A4
:105210000000000000FFFF000000000000FFFFFF93
:10522000000000000000FFFFFF0000000000000081
:105230000000000000000000000000FFFFFF000071
:1052400000000000FFFFFF000000000000FFFF0063
:105250000000000000FFFF0000000000FFFFFF0053
:10526000000000FFFFFF0000000000000000000041
:105270000000000000000000000000FFFF0000FF31
:10528000FF000000FFFFFFFF0000FFFFFFFFFFFF29
:10529000FFFF0000FFFFFFFF000000FFFF0000FF17
:1052A000FF000000000000000000000000000000FF
:1052B00000000000000000000000000000FFFF00F0
:1052C0000000000000FFFF00000000FFFFFFFFFFE5
:1052D000FF00000000FFFF000000000000FFFF00D3
:1052E00000000000000000000000000000000000BE
:1052F00000000000000000000000000000000000AE
:10530000000000000000000000000000000000009D
:1053100000000000000000000000000000FFFF008F
:105320000000000000FFFF0000000000FFFF000081
:10533000000000000000000000000000000000006D
:105340000000000000000000000000FFFFFFFFFF62
:10535000FF0000000000000000000000000000004E
:10536000000000000000000000000000000000003D
:10537000000000000000000000000000000000002D
:10538000000000000000000000000000000000001D
:1053900000000000000000000000000000FFFF000F
:1053A0000000000000FFFF000000000000000000FF
:1053B000000000000000000000000000000000FFEE
:1053C000FF0000000000FFFF0000000000FFFF00E2
:1053D00000000000FFFF0000000000FFFF000000D1
:1053E000000000FF000000000000000000000000BE
:1053F000000000000000000000000000FFFFFFFFB1
:10540000000000FFFF0000FFFF0000FFFF00FFFFA4
:10541000FF0000FFFFFF00FFFF0000FFFF0000FF95
:10542000FF000000FFFFFFFF000000000000000081
:1054300000000000000000000000000000FFFF006E
:1054400000000000FFFFFF000000000000FFFF0061
:105450000000000000FFFF000000000000FFFF0050
:10546000000000FFFFFFFFFFFF0000000000000042
:10547000000000000000000000000000FFFFFFFF30
:10548000000000FFFF0000FFFF0000000000FFFF22
:105490000000000000FFFF0000000000FFFF000010
:1054A000000000FFFFFFFFFFFF0000000000000002
:1054B0000000000000000000000000FFFFFFFFFFF1
:1054C000FF0000000000FFFF0000000000FFFF00E1
:1054D000000000000000FFFF000000FFFF0000FFD1
:1054E000FF000000FFFFFFFF0000000000000000C1
:1054F0000000000000000000000000000000FFFFAE
:105500000000000000FFFFFF00000000FFFFFFFFA2
:10551000000000FFFF00FFFF000000FFFFFFFFFF94
:10552000FF0000000000FFFF00000000000000007E
:105530000000000000000000000000FFFFFFFFFF70
:10554000FF0000FFFF000000000000FFFFFFFFFF63
:1055500000000000000000FFFF0000FFFF0000FF50
:10556000FF000000FFFFFFFF000000000000000040
:10557000000000000000000000000000FFFFFFFF2F
:10558000000000FFFF000000000000FFFFFFFFFF22
:10559000000000FFFF0000FFFF0000FFFF0000FF12
:1055A000FF000000FFFFFFFF000000000000000000
:1055B0000000000000000000000000FFFFFFFFFFF0
:1055C000FF000000000000FFFF0000000000FFFFE0
:1055D0000000000000FFFF0000000000FFFF0000CF
:1055E00000000000FFFF00000000000000000000BD
:1055F000000000000000000000000000FFFFFFFFAF
:10560000000000FFFF0000FFFF000000FFFFFFFFA2
:10561000000000FFFF0000FFFF0000FFFF0000FF91
:10562000FF000000FFFFFFFF00000000000000007F
:10563000000000000000000000000000FFFFFFFF6E
:10564000000000FFFF0000FFFF000000FFFFFFFF62
:10565000FF000000000000FFFF0000000000FFFF4F
:1056600000000000FFFFFF0000000000000000003D
:10567000000000000000000000000000000000002A
:105680000000000000FFFF000000000000FFFF001E
:1056900000000000000000000000000000FFFF000C
:1056A0000000000000FFFF000000000000000000FC
:1056B00000000000000000000000000000000000EA
:1056C0000000000000FFFF000000000000FFFF00DE
:1056D00000000000000000000000000000FFFF00CC
:1056E0000000000000FFFF0000000000FFFF0000BE
:1056F00000000000000000FFFF0000000000FFFFAE
:105700000000000000FFFF0000000000FFFF00009D
:105710000000000000FFFF00000000000000FFFF8D
:1057200000000000000000FFFF000000000000007B
:105730000000000000000000000000000000000069
:10574000000000FFFFFFFFFFFF000000000000005F
:105750000000000000000000000000FFFFFFFFFF4E
:10576000FF0000000000000000000000000000003A
:10577000000000FFFF00000000000000FFFF00002D
:105780000000000000FFFF00000000000000FFFF1D
:105790000000000000FFFF0000000000FFFF00000D
:1057A000000000FFFF0000000000000000000000FB
:1057B000000000000000000000000000FFFFFFFFED
:1057C000000000FFFF0000FFFF0000000000FFFFDF
:1057D0000000000000FFFF000000000000000000CB
:1057E0000000000000FFFF000000000000000000BB
:1057F000000000000000000000000000FFFFFFFFAD
:10580000000000FFFF0000FFFF0000FFFF00FFFFA0
:10581000FF0000FFFF00FFFFFF0000FFFF00000090
:1058200000000000FFFFFFFFFF000000000000007D
:1058300000000000000000000000000000FFFF006A
:1058400000000000FFFFFFFF000000FFFF0000FF5F
:10585000FF0000FFFF0000FFFF0000FFFFFFFFFF52
:10586000FF0000FFFF0000FFFF000000000000003D
:105870000000000000000000000000FFFFFFFFFF2D
:10588000000000FFFF0000FFFF0000FFFFFFFFFF21
:10589000000000FFFF0000FFFF0000FFFF0000FF0F
:1058A000FF0000FFFFFFFFFF0000000000000000FE
:1058B000000000000000000000000000FFFFFFFFEC
:1058C000000000FFFF0000FFFF0000FFFF000000DE
:1058D000000000FFFF000000000000FFFF0000FFCD
:1058E000FF000000FFFFFFFF0000000000000000BD
:1058F0000000000000000000000000FFFFFFFF00AC
:10590000000000FFFF00FFFF000000FFFF0000FF9E
:10591000FF0000FFFF0000FFFF0000FFFF00FFFF90
:10592000000000FFFFFFFF0000000000000000007B
:105930000000000000000000000000FFFFFFFFFF6C
:10594000FF0000FFFF000000000000FFFFFFFFFF5F
:10595000000000FFFF000000000000FFFF0000004B
:10596000000000FFFFFFFFFFFF000000000000003D
:105970000000000000000000000000FFFFFFFFFF2C
:10598000FF0000FFFF000000000000FFFFFFFFFF1F
:10599000000000FFFF000000000000FFFF0000000B
:1059A000000000FFFF0000000000000000000000F9
:1059B000000000000000000000000000FFFFFFFFEB
:1059C000FF0000FFFF000000000000FFFF000000DC
:1059D000000000FFFF00FFFFFF0000FFFF0000FFCF
:1059E000FF000000FFFFFFFFFF00000000000000BD
:1059F0000000000000000000000000FFFF0000FFAA
:105A0000FF0000FFFF0000FFFF0000FFFFFFFFFFA0
:105A1000FF0000FFFF0000FFFF0000FFFF0000FF8E
:105A2000FF0000FFFF0000FFFF000000000000007B
:105A30000000000000000000000000FFFFFFFFFF6B
:105A4000FF00000000FFFF000000000000FFFF005B
:105A50000000000000FFFF000000000000FFFF004A
:105A6000000000FFFFFFFFFFFF000000000000003C
:105A70000000000000000000000000000000FFFF28
:105A8000FF000000000000FFFF000000000000FF1A
:105A9000FF000000000000FFFF0000FFFF0000FF0C
:105AA000FF000000FFFFFFFF0000000000000000FB
:105AB0000000000000000000000000FFFF0000FFE9
:105AC000FF0000FFFF00FFFF000000FFFFFFFF00DF
:105AD000000000FFFFFFFF00000000FFFF00FFFFCE
:105AE000000000FFFF0000FFFF00000000000000BA
:105AF0000000000000000000000000FFFF000000A8
:105B0000000000FFFF000000000000FFFF00000099
:105B1000000000FFFF000000000000FFFF00000089
:105B2000000000FFFFFFFFFFFF000000000000007B
:105B30000000000000000000000000FFFF00000067
:105B4000FFFF00FFFFFF00FFFFFF00FFFFFFFFFF62
:105B5000FFFF00FFFF00FF00FFFF00FFFF0000004E
:105B6000FFFF00FFFF000000FFFF0000000000003B
:105B70000000000000000000000000FFFF0000FF28
:105B8000FF0000FFFFFF00FFFF0000FFFFFFFFFF20
:105B9000FF0000FFFFFFFFFFFF0000FFFF00FFFF10
:105BA000FF0000FFFF0000FFFF00000000000000FA
:105BB000000000000000000000000000FFFFFFFFE9
:105BC000000000FFFF0000FFFF0000FFFF0000FFDC
:105BD000FF0000FFFF0000FFFF0000FFFF0000FFCD
:105BE000FF000000FFFFFFFF0000000000000000BA
:105BF0000000000000000000000000FFFFFFFFFFAA
:105C0000000000FFFF0000FFFF0000FFFF0000FF9B
:105C1000FF0000FFFFFFFFFF000000FFFF0000008C
:105C2000000000FFFF000000000000000000000076
:105C3000000000000000000000000000FFFFFFFF68
:105C4000000000FFFF0000FFFF0000FFFF0000FF5B
:105C5000FF0000FFFF0000FFFF0000FFFF00FFFF4D
:105C600000000000FFFF00FFFF0000000000000038
:105C70000000000000000000000000FFFFFFFFFF29
:105C8000000000FFFF0000FFFF0000FFFF0000FF1B
:105C9000FF0000FFFFFFFFFF000000FFFF00FFFF0E
:105CA000000000FFFF0000FFFF00000000000000F8
:105CB000000000000000000000000000FFFFFFFFE8
:105CC000000000FFFF00000000000000FFFFFFFFDA
:105CD00000000000000000FFFF000000000000FFC7
:105CE000FF000000FFFFFFFF0000000000000000B9
:105CF0000000000000000000000000FFFFFFFFFFA9
:105D0000FF00000000FFFF000000000000FFFF0098
:105D10000000000000FFFF000000000000FFFF0087
:105D20000000000000FFFF00000000000000000075
:105D30000000000000000000000000FFFF0000FF66
:105D4000FF0000FFFF0000FFFF0000FFFF0000FF5B
:105D5000FF0000FFFF0000FFFF0000FFFF0000FF4B
:105D6000FF0000FFFFFFFFFFFF000000000000003A
:105D70000000000000000000000000FFFF0000FF26
:105D8000FF0000FFFF0000FFFF0000FFFF0000FF1B
:105D9000FF0000FFFF0000FFFF000000FFFFFFFF0C
:105DA0000000000000FFFF000000000000000000F5
:105DB0000000000000000000000000FFFF000000E5
:105DC000FFFF00FFFF000000FFFF00FFFF00FF00DC
:105DD000FFFF00FFFFFFFFFFFFFF00FFFFFF00FFD0
:105DE000FFFF00FFFF000000FFFF000000000000B9
:105DF0000000000000000000000000FFFF0000FFA6
:105E0000FF0000FFFF0000FFFF000000FFFFFFFF9B
:105E100000000000FFFFFFFF000000FFFF0000FF89
:105E2000FF0000FFFF0000FFFF0000000000000077
:105E30000000000000000000000000FFFF0000FF65
:105E4000FF0000FFFF0000FFFF000000FFFFFFFF5B
:105E50000000000000FFFF000000000000FFFF0046
:105E60000000000000FFFF00000000000000000034
:105E70000000000000000000000000FFFFFFFFFF27
:105E8000FF0000000000FFFF0000000000FFFF0017
:105E900000000000FFFF0000000000FFFF00000006
:105EA000000000FFFFFFFFFFFF00000000000000F8
:105EB00000000000000000000000000000FFFFFFE5
:105EC000FF00000000FFFF000000000000FFFF00D7
:105ED0000000000000FFFF000000000000FFFF00C6
:105EE0000000000000FFFFFFFF00000000000000B6
:105EF0000000000000000000000000FF00000000A3
:105F0000000000FFFF00000000000000FFFF000095
:105F10000000000000FFFF00000000000000FFFF85
:105F200000000000000000FFFF0000000000000073
:105F30000000000000000000000000FFFFFFFF0065
:105F40000000000000FFFF000000000000FFFF0055
:105F50000000000000FFFF000000000000FFFF0045
:105F6000000000FFFFFFFF00000000000000000035
:105F70000000000000000000000000000000FF0022
:105F80000000000000FFFFFF00000000FFFF00FF17
:105F9000FF0000FFFF000000FFFF00000000000006
:105FA00000000000000000000000000000000000F1
:105FB00000000000000000000000000000000000E1
:105FC00000000000000000000000000000000000D1
:105FD00000000000000000000000000000000000C1
:105FE0000000FFFFFFFFFFFFFFFF000000000000B9
:105FF00000000000000000000000000000FFFF00A3
:1060000000000000FFFFFFFF000000FFFFFFFFFF99
:10601000FF0000FFFFFFFFFFFF000000FFFFFFFF8B
:106020000000000000FFFF00000000000000000072
:106030000000000000000000000000000000000060
:1060400000000000FFFFFFFF00000000000000FF55
:10605000FF000000FFFFFFFFFF0000FFFF0000FF49
:10606000FF000000FFFFFFFFFF0000000000000036
:106070000000000000000000000000FFFF00000022
:10608000000000FFFF000000000000FFFFFFFFFF17
:10609000000000FFFF0000FFFF0000FFFF0000FF07
:1060A000FF0000FFFFFFFFFF0000000000000000F6
:1060B00000000000000000000000000000000000E0
:1060C00000000000FFFFFFFF000000FFFF000000D6
:1060D000000000FFFF000000000000FFFF000000C4
:1060E00000000000FFFFFFFF0000000000000000B4
:1060F000000000000000000000000000000000FFA1
:10610000FF000000000000FFFF000000FFFFFFFF96
:10611000FF0000FFFF0000FFFF0000FFFF0000FF87
:10612000FF000000FFFFFFFFFF0000000000000075
:10613000000000000000000000000000000000005F
:1061400000000000FFFFFFFF000000FFFF0000FF56
:10615000FF0000FFFFFFFFFFFF0000FFFF00000048
:1061600000000000FFFFFFFF000000000000000033
:106170000000000000000000000000000000FFFF21
:10618000FF00000000FFFF0000000000FFFFFFFF16
:10619000FF00000000FFFF000000000000FFFF0004
:1061A0000000000000FFFF000000000000000000F1
:1061B00000000000000000000000000000000000DF
:1061C00000000000FFFFFFFFFF0000FFFF0000FFD7
:1061D000FF0000FFFF0000FFFF000000FFFFFFFFC8
:1061E000FF000000000000FFFF0000FFFFFFFFFFB7
:1061F0000000000000000000000000FFFF000000A1
:10620000000000FFFF000000000000FFFFFFFFFF95
:10621000000000FFFF0000FFFF0000FFFF0000FF85
:10622000FF0000FFFF0000FFFF0000000000000073
:1062300000000000000000000000000000FFFF0060
:10624000000000000000000000000000FFFFFF0051
:106250000000000000FFFF000000000000FFFF0042
:1062600000000000FFFFFFFF000000000000000032
:10627000000000000000000000000000000000FF1F
:10628000FF0000000000000000000000000000FF10
:10629000FF000000000000FFFF000000000000FF02
:1062A000FF000000000000FFFF000000FFFFFFFFF5
:1062B0000000000000000000000000FFFF000000E0
:1062C000000000FFFF000000000000FFFF00FFFFD4
:1062D000000000FFFFFFFF00000000FFFF00FFFFC6
:1062E000000000FFFF0000FFFF00000000000000B2
:1062F000000000000000000000000000FFFFFF00A1
:106300000000000000FFFF000000000000FFFF0091
:106310000000000000FFFF000000000000FFFF0081
:1063200000000000FFFFFFFF000000000000000071
:10633000000000000000000000000000000000005D
:10634000000000FFFF0000FFFF0000FFFFFFFFFF56
:10635000FFFF00FFFFFFFFFFFFFF00FFFF00FF0049
:10636000FFFF00FFFF000000FFFF00000000000033
:10637000000000000000000000000000000000001D
:10638000000000FFFFFFFFFF000000FFFF0000FF15
:10639000FF0000FFFF0000FFFF0000FFFF0000FF05
:1063A000FF0000FFFF0000FFFF00000000000000F2
:1063B00000000000000000000000000000000000DD
:1063C00000000000FFFFFFFF000000FFFF0000FFD4
:1063D000FF0000FFFF0000FFFF0000FFFF0000FFC5
:1063E000FF000000FFFFFFFF0000000000000000B2
:1063F000000000000000000000000000000000009D
:10640000000000FFFFFFFFFF000000FFFF0000FF94
:10641000FF0000FFFF0000FFFF0000FFFFFFFFFF86
:10642000000000FFFF000000000000FFFF00000070
:10643000000000000000000000000000000000005C
:1064400000000000FFFFFFFFFF0000FFFF0000FF54
:10645000FF0000FFFF0000FFFF000000FFFFFFFF45
:10646000FF000000000000FFFF000000000000FF30
:10647000FF0000000000000000000000000000001D
:10648000000000FFFFFFFFFF000000FFFF0000FF14
:10649000FF0000FFFF000000000000FFFF00000001
:1064A000000000FFFF0000000000000000000000EE
:1064B00000000000000000000000000000000000DC
:1064C00000000000FFFFFFFFFF0000FFFF000000D3
:1064D00000000000FFFFFFFF00000000000000FFC1
:1064E000FF0000FFFFFFFFFF0000000000000000B2
:1064F00000000000000000000000000000FFFF009E
:10650000000000FFFFFFFFFFFF00000000FFFF0093
:106510000000000000FFFF000000000000FFFF007F
:10652000000000000000FFFFFF000000000000006E
:10653000000000000000000000000000000000005B
:10654000000000FFFF0000FFFF0000FFFF0000FF52
:10655000FF0000FFFF0000FFFF0000FFFF0000FF43
:10656000FF000000FFFFFFFFFF0000000000000031
:10657000000000000000000000000000000000001B
:10658000000000FFFF0000FFFF0000FFFF0000FF12
:10659000FF0000FFFF0000FFFF000000FFFFFFFF04
:1065A0000000000000FFFF000000000000000000ED
:1065B00000000000000000000000000000000000DB
:1065C000000000FFFF000000FFFF00FFFF00FF00D2
:1065D000FFFF00FFFFFFFFFFFFFF0000FFFFFFFFC8
:1065E000FF000000FFFF00FFFF00000000000000B0
:1065F000000000000000000000000000000000009B
:10660000000000FFFF0000FFFF000000FFFFFFFF92
:106610000000000000FFFF0000000000FFFFFFFF80
:10662000000000FFFF0000FFFF000000000000006E
:10663000000000000000000000000000000000005A
:10664000000000FFFF0000FFFF0000FFFF0000FF51
:10665000FF0000FFFF0000FFFF000000FFFFFFFF43
:10666000FF0000000000FFFF000000FFFFFFFF0031
:10667000000000000000000000000000000000001A
:10668000000000FFFFFFFFFFFF0000000000FFFF12
:106690000000000000FFFF0000000000FFFF0000FE
:1066A000000000FFFFFFFFFFFF00000000000000F0
:1066B00000000000000000000000000000FFFF00DC
:1066C00000000000FFFFFFFF000000FFFFFFFFFFD3
:1066D000FF0000FFFFFFFFFFFF00000000FFFF00C3
:1066E00000000000FFFFFFFF0000000000000000AE
:1066F0000000000000FFFF000000000000FFFF009E
:106700000000000000FFFF000000000000FFFF008D
:106710000000000000FFFF000000000000FFFF007D
:106720000000000000FFFF000000000000FFFF006D
:106730000000000000000000000000FFFFFFFFFF5E
:10674000FF0000FFFFFFFF00000000FFFFFFFFFF53
:10675000000000FFFF00FFFFFF0000FFFF0000FF41
:10676000FF000000000000FFFF000000000000002C
:10677000000000000000FF000000000000FFFF001C
:1067800000000000FFFFFF00000000FFFFFFFF0010
:1067900000000000FFFFFF000000000000FFFF00FE
:1067A000000000000000FF000000000000000000EA
:1067B0000000000000FF00000000000000FFFF00DC
:1067C0000000000000FFFFFF0000000000FFFFFFCF
:1067D000FF00000000FFFFFF0000000000FFFF00BF
:1067E0000000000000FF00000000000000000000AA
:1067F000000011241FBECFEFD0E1DEBFCDBF14E0FB
:10680000A0E0B1E0EEE4F8EA02C005900D92AA3DE6
:10681000B107D9F71EE0A0EEB4E001C01D92A23C82
:10682000B107E1F714BE88E10FB6F89480936000D9
:10683000109260000FBE0E941739811102C00E94A1
:10684000F538F894E1E0FCE080E881932EE0ED304B
:10685000F207D9F781E09CE090930E0E80930D0E25
:1068600010920F0E1092120E1092180E10921E0E11
:106870001092240E1092D20B1092D40B82E18093CE
:10688000D30B80EE8093DC0B8093DA0B84E1809352
:10689000DB0B8093D90B1092E00B1092DF0B109260
:1068A000E40B1092E30B81E08093110E0E949C4553
:1068B00082E890E0FC0125913491F901FF273083B3
:1068C000029620E0803B9207A9F778940E945B46ED
:1068D0000E948F510C9425540C9400000CE00A95F2
:1068E000F1F7ECE9FBE0C0EED4E02091B00E002718
:1068F000A081B181AC0FBD1F1C911283021708F457
:10690000102F1C93339603950D3090F300E316E09F
:106910001A95F1F70A95D9F72090CF0B3090D00B4C
:106920000091CB0B1091CC0B680138018CE1C0EECB
:10693000D4E04E0100243091CE0B303009F0C8E293
:1069400009F0D8E009F0832F09F0610100EEA02ED4
:10695000662778E07ED236E23A95F1F700000E9491
:10696000E0343FE03A95F1F700000000AA94A9F066
:106970006395C895683031F033E03A95F1F700003F
:106980000000E8CF662700243EE1C30FD01D8A95A2
:1069900009F4E40109F46301DDCF36E03A95F1F73B
:1069A00058D211240E940044E091D40B42E0E160EF
:1069B000E427E093D40BE2E0E0933600112408953D
:1069C000DE01679F860100541340000D111D180160
:1069D0000CE518E0000D111D280130E41EE12D9199
:1069E000239FA1012D3008F4A201040E151EF00111
:1069F0002D30F0F0059108B92D91059108B9239F2C
:106A0000059108B92D300000059108B908F4A201DC
:106A1000059108B9040E151E059108B92D301A9577
:106A2000059108B9059131F1F00108B918F700C0D6
:106A3000019108B92D910191000008B9239F01919E
:106A4000000008B92D3000C0019108B908F0A1017B
:106A50000191040E08B9151E00C0019108B92D302E
:106A600000C0019108B901911A9521F0F00108B90F
:106A700008F6DECF08B90027C895000008B90895C8
:106A800020E4E091CB0BF091CC0B8D50829FE00D78
:106A9000F11DACE5B8E0629FA00DB11D002405908A
:106AA0000D9205900D9205900D9205900D92059016
:106AB0000D9205900D9205900D9205900D92059006
:106AC0000D9205900D9205900D9205900D920590F6
:106AD0000D9205900D9205900D9205900D920590E6
:106AE0000D9205900D9205900D9205900D920590D6
:106AF0000D9205900D9205900D9205900D920590C6
:106B00000D9205900D9205900D9205900D920590B5
:106B10000D9205900D9205900D9205900D920590A5
:106B20000D9205900D9205900D9205900D92059095
:106B30000D9205900D9205900D9205900D92059085
:106B40000D9205900D9205900D9205900D92059075
:106B50000D9205900D9205900D9205900D92059065
:106B60000D9205900D9205900D9205900D92059055
:106B70000D9205900D9205900D9205900D92059045
:106B80000D9205900D9205900D9205900D92059035
:106B90000D9205900D9205900D9205900D92112485
:106BA00008950F931F93CF93DF9394E0899FE8E2BA
:106BB000F8E0E00DF11D03818281E0E48E9FD001B9
:106BC00098E0099FC3ECDBE00024C10DD01DE881F3
:106BD000F981EA0FFB1FACE5B8E090E4699FA00DD6
:106BE000B11D1124DD27403051F4A20FB11D822FB9
:106BF000C22F00FF11C03796C0E1C21B0DC088E054
:106C0000821B00FD04C0C82FE80FF11D05C0C8E0BD
:106C1000C20FE20FF11D3197503041F498E0939F7D
:106C2000A00DB11D932F01FDF8960AC098E0931BAB
:106C3000632F6A9501FF692F58E0569FE00DF11D03
:106C40006FEF7FEF00FF61E000FF772701FD6097A6
:106C500011243EEF58E0591B48E0481B24912313B0
:106C60002C931196E60FF71F4A95C1F7EC0FFD1F05
:106C7000A80FB11D5A9581F7DF91CF911F910F9108
:106C800008950F921F92EF93FF93EFB7EF93E09168
:106C90008400E251F1E0EF1700F0F395FA30D8F3F9
:106CA0000C945236E091D30BEA95E093D30BF0911C
:106CB000D20BF0FD57C0EC3098F0F3E0F093890070
:106CC000FDE8F0938800E0FB289826F4E1E00E94BC
:106CD0002738B8C0E5E1EA95F1F70000289AB2C07C
:106CE000E63038F100C000C02898E0FBE4E016F47C
:106CF0000E942738E4E0E0933600E6E0E0936F007E
:106D0000A1C0EF93EFB7EF93E0918400ED55E13030
:106D100000F0E23000F0E33000F0E43000F0E53065
:106D200000F0289AE2E0E0936F00EF91EFBFEF915F
:106D3000189500C0E0FB289826F4E1E00E9427386F
:106D400005C0E5E1EA95F1F70000289AE091D30B40
:106D5000E03009F077C0EDEFE093D30BE1E0E09392
:106D6000D20B70C0E7E0E0938900EBE1E09388008C
:106D700000C02898E2E000C00E942738FDEF009094
:106D8000D90BF019E091D30BEF17E0F4FDEF009071
:106D9000D90BF0190090DA0BF019EF1798F0EDE12C
:106DA000FF2700800F92EA95E1F70FE10A95F1F7CE
:106DB000000000000E946E34E1E0FF270F90019276
:106DC000EE31E0F3E091D30BE03009F03BC02F93BC
:106DD0003F934F935F936F937F938F939F93AF9363
:106DE000BF9378941124EE27E093D20BE2E1E09375
:106DF000D30BF091DB0BF093D90BF091DC0BF093FC
:106E0000DA0BE091D50BF091D60BE115F10509F005
:106E100009950E94E5380E94E1460E94343711240A
:106E2000E091D70BF091D80BE115F10509F0099528
:106E3000BF91AF919F918F917F916F915F914F9192
:106E40003F912F91EF91EFBFFF91EF911F900F9026
:106E500018952898E2E000C00E942738E091D30BF3
:106E6000EA95E093D30B0895E091110EE0FD0E94A6
:106E7000883B00900F0E002019F4A1E0BCE002C096
:106E8000A7E0BDE021E0022600920F0E22E0209351
:106E9000100EE091110EE0FF08952F923F924F9255
:106EA0005F926F927F928F929F92AF92BF92CF929A
:106EB000DF92EF92FF920F931F93CF93DF93509146
:106EC000240E6091280E7091290E8091270E40901B
:106ED000250E5090260E662480902C0E90902D0E3C
:106EE000E0912A0EF0912B0E5401AE1ABF0A1D013B
:106EF000C3E8840D651D761D6815790510F06A19C3
:106F00007B09FB01449145031D92840D651D761D8F
:106F10006815790510F06A197B09FB014491450356
:106F20001D92CA9531F7D1012090130E3090140EA6
:106F30004090160E5090170E6090150E1091120E84
:106F40007090190E80901A0E90901B0EA0901C0E3F
:106F5000B0901D0E2091180EC0901F0ED090200EE4
:106F6000E090220EF090230E0091210E30911E0E23
:106F70009FEFCC91DD27C7FDDFEF620C431CF201D0
:106F8000449141030008C10DD01D970CA81CF501C8
:106F9000449142030008C10DD01D0C0DED1CF701FA
:106FA000449143030008C10DD01D0024C038D00512
:106FB0000CF0CFE70A94C038D0050CF4C0E8C058F4
:106FC000CD939A9509F0D5CF4091100E4A954093F4
:106FD000100E97E009F0CDCF6092150E4092160E7C
:106FE00090921B0EA0921C0E0093210EE092220E96
:106FF0005093240E6093280E7093290E8093270ED1
:10700000DF91CF911F910F91FF90EF90DF90CF9084
:10701000BF90AF909F908F907F906F905F904F90B8
:107020003F902F900895E0910D0EF0910E0E01917A
:1070300000000093B3000EE0ED30F00701E01CE02B
:1070400008F0F801E0930D0EF0930E0E08950F93E3
:107050001F932F93EF93E0910D0EF0910E0E01917F
:107060000093B3000EE0ED30F00701E01CE008F003
:10707000F801E0930D0EF0930E0EE8E0EA95F1F7BB
:10708000EF912F911F910F91E0FD289AE0FF01C031
:107090000895F4E1FA95F1F700C0E1FD289AE1FFC7
:1070A00000C008958093C30B9093C40B0895E8E447
:1070B000F3E0A0EEB4E06DE06D933197E9F71124B1
:1070C00008955091CD0B450F00C0992777272EE1E9
:1070D000629F080E191EA0EEB4E0A00DB11D435F23
:1070E0004C93112408958093CD0B08958093CB0B7E
:1070F0009093CC0B08958091D40B817008952091CA
:10710000D40B2E7F2093D40B0895882329F48091EB
:10711000DD0B9091DE0B08958091E10B9091E20BD5
:107120000895F999FECF92BD81BD60BDF894FA9A99
:10713000F99A78940895F999FECF92BD81BDF8949B
:10714000F89A80B57894089598E088E10FB6F8949D
:10715000A895809360000FBE90936000FFCF129AB5
:10716000C895C895C895C895129840E180E090E010
:1071700020E030E03695279596958795C895C89577
:10718000C895C8951398009B3068019B9068139A26
:10719000C895C895C895C895415061F73093DE0BE6
:1071A0002093DD0B9093E20B8093E10B8091DD0B3C
:1071B0009091DE0B0F9731F08091E10B9091E20BF3
:1071C0000F9711F40E94A43808951092450E00996B
:1071D00003C081E08093450E019905C08091450E62
:1071E00082608093450E0C94AF38CF93DF93C0E05C
:1071F000D0E0FE01E055FF4F6491CE010E9491382E
:107200002196C032D105A9F7C0E2D0E06FEFCE01E0
:107210000E9491386FEFCE0101960E949138A0969E
:10722000C11588E0D80791F7DF91CF910895CF93EA
:1072300080E090E00E949B38C82F81E090E00E949F
:107240009B38282F30E0322F22272C0F311D81E070
:107250002A35354509F080E0CF910895CF92DF922D
:10726000EF92FF920F931F93CF93DF931F92CDB7AF
:10727000DEB76C010E941739882309F44DC0F6016E
:10728000808191818F3FFFEF9F0709F447C08A35C6
:10729000954509F443C000E210E0F12C41E0C8013B
:1072A00049830E949B38E82EC80101960E949B38B2
:1072B000282F30E0322F2227C9018E0D911DF601B3
:1072C0002081318149818217930719F4FF2089F0C9
:1072D0000CC0019619F4F11001C0F42E4F5F005E4E
:1072E0001F4F4034E1F6FF20D9F020E2F29E8001EA
:1072F0001124760180E2E80EF11C0C191D09C6016B
:10730000800F911FF60161916F010E949138CE1498
:10731000DF04A9F780E005C084E003C081E001C07C
:1073200082E00F90DF91CF911F910F91FF90EF902E
:10733000DF90CF900895DF92EF92FF920F931F930B
:10734000CF93DF937C01EB010E941739882389F1E9
:107350008FEFE816F80679F100E010E0C8010E940E
:107360009B38D82EC80101960E949B38282F30E008
:10737000322F22272D0D311D2E153F0539F47E01A8
:1073800080E2E80EF11C0C1B1D0B08C0005E1F4FB5
:10739000011584E0180711F783E00EC0CE01800FBD
:1073A000911F0E949B388993CE15DF05B9F780E0C5
:1073B00003C084E001C081E0DF91CF911F910F9164
:1073C000FF90EF90DF900895FC01458708950895A0
:1073D000FC0190819F7590830895FC0190819064D9
:1073E00090830895FC0144870895FC014783089524
:1073F000FC01408708951F93CF93DF93EC01162F74
:10740000298130E0F901EE0FFF1FE85FF348659135
:107410007491F901E40FF11D47FDFA95EE0FFF1F7E
:10742000E85FF34885919491861B970B60914D0E10
:1074300070E00E94F5516115710511F461E070E092
:1074400086E0189FF0011124EE5EF14F8181928158
:10745000860F971F928381837B836A8388818860EC
:1074600088838981480F4C83DF91CF911F910895C4
:1074700040934D0E0895862F642F0C94C63DFC0159
:10748000862F9181642F690F61830C94B23DFC01BA
:10749000862F9181692F641B61830C94B23D0F93F9
:1074A0001F93CF93DF931F92CDB7DEB78C01862F4A
:1074B000642F49830E94B23D4981F8014183808154
:1074C000877F80830F90DF91CF911F910F91089557
:1074D0009093A30E8093A20E8FE68093A50E109238
:1074E000000CE6E5FEE080E19FEF28E1DF011E975A
